{
  "_format": "hh-sol-artifact-1",
  "contractName": "TimeLimitedToken",
  "sourceName": "contracts/TimeLimitedToken.sol",
  "abi": [
    {
      "inputs": [],
      "stateMutability": "nonpayable",
      "type": "constructor"
    },
    {
      "anonymous": false,
      "inputs": [
        {
          "indexed": true,
          "internalType": "address",
          "name": "owner",
          "type": "address"
        },
        {
          "indexed": true,
          "internalType": "address",
          "name": "approved",
          "type": "address"
        },
        {
          "indexed": true,
          "internalType": "uint256",
          "name": "tokenId",
          "type": "uint256"
        }
      ],
      "name": "Approval",
      "type": "event"
    },
    {
      "anonymous": false,
      "inputs": [
        {
          "indexed": true,
          "internalType": "address",
          "name": "owner",
          "type": "address"
        },
        {
          "indexed": true,
          "internalType": "address",
          "name": "operator",
          "type": "address"
        },
        {
          "indexed": false,
          "internalType": "bool",
          "name": "approved",
          "type": "bool"
        }
      ],
      "name": "ApprovalForAll",
      "type": "event"
    },
    {
      "anonymous": false,
      "inputs": [
        {
          "indexed": true,
          "internalType": "address",
          "name": "_from",
          "type": "address"
        },
        {
          "indexed": false,
          "internalType": "string",
          "name": "_tokenURI",
          "type": "string"
        }
      ],
      "name": "AssetCreated",
      "type": "event"
    },
    {
      "anonymous": false,
      "inputs": [
        {
          "indexed": true,
          "internalType": "address",
          "name": "_to",
          "type": "address"
        },
        {
          "indexed": true,
          "internalType": "uint256",
          "name": "_tokenId",
          "type": "uint256"
        },
        {
          "indexed": false,
          "internalType": "uint256",
          "name": "_start",
          "type": "uint256"
        },
        {
          "indexed": false,
          "internalType": "uint256",
          "name": "_end",
          "type": "uint256"
        }
      ],
      "name": "LeaseApproval",
      "type": "event"
    },
    {
      "anonymous": false,
      "inputs": [
        {
          "indexed": true,
          "internalType": "address",
          "name": "_from",
          "type": "address"
        },
        {
          "indexed": true,
          "internalType": "address",
          "name": "_operator",
          "type": "address"
        },
        {
          "indexed": false,
          "internalType": "bool",
          "name": "_approved",
          "type": "bool"
        }
      ],
      "name": "LeaseApprovalForAll",
      "type": "event"
    },
    {
      "anonymous": false,
      "inputs": [
        {
          "indexed": true,
          "internalType": "uint256",
          "name": "_tokenId",
          "type": "uint256"
        },
        {
          "indexed": true,
          "internalType": "address",
          "name": "_lessee",
          "type": "address"
        },
        {
          "indexed": true,
          "internalType": "address",
          "name": "_addressTo",
          "type": "address"
        },
        {
          "indexed": false,
          "internalType": "uint256",
          "name": "_start",
          "type": "uint256"
        },
        {
          "indexed": false,
          "internalType": "uint256",
          "name": "_end",
          "type": "uint256"
        }
      ],
      "name": "LeaseTransferred",
      "type": "event"
    },
    {
      "anonymous": false,
      "inputs": [
        {
          "indexed": true,
          "internalType": "uint256",
          "name": "_tokenId",
          "type": "uint256"
        },
        {
          "indexed": true,
          "internalType": "address",
          "name": "_lessee",
          "type": "address"
        },
        {
          "indexed": false,
          "internalType": "uint256",
          "name": "_start",
          "type": "uint256"
        },
        {
          "indexed": false,
          "internalType": "uint256",
          "name": "_end",
          "type": "uint256"
        }
      ],
      "name": "Leased",
      "type": "event"
    },
    {
      "anonymous": false,
      "inputs": [
        {
          "indexed": true,
          "internalType": "address",
          "name": "from",
          "type": "address"
        },
        {
          "indexed": true,
          "internalType": "address",
          "name": "to",
          "type": "address"
        },
        {
          "indexed": true,
          "internalType": "uint256",
          "name": "tokenId",
          "type": "uint256"
        }
      ],
      "name": "Transfer",
      "type": "event"
    },
    {
      "anonymous": false,
      "inputs": [
        {
          "indexed": true,
          "internalType": "uint256",
          "name": "_tokenId",
          "type": "uint256"
        },
        {
          "indexed": true,
          "internalType": "address",
          "name": "_lessee",
          "type": "address"
        },
        {
          "indexed": false,
          "internalType": "uint256",
          "name": "_start",
          "type": "uint256"
        },
        {
          "indexed": false,
          "internalType": "uint256",
          "name": "_end",
          "type": "uint256"
        }
      ],
      "name": "Unleased",
      "type": "event"
    },
    {
      "inputs": [],
      "name": "MAX_DURATION",
      "outputs": [
        {
          "internalType": "uint256",
          "name": "",
          "type": "uint256"
        }
      ],
      "stateMutability": "view",
      "type": "function"
    },
    {
      "inputs": [],
      "name": "MAX_LEASE_DURATION",
      "outputs": [
        {
          "internalType": "uint256",
          "name": "",
          "type": "uint256"
        }
      ],
      "stateMutability": "view",
      "type": "function"
    },
    {
      "inputs": [],
      "name": "MIN_DURATION",
      "outputs": [
        {
          "internalType": "uint256",
          "name": "",
          "type": "uint256"
        }
      ],
      "stateMutability": "view",
      "type": "function"
    },
    {
      "inputs": [],
      "name": "MIN_LEASE_DURATION",
      "outputs": [
        {
          "internalType": "uint256",
          "name": "",
          "type": "uint256"
        }
      ],
      "stateMutability": "view",
      "type": "function"
    },
    {
      "inputs": [],
      "name": "TIMESTAMP",
      "outputs": [
        {
          "internalType": "bool",
          "name": "",
          "type": "bool"
        }
      ],
      "stateMutability": "view",
      "type": "function"
    },
    {
      "inputs": [],
      "name": "TIME_START",
      "outputs": [
        {
          "internalType": "uint256",
          "name": "",
          "type": "uint256"
        }
      ],
      "stateMutability": "view",
      "type": "function"
    },
    {
      "inputs": [],
      "name": "USE_TIMESTAMP",
      "outputs": [
        {
          "internalType": "bool",
          "name": "",
          "type": "bool"
        }
      ],
      "stateMutability": "pure",
      "type": "function"
    },
    {
      "inputs": [
        {
          "internalType": "address",
          "name": "to",
          "type": "address"
        },
        {
          "internalType": "uint256",
          "name": "tokenId",
          "type": "uint256"
        }
      ],
      "name": "approve",
      "outputs": [],
      "stateMutability": "nonpayable",
      "type": "function"
    },
    {
      "inputs": [
        {
          "internalType": "address",
          "name": "",
          "type": "address"
        },
        {
          "internalType": "uint256",
          "name": "",
          "type": "uint256"
        },
        {
          "internalType": "uint256",
          "name": "",
          "type": "uint256"
        },
        {
          "internalType": "uint256",
          "name": "",
          "type": "uint256"
        }
      ],
      "name": "approveLease",
      "outputs": [],
      "stateMutability": "pure",
      "type": "function"
    },
    {
      "inputs": [
        {
          "internalType": "uint256",
          "name": "",
          "type": "uint256"
        }
      ],
      "name": "assets",
      "outputs": [
        {
          "internalType": "string",
          "name": "",
          "type": "string"
        }
      ],
      "stateMutability": "view",
      "type": "function"
    },
    {
      "inputs": [
        {
          "internalType": "address",
          "name": "owner",
          "type": "address"
        }
      ],
      "name": "balanceOf",
      "outputs": [
        {
          "internalType": "uint256",
          "name": "",
          "type": "uint256"
        }
      ],
      "stateMutability": "view",
      "type": "function"
    },
    {
      "inputs": [
        {
          "internalType": "uint256",
          "name": "",
          "type": "uint256"
        },
        {
          "internalType": "uint256",
          "name": "",
          "type": "uint256"
        }
      ],
      "name": "daysTaken",
      "outputs": [
        {
          "internalType": "bool",
          "name": "",
          "type": "bool"
        }
      ],
      "stateMutability": "view",
      "type": "function"
    },
    {
      "inputs": [
        {
          "internalType": "uint256",
          "name": "tokenId",
          "type": "uint256"
        }
      ],
      "name": "getApproved",
      "outputs": [
        {
          "internalType": "address",
          "name": "",
          "type": "address"
        }
      ],
      "stateMutability": "view",
      "type": "function"
    },
    {
      "inputs": [
        {
          "internalType": "uint256",
          "name": "_tokenId",
          "type": "uint256"
        }
      ],
      "name": "getAssets",
      "outputs": [
        {
          "internalType": "string",
          "name": "",
          "type": "string"
        }
      ],
      "stateMutability": "view",
      "type": "function"
    },
    {
      "inputs": [
        {
          "internalType": "uint256",
          "name": "_tokenId",
          "type": "uint256"
        },
        {
          "internalType": "uint256",
          "name": "_date",
          "type": "uint256"
        }
      ],
      "name": "getLease",
      "outputs": [
        {
          "components": [
            {
              "internalType": "address",
              "name": "lessee",
              "type": "address"
            },
            {
              "internalType": "uint256",
              "name": "tokenId",
              "type": "uint256"
            },
            {
              "internalType": "uint256",
              "name": "startTime",
              "type": "uint256"
            },
            {
              "internalType": "uint256",
              "name": "endTime",
              "type": "uint256"
            }
          ],
          "internalType": "struct ITimeLimitedToken.Term",
          "name": "",
          "type": "tuple"
        }
      ],
      "stateMutability": "view",
      "type": "function"
    },
    {
      "inputs": [
        {
          "internalType": "uint256",
          "name": "",
          "type": "uint256"
        },
        {
          "internalType": "uint256",
          "name": "",
          "type": "uint256"
        },
        {
          "internalType": "uint256",
          "name": "",
          "type": "uint256"
        }
      ],
      "name": "getLeaseApproved",
      "outputs": [
        {
          "internalType": "address",
          "name": "",
          "type": "address"
        }
      ],
      "stateMutability": "pure",
      "type": "function"
    },
    {
      "inputs": [
        {
          "internalType": "uint256",
          "name": "_tokenId",
          "type": "uint256"
        },
        {
          "internalType": "uint256",
          "name": "_date",
          "type": "uint256"
        }
      ],
      "name": "getLeaseEnd",
      "outputs": [
        {
          "internalType": "uint256",
          "name": "",
          "type": "uint256"
        }
      ],
      "stateMutability": "view",
      "type": "function"
    },
    {
      "inputs": [
        {
          "internalType": "address",
          "name": "_address",
          "type": "address"
        }
      ],
      "name": "getLeases",
      "outputs": [
        {
          "components": [
            {
              "internalType": "address",
              "name": "lessee",
              "type": "address"
            },
            {
              "internalType": "uint256",
              "name": "tokenId",
              "type": "uint256"
            },
            {
              "internalType": "uint256",
              "name": "startTime",
              "type": "uint256"
            },
            {
              "internalType": "uint256",
              "name": "endTime",
              "type": "uint256"
            }
          ],
          "internalType": "struct ITimeLimitedToken.Term[]",
          "name": "",
          "type": "tuple[]"
        }
      ],
      "stateMutability": "view",
      "type": "function"
    },
    {
      "inputs": [
        {
          "internalType": "uint256",
          "name": "_tokenId",
          "type": "uint256"
        }
      ],
      "name": "getLeases",
      "outputs": [
        {
          "components": [
            {
              "internalType": "address",
              "name": "lessee",
              "type": "address"
            },
            {
              "internalType": "uint256",
              "name": "tokenId",
              "type": "uint256"
            },
            {
              "internalType": "uint256",
              "name": "startTime",
              "type": "uint256"
            },
            {
              "internalType": "uint256",
              "name": "endTime",
              "type": "uint256"
            }
          ],
          "internalType": "struct ITimeLimitedToken.Term[]",
          "name": "",
          "type": "tuple[]"
        }
      ],
      "stateMutability": "view",
      "type": "function"
    },
    {
      "inputs": [
        {
          "internalType": "address",
          "name": "owner",
          "type": "address"
        },
        {
          "internalType": "address",
          "name": "operator",
          "type": "address"
        }
      ],
      "name": "isApprovedForAll",
      "outputs": [
        {
          "internalType": "bool",
          "name": "",
          "type": "bool"
        }
      ],
      "stateMutability": "view",
      "type": "function"
    },
    {
      "inputs": [
        {
          "internalType": "address",
          "name": "",
          "type": "address"
        },
        {
          "internalType": "address",
          "name": "",
          "type": "address"
        }
      ],
      "name": "isLeaseApprovedForall",
      "outputs": [
        {
          "internalType": "bool",
          "name": "",
          "type": "bool"
        }
      ],
      "stateMutability": "pure",
      "type": "function"
    },
    {
      "inputs": [
        {
          "internalType": "uint256",
          "name": "_tokenId",
          "type": "uint256"
        },
        {
          "internalType": "uint256",
          "name": "_start",
          "type": "uint256"
        },
        {
          "internalType": "uint256",
          "name": "_end",
          "type": "uint256"
        }
      ],
      "name": "isLeaseAvailable",
      "outputs": [
        {
          "internalType": "bool",
          "name": "",
          "type": "bool"
        }
      ],
      "stateMutability": "view",
      "type": "function"
    },
    {
      "inputs": [
        {
          "internalType": "uint256",
          "name": "",
          "type": "uint256"
        }
      ],
      "name": "lastEndTimeByToken",
      "outputs": [
        {
          "internalType": "uint256",
          "name": "",
          "type": "uint256"
        }
      ],
      "stateMutability": "view",
      "type": "function"
    },
    {
      "inputs": [
        {
          "internalType": "address",
          "name": "_addressTo",
          "type": "address"
        },
        {
          "internalType": "uint256",
          "name": "_tokenId",
          "type": "uint256"
        },
        {
          "internalType": "uint256",
          "name": "_start",
          "type": "uint256"
        },
        {
          "internalType": "uint256",
          "name": "_end",
          "type": "uint256"
        },
        {
          "internalType": "bytes",
          "name": "_data",
          "type": "bytes"
        }
      ],
      "name": "lease",
      "outputs": [],
      "stateMutability": "nonpayable",
      "type": "function"
    },
    {
      "inputs": [
        {
          "internalType": "address",
          "name": "_addressTo",
          "type": "address"
        },
        {
          "internalType": "uint256",
          "name": "_tokenId",
          "type": "uint256"
        },
        {
          "internalType": "uint256",
          "name": "_start",
          "type": "uint256"
        },
        {
          "internalType": "uint256",
          "name": "_end",
          "type": "uint256"
        }
      ],
      "name": "lease",
      "outputs": [],
      "stateMutability": "nonpayable",
      "type": "function"
    },
    {
      "inputs": [
        {
          "internalType": "address",
          "name": "",
          "type": "address"
        },
        {
          "internalType": "uint256",
          "name": "",
          "type": "uint256"
        },
        {
          "internalType": "uint256",
          "name": "",
          "type": "uint256"
        }
      ],
      "name": "leasesByAddress",
      "outputs": [
        {
          "internalType": "uint256",
          "name": "",
          "type": "uint256"
        }
      ],
      "stateMutability": "view",
      "type": "function"
    },
    {
      "inputs": [
        {
          "internalType": "uint256",
          "name": "",
          "type": "uint256"
        },
        {
          "internalType": "uint256",
          "name": "",
          "type": "uint256"
        }
      ],
      "name": "leasesByToken",
      "outputs": [
        {
          "internalType": "address",
          "name": "lessee",
          "type": "address"
        },
        {
          "internalType": "uint256",
          "name": "tokenId",
          "type": "uint256"
        },
        {
          "internalType": "uint256",
          "name": "startTime",
          "type": "uint256"
        },
        {
          "internalType": "uint256",
          "name": "endTime",
          "type": "uint256"
        }
      ],
      "stateMutability": "view",
      "type": "function"
    },
    {
      "inputs": [
        {
          "internalType": "uint256",
          "name": "_tokenId",
          "type": "uint256"
        },
        {
          "internalType": "uint256",
          "name": "_date",
          "type": "uint256"
        }
      ],
      "name": "lesseeOf",
      "outputs": [
        {
          "internalType": "address",
          "name": "",
          "type": "address"
        }
      ],
      "stateMutability": "view",
      "type": "function"
    },
    {
      "inputs": [
        {
          "internalType": "string",
          "name": "_name",
          "type": "string"
        },
        {
          "internalType": "string",
          "name": "_description",
          "type": "string"
        },
        {
          "internalType": "string",
          "name": "_image",
          "type": "string"
        }
      ],
      "name": "mintAsset",
      "outputs": [],
      "stateMutability": "payable",
      "type": "function"
    },
    {
      "inputs": [],
      "name": "name",
      "outputs": [
        {
          "internalType": "string",
          "name": "",
          "type": "string"
        }
      ],
      "stateMutability": "view",
      "type": "function"
    },
    {
      "inputs": [
        {
          "internalType": "uint256",
          "name": "tokenId",
          "type": "uint256"
        }
      ],
      "name": "ownerOf",
      "outputs": [
        {
          "internalType": "address",
          "name": "",
          "type": "address"
        }
      ],
      "stateMutability": "view",
      "type": "function"
    },
    {
      "inputs": [
        {
          "internalType": "address",
          "name": "from",
          "type": "address"
        },
        {
          "internalType": "address",
          "name": "to",
          "type": "address"
        },
        {
          "internalType": "uint256",
          "name": "tokenId",
          "type": "uint256"
        }
      ],
      "name": "safeTransferFrom",
      "outputs": [],
      "stateMutability": "nonpayable",
      "type": "function"
    },
    {
      "inputs": [
        {
          "internalType": "address",
          "name": "from",
          "type": "address"
        },
        {
          "internalType": "address",
          "name": "to",
          "type": "address"
        },
        {
          "internalType": "uint256",
          "name": "tokenId",
          "type": "uint256"
        },
        {
          "internalType": "bytes",
          "name": "_data",
          "type": "bytes"
        }
      ],
      "name": "safeTransferFrom",
      "outputs": [],
      "stateMutability": "nonpayable",
      "type": "function"
    },
    {
      "inputs": [
        {
          "internalType": "address",
          "name": "operator",
          "type": "address"
        },
        {
          "internalType": "bool",
          "name": "approved",
          "type": "bool"
        }
      ],
      "name": "setApprovalForAll",
      "outputs": [],
      "stateMutability": "nonpayable",
      "type": "function"
    },
    {
      "inputs": [
        {
          "internalType": "address",
          "name": "",
          "type": "address"
        },
        {
          "internalType": "bool",
          "name": "",
          "type": "bool"
        }
      ],
      "name": "setLeaseApprovalForAll",
      "outputs": [],
      "stateMutability": "pure",
      "type": "function"
    },
    {
      "inputs": [
        {
          "internalType": "bytes4",
          "name": "interfaceId",
          "type": "bytes4"
        }
      ],
      "name": "supportsInterface",
      "outputs": [
        {
          "internalType": "bool",
          "name": "",
          "type": "bool"
        }
      ],
      "stateMutability": "view",
      "type": "function"
    },
    {
      "inputs": [],
      "name": "symbol",
      "outputs": [
        {
          "internalType": "string",
          "name": "",
          "type": "string"
        }
      ],
      "stateMutability": "view",
      "type": "function"
    },
    {
      "inputs": [
        {
          "internalType": "uint256",
          "name": "_tokenId",
          "type": "uint256"
        },
        {
          "internalType": "uint256",
          "name": "_start",
          "type": "uint256"
        },
        {
          "internalType": "uint256",
          "name": "_end",
          "type": "uint256"
        }
      ],
      "name": "testUnlease",
      "outputs": [],
      "stateMutability": "nonpayable",
      "type": "function"
    },
    {
      "inputs": [
        {
          "internalType": "uint256",
          "name": "tokenId",
          "type": "uint256"
        }
      ],
      "name": "tokenURI",
      "outputs": [
        {
          "internalType": "string",
          "name": "",
          "type": "string"
        }
      ],
      "stateMutability": "view",
      "type": "function"
    },
    {
      "inputs": [
        {
          "internalType": "address",
          "name": "from",
          "type": "address"
        },
        {
          "internalType": "address",
          "name": "to",
          "type": "address"
        },
        {
          "internalType": "uint256",
          "name": "tokenId",
          "type": "uint256"
        }
      ],
      "name": "transferFrom",
      "outputs": [],
      "stateMutability": "nonpayable",
      "type": "function"
    },
    {
      "inputs": [
        {
          "internalType": "uint256",
          "name": "_tokenId",
          "type": "uint256"
        },
        {
          "internalType": "uint256",
          "name": "_start",
          "type": "uint256"
        },
        {
          "internalType": "uint256",
          "name": "_end",
          "type": "uint256"
        }
      ],
      "name": "unlease",
      "outputs": [],
      "stateMutability": "nonpayable",
      "type": "function"
    },
    {
      "inputs": [
        {
          "internalType": "uint256",
          "name": "_tokenId",
          "type": "uint256"
        },
        {
          "internalType": "uint256",
          "name": "_start",
          "type": "uint256"
        },
        {
          "internalType": "uint256",
          "name": "_end",
          "type": "uint256"
        },
        {
          "internalType": "bytes",
          "name": "",
          "type": "bytes"
        }
      ],
      "name": "unlease",
      "outputs": [],
      "stateMutability": "nonpayable",
      "type": "function"
    }
  ],
  "bytecode": "0x60806040523480156200001157600080fd5b506040518060400160405280600581526020017f4c656173650000000000000000000000000000000000000000000000000000008152506040518060400160405280600581526020017f4c45415345000000000000000000000000000000000000000000000000000000815250816000908051906020019062000096929190620000b8565b508060019080519060200190620000af929190620000b8565b505050620001cd565b828054620000c69062000168565b90600052602060002090601f016020900481019282620000ea576000855562000136565b82601f106200010557805160ff191683800117855562000136565b8280016001018555821562000136579182015b828111156200013557825182559160200191906001019062000118565b5b50905062000145919062000149565b5090565b5b80821115620001645760008160009055506001016200014a565b5090565b600060028204905060018216806200018157607f821691505b602082108114156200019857620001976200019e565b5b50919050565b7f4e487b7100000000000000000000000000000000000000000000000000000000600052602260045260246000fd5b6157ec80620001dd6000396000f3fe6080604052600436106102515760003560e01c806395d89b4111610139578063cf35bdd0116100b6578063e68105691161007a578063e681056914610974578063e985e9c5146109b1578063ebb3ebb3146109ee578063f121821d14610a2b578063f5fb0e1114610a54578063f85a99da14610a7d57610251565b8063cf35bdd014610857578063d3f7e55214610894578063d4c2d9e6146108d1578063d9212164146108fa578063de17556f1461093757610251565b8063b6a6d177116100fd578063b6a6d17714610749578063b88d4fde14610774578063bc881d931461079d578063c517756c146107da578063c87b56dd1461081a57610251565b806395d89b411461066457806399433cc51461068f578063a1faf865146106b8578063a22cb465146106f5578063b1724b461461071e57610251565b806342842e0e116101d2578063715e59bc11610196578063715e59bc1461053d5780637249b9321461057a578063749e480d146105965780637cb958b8146105c15780638fa9e5f2146105ea57806390256c8e1461062757610251565b806342842e0e1461044657806345634da41461046f5780634b080f771461049a5780636352211e146104c357806370a082311461050057610251565b806323b872dd1161021957806323b872dd1461034f57806328e71245146103785780632a6b1a0b146103b557806341419378146103f257806341f757921461041b57610251565b806301ffc9a71461025657806306fdde0314610293578063081812fc146102be578063095ea7b3146102fb5780630f76214f14610324575b600080fd5b34801561026257600080fd5b5061027d60048036038101906102789190614245565b610aa8565b60405161028a9190614abb565b60405180910390f35b34801561029f57600080fd5b506102a8610b8a565b6040516102b59190614ad6565b60405180910390f35b3480156102ca57600080fd5b506102e560048036038101906102e0919061432e565b610c1c565b6040516102f291906149ed565b60405180910390f35b34801561030757600080fd5b50610322600480360381019061031d91906140c8565b610ca1565b005b34801561033057600080fd5b50610339610db9565b6040516103469190614d13565b60405180910390f35b34801561035b57600080fd5b5061037660048036038101906103719190613fc2565b610dc1565b005b34801561038457600080fd5b5061039f600480360381019061039a9190614393565b610e21565b6040516103ac91906149ed565b60405180910390f35b3480156103c157600080fd5b506103dc60048036038101906103d7919061432e565b610e38565b6040516103e99190614d13565b60405180910390f35b3480156103fe57600080fd5b5061041960048036038101906104149190614153565b610e50565b005b34801561042757600080fd5b50610430610e61565b60405161043d9190614d13565b60405180910390f35b34801561045257600080fd5b5061046d60048036038101906104689190613fc2565b610e6c565b005b34801561047b57600080fd5b50610484610e8c565b6040516104919190614d13565b60405180910390f35b3480156104a657600080fd5b506104c160048036038101906104bc91906141b6565b610e97565b005b3480156104cf57600080fd5b506104ea60048036038101906104e5919061432e565b610eaa565b6040516104f791906149ed565b60405180910390f35b34801561050c57600080fd5b5061052760048036038101906105229190613f5d565b610f5c565b6040516105349190614d13565b60405180910390f35b34801561054957600080fd5b50610564600480360381019061055f9190614104565b611014565b6040516105719190614d13565b60405180910390f35b610594600480360381019061058f9190614297565b611052565b005b3480156105a257600080fd5b506105ab611150565b6040516105b89190614abb565b60405180910390f35b3480156105cd57600080fd5b506105e860048036038101906105e39190614393565b611155565b005b3480156105f657600080fd5b50610611600480360381019061060c9190614357565b6116dd565b60405161061e9190614d13565b60405180910390f35b34801561063357600080fd5b5061064e60048036038101906106499190613f5d565b6116f1565b60405161065b9190614a99565b60405180910390f35b34801561067057600080fd5b50610679611703565b6040516106869190614ad6565b60405180910390f35b34801561069b57600080fd5b506106b660048036038101906106b1919061408c565b611795565b005b3480156106c457600080fd5b506106df60048036038101906106da9190613f86565b6117a4565b6040516106ec9190614abb565b60405180910390f35b34801561070157600080fd5b5061071c6004803603810190610717919061408c565b6117ba565b005b34801561072a57600080fd5b506107336117d0565b6040516107409190614d13565b60405180910390f35b34801561075557600080fd5b5061075e6117d7565b60405161076b9190614d13565b60405180910390f35b34801561078057600080fd5b5061079b60048036038101906107969190614011565b6117de565b005b3480156107a957600080fd5b506107c460048036038101906107bf9190614357565b611840565b6040516107d19190614abb565b60405180910390f35b3480156107e657600080fd5b5061080160048036038101906107fc9190614357565b61186f565b6040516108119493929190614a54565b60405180910390f35b34801561082657600080fd5b50610841600480360381019061083c919061432e565b6118dc565b60405161084e9190614ad6565b60405180910390f35b34801561086357600080fd5b5061087e6004803603810190610879919061432e565b611a2e565b60405161088b9190614ad6565b60405180910390f35b3480156108a057600080fd5b506108bb60048036038101906108b69190614357565b611ace565b6040516108c89190614cf8565b60405180910390f35b3480156108dd57600080fd5b506108f860048036038101906108f39190614393565b611ae8565b005b34801561090657600080fd5b50610921600480360381019061091c919061432e565b611af8565b60405161092e9190614ad6565b60405180910390f35b34801561094357600080fd5b5061095e60048036038101906109599190614357565b611b9d565b60405161096b91906149ed565b60405180910390f35b34801561098057600080fd5b5061099b60048036038101906109969190614393565b611bb1565b6040516109a89190614abb565b60405180910390f35b3480156109bd57600080fd5b506109d860048036038101906109d39190613f86565b611bc7565b6040516109e59190614abb565b60405180910390f35b3480156109fa57600080fd5b50610a156004803603810190610a10919061432e565b611c5b565b604051610a229190614a99565b60405180910390f35b348015610a3757600080fd5b50610a526004803603810190610a4d9190614153565b611d4f565b005b348015610a6057600080fd5b50610a7b6004803603810190610a7691906143e2565b611d61565b005b348015610a8957600080fd5b50610a92611d72565b604051610a9f9190614abb565b60405180910390f35b60007f80ac58cd000000000000000000000000000000000000000000000000000000007bffffffffffffffffffffffffffffffffffffffffffffffffffffffff1916827bffffffffffffffffffffffffffffffffffffffffffffffffffffffff19161480610b7357507f5b5e139f000000000000000000000000000000000000000000000000000000007bffffffffffffffffffffffffffffffffffffffffffffffffffffffff1916827bffffffffffffffffffffffffffffffffffffffffffffffffffffffff1916145b80610b835750610b8282611d77565b5b9050919050565b606060008054610b9990615025565b80601f0160208091040260200160405190810160405280929190818152602001828054610bc590615025565b8015610c125780601f10610be757610100808354040283529160200191610c12565b820191906000526020600020905b815481529060010190602001808311610bf557829003601f168201915b5050505050905090565b6000610c2782611de1565b610c66576040517f08c379a0000000000000000000000000000000000000000000000000000000008152600401610c5d90614c78565b60405180910390fd5b6004600083815260200190815260200160002060009054906101000a900473ffffffffffffffffffffffffffffffffffffffff169050919050565b6000610cac82610eaa565b90508073ffffffffffffffffffffffffffffffffffffffff168373ffffffffffffffffffffffffffffffffffffffff161415610d1d576040517f08c379a0000000000000000000000000000000000000000000000000000000008152600401610d1490614cb8565b60405180910390fd5b8073ffffffffffffffffffffffffffffffffffffffff16610d3c611e4d565b73ffffffffffffffffffffffffffffffffffffffff161480610d6b5750610d6a81610d65611e4d565b611bc7565b5b610daa576040517f08c379a0000000000000000000000000000000000000000000000000000000008152600401610da190614bb8565b60405180910390fd5b610db48383611e55565b505050565b6361cf371081565b610dd2610dcc611e4d565b82611f0e565b610e11576040517f08c379a0000000000000000000000000000000000000000000000000000000008152600401610e0890614cd8565b60405180910390fd5b610e1c838383611fec565b505050565b600080610e2d57600080fd5b600090509392505050565b600a6020528060005260406000206000915090505481565b6000610e5b57600080fd5b50505050565b600062015180905090565b610e87838383604051806020016040528060008152506117de565b505050565b6000624f1a00905090565b610ea385858585612253565b5050505050565b6000806002600084815260200190815260200160002060009054906101000a900473ffffffffffffffffffffffffffffffffffffffff169050600073ffffffffffffffffffffffffffffffffffffffff168173ffffffffffffffffffffffffffffffffffffffff161415610f53576040517f08c379a0000000000000000000000000000000000000000000000000000000008152600401610f4a90614bf8565b60405180910390fd5b80915050919050565b60008073ffffffffffffffffffffffffffffffffffffffff168273ffffffffffffffffffffffffffffffffffffffff161415610fcd576040517f08c379a0000000000000000000000000000000000000000000000000000000008152600401610fc490614bd8565b60405180910390fd5b600360008373ffffffffffffffffffffffffffffffffffffffff1673ffffffffffffffffffffffffffffffffffffffff168152602001908152602001600020549050919050565b6009602052826000526040600020602052816000526040600020818154811061103c57600080fd5b9060005260206000200160009250925050505481565b61105c6007612336565b6000611068600761234c565b905060006110988585856040516020016110849392919061496e565b60405160208183030381529060405261235a565b90506000816040516020016110ad91906149cb565b60405160208183030381529060405290506110c833846124e4565b6110d28382612502565b80600c600085815260200190815260200160002090805190602001906110f9929190613d43565b503373ffffffffffffffffffffffffffffffffffffffff167fa0cb282b65d69a39a4d7684f44a7c15b2b3761982ad6a6d947865bfd5220c815826040516111409190614ad6565b60405180910390a2505050505050565b600081565b6111936040518060400160405280600f81526020017f48455959592069206d2068657265210000000000000000000000000000000000815250612576565b60006008600085815260200190815260200160002080549050116111b657600080fd5b60006111c2848461260f565b90506000816040015190506000826060015190506000611204620151806111f66361cf3710866128bb90919063ffffffff16565b6128d190919063ffffffff16565b90506000611234620151806112266361cf3710866128bb90919063ffffffff16565b6128d190919063ffffffff16565b90506001836112439190614e5a565b861061124e57600080fd5b60018461125b9190614f3b565b871161126657600080fd5b60005b600860008a8152602001908152602001600020805490508110156116815784600860008b815260200190815260200160002082815481106112d3577f4e487b7100000000000000000000000000000000000000000000000000000000600052603260045260246000fd5b906000526020600020906004020160020154141561166e57600860008a81526020019081526020016000208181548110611336577f4e487b7100000000000000000000000000000000000000000000000000000000600052603260045260246000fd5b9060005260206000209060040201600080820160006101000a81549073ffffffffffffffffffffffffffffffffffffffff0219169055600182016000905560028201600090556003820160009055505060008390505b8281116113e3576000600b60008c8152602001908152602001600020600083815260200190815260200160002060006101000a81548160ff02191690831515021790555080806113db90615088565b91505061138c565b5087831480156113f257508682145b156113fc57611669565b8783141561149d57611498600860008b81526020019081526020016000208281548110611452577f4e487b7100000000000000000000000000000000000000000000000000000000600052603260045260246000fd5b906000526020600020906004020160000160009054906101000a900473ffffffffffffffffffffffffffffffffffffffff168a60018a6114929190614e5a565b856128e7565b611668565b8682141561153e57611539600860008b815260200190815260200160002082815481106114f3577f4e487b7100000000000000000000000000000000000000000000000000000000600052603260045260246000fd5b906000526020600020906004020160000160009054906101000a900473ffffffffffffffffffffffffffffffffffffffff168a8560018c6115349190614f3b565b6128e7565b611667565b6115d2600860008b8152602001908152602001600020828154811061158c577f4e487b7100000000000000000000000000000000000000000000000000000000600052603260045260246000fd5b906000526020600020906004020160000160009054906101000a900473ffffffffffffffffffffffffffffffffffffffff168a8560018c6115cd9190614f3b565b6128e7565b611666600860008b81526020019081526020016000208281548110611620577f4e487b7100000000000000000000000000000000000000000000000000000000600052603260045260246000fd5b906000526020600020906004020160000160009054906101000a900473ffffffffffffffffffffffffffffffffffffffff168a60018a6116609190614e5a565b856128e7565b5b5b5b611681565b808061167990615088565b915050611269565b503373ffffffffffffffffffffffffffffffffffffffff16887f9f2662851b7e3b92d1ef8bc673a0ebd53bb362af9a04856acbd418f0076906a989896040516116cb929190614d2e565b60405180910390a35050505050505050565b60006116e98383612bb0565b905092915050565b606060006116fe57600080fd5b919050565b60606001805461171290615025565b80601f016020809104026020016040519081016040528092919081815260200182805461173e90615025565b801561178b5780601f106117605761010080835404028352916020019161178b565b820191906000526020600020905b81548152906001019060200180831161176e57829003601f168201915b5050505050905090565b60006117a057600080fd5b5050565b6000806117b057600080fd5b6000905092915050565b6117cc6117c5611e4d565b8383612be5565b5050565b624f1a0081565b6201518081565b6117ef6117e9611e4d565b83611f0e565b61182e576040517f08c379a000000000000000000000000000000000000000000000000000000000815260040161182590614cd8565b60405180910390fd5b61183a84848484612d52565b50505050565b600b6020528160005260406000206020528060005260406000206000915091509054906101000a900460ff1681565b6008602052816000526040600020818154811061188b57600080fd5b9060005260206000209060040201600091509150508060000160009054906101000a900473ffffffffffffffffffffffffffffffffffffffff16908060010154908060020154908060030154905084565b60606118e782611de1565b611926576040517f08c379a000000000000000000000000000000000000000000000000000000000815260040161191d90614c58565b60405180910390fd5b600060066000848152602001908152602001600020805461194690615025565b80601f016020809104026020016040519081016040528092919081815260200182805461197290615025565b80156119bf5780601f10611994576101008083540402835291602001916119bf565b820191906000526020600020905b8154815290600101906020018083116119a257829003601f168201915b5050505050905060006119d0612dae565b90506000815114156119e6578192505050611a29565b600082511115611a1b578082604051602001611a0392919061494a565b60405160208183030381529060405292505050611a29565b611a2484612dc5565b925050505b919050565b600c6020528060005260406000206000915090508054611a4d90615025565b80601f0160208091040260200160405190810160405280929190818152602001828054611a7990615025565b8015611ac65780601f10611a9b57610100808354040283529160200191611ac6565b820191906000526020600020905b815481529060010190602001808311611aa957829003601f168201915b505050505081565b611ad6613dc9565b611ae0838361260f565b905092915050565b611af3838383612e6c565b505050565b6060600c60008381526020019081526020016000208054611b1890615025565b80601f0160208091040260200160405190810160405280929190818152602001828054611b4490615025565b8015611b915780601f10611b6657610100808354040283529160200191611b91565b820191906000526020600020905b815481529060010190602001808311611b7457829003601f168201915b50505050509050919050565b6000611ba983836133b6565b905092915050565b6000611bbe8484846135df565b90509392505050565b6000600560008473ffffffffffffffffffffffffffffffffffffffff1673ffffffffffffffffffffffffffffffffffffffff16815260200190815260200160002060008373ffffffffffffffffffffffffffffffffffffffff1673ffffffffffffffffffffffffffffffffffffffff16815260200190815260200160002060009054906101000a900460ff16905092915050565b60606000821415611c6b57600080fd5b60086000838152602001908152602001600020805480602002602001604051908101604052809291908181526020016000905b82821015611d4457838290600052602060002090600402016040518060800160405290816000820160009054906101000a900473ffffffffffffffffffffffffffffffffffffffff1673ffffffffffffffffffffffffffffffffffffffff1673ffffffffffffffffffffffffffffffffffffffff168152602001600182015481526020016002820154815260200160038201548152505081526020019060010190611c9e565b505050509050919050565b611d5b84848484612253565b50505050565b611d6c848484612e6c565b50505050565b600090565b60007f01ffc9a7000000000000000000000000000000000000000000000000000000007bffffffffffffffffffffffffffffffffffffffffffffffffffffffff1916827bffffffffffffffffffffffffffffffffffffffffffffffffffffffff1916149050919050565b60008073ffffffffffffffffffffffffffffffffffffffff166002600084815260200190815260200160002060009054906101000a900473ffffffffffffffffffffffffffffffffffffffff1673ffffffffffffffffffffffffffffffffffffffff1614159050919050565b600033905090565b816004600083815260200190815260200160002060006101000a81548173ffffffffffffffffffffffffffffffffffffffff021916908373ffffffffffffffffffffffffffffffffffffffff160217905550808273ffffffffffffffffffffffffffffffffffffffff16611ec883610eaa565b73ffffffffffffffffffffffffffffffffffffffff167f8c5be1e5ebec7d5bd14f71427d1e84f3dd0314c0f7b2291e5b200ac8c7c3b92560405160405180910390a45050565b6000611f1982611de1565b611f58576040517f08c379a0000000000000000000000000000000000000000000000000000000008152600401611f4f90614b98565b60405180910390fd5b6000611f6383610eaa565b90508073ffffffffffffffffffffffffffffffffffffffff168473ffffffffffffffffffffffffffffffffffffffff161480611fd257508373ffffffffffffffffffffffffffffffffffffffff16611fba84610c1c565b73ffffffffffffffffffffffffffffffffffffffff16145b80611fe35750611fe28185611bc7565b5b91505092915050565b8273ffffffffffffffffffffffffffffffffffffffff1661200c82610eaa565b73ffffffffffffffffffffffffffffffffffffffff1614612062576040517f08c379a000000000000000000000000000000000000000000000000000000000815260040161205990614b18565b60405180910390fd5b600073ffffffffffffffffffffffffffffffffffffffff168273ffffffffffffffffffffffffffffffffffffffff1614156120d2576040517f08c379a00000000000000000000000000000000000000000000000000000000081526004016120c990614b58565b60405180910390fd5b6120dd838383613748565b6120e8600082611e55565b6001600360008573ffffffffffffffffffffffffffffffffffffffff1673ffffffffffffffffffffffffffffffffffffffff16815260200190815260200160002060008282546121389190614f3b565b925050819055506001600360008473ffffffffffffffffffffffffffffffffffffffff1673ffffffffffffffffffffffffffffffffffffffff168152602001908152602001600020600082825461218f9190614e5a565b92505081905550816002600083815260200190815260200160002060006101000a81548173ffffffffffffffffffffffffffffffffffffffff021916908373ffffffffffffffffffffffffffffffffffffffff160217905550808273ffffffffffffffffffffffffffffffffffffffff168473ffffffffffffffffffffffffffffffffffffffff167fddf252ad1be2c89b69c2b068fc378daa952ba7f163c4a11628f55a4df523b3ef60405160405180910390a461224e83838361374d565b505050565b81811161225f57600080fd5b624f1a0061228b6201518061227d85856128bb90919063ffffffff16565b61375290919063ffffffff16565b111561229657600080fd5b620151806122c2620151806122b485856128bb90919063ffffffff16565b61375290919063ffffffff16565b10156122cd57600080fd5b60008314156122db57600080fd5b60008214156122e957600080fd5b60008114156122f757600080fd5b6123028383836135df565b1561231857612313848484846128e7565b612330565b612323838383612e6c565b61232f848484846128e7565b5b50505050565b6001816000016000828254019250508190555050565b600081600001549050919050565b606060008251141561237d576040518060200160405280600081525090506124df565b600060405180606001604052806040815260200161577760409139905060006003600285516123ac9190614e5a565b6123b69190614eb0565b60046123c29190614ee1565b67ffffffffffffffff811115612401577f4e487b7100000000000000000000000000000000000000000000000000000000600052604160045260246000fd5b6040519080825280601f01601f1916602001820160405280156124335781602001600182028036833780820191505090505b509050600182016020820185865187015b8082101561249f576003820191508151603f8160121c168501518453600184019350603f81600c1c168501518453600184019350603f8160061c168501518453600184019350603f8116850151845360018401935050612444565b50506003865106600181146124bb57600281146124ce576124d6565b603d6001830353603d60028303536124d6565b603d60018303535b50505080925050505b919050565b6124fe828260405180602001604052806000815250613768565b5050565b61250b82611de1565b61254a576040517f08c379a000000000000000000000000000000000000000000000000000000000815260040161254190614c18565b60405180910390fd5b80600660008481526020019081526020016000209080519060200190612571929190613d43565b505050565b61260c8160405160240161258a9190614ad6565b6040516020818303038152906040527f41304fac000000000000000000000000000000000000000000000000000000007bffffffffffffffffffffffffffffffffffffffffffffffffffffffff19166020820180517bffffffffffffffffffffffffffffffffffffffffffffffffffffffff83818316178352505050506137c3565b50565b612617613dc9565b600083141561262557600080fd5b600082141561263357600080fd5b600060086000858152602001908152602001600020805480602002602001604051908101604052809291908181526020016000905b8282101561270e57838290600052602060002090600402016040518060800160405290816000820160009054906101000a900473ffffffffffffffffffffffffffffffffffffffff1673ffffffffffffffffffffffffffffffffffffffff1673ffffffffffffffffffffffffffffffffffffffff168152602001600182015481526020016002820154815260200160038201548152505081526020019060010190612668565b5050505090506000815114156127685780600081518110612758577f4e487b7100000000000000000000000000000000000000000000000000000000600052603260045260246000fd5b60200260200101519150506128b5565b60005b815181101561286e57838282815181106127ae577f4e487b7100000000000000000000000000000000000000000000000000000000600052603260045260246000fd5b6020026020010151604001511115801561280c57508181815181106127fc577f4e487b7100000000000000000000000000000000000000000000000000000000600052603260045260246000fd5b6020026020010151606001518411155b1561285b5781818151811061284a577f4e487b7100000000000000000000000000000000000000000000000000000000600052603260045260246000fd5b6020026020010151925050506128b5565b808061286690615088565b91505061276b565b50806000815181106128a9577f4e487b7100000000000000000000000000000000000000000000000000000000600052603260045260246000fd5b60200260200101519150505b92915050565b600081836128c99190614f3b565b905092915050565b600081836128df9190614eb0565b905092915050565b8181116128f357600080fd5b624f1a0061291f6201518061291185856128bb90919063ffffffff16565b61375290919063ffffffff16565b111561292a57600080fd5b620151806129566201518061294885856128bb90919063ffffffff16565b61375290919063ffffffff16565b101561296157600080fd5b600083141561296f57600080fd5b600082141561297d57600080fd5b600081141561298b57600080fd5b60006129b96361cf37106129ab620151808661375290919063ffffffff16565b6137ec90919063ffffffff16565b905060006129e96361cf37106129db620151808661375290919063ffffffff16565b6137ec90919063ffffffff16565b905060008490505b838111612a48576001600b6000888152602001908152602001600020600083815260200190815260200160002060006101000a81548160ff0219169083151502179055508080612a4090615088565b9150506129f1565b506008600086815260200190815260200160002060405180608001604052808873ffffffffffffffffffffffffffffffffffffffff16815260200187815260200184815260200183815250908060018154018082558091505060019003906000526020600020906004020160009091909190915060008201518160000160006101000a81548173ffffffffffffffffffffffffffffffffffffffff021916908373ffffffffffffffffffffffffffffffffffffffff160217905550602082015181600101556040820151816002015560608201518160030155505082600a6000878152602001908152602001600020541015612b575782600a6000878152602001908152602001600020819055505b8573ffffffffffffffffffffffffffffffffffffffff16857f477d3a4ce93f75de2f1bc0b60f68f3670ad5f3e6ad245c7e6c8ff83bb75ec87b8686604051612ba0929190614d2e565b60405180910390a3505050505050565b600080612bbd848461260f565b9050600081606001511415612bd6576000915050612bdf565b80606001519150505b92915050565b8173ffffffffffffffffffffffffffffffffffffffff168373ffffffffffffffffffffffffffffffffffffffff161415612c54576040517f08c379a0000000000000000000000000000000000000000000000000000000008152600401612c4b90614b78565b60405180910390fd5b80600560008573ffffffffffffffffffffffffffffffffffffffff1673ffffffffffffffffffffffffffffffffffffffff16815260200190815260200160002060008473ffffffffffffffffffffffffffffffffffffffff1673ffffffffffffffffffffffffffffffffffffffff16815260200190815260200160002060006101000a81548160ff0219169083151502179055508173ffffffffffffffffffffffffffffffffffffffff168373ffffffffffffffffffffffffffffffffffffffff167f17307eab39ab6107e8899845ad3d59bd9653f200f220920489ca2b5937696c3183604051612d459190614abb565b60405180910390a3505050565b612d5d848484611fec565b612d6984848484613802565b612da8576040517f08c379a0000000000000000000000000000000000000000000000000000000008152600401612d9f90614af8565b60405180910390fd5b50505050565b606060405180602001604052806000815250905090565b6060612dd082611de1565b612e0f576040517f08c379a0000000000000000000000000000000000000000000000000000000008152600401612e0690614c98565b60405180910390fd5b6000612e19612dae565b90506000815111612e395760405180602001604052806000815250612e64565b80612e4384613999565b604051602001612e5492919061494a565b6040516020818303038152906040525b915050919050565b6000600860008581526020019081526020016000208054905011612e8f57600080fd5b6000612e9b848461260f565b90506000816040015190506000826060015190506000612edd62015180612ecf6361cf3710866128bb90919063ffffffff16565b6128d190919063ffffffff16565b90506000612f0d62015180612eff6361cf3710866128bb90919063ffffffff16565b6128d190919063ffffffff16565b9050600183612f1c9190614e5a565b8610612f2757600080fd5b600184612f349190614f3b565b8711612f3f57600080fd5b60005b600860008a81526020019081526020016000208054905081101561335a5784600860008b81526020019081526020016000208281548110612fac577f4e487b7100000000000000000000000000000000000000000000000000000000600052603260045260246000fd5b906000526020600020906004020160020154141561334757600860008a8152602001908152602001600020818154811061300f577f4e487b7100000000000000000000000000000000000000000000000000000000600052603260045260246000fd5b9060005260206000209060040201600080820160006101000a81549073ffffffffffffffffffffffffffffffffffffffff0219169055600182016000905560028201600090556003820160009055505060008390505b8281116130bc576000600b60008c8152602001908152602001600020600083815260200190815260200160002060006101000a81548160ff02191690831515021790555080806130b490615088565b915050613065565b5087831480156130cb57508682145b156130d557613342565b8783141561317657613171600860008b8152602001908152602001600020828154811061312b577f4e487b7100000000000000000000000000000000000000000000000000000000600052603260045260246000fd5b906000526020600020906004020160000160009054906101000a900473ffffffffffffffffffffffffffffffffffffffff168a60018a61316b9190614e5a565b856128e7565b613341565b8682141561321757613212600860008b815260200190815260200160002082815481106131cc577f4e487b7100000000000000000000000000000000000000000000000000000000600052603260045260246000fd5b906000526020600020906004020160000160009054906101000a900473ffffffffffffffffffffffffffffffffffffffff168a8560018c61320d9190614f3b565b6128e7565b613340565b6132ab600860008b81526020019081526020016000208281548110613265577f4e487b7100000000000000000000000000000000000000000000000000000000600052603260045260246000fd5b906000526020600020906004020160000160009054906101000a900473ffffffffffffffffffffffffffffffffffffffff168a8560018c6132a69190614f3b565b6128e7565b61333f600860008b815260200190815260200160002082815481106132f9577f4e487b7100000000000000000000000000000000000000000000000000000000600052603260045260246000fd5b906000526020600020906004020160000160009054906101000a900473ffffffffffffffffffffffffffffffffffffffff168a60018a6133399190614e5a565b856128e7565b5b5b5b61335a565b808061335290615088565b915050612f42565b503373ffffffffffffffffffffffffffffffffffffffff16887f9f2662851b7e3b92d1ef8bc673a0ebd53bb362af9a04856acbd418f0076906a989896040516133a4929190614d2e565b60405180910390a35050505050505050565b6000808314156133c557600080fd5b60008214156133d357600080fd5b600060086000858152602001908152602001600020805480602002602001604051908101604052809291908181526020016000905b828210156134ae57838290600052602060002090600402016040518060800160405290816000820160009054906101000a900473ffffffffffffffffffffffffffffffffffffffff1673ffffffffffffffffffffffffffffffffffffffff1673ffffffffffffffffffffffffffffffffffffffff168152602001600182015481526020016002820154815260200160038201548152505081526020019060010190613408565b5050505090506000815114156134c85760009150506135d9565b60005b81518110156135d2578382828151811061350e577f4e487b7100000000000000000000000000000000000000000000000000000000600052603260045260246000fd5b6020026020010151604001511115801561356c575081818151811061355c577f4e487b7100000000000000000000000000000000000000000000000000000000600052603260045260246000fd5b6020026020010151606001518411155b156135bf578181815181106135aa577f4e487b7100000000000000000000000000000000000000000000000000000000600052603260045260246000fd5b602002602001015160000151925050506135d9565b80806135ca90615088565b9150506134cb565b5060009150505b92915050565b6000804290508383116135f157600080fd5b624f1a0061361d6201518061360f87876128bb90919063ffffffff16565b61375290919063ffffffff16565b111561362857600080fd5b620151806136546201518061364687876128bb90919063ffffffff16565b61375290919063ffffffff16565b101561365f57600080fd5b600061368d6201518061367f6361cf3710856128bb90919063ffffffff16565b6128d190919063ffffffff16565b90508484101561369c57600080fd5b808510156136a957600080fd5b600a6000878152602001908152602001600020548511156136cf57600192505050613741565b60008590505b8481116137395760011515600b6000898152602001908152602001600020600083815260200190815260200160002060009054906101000a900460ff16151514156137265760009350505050613741565b808061373190615088565b9150506136d5565b506001925050505b9392505050565b505050565b505050565b600081836137609190614ee1565b905092915050565b6137728383613b46565b61377f6000848484613802565b6137be576040517f08c379a00000000000000000000000000000000000000000000000000000000081526004016137b590614af8565b60405180910390fd5b505050565b60008151905060006a636f6e736f6c652e6c6f679050602083016000808483855afa5050505050565b600081836137fa9190614e5a565b905092915050565b60006138238473ffffffffffffffffffffffffffffffffffffffff16613d20565b1561398c578373ffffffffffffffffffffffffffffffffffffffff1663150b7a0261384c611e4d565b8786866040518563ffffffff1660e01b815260040161386e9493929190614a08565b602060405180830381600087803b15801561388857600080fd5b505af19250505080156138b957506040513d601f19601f820116820180604052508101906138b6919061426e565b60015b61393c573d80600081146138e9576040519150601f19603f3d011682016040523d82523d6000602084013e6138ee565b606091505b50600081511415613934576040517f08c379a000000000000000000000000000000000000000000000000000000000815260040161392b90614af8565b60405180910390fd5b805181602001fd5b63150b7a0260e01b7bffffffffffffffffffffffffffffffffffffffffffffffffffffffff1916817bffffffffffffffffffffffffffffffffffffffffffffffffffffffff191614915050613991565b600190505b949350505050565b606060008214156139e1576040518060400160405280600181526020017f30000000000000000000000000000000000000000000000000000000000000008152509050613b41565b600082905060005b60008214613a135780806139fc90615088565b915050600a82613a0c9190614eb0565b91506139e9565b60008167ffffffffffffffff811115613a55577f4e487b7100000000000000000000000000000000000000000000000000000000600052604160045260246000fd5b6040519080825280601f01601f191660200182016040528015613a875781602001600182028036833780820191505090505b5090505b60008514613b3a57600182613aa09190614f3b565b9150600a85613aaf91906150d1565b6030613abb9190614e5a565b60f81b818381518110613af7577f4e487b7100000000000000000000000000000000000000000000000000000000600052603260045260246000fd5b60200101907effffffffffffffffffffffffffffffffffffffffffffffffffffffffffffff1916908160001a905350600a85613b339190614eb0565b9450613a8b565b8093505050505b919050565b600073ffffffffffffffffffffffffffffffffffffffff168273ffffffffffffffffffffffffffffffffffffffff161415613bb6576040517f08c379a0000000000000000000000000000000000000000000000000000000008152600401613bad90614c38565b60405180910390fd5b613bbf81611de1565b15613bff576040517f08c379a0000000000000000000000000000000000000000000000000000000008152600401613bf690614b38565b60405180910390fd5b613c0b60008383613748565b6001600360008473ffffffffffffffffffffffffffffffffffffffff1673ffffffffffffffffffffffffffffffffffffffff1681526020019081526020016000206000828254613c5b9190614e5a565b92505081905550816002600083815260200190815260200160002060006101000a81548173ffffffffffffffffffffffffffffffffffffffff021916908373ffffffffffffffffffffffffffffffffffffffff160217905550808273ffffffffffffffffffffffffffffffffffffffff16600073ffffffffffffffffffffffffffffffffffffffff167fddf252ad1be2c89b69c2b068fc378daa952ba7f163c4a11628f55a4df523b3ef60405160405180910390a4613d1c6000838361374d565b5050565b6000808273ffffffffffffffffffffffffffffffffffffffff163b119050919050565b828054613d4f90615025565b90600052602060002090601f016020900481019282613d715760008555613db8565b82601f10613d8a57805160ff1916838001178555613db8565b82800160010185558215613db8579182015b82811115613db7578251825591602001919060010190613d9c565b5b509050613dc59190613e07565b5090565b6040518060800160405280600073ffffffffffffffffffffffffffffffffffffffff1681526020016000815260200160008152602001600081525090565b5b80821115613e20576000816000905550600101613e08565b5090565b6000613e37613e3284614d7c565b614d57565b905082815260208101848484011115613e4f57600080fd5b613e5a848285614fe3565b509392505050565b6000613e75613e7084614dad565b614d57565b905082815260208101848484011115613e8d57600080fd5b613e98848285614fe3565b509392505050565b600081359050613eaf8161571a565b92915050565b600081359050613ec481615731565b92915050565b600081359050613ed981615748565b92915050565b600081519050613eee81615748565b92915050565b600082601f830112613f0557600080fd5b8135613f15848260208601613e24565b91505092915050565b600082601f830112613f2f57600080fd5b8135613f3f848260208601613e62565b91505092915050565b600081359050613f578161575f565b92915050565b600060208284031215613f6f57600080fd5b6000613f7d84828501613ea0565b91505092915050565b60008060408385031215613f9957600080fd5b6000613fa785828601613ea0565b9250506020613fb885828601613ea0565b9150509250929050565b600080600060608486031215613fd757600080fd5b6000613fe586828701613ea0565b9350506020613ff686828701613ea0565b925050604061400786828701613f48565b9150509250925092565b6000806000806080858703121561402757600080fd5b600061403587828801613ea0565b945050602061404687828801613ea0565b935050604061405787828801613f48565b925050606085013567ffffffffffffffff81111561407457600080fd5b61408087828801613ef4565b91505092959194509250565b6000806040838503121561409f57600080fd5b60006140ad85828601613ea0565b92505060206140be85828601613eb5565b9150509250929050565b600080604083850312156140db57600080fd5b60006140e985828601613ea0565b92505060206140fa85828601613f48565b9150509250929050565b60008060006060848603121561411957600080fd5b600061412786828701613ea0565b935050602061413886828701613f48565b925050604061414986828701613f48565b9150509250925092565b6000806000806080858703121561416957600080fd5b600061417787828801613ea0565b945050602061418887828801613f48565b935050604061419987828801613f48565b92505060606141aa87828801613f48565b91505092959194509250565b600080600080600060a086880312156141ce57600080fd5b60006141dc88828901613ea0565b95505060206141ed88828901613f48565b94505060406141fe88828901613f48565b935050606061420f88828901613f48565b925050608086013567ffffffffffffffff81111561422c57600080fd5b61423888828901613ef4565b9150509295509295909350565b60006020828403121561425757600080fd5b600061426584828501613eca565b91505092915050565b60006020828403121561428057600080fd5b600061428e84828501613edf565b91505092915050565b6000806000606084860312156142ac57600080fd5b600084013567ffffffffffffffff8111156142c657600080fd5b6142d286828701613f1e565b935050602084013567ffffffffffffffff8111156142ef57600080fd5b6142fb86828701613f1e565b925050604084013567ffffffffffffffff81111561431857600080fd5b61432486828701613f1e565b9150509250925092565b60006020828403121561434057600080fd5b600061434e84828501613f48565b91505092915050565b6000806040838503121561436a57600080fd5b600061437885828601613f48565b925050602061438985828601613f48565b9150509250929050565b6000806000606084860312156143a857600080fd5b60006143b686828701613f48565b93505060206143c786828701613f48565b92505060406143d886828701613f48565b9150509250925092565b600080600080608085870312156143f857600080fd5b600061440687828801613f48565b945050602061441787828801613f48565b935050604061442887828801613f48565b925050606085013567ffffffffffffffff81111561444557600080fd5b61445187828801613ef4565b91505092959194509250565b60006144698383614882565b60808301905092915050565b61447e81614f6f565b82525050565b61448d81614f6f565b82525050565b600061449e82614dee565b6144a88185614e1c565b93506144b383614dde565b8060005b838110156144e45781516144cb888261445d565b97506144d683614e0f565b9250506001810190506144b7565b5085935050505092915050565b6144fa81614f81565b82525050565b600061450b82614df9565b6145158185614e2d565b9350614525818560208601614ff2565b61452e816151be565b840191505092915050565b600061454482614e04565b61454e8185614e3e565b935061455e818560208601614ff2565b614567816151be565b840191505092915050565b600061457d82614e04565b6145878185614e4f565b9350614597818560208601614ff2565b80840191505092915050565b60006145b0601383614e4f565b91506145bb826151cf565b601382019050919050565b60006145d3603283614e3e565b91506145de826151f8565b604082019050919050565b60006145f6602583614e3e565b915061460182615247565b604082019050919050565b6000614619601c83614e3e565b915061462482615296565b602082019050919050565b600061463c602483614e3e565b9150614647826152bf565b604082019050919050565b600061465f601983614e3e565b915061466a8261530e565b602082019050919050565b6000614682602c83614e3e565b915061468d82615337565b604082019050919050565b60006146a5603883614e3e565b91506146b082615386565b604082019050919050565b60006146c8602a83614e3e565b91506146d3826153d5565b604082019050919050565b60006146eb602983614e3e565b91506146f682615424565b604082019050919050565b600061470e602e83614e3e565b915061471982615473565b604082019050919050565b6000614731600283614e4f565b915061473c826154c2565b600282019050919050565b6000614754602083614e3e565b915061475f826154eb565b602082019050919050565b6000614777600d83614e4f565b915061478282615514565b600d82019050919050565b600061479a603183614e3e565b91506147a58261553d565b604082019050919050565b60006147bd602c83614e3e565b91506147c88261558c565b604082019050919050565b60006147e0602f83614e3e565b91506147eb826155db565b604082019050919050565b6000614803600a83614e4f565b915061480e8261562a565b600a82019050919050565b6000614826602183614e3e565b915061483182615653565b604082019050919050565b6000614849601d83614e4f565b9150614854826156a2565b601d82019050919050565b600061486c603183614e3e565b9150614877826156cb565b604082019050919050565b6080820160008201516148986000850182614475565b5060208201516148ab602085018261492c565b5060408201516148be604085018261492c565b5060608201516148d1606085018261492c565b50505050565b6080820160008201516148ed6000850182614475565b506020820151614900602085018261492c565b506040820151614913604085018261492c565b506060820151614926606085018261492c565b50505050565b61493581614fd9565b82525050565b61494481614fd9565b82525050565b60006149568285614572565b91506149628284614572565b91508190509392505050565b6000614979826147f6565b91506149858286614572565b9150614990826145a3565b915061499c8285614572565b91506149a78261476a565b91506149b38284614572565b91506149be82614724565b9150819050949350505050565b60006149d68261483c565b91506149e28284614572565b915081905092915050565b6000602082019050614a026000830184614484565b92915050565b6000608082019050614a1d6000830187614484565b614a2a6020830186614484565b614a37604083018561493b565b8181036060830152614a498184614500565b905095945050505050565b6000608082019050614a696000830187614484565b614a76602083018661493b565b614a83604083018561493b565b614a90606083018461493b565b95945050505050565b60006020820190508181036000830152614ab38184614493565b905092915050565b6000602082019050614ad060008301846144f1565b92915050565b60006020820190508181036000830152614af08184614539565b905092915050565b60006020820190508181036000830152614b11816145c6565b9050919050565b60006020820190508181036000830152614b31816145e9565b9050919050565b60006020820190508181036000830152614b518161460c565b9050919050565b60006020820190508181036000830152614b718161462f565b9050919050565b60006020820190508181036000830152614b9181614652565b9050919050565b60006020820190508181036000830152614bb181614675565b9050919050565b60006020820190508181036000830152614bd181614698565b9050919050565b60006020820190508181036000830152614bf1816146bb565b9050919050565b60006020820190508181036000830152614c11816146de565b9050919050565b60006020820190508181036000830152614c3181614701565b9050919050565b60006020820190508181036000830152614c5181614747565b9050919050565b60006020820190508181036000830152614c718161478d565b9050919050565b60006020820190508181036000830152614c91816147b0565b9050919050565b60006020820190508181036000830152614cb1816147d3565b9050919050565b60006020820190508181036000830152614cd181614819565b9050919050565b60006020820190508181036000830152614cf18161485f565b9050919050565b6000608082019050614d0d60008301846148d7565b92915050565b6000602082019050614d28600083018461493b565b92915050565b6000604082019050614d43600083018561493b565b614d50602083018461493b565b9392505050565b6000614d61614d72565b9050614d6d8282615057565b919050565b6000604051905090565b600067ffffffffffffffff821115614d9757614d9661518f565b5b614da0826151be565b9050602081019050919050565b600067ffffffffffffffff821115614dc857614dc761518f565b5b614dd1826151be565b9050602081019050919050565b6000819050602082019050919050565b600081519050919050565b600081519050919050565b600081519050919050565b6000602082019050919050565b600082825260208201905092915050565b600082825260208201905092915050565b600082825260208201905092915050565b600081905092915050565b6000614e6582614fd9565b9150614e7083614fd9565b9250827fffffffffffffffffffffffffffffffffffffffffffffffffffffffffffffffff03821115614ea557614ea4615102565b5b828201905092915050565b6000614ebb82614fd9565b9150614ec683614fd9565b925082614ed657614ed5615131565b5b828204905092915050565b6000614eec82614fd9565b9150614ef783614fd9565b9250817fffffffffffffffffffffffffffffffffffffffffffffffffffffffffffffffff0483118215151615614f3057614f2f615102565b5b828202905092915050565b6000614f4682614fd9565b9150614f5183614fd9565b925082821015614f6457614f63615102565b5b828203905092915050565b6000614f7a82614fb9565b9050919050565b60008115159050919050565b60007fffffffff0000000000000000000000000000000000000000000000000000000082169050919050565b600073ffffffffffffffffffffffffffffffffffffffff82169050919050565b6000819050919050565b82818337600083830152505050565b60005b83811015615010578082015181840152602081019050614ff5565b8381111561501f576000848401525b50505050565b6000600282049050600182168061503d57607f821691505b6020821081141561505157615050615160565b5b50919050565b615060826151be565b810181811067ffffffffffffffff8211171561507f5761507e61518f565b5b80604052505050565b600061509382614fd9565b91507fffffffffffffffffffffffffffffffffffffffffffffffffffffffffffffffff8214156150c6576150c5615102565b5b600182019050919050565b60006150dc82614fd9565b91506150e783614fd9565b9250826150f7576150f6615131565b5b828206905092915050565b7f4e487b7100000000000000000000000000000000000000000000000000000000600052601160045260246000fd5b7f4e487b7100000000000000000000000000000000000000000000000000000000600052601260045260246000fd5b7f4e487b7100000000000000000000000000000000000000000000000000000000600052602260045260246000fd5b7f4e487b7100000000000000000000000000000000000000000000000000000000600052604160045260246000fd5b6000601f19601f8301169050919050565b7f222c20226465736372697074696f6e223a202200000000000000000000000000600082015250565b7f4552433732313a207472616e7366657220746f206e6f6e20455243373231526560008201527f63656976657220696d706c656d656e7465720000000000000000000000000000602082015250565b7f4552433732313a207472616e736665722066726f6d20696e636f72726563742060008201527f6f776e6572000000000000000000000000000000000000000000000000000000602082015250565b7f4552433732313a20746f6b656e20616c7265616479206d696e74656400000000600082015250565b7f4552433732313a207472616e7366657220746f20746865207a65726f2061646460008201527f7265737300000000000000000000000000000000000000000000000000000000602082015250565b7f4552433732313a20617070726f766520746f2063616c6c657200000000000000600082015250565b7f4552433732313a206f70657261746f7220717565727920666f72206e6f6e657860008201527f697374656e7420746f6b656e0000000000000000000000000000000000000000602082015250565b7f4552433732313a20617070726f76652063616c6c6572206973206e6f74206f7760008201527f6e6572206e6f7220617070726f76656420666f7220616c6c0000000000000000602082015250565b7f4552433732313a2062616c616e636520717565727920666f7220746865207a6560008201527f726f206164647265737300000000000000000000000000000000000000000000602082015250565b7f4552433732313a206f776e657220717565727920666f72206e6f6e657869737460008201527f656e7420746f6b656e0000000000000000000000000000000000000000000000602082015250565b7f45524337323155524953746f726167653a2055524920736574206f66206e6f6e60008201527f6578697374656e7420746f6b656e000000000000000000000000000000000000602082015250565b7f227d000000000000000000000000000000000000000000000000000000000000600082015250565b7f4552433732313a206d696e7420746f20746865207a65726f2061646472657373600082015250565b7f222c2022696d616765223a202200000000000000000000000000000000000000600082015250565b7f45524337323155524953746f726167653a2055524920717565727920666f722060008201527f6e6f6e6578697374656e7420746f6b656e000000000000000000000000000000602082015250565b7f4552433732313a20617070726f76656420717565727920666f72206e6f6e657860008201527f697374656e7420746f6b656e0000000000000000000000000000000000000000602082015250565b7f4552433732314d657461646174613a2055524920717565727920666f72206e6f60008201527f6e6578697374656e7420746f6b656e0000000000000000000000000000000000602082015250565b7f7b226e616d65223a202200000000000000000000000000000000000000000000600082015250565b7f4552433732313a20617070726f76616c20746f2063757272656e74206f776e6560008201527f7200000000000000000000000000000000000000000000000000000000000000602082015250565b7f646174613a6170706c69636174696f6e2f6a736f6e3b6261736536342c000000600082015250565b7f4552433732313a207472616e736665722063616c6c6572206973206e6f74206f60008201527f776e6572206e6f7220617070726f766564000000000000000000000000000000602082015250565b61572381614f6f565b811461572e57600080fd5b50565b61573a81614f81565b811461574557600080fd5b50565b61575181614f8d565b811461575c57600080fd5b50565b61576881614fd9565b811461577357600080fd5b5056fe4142434445464748494a4b4c4d4e4f505152535455565758595a6162636465666768696a6b6c6d6e6f707172737475767778797a303132333435363738392b2fa2646970667358221220c4642ae36327003ef4456be7bfc7a22967a5cc449179b87b977e574c1ed1ea6c64736f6c63430008040033",
  "linkReferences": {},
  "deployedLinkReferences": {}
}