{
  "_format": "hh-sol-artifact-1",
  "contractName": "TimeLimitedToken",
  "sourceName": "contracts/TimeLimitedToken.sol",
  "abi": [
    {
      "inputs": [],
      "stateMutability": "nonpayable",
      "type": "constructor"
    },
    {
      "anonymous": false,
      "inputs": [
        {
          "indexed": true,
          "internalType": "address",
          "name": "owner",
          "type": "address"
        },
        {
          "indexed": true,
          "internalType": "address",
          "name": "approved",
          "type": "address"
        },
        {
          "indexed": true,
          "internalType": "uint256",
          "name": "tokenId",
          "type": "uint256"
        }
      ],
      "name": "Approval",
      "type": "event"
    },
    {
      "anonymous": false,
      "inputs": [
        {
          "indexed": true,
          "internalType": "address",
          "name": "owner",
          "type": "address"
        },
        {
          "indexed": true,
          "internalType": "address",
          "name": "operator",
          "type": "address"
        },
        {
          "indexed": false,
          "internalType": "bool",
          "name": "approved",
          "type": "bool"
        }
      ],
      "name": "ApprovalForAll",
      "type": "event"
    },
    {
      "anonymous": false,
      "inputs": [
        {
          "indexed": true,
          "internalType": "address",
          "name": "_from",
          "type": "address"
        },
        {
          "indexed": false,
          "internalType": "string",
          "name": "_tokenURI",
          "type": "string"
        }
      ],
      "name": "AssetCreated",
      "type": "event"
    },
    {
      "anonymous": false,
      "inputs": [
        {
          "indexed": true,
          "internalType": "address",
          "name": "_to",
          "type": "address"
        },
        {
          "indexed": true,
          "internalType": "uint256",
          "name": "_tokenId",
          "type": "uint256"
        },
        {
          "indexed": false,
          "internalType": "uint256",
          "name": "_start",
          "type": "uint256"
        },
        {
          "indexed": false,
          "internalType": "uint256",
          "name": "_end",
          "type": "uint256"
        }
      ],
      "name": "LeaseApproval",
      "type": "event"
    },
    {
      "anonymous": false,
      "inputs": [
        {
          "indexed": true,
          "internalType": "address",
          "name": "_from",
          "type": "address"
        },
        {
          "indexed": true,
          "internalType": "address",
          "name": "_operator",
          "type": "address"
        },
        {
          "indexed": false,
          "internalType": "bool",
          "name": "_approved",
          "type": "bool"
        }
      ],
      "name": "LeaseApprovalForAll",
      "type": "event"
    },
    {
      "anonymous": false,
      "inputs": [
        {
          "indexed": true,
          "internalType": "uint256",
          "name": "_tokenId",
          "type": "uint256"
        },
        {
          "indexed": true,
          "internalType": "address",
          "name": "_lessee",
          "type": "address"
        },
        {
          "indexed": true,
          "internalType": "address",
          "name": "_addressTo",
          "type": "address"
        },
        {
          "indexed": false,
          "internalType": "uint256",
          "name": "_start",
          "type": "uint256"
        },
        {
          "indexed": false,
          "internalType": "uint256",
          "name": "_end",
          "type": "uint256"
        }
      ],
      "name": "LeaseTransferred",
      "type": "event"
    },
    {
      "anonymous": false,
      "inputs": [
        {
          "indexed": true,
          "internalType": "uint256",
          "name": "_tokenId",
          "type": "uint256"
        },
        {
          "indexed": true,
          "internalType": "address",
          "name": "_lessee",
          "type": "address"
        },
        {
          "indexed": false,
          "internalType": "uint256",
          "name": "_start",
          "type": "uint256"
        },
        {
          "indexed": false,
          "internalType": "uint256",
          "name": "_end",
          "type": "uint256"
        }
      ],
      "name": "Leased",
      "type": "event"
    },
    {
      "anonymous": false,
      "inputs": [
        {
          "indexed": true,
          "internalType": "address",
          "name": "from",
          "type": "address"
        },
        {
          "indexed": true,
          "internalType": "address",
          "name": "to",
          "type": "address"
        },
        {
          "indexed": true,
          "internalType": "uint256",
          "name": "tokenId",
          "type": "uint256"
        }
      ],
      "name": "Transfer",
      "type": "event"
    },
    {
      "anonymous": false,
      "inputs": [
        {
          "indexed": true,
          "internalType": "uint256",
          "name": "_tokenId",
          "type": "uint256"
        },
        {
          "indexed": true,
          "internalType": "address",
          "name": "_lessee",
          "type": "address"
        },
        {
          "indexed": false,
          "internalType": "uint256",
          "name": "_start",
          "type": "uint256"
        },
        {
          "indexed": false,
          "internalType": "uint256",
          "name": "_end",
          "type": "uint256"
        }
      ],
      "name": "Unleased",
      "type": "event"
    },
    {
      "inputs": [],
      "name": "MAX_DURATION",
      "outputs": [
        {
          "internalType": "uint256",
          "name": "",
          "type": "uint256"
        }
      ],
      "stateMutability": "view",
      "type": "function"
    },
    {
      "inputs": [],
      "name": "MAX_LEASE_DURATION",
      "outputs": [
        {
          "internalType": "uint256",
          "name": "",
          "type": "uint256"
        }
      ],
      "stateMutability": "view",
      "type": "function"
    },
    {
      "inputs": [],
      "name": "MIN_DURATION",
      "outputs": [
        {
          "internalType": "uint256",
          "name": "",
          "type": "uint256"
        }
      ],
      "stateMutability": "view",
      "type": "function"
    },
    {
      "inputs": [],
      "name": "MIN_LEASE_DURATION",
      "outputs": [
        {
          "internalType": "uint256",
          "name": "",
          "type": "uint256"
        }
      ],
      "stateMutability": "view",
      "type": "function"
    },
    {
      "inputs": [],
      "name": "TIMESTAMP",
      "outputs": [
        {
          "internalType": "bool",
          "name": "",
          "type": "bool"
        }
      ],
      "stateMutability": "view",
      "type": "function"
    },
    {
      "inputs": [],
      "name": "TIME_START",
      "outputs": [
        {
          "internalType": "uint256",
          "name": "",
          "type": "uint256"
        }
      ],
      "stateMutability": "view",
      "type": "function"
    },
    {
      "inputs": [],
      "name": "USE_TIMESTAMP",
      "outputs": [
        {
          "internalType": "bool",
          "name": "",
          "type": "bool"
        }
      ],
      "stateMutability": "pure",
      "type": "function"
    },
    {
      "inputs": [
        {
          "internalType": "address",
          "name": "to",
          "type": "address"
        },
        {
          "internalType": "uint256",
          "name": "tokenId",
          "type": "uint256"
        }
      ],
      "name": "approve",
      "outputs": [],
      "stateMutability": "nonpayable",
      "type": "function"
    },
    {
      "inputs": [
        {
          "internalType": "address",
          "name": "",
          "type": "address"
        },
        {
          "internalType": "uint256",
          "name": "",
          "type": "uint256"
        },
        {
          "internalType": "uint256",
          "name": "",
          "type": "uint256"
        },
        {
          "internalType": "uint256",
          "name": "",
          "type": "uint256"
        }
      ],
      "name": "approveLease",
      "outputs": [],
      "stateMutability": "pure",
      "type": "function"
    },
    {
      "inputs": [
        {
          "internalType": "uint256",
          "name": "",
          "type": "uint256"
        }
      ],
      "name": "assets",
      "outputs": [
        {
          "internalType": "string",
          "name": "",
          "type": "string"
        }
      ],
      "stateMutability": "view",
      "type": "function"
    },
    {
      "inputs": [
        {
          "internalType": "address",
          "name": "owner",
          "type": "address"
        }
      ],
      "name": "balanceOf",
      "outputs": [
        {
          "internalType": "uint256",
          "name": "",
          "type": "uint256"
        }
      ],
      "stateMutability": "view",
      "type": "function"
    },
    {
      "inputs": [
        {
          "internalType": "uint256",
          "name": "",
          "type": "uint256"
        },
        {
          "internalType": "uint256",
          "name": "",
          "type": "uint256"
        }
      ],
      "name": "daysTaken",
      "outputs": [
        {
          "internalType": "bool",
          "name": "",
          "type": "bool"
        }
      ],
      "stateMutability": "view",
      "type": "function"
    },
    {
      "inputs": [
        {
          "internalType": "uint256",
          "name": "tokenId",
          "type": "uint256"
        }
      ],
      "name": "getApproved",
      "outputs": [
        {
          "internalType": "address",
          "name": "",
          "type": "address"
        }
      ],
      "stateMutability": "view",
      "type": "function"
    },
    {
      "inputs": [
        {
          "internalType": "uint256",
          "name": "_tokenId",
          "type": "uint256"
        }
      ],
      "name": "getAssets",
      "outputs": [
        {
          "internalType": "string",
          "name": "",
          "type": "string"
        }
      ],
      "stateMutability": "view",
      "type": "function"
    },
    {
      "inputs": [
        {
          "internalType": "uint256",
          "name": "_tokenId",
          "type": "uint256"
        },
        {
          "internalType": "uint256",
          "name": "_date",
          "type": "uint256"
        }
      ],
      "name": "getLease",
      "outputs": [
        {
          "components": [
            {
              "internalType": "address",
              "name": "lessee",
              "type": "address"
            },
            {
              "internalType": "uint256",
              "name": "tokenId",
              "type": "uint256"
            },
            {
              "internalType": "uint256",
              "name": "startTime",
              "type": "uint256"
            },
            {
              "internalType": "uint256",
              "name": "endTime",
              "type": "uint256"
            }
          ],
          "internalType": "struct ITimeLimitedToken.Term",
          "name": "",
          "type": "tuple"
        }
      ],
      "stateMutability": "view",
      "type": "function"
    },
    {
      "inputs": [
        {
          "internalType": "uint256",
          "name": "",
          "type": "uint256"
        },
        {
          "internalType": "uint256",
          "name": "",
          "type": "uint256"
        },
        {
          "internalType": "uint256",
          "name": "",
          "type": "uint256"
        }
      ],
      "name": "getLeaseApproved",
      "outputs": [
        {
          "internalType": "address",
          "name": "",
          "type": "address"
        }
      ],
      "stateMutability": "pure",
      "type": "function"
    },
    {
      "inputs": [
        {
          "internalType": "uint256",
          "name": "_tokenId",
          "type": "uint256"
        },
        {
          "internalType": "uint256",
          "name": "_date",
          "type": "uint256"
        }
      ],
      "name": "getLeaseEnd",
      "outputs": [
        {
          "internalType": "uint256",
          "name": "",
          "type": "uint256"
        }
      ],
      "stateMutability": "view",
      "type": "function"
    },
    {
      "inputs": [
        {
          "internalType": "address",
          "name": "_address",
          "type": "address"
        }
      ],
      "name": "getLeases",
      "outputs": [
        {
          "components": [
            {
              "internalType": "address",
              "name": "lessee",
              "type": "address"
            },
            {
              "internalType": "uint256",
              "name": "tokenId",
              "type": "uint256"
            },
            {
              "internalType": "uint256",
              "name": "startTime",
              "type": "uint256"
            },
            {
              "internalType": "uint256",
              "name": "endTime",
              "type": "uint256"
            }
          ],
          "internalType": "struct ITimeLimitedToken.Term[]",
          "name": "",
          "type": "tuple[]"
        }
      ],
      "stateMutability": "view",
      "type": "function"
    },
    {
      "inputs": [
        {
          "internalType": "uint256",
          "name": "_tokenId",
          "type": "uint256"
        }
      ],
      "name": "getLeases",
      "outputs": [
        {
          "components": [
            {
              "internalType": "address",
              "name": "lessee",
              "type": "address"
            },
            {
              "internalType": "uint256",
              "name": "tokenId",
              "type": "uint256"
            },
            {
              "internalType": "uint256",
              "name": "startTime",
              "type": "uint256"
            },
            {
              "internalType": "uint256",
              "name": "endTime",
              "type": "uint256"
            }
          ],
          "internalType": "struct ITimeLimitedToken.Term[]",
          "name": "",
          "type": "tuple[]"
        }
      ],
      "stateMutability": "view",
      "type": "function"
    },
    {
      "inputs": [
        {
          "internalType": "address",
          "name": "owner",
          "type": "address"
        },
        {
          "internalType": "address",
          "name": "operator",
          "type": "address"
        }
      ],
      "name": "isApprovedForAll",
      "outputs": [
        {
          "internalType": "bool",
          "name": "",
          "type": "bool"
        }
      ],
      "stateMutability": "view",
      "type": "function"
    },
    {
      "inputs": [
        {
          "internalType": "address",
          "name": "",
          "type": "address"
        },
        {
          "internalType": "address",
          "name": "",
          "type": "address"
        }
      ],
      "name": "isLeaseApprovedForall",
      "outputs": [
        {
          "internalType": "bool",
          "name": "",
          "type": "bool"
        }
      ],
      "stateMutability": "pure",
      "type": "function"
    },
    {
      "inputs": [
        {
          "internalType": "uint256",
          "name": "_tokenId",
          "type": "uint256"
        },
        {
          "internalType": "uint256",
          "name": "_start",
          "type": "uint256"
        },
        {
          "internalType": "uint256",
          "name": "_end",
          "type": "uint256"
        }
      ],
      "name": "isLeaseAvailable",
      "outputs": [
        {
          "internalType": "bool",
          "name": "",
          "type": "bool"
        }
      ],
      "stateMutability": "view",
      "type": "function"
    },
    {
      "inputs": [
        {
          "internalType": "uint256",
          "name": "",
          "type": "uint256"
        }
      ],
      "name": "lastEndTimeByToken",
      "outputs": [
        {
          "internalType": "uint256",
          "name": "",
          "type": "uint256"
        }
      ],
      "stateMutability": "view",
      "type": "function"
    },
    {
      "inputs": [
        {
          "internalType": "address",
          "name": "_addressTo",
          "type": "address"
        },
        {
          "internalType": "uint256",
          "name": "_tokenId",
          "type": "uint256"
        },
        {
          "internalType": "uint256",
          "name": "_start",
          "type": "uint256"
        },
        {
          "internalType": "uint256",
          "name": "_end",
          "type": "uint256"
        },
        {
          "internalType": "bytes",
          "name": "_data",
          "type": "bytes"
        }
      ],
      "name": "lease",
      "outputs": [],
      "stateMutability": "nonpayable",
      "type": "function"
    },
    {
      "inputs": [
        {
          "internalType": "address",
          "name": "_addressTo",
          "type": "address"
        },
        {
          "internalType": "uint256",
          "name": "_tokenId",
          "type": "uint256"
        },
        {
          "internalType": "uint256",
          "name": "_start",
          "type": "uint256"
        },
        {
          "internalType": "uint256",
          "name": "_end",
          "type": "uint256"
        }
      ],
      "name": "lease",
      "outputs": [],
      "stateMutability": "nonpayable",
      "type": "function"
    },
    {
      "inputs": [
        {
          "internalType": "address",
          "name": "",
          "type": "address"
        },
        {
          "internalType": "uint256",
          "name": "",
          "type": "uint256"
        },
        {
          "internalType": "uint256",
          "name": "",
          "type": "uint256"
        }
      ],
      "name": "leasesByAddress",
      "outputs": [
        {
          "internalType": "uint256",
          "name": "",
          "type": "uint256"
        }
      ],
      "stateMutability": "view",
      "type": "function"
    },
    {
      "inputs": [
        {
          "internalType": "uint256",
          "name": "",
          "type": "uint256"
        },
        {
          "internalType": "uint256",
          "name": "",
          "type": "uint256"
        }
      ],
      "name": "leasesByToken",
      "outputs": [
        {
          "internalType": "address",
          "name": "lessee",
          "type": "address"
        },
        {
          "internalType": "uint256",
          "name": "tokenId",
          "type": "uint256"
        },
        {
          "internalType": "uint256",
          "name": "startTime",
          "type": "uint256"
        },
        {
          "internalType": "uint256",
          "name": "endTime",
          "type": "uint256"
        }
      ],
      "stateMutability": "view",
      "type": "function"
    },
    {
      "inputs": [
        {
          "internalType": "uint256",
          "name": "_tokenId",
          "type": "uint256"
        },
        {
          "internalType": "uint256",
          "name": "_date",
          "type": "uint256"
        }
      ],
      "name": "lesseeOf",
      "outputs": [
        {
          "internalType": "address",
          "name": "",
          "type": "address"
        }
      ],
      "stateMutability": "view",
      "type": "function"
    },
    {
      "inputs": [
        {
          "internalType": "string",
          "name": "_name",
          "type": "string"
        },
        {
          "internalType": "string",
          "name": "_description",
          "type": "string"
        },
        {
          "internalType": "string",
          "name": "_image",
          "type": "string"
        }
      ],
      "name": "mintAsset",
      "outputs": [],
      "stateMutability": "payable",
      "type": "function"
    },
    {
      "inputs": [],
      "name": "name",
      "outputs": [
        {
          "internalType": "string",
          "name": "",
          "type": "string"
        }
      ],
      "stateMutability": "view",
      "type": "function"
    },
    {
      "inputs": [
        {
          "internalType": "uint256",
          "name": "tokenId",
          "type": "uint256"
        }
      ],
      "name": "ownerOf",
      "outputs": [
        {
          "internalType": "address",
          "name": "",
          "type": "address"
        }
      ],
      "stateMutability": "view",
      "type": "function"
    },
    {
      "inputs": [
        {
          "internalType": "address",
          "name": "from",
          "type": "address"
        },
        {
          "internalType": "address",
          "name": "to",
          "type": "address"
        },
        {
          "internalType": "uint256",
          "name": "tokenId",
          "type": "uint256"
        }
      ],
      "name": "safeTransferFrom",
      "outputs": [],
      "stateMutability": "nonpayable",
      "type": "function"
    },
    {
      "inputs": [
        {
          "internalType": "address",
          "name": "from",
          "type": "address"
        },
        {
          "internalType": "address",
          "name": "to",
          "type": "address"
        },
        {
          "internalType": "uint256",
          "name": "tokenId",
          "type": "uint256"
        },
        {
          "internalType": "bytes",
          "name": "_data",
          "type": "bytes"
        }
      ],
      "name": "safeTransferFrom",
      "outputs": [],
      "stateMutability": "nonpayable",
      "type": "function"
    },
    {
      "inputs": [
        {
          "internalType": "address",
          "name": "operator",
          "type": "address"
        },
        {
          "internalType": "bool",
          "name": "approved",
          "type": "bool"
        }
      ],
      "name": "setApprovalForAll",
      "outputs": [],
      "stateMutability": "nonpayable",
      "type": "function"
    },
    {
      "inputs": [
        {
          "internalType": "address",
          "name": "",
          "type": "address"
        },
        {
          "internalType": "bool",
          "name": "",
          "type": "bool"
        }
      ],
      "name": "setLeaseApprovalForAll",
      "outputs": [],
      "stateMutability": "pure",
      "type": "function"
    },
    {
      "inputs": [
        {
          "internalType": "bytes4",
          "name": "interfaceId",
          "type": "bytes4"
        }
      ],
      "name": "supportsInterface",
      "outputs": [
        {
          "internalType": "bool",
          "name": "",
          "type": "bool"
        }
      ],
      "stateMutability": "view",
      "type": "function"
    },
    {
      "inputs": [],
      "name": "symbol",
      "outputs": [
        {
          "internalType": "string",
          "name": "",
          "type": "string"
        }
      ],
      "stateMutability": "view",
      "type": "function"
    },
    {
      "inputs": [
        {
          "internalType": "uint256",
          "name": "tokenId",
          "type": "uint256"
        }
      ],
      "name": "tokenURI",
      "outputs": [
        {
          "internalType": "string",
          "name": "",
          "type": "string"
        }
      ],
      "stateMutability": "view",
      "type": "function"
    },
    {
      "inputs": [
        {
          "internalType": "address",
          "name": "from",
          "type": "address"
        },
        {
          "internalType": "address",
          "name": "to",
          "type": "address"
        },
        {
          "internalType": "uint256",
          "name": "tokenId",
          "type": "uint256"
        }
      ],
      "name": "transferFrom",
      "outputs": [],
      "stateMutability": "nonpayable",
      "type": "function"
    },
    {
      "inputs": [
        {
          "internalType": "uint256",
          "name": "_tokenId",
          "type": "uint256"
        },
        {
          "internalType": "uint256",
          "name": "_start",
          "type": "uint256"
        },
        {
          "internalType": "uint256",
          "name": "_end",
          "type": "uint256"
        },
        {
          "internalType": "address",
          "name": "_addressTo",
          "type": "address"
        }
      ],
      "name": "transferLease",
      "outputs": [],
      "stateMutability": "payable",
      "type": "function"
    },
    {
      "inputs": [
        {
          "internalType": "uint256",
          "name": "_tokenId",
          "type": "uint256"
        },
        {
          "internalType": "uint256",
          "name": "_start",
          "type": "uint256"
        },
        {
          "internalType": "uint256",
          "name": "_end",
          "type": "uint256"
        }
      ],
      "name": "unlease",
      "outputs": [],
      "stateMutability": "nonpayable",
      "type": "function"
    },
    {
      "inputs": [
        {
          "internalType": "uint256",
          "name": "_tokenId",
          "type": "uint256"
        },
        {
          "internalType": "uint256",
          "name": "_start",
          "type": "uint256"
        },
        {
          "internalType": "uint256",
          "name": "_end",
          "type": "uint256"
        },
        {
          "internalType": "bytes",
          "name": "",
          "type": "bytes"
        }
      ],
      "name": "unlease",
      "outputs": [],
      "stateMutability": "nonpayable",
      "type": "function"
    }
  ],
  "bytecode": "0x60806040523480156200001157600080fd5b506040518060400160405280600581526020017f4c656173650000000000000000000000000000000000000000000000000000008152506040518060400160405280600581526020017f4c45415345000000000000000000000000000000000000000000000000000000815250816000908051906020019062000096929190620000b8565b508060019080519060200190620000af929190620000b8565b505050620001cd565b828054620000c69062000168565b90600052602060002090601f016020900481019282620000ea576000855562000136565b82601f106200010557805160ff191683800117855562000136565b8280016001018555821562000136579182015b828111156200013557825182559160200191906001019062000118565b5b50905062000145919062000149565b5090565b5b80821115620001645760008160009055506001016200014a565b5090565b600060028204905060018216806200018157607f821691505b602082108114156200019857620001976200019e565b5b50919050565b7f4e487b7100000000000000000000000000000000000000000000000000000000600052602260045260246000fd5b61589380620001dd6000396000f3fe6080604052600436106102515760003560e01c806399433cc511610139578063cf35bdd0116100b6578063e68105691161007a578063e681056914610967578063e985e9c5146109a4578063ebb3ebb3146109e1578063f121821d14610a1e578063f5fb0e1114610a47578063f85a99da14610a7057610251565b8063cf35bdd01461084a578063d3f7e55214610887578063d4c2d9e6146108c4578063d9212164146108ed578063de17556f1461092a57610251565b8063b88d4fde116100fd578063b88d4fde1461074b578063bc881d9314610774578063bd569ea6146107b1578063c517756c146107cd578063c87b56dd1461080d57610251565b806399433cc514610666578063a1faf8651461068f578063a22cb465146106cc578063b1724b46146106f5578063b6a6d1771461072057610251565b806342842e0e116101d2578063715e59bc11610196578063715e59bc1461053d5780637249b9321461057a578063749e480d146105965780638fa9e5f2146105c157806390256c8e146105fe57806395d89b411461063b57610251565b806342842e0e1461044657806345634da41461046f5780634b080f771461049a5780636352211e146104c357806370a082311461050057610251565b806323b872dd1161021957806323b872dd1461034f57806328e71245146103785780632a6b1a0b146103b557806341419378146103f257806341f757921461041b57610251565b806301ffc9a71461025657806306fdde0314610293578063081812fc146102be578063095ea7b3146102fb5780630f76214f14610324575b600080fd5b34801561026257600080fd5b5061027d60048036038101906102789190614289565b610a9b565b60405161028a9190614b62565b60405180910390f35b34801561029f57600080fd5b506102a8610b7d565b6040516102b59190614b7d565b60405180910390f35b3480156102ca57600080fd5b506102e560048036038101906102e09190614372565b610c0f565b6040516102f29190614a94565b60405180910390f35b34801561030757600080fd5b50610322600480360381019061031d919061410c565b610c94565b005b34801561033057600080fd5b50610339610dac565b6040516103469190614dba565b60405180910390f35b34801561035b57600080fd5b5061037660048036038101906103719190614006565b610db4565b005b34801561038457600080fd5b5061039f600480360381019061039a91906143d7565b610e14565b6040516103ac9190614a94565b60405180910390f35b3480156103c157600080fd5b506103dc60048036038101906103d79190614372565b610e2b565b6040516103e99190614dba565b60405180910390f35b3480156103fe57600080fd5b5061041960048036038101906104149190614197565b610e43565b005b34801561042757600080fd5b50610430610e54565b60405161043d9190614dba565b60405180910390f35b34801561045257600080fd5b5061046d60048036038101906104689190614006565b610e5f565b005b34801561047b57600080fd5b50610484610e7f565b6040516104919190614dba565b60405180910390f35b3480156104a657600080fd5b506104c160048036038101906104bc91906141fa565b610e8a565b005b3480156104cf57600080fd5b506104ea60048036038101906104e59190614372565b610ed5565b6040516104f79190614a94565b60405180910390f35b34801561050c57600080fd5b5061052760048036038101906105229190613fa1565b610f87565b6040516105349190614dba565b60405180910390f35b34801561054957600080fd5b50610564600480360381019061055f9190614148565b61103f565b6040516105719190614dba565b60405180910390f35b610594600480360381019061058f91906142db565b61107d565b005b3480156105a257600080fd5b506105ab61117b565b6040516105b89190614b62565b60405180910390f35b3480156105cd57600080fd5b506105e860048036038101906105e3919061439b565b611180565b6040516105f59190614dba565b60405180910390f35b34801561060a57600080fd5b5061062560048036038101906106209190613fa1565b611194565b6040516106329190614b40565b60405180910390f35b34801561064757600080fd5b506106506111a6565b60405161065d9190614b7d565b60405180910390f35b34801561067257600080fd5b5061068d600480360381019061068891906140d0565b611238565b005b34801561069b57600080fd5b506106b660048036038101906106b19190613fca565b611247565b6040516106c39190614b62565b60405180910390f35b3480156106d857600080fd5b506106f360048036038101906106ee91906140d0565b61125d565b005b34801561070157600080fd5b5061070a611273565b6040516107179190614dba565b60405180910390f35b34801561072c57600080fd5b5061073561127a565b6040516107429190614dba565b60405180910390f35b34801561075757600080fd5b50610772600480360381019061076d9190614055565b611281565b005b34801561078057600080fd5b5061079b6004803603810190610796919061439b565b6112e3565b6040516107a89190614b62565b60405180910390f35b6107cb60048036038101906107c69190614426565b611312565b005b3480156107d957600080fd5b506107f460048036038101906107ef919061439b565b61145e565b6040516108049493929190614afb565b60405180910390f35b34801561081957600080fd5b50610834600480360381019061082f9190614372565b6114cb565b6040516108419190614b7d565b60405180910390f35b34801561085657600080fd5b50610871600480360381019061086c9190614372565b61161d565b60405161087e9190614b7d565b60405180910390f35b34801561089357600080fd5b506108ae60048036038101906108a9919061439b565b6116bd565b6040516108bb9190614d9f565b60405180910390f35b3480156108d057600080fd5b506108eb60048036038101906108e691906143d7565b6116d6565b005b3480156108f957600080fd5b50610914600480360381019061090f9190614372565b6116e6565b6040516109219190614b7d565b60405180910390f35b34801561093657600080fd5b50610951600480360381019061094c919061439b565b61178b565b60405161095e9190614a94565b60405180910390f35b34801561097357600080fd5b5061098e600480360381019061098991906143d7565b61179e565b60405161099b9190614b62565b60405180910390f35b3480156109b057600080fd5b506109cb60048036038101906109c69190613fca565b6117b4565b6040516109d89190614b62565b60405180910390f35b3480156109ed57600080fd5b50610a086004803603810190610a039190614372565b611848565b604051610a159190614b40565b60405180910390f35b348015610a2a57600080fd5b50610a456004803603810190610a409190614197565b61193c565b005b348015610a5357600080fd5b50610a6e6004803603810190610a699190614489565b611986565b005b348015610a7c57600080fd5b50610a85611997565b604051610a929190614b62565b60405180910390f35b60007f80ac58cd000000000000000000000000000000000000000000000000000000007bffffffffffffffffffffffffffffffffffffffffffffffffffffffff1916827bffffffffffffffffffffffffffffffffffffffffffffffffffffffff19161480610b6657507f5b5e139f000000000000000000000000000000000000000000000000000000007bffffffffffffffffffffffffffffffffffffffffffffffffffffffff1916827bffffffffffffffffffffffffffffffffffffffffffffffffffffffff1916145b80610b765750610b758261199c565b5b9050919050565b606060008054610b8c906150cc565b80601f0160208091040260200160405190810160405280929190818152602001828054610bb8906150cc565b8015610c055780601f10610bda57610100808354040283529160200191610c05565b820191906000526020600020905b815481529060010190602001808311610be857829003601f168201915b5050505050905090565b6000610c1a82611a06565b610c59576040517f08c379a0000000000000000000000000000000000000000000000000000000008152600401610c5090614d1f565b60405180910390fd5b6004600083815260200190815260200160002060009054906101000a900473ffffffffffffffffffffffffffffffffffffffff169050919050565b6000610c9f82610ed5565b90508073ffffffffffffffffffffffffffffffffffffffff168373ffffffffffffffffffffffffffffffffffffffff161415610d10576040517f08c379a0000000000000000000000000000000000000000000000000000000008152600401610d0790614d5f565b60405180910390fd5b8073ffffffffffffffffffffffffffffffffffffffff16610d2f611a72565b73ffffffffffffffffffffffffffffffffffffffff161480610d5e5750610d5d81610d58611a72565b6117b4565b5b610d9d576040517f08c379a0000000000000000000000000000000000000000000000000000000008152600401610d9490614c5f565b60405180910390fd5b610da78383611a7a565b505050565b6361cf371081565b610dc5610dbf611a72565b82611b33565b610e04576040517f08c379a0000000000000000000000000000000000000000000000000000000008152600401610dfb90614d7f565b60405180910390fd5b610e0f838383611c11565b505050565b600080610e2057600080fd5b600090509392505050565b600a6020528060005260406000206000915090505481565b6000610e4e57600080fd5b50505050565b600062015180905090565b610e7a83838360405180602001604052806000815250611281565b505050565b6000624f1a00905090565b3373ffffffffffffffffffffffffffffffffffffffff168573ffffffffffffffffffffffffffffffffffffffff1614610ec257600080fd5b610ece85858585611e78565b5050505050565b6000806002600084815260200190815260200160002060009054906101000a900473ffffffffffffffffffffffffffffffffffffffff169050600073ffffffffffffffffffffffffffffffffffffffff168173ffffffffffffffffffffffffffffffffffffffff161415610f7e576040517f08c379a0000000000000000000000000000000000000000000000000000000008152600401610f7590614c9f565b60405180910390fd5b80915050919050565b60008073ffffffffffffffffffffffffffffffffffffffff168273ffffffffffffffffffffffffffffffffffffffff161415610ff8576040517f08c379a0000000000000000000000000000000000000000000000000000000008152600401610fef90614c7f565b60405180910390fd5b600360008373ffffffffffffffffffffffffffffffffffffffff1673ffffffffffffffffffffffffffffffffffffffff168152602001908152602001600020549050919050565b6009602052826000526040600020602052816000526040600020818154811061106757600080fd5b9060005260206000200160009250925050505481565b61108760076122ca565b600061109360076122e0565b905060006110c38585856040516020016110af93929190614a15565b6040516020818303038152906040526122ee565b90506000816040516020016110d89190614a72565b60405160208183030381529060405290506110f33384612478565b6110fd8382612496565b80600c60008581526020019081526020016000209080519060200190611124929190613d87565b503373ffffffffffffffffffffffffffffffffffffffff167fa0cb282b65d69a39a4d7684f44a7c15b2b3761982ad6a6d947865bfd5220c8158260405161116b9190614b7d565b60405180910390a2505050505050565b600081565b600061118c838361250a565b905092915050565b606060006111a157600080fd5b919050565b6060600180546111b5906150cc565b80601f01602080910402602001604051908101604052809291908181526020018280546111e1906150cc565b801561122e5780601f106112035761010080835404028352916020019161122e565b820191906000526020600020905b81548152906001019060200180831161121157829003601f168201915b5050505050905090565b600061124357600080fd5b5050565b60008061125357600080fd5b6000905092915050565b61126f611268611a72565b838361253f565b5050565b624f1a0081565b6201518081565b61129261128c611a72565b83611b33565b6112d1576040517f08c379a00000000000000000000000000000000000000000000000000000000081526004016112c890614d7f565b60405180910390fd5b6112dd848484846126ac565b50505050565b600b6020528160005260406000206020528060005260406000206000915091509054906101000a900460ff1681565b600084141561132057600080fd5b600082141561132e57600080fd5b81831061133a57600080fd5b60006113718561136c6361cf371061135e620151808961270890919063ffffffff16565b61271e90919063ffffffff16565b612734565b90503373ffffffffffffffffffffffffffffffffffffffff16816000015173ffffffffffffffffffffffffffffffffffffffff16146113af57600080fd5b82816060015110156113c057600080fd5b6000816040015190506000826060015190506000611404620151806113f66361cf371087604001516129e090919063ffffffff16565b6129f690919063ffffffff16565b905060006114386201518061142a6361cf371088606001516129e090919063ffffffff16565b6129f690919063ffffffff16565b9050611445898383612a0c565b611453898989898888612e4f565b505050505050505050565b6008602052816000526040600020818154811061147a57600080fd5b9060005260206000209060040201600091509150508060000160009054906101000a900473ffffffffffffffffffffffffffffffffffffffff16908060010154908060020154908060030154905084565b60606114d682611a06565b611515576040517f08c379a000000000000000000000000000000000000000000000000000000000815260040161150c90614cff565b60405180910390fd5b6000600660008481526020019081526020016000208054611535906150cc565b80601f0160208091040260200160405190810160405280929190818152602001828054611561906150cc565b80156115ae5780601f10611583576101008083540402835291602001916115ae565b820191906000526020600020905b81548152906001019060200180831161159157829003601f168201915b5050505050905060006115bf61335c565b90506000815114156115d5578192505050611618565b60008251111561160a5780826040516020016115f29291906149f1565b60405160208183030381529060405292505050611618565b61161384613373565b925050505b919050565b600c602052806000526040600020600091509050805461163c906150cc565b80601f0160208091040260200160405190810160405280929190818152602001828054611668906150cc565b80156116b55780601f1061168a576101008083540402835291602001916116b5565b820191906000526020600020905b81548152906001019060200180831161169857829003601f168201915b505050505081565b6116c5613e0d565b6116cf8383612734565b5092915050565b6116e1838383612a0c565b505050565b6060600c60008381526020019081526020016000208054611706906150cc565b80601f0160208091040260200160405190810160405280929190818152602001828054611732906150cc565b801561177f5780601f106117545761010080835404028352916020019161177f565b820191906000526020600020905b81548152906001019060200180831161176257829003601f168201915b50505050509050919050565b6000611797838361341a565b5092915050565b60006117ab848484613643565b90509392505050565b6000600560008473ffffffffffffffffffffffffffffffffffffffff1673ffffffffffffffffffffffffffffffffffffffff16815260200190815260200160002060008373ffffffffffffffffffffffffffffffffffffffff1673ffffffffffffffffffffffffffffffffffffffff16815260200190815260200160002060009054906101000a900460ff16905092915050565b6060600082141561185857600080fd5b60086000838152602001908152602001600020805480602002602001604051908101604052809291908181526020016000905b8282101561193157838290600052602060002090600402016040518060800160405290816000820160009054906101000a900473ffffffffffffffffffffffffffffffffffffffff1673ffffffffffffffffffffffffffffffffffffffff1673ffffffffffffffffffffffffffffffffffffffff16815260200160018201548152602001600282015481526020016003820154815250508152602001906001019061188b565b505050509050919050565b3373ffffffffffffffffffffffffffffffffffffffff168473ffffffffffffffffffffffffffffffffffffffff161461197457600080fd5b61198084848484611e78565b50505050565b611991848484612a0c565b50505050565b600090565b60007f01ffc9a7000000000000000000000000000000000000000000000000000000007bffffffffffffffffffffffffffffffffffffffffffffffffffffffff1916827bffffffffffffffffffffffffffffffffffffffffffffffffffffffff1916149050919050565b60008073ffffffffffffffffffffffffffffffffffffffff166002600084815260200190815260200160002060009054906101000a900473ffffffffffffffffffffffffffffffffffffffff1673ffffffffffffffffffffffffffffffffffffffff1614159050919050565b600033905090565b816004600083815260200190815260200160002060006101000a81548173ffffffffffffffffffffffffffffffffffffffff021916908373ffffffffffffffffffffffffffffffffffffffff160217905550808273ffffffffffffffffffffffffffffffffffffffff16611aed83610ed5565b73ffffffffffffffffffffffffffffffffffffffff167f8c5be1e5ebec7d5bd14f71427d1e84f3dd0314c0f7b2291e5b200ac8c7c3b92560405160405180910390a45050565b6000611b3e82611a06565b611b7d576040517f08c379a0000000000000000000000000000000000000000000000000000000008152600401611b7490614c3f565b60405180910390fd5b6000611b8883610ed5565b90508073ffffffffffffffffffffffffffffffffffffffff168473ffffffffffffffffffffffffffffffffffffffff161480611bf757508373ffffffffffffffffffffffffffffffffffffffff16611bdf84610c0f565b73ffffffffffffffffffffffffffffffffffffffff16145b80611c085750611c0781856117b4565b5b91505092915050565b8273ffffffffffffffffffffffffffffffffffffffff16611c3182610ed5565b73ffffffffffffffffffffffffffffffffffffffff1614611c87576040517f08c379a0000000000000000000000000000000000000000000000000000000008152600401611c7e90614bbf565b60405180910390fd5b600073ffffffffffffffffffffffffffffffffffffffff168273ffffffffffffffffffffffffffffffffffffffff161415611cf7576040517f08c379a0000000000000000000000000000000000000000000000000000000008152600401611cee90614bff565b60405180910390fd5b611d028383836137ac565b611d0d600082611a7a565b6001600360008573ffffffffffffffffffffffffffffffffffffffff1673ffffffffffffffffffffffffffffffffffffffff1681526020019081526020016000206000828254611d5d9190614fe2565b925050819055506001600360008473ffffffffffffffffffffffffffffffffffffffff1673ffffffffffffffffffffffffffffffffffffffff1681526020019081526020016000206000828254611db49190614f01565b92505081905550816002600083815260200190815260200160002060006101000a81548173ffffffffffffffffffffffffffffffffffffffff021916908373ffffffffffffffffffffffffffffffffffffffff160217905550808273ffffffffffffffffffffffffffffffffffffffff168473ffffffffffffffffffffffffffffffffffffffff167fddf252ad1be2c89b69c2b068fc378daa952ba7f163c4a11628f55a4df523b3ef60405160405180910390a4611e738383836137b1565b505050565b818111611e8457600080fd5b624f1a00611eb062015180611ea285856129e090919063ffffffff16565b61270890919063ffffffff16565b1115611ebb57600080fd5b62015180611ee762015180611ed985856129e090919063ffffffff16565b61270890919063ffffffff16565b1015611ef257600080fd5b6000831415611f0057600080fd5b6000821415611f0e57600080fd5b6000811415611f1c57600080fd5b600060019050600060086000868152602001908152602001600020805480602002602001604051908101604052809291908181526020016000905b82821015611ffd57838290600052602060002090600402016040518060800160405290816000820160009054906101000a900473ffffffffffffffffffffffffffffffffffffffff1673ffffffffffffffffffffffffffffffffffffffff1673ffffffffffffffffffffffffffffffffffffffff168152602001600182015481526020016002820154815260200160038201548152505081526020019060010190611f57565b505050509050600081511461202457612017858585613643565b91508161202357600080fd5b5b60006120526361cf3710612044620151808861270890919063ffffffff16565b61271e90919063ffffffff16565b905060006120826361cf3710612074620151808861270890919063ffffffff16565b61271e90919063ffffffff16565b9050831561226f5760008690505b8581116120e7576001600b60008a8152602001908152602001600020600083815260200190815260200160002060006101000a81548160ff02191690831515021790555080806120df9061512f565b915050612090565b506008600088815260200190815260200160002060405180608001604052803373ffffffffffffffffffffffffffffffffffffffff16815260200189815260200184815260200183815250908060018154018082558091505060019003906000526020600020906004020160009091909190915060008201518160000160006101000a81548173ffffffffffffffffffffffffffffffffffffffff021916908373ffffffffffffffffffffffffffffffffffffffff1602179055506020820151816001015560408201518160020155606082015181600301555050600960003373ffffffffffffffffffffffffffffffffffffffff1673ffffffffffffffffffffffffffffffffffffffff16815260200190815260200160002060008881526020019081526020016000208351908060018154018082558091505060019003906000526020600020016000909190919091505584600a600089815260200190815260200160002054101561226e5784600a6000898152602001908152602001600020819055505b5b8773ffffffffffffffffffffffffffffffffffffffff16877f477d3a4ce93f75de2f1bc0b60f68f3670ad5f3e6ad245c7e6c8ff83bb75ec87b88886040516122b8929190614dd5565b60405180910390a35050505050505050565b6001816000016000828254019250508190555050565b600081600001549050919050565b606060008251141561231157604051806020016040528060008152509050612473565b600060405180606001604052806040815260200161581e60409139905060006003600285516123409190614f01565b61234a9190614f57565b60046123569190614f88565b67ffffffffffffffff811115612395577f4e487b7100000000000000000000000000000000000000000000000000000000600052604160045260246000fd5b6040519080825280601f01601f1916602001820160405280156123c75781602001600182028036833780820191505090505b509050600182016020820185865187015b80821015612433576003820191508151603f8160121c168501518453600184019350603f81600c1c168501518453600184019350603f8160061c168501518453600184019350603f81168501518453600184019350506123d8565b505060038651066001811461244f57600281146124625761246a565b603d6001830353603d600283035361246a565b603d60018303535b50505080925050505b919050565b6124928282604051806020016040528060008152506137b6565b5050565b61249f82611a06565b6124de576040517f08c379a00000000000000000000000000000000000000000000000000000000081526004016124d590614cbf565b60405180910390fd5b80600660008481526020019081526020016000209080519060200190612505929190613d87565b505050565b6000806125178484612734565b9050600081606001511415612530576000915050612539565b80606001519150505b92915050565b8173ffffffffffffffffffffffffffffffffffffffff168373ffffffffffffffffffffffffffffffffffffffff1614156125ae576040517f08c379a00000000000000000000000000000000000000000000000000000000081526004016125a590614c1f565b60405180910390fd5b80600560008573ffffffffffffffffffffffffffffffffffffffff1673ffffffffffffffffffffffffffffffffffffffff16815260200190815260200160002060008473ffffffffffffffffffffffffffffffffffffffff1673ffffffffffffffffffffffffffffffffffffffff16815260200190815260200160002060006101000a81548160ff0219169083151502179055508173ffffffffffffffffffffffffffffffffffffffff168373ffffffffffffffffffffffffffffffffffffffff167f17307eab39ab6107e8899845ad3d59bd9653f200f220920489ca2b5937696c318360405161269f9190614b62565b60405180910390a3505050565b6126b7848484611c11565b6126c384848484613811565b612702576040517f08c379a00000000000000000000000000000000000000000000000000000000081526004016126f990614b9f565b60405180910390fd5b50505050565b600081836127169190614f88565b905092915050565b6000818361272c9190614f01565b905092915050565b61273c613e0d565b600083141561274a57600080fd5b600082141561275857600080fd5b600060086000858152602001908152602001600020805480602002602001604051908101604052809291908181526020016000905b8282101561283357838290600052602060002090600402016040518060800160405290816000820160009054906101000a900473ffffffffffffffffffffffffffffffffffffffff1673ffffffffffffffffffffffffffffffffffffffff1673ffffffffffffffffffffffffffffffffffffffff16815260200160018201548152602001600282015481526020016003820154815250508152602001906001019061278d565b50505050905060008151141561288d578060008151811061287d577f4e487b7100000000000000000000000000000000000000000000000000000000600052603260045260246000fd5b60200260200101519150506129da565b60005b815181101561299357838282815181106128d3577f4e487b7100000000000000000000000000000000000000000000000000000000600052603260045260246000fd5b602002602001015160400151111580156129315750818181518110612921577f4e487b7100000000000000000000000000000000000000000000000000000000600052603260045260246000fd5b6020026020010151606001518411155b156129805781818151811061296f577f4e487b7100000000000000000000000000000000000000000000000000000000600052603260045260246000fd5b6020026020010151925050506129da565b808061298b9061512f565b915050612890565b50806000815181106129ce577f4e487b7100000000000000000000000000000000000000000000000000000000600052603260045260246000fd5b60200260200101519150505b92915050565b600081836129ee9190614fe2565b905092915050565b60008183612a049190614f57565b905092915050565b6000600860008581526020019081526020016000208054905011612a2f57600080fd5b6000612a6684612a616361cf3710612a53620151808861270890919063ffffffff16565b61271e90919063ffffffff16565b61341a565b90503373ffffffffffffffffffffffffffffffffffffffff168173ffffffffffffffffffffffffffffffffffffffff1614612aa057600080fd5b6000600960003373ffffffffffffffffffffffffffffffffffffffff1673ffffffffffffffffffffffffffffffffffffffff1681526020019081526020016000206000868152602001908152602001600020805480602002602001604051908101604052809291908181526020018280548015612b3c57602002820191906000526020600020905b815481526020019060010190808311612b28575b505050505090506000612b4f86866139a8565b90506000612b5d878761250a565b905060005b8351811015612df45782600860008a8152602001908152602001600020858381518110612bb8577f4e487b7100000000000000000000000000000000000000000000000000000000600052603260045260246000fd5b602002602001015181548110612bf7577f4e487b7100000000000000000000000000000000000000000000000000000000600052603260045260246000fd5b9060005260206000209060040201600201541415612de15760086000898152602001908152602001600020848281518110612c5b577f4e487b7100000000000000000000000000000000000000000000000000000000600052603260045260246000fd5b602002602001015181548110612c9a577f4e487b7100000000000000000000000000000000000000000000000000000000600052603260045260246000fd5b9060005260206000209060040201600080820160006101000a81549073ffffffffffffffffffffffffffffffffffffffff021916905560018201600090556002820160009055600382016000905550506000600960003373ffffffffffffffffffffffffffffffffffffffff1673ffffffffffffffffffffffffffffffffffffffff16815260200190815260200160002060008a81526020019081526020016000208281548110612d74577f4e487b7100000000000000000000000000000000000000000000000000000000600052603260045260246000fd5b906000526020600020018190555060008390505b828111612ddf576000600b60008b8152602001908152602001600020600083815260200190815260200160002060006101000a81548160ff0219169083151502179055508080612dd79061512f565b915050612d88565b505b8080612dec9061512f565b915050612b62565b503373ffffffffffffffffffffffffffffffffffffffff16877f9f2662851b7e3b92d1ef8bc673a0ebd53bb362af9a04856acbd418f0076906a98888604051612e3e929190614dd5565b60405180910390a350505050505050565b848411612e5b57600080fd5b624f1a00612e8762015180612e7988886129e090919063ffffffff16565b61270890919063ffffffff16565b1115612e9257600080fd5b62015180612ebe62015180612eb088886129e090919063ffffffff16565b61270890919063ffffffff16565b1015612ec957600080fd5b6000861415612ed757600080fd5b6000851415612ee557600080fd5b6000841415612ef357600080fd5b600060019050600060086000898152602001908152602001600020805480602002602001604051908101604052809291908181526020016000905b82821015612fd457838290600052602060002090600402016040518060800160405290816000820160009054906101000a900473ffffffffffffffffffffffffffffffffffffffff1673ffffffffffffffffffffffffffffffffffffffff1673ffffffffffffffffffffffffffffffffffffffff168152602001600182015481526020016002820154815260200160038201548152505081526020019060010190612f2e565b5050505090506000815114612ff157612fee888888613643565b91505b600061301f6361cf3710613011620151808b61270890919063ffffffff16565b61271e90919063ffffffff16565b9050600061304f6361cf3710613041620151808b61270890919063ffffffff16565b61271e90919063ffffffff16565b9050600061307f620151806130716361cf37108a6129e090919063ffffffff16565b6129f690919063ffffffff16565b905060006130af620151806130a16361cf37108a6129e090919063ffffffff16565b6129f690919063ffffffff16565b9050851561334e5760008b90505b8a8111613114576001600b60008f8152602001908152602001600020600083815260200190815260200160002060006101000a81548160ff021916908315150217905550808061310c9061512f565b9150506130bd565b50600860008d815260200190815260200160002060405180608001604052808b73ffffffffffffffffffffffffffffffffffffffff1681526020018e815260200186815260200185815250908060018154018082558091505060019003906000526020600020906004020160009091909190915060008201518160000160006101000a81548173ffffffffffffffffffffffffffffffffffffffff021916908373ffffffffffffffffffffffffffffffffffffffff1602179055506020820151816001015560408201518160020155606082015181600301555050600960008a73ffffffffffffffffffffffffffffffffffffffff1673ffffffffffffffffffffffffffffffffffffffff16815260200190815260200160002060008d815260200190815260200160002085519080600181540180825580915050600190039060005260206000200160009091909190915055600061327d60018d6129e090919063ffffffff16565b9050600061329560018d61271e90919063ffffffff16565b9050600081846132a59190614fe2565b1180156132bd5750600084836132bb9190614fe2565b145b156132cf576132ce8b8f8386611e78565b5b600081846132dd9190614fe2565b1480156132f55750600084836132f39190614fe2565b115b15613307576133068b8f8685611e78565b5b600081846133159190614fe2565b11801561332d57506000848361332b9190614fe2565b115b1561334b5761333e8b8f8685611e78565b61334a8b8f8386611e78565b5b50505b505050505050505050505050565b606060405180602001604052806000815250905090565b606061337e82611a06565b6133bd576040517f08c379a00000000000000000000000000000000000000000000000000000000081526004016133b490614d3f565b60405180910390fd5b60006133c761335c565b905060008151116133e75760405180602001604052806000815250613412565b806133f1846139dd565b6040516020016134029291906149f1565b6040516020818303038152906040525b915050919050565b60008083141561342957600080fd5b600082141561343757600080fd5b600060086000858152602001908152602001600020805480602002602001604051908101604052809291908181526020016000905b8282101561351257838290600052602060002090600402016040518060800160405290816000820160009054906101000a900473ffffffffffffffffffffffffffffffffffffffff1673ffffffffffffffffffffffffffffffffffffffff1673ffffffffffffffffffffffffffffffffffffffff16815260200160018201548152602001600282015481526020016003820154815250508152602001906001019061346c565b50505050905060008151141561352c57600091505061363d565b60005b81518110156136365783828281518110613572577f4e487b7100000000000000000000000000000000000000000000000000000000600052603260045260246000fd5b602002602001015160400151111580156135d057508181815181106135c0577f4e487b7100000000000000000000000000000000000000000000000000000000600052603260045260246000fd5b6020026020010151606001518411155b156136235781818151811061360e577f4e487b7100000000000000000000000000000000000000000000000000000000600052603260045260246000fd5b6020026020010151600001519250505061363d565b808061362e9061512f565b91505061352f565b5060009150505b92915050565b60008042905083831161365557600080fd5b624f1a006136816201518061367387876129e090919063ffffffff16565b61270890919063ffffffff16565b111561368c57600080fd5b620151806136b8620151806136aa87876129e090919063ffffffff16565b61270890919063ffffffff16565b10156136c357600080fd5b60006136f1620151806136e36361cf3710856129e090919063ffffffff16565b6129f690919063ffffffff16565b90508484101561370057600080fd5b8085101561370d57600080fd5b600a600087815260200190815260200160002054851115613733576001925050506137a5565b60008590505b84811161379d5760011515600b6000898152602001908152602001600020600083815260200190815260200160002060009054906101000a900460ff161515141561378a57600093505050506137a5565b80806137959061512f565b915050613739565b506001925050505b9392505050565b505050565b505050565b6137c08383613b8a565b6137cd6000848484613811565b61380c576040517f08c379a000000000000000000000000000000000000000000000000000000000815260040161380390614b9f565b60405180910390fd5b505050565b60006138328473ffffffffffffffffffffffffffffffffffffffff16613d64565b1561399b578373ffffffffffffffffffffffffffffffffffffffff1663150b7a0261385b611a72565b8786866040518563ffffffff1660e01b815260040161387d9493929190614aaf565b602060405180830381600087803b15801561389757600080fd5b505af19250505080156138c857506040513d601f19601f820116820180604052508101906138c591906142b2565b60015b61394b573d80600081146138f8576040519150601f19603f3d011682016040523d82523d6000602084013e6138fd565b606091505b50600081511415613943576040517f08c379a000000000000000000000000000000000000000000000000000000000815260040161393a90614b9f565b60405180910390fd5b805181602001fd5b63150b7a0260e01b7bffffffffffffffffffffffffffffffffffffffffffffffffffffffff1916817bffffffffffffffffffffffffffffffffffffffffffffffffffffffff1916149150506139a0565b600190505b949350505050565b6000806139b58484612734565b90506000816040015114156139ce5760009150506139d7565b80606001519150505b92915050565b60606000821415613a25576040518060400160405280600181526020017f30000000000000000000000000000000000000000000000000000000000000008152509050613b85565b600082905060005b60008214613a57578080613a409061512f565b915050600a82613a509190614f57565b9150613a2d565b60008167ffffffffffffffff811115613a99577f4e487b7100000000000000000000000000000000000000000000000000000000600052604160045260246000fd5b6040519080825280601f01601f191660200182016040528015613acb5781602001600182028036833780820191505090505b5090505b60008514613b7e57600182613ae49190614fe2565b9150600a85613af39190615178565b6030613aff9190614f01565b60f81b818381518110613b3b577f4e487b7100000000000000000000000000000000000000000000000000000000600052603260045260246000fd5b60200101907effffffffffffffffffffffffffffffffffffffffffffffffffffffffffffff1916908160001a905350600a85613b779190614f57565b9450613acf565b8093505050505b919050565b600073ffffffffffffffffffffffffffffffffffffffff168273ffffffffffffffffffffffffffffffffffffffff161415613bfa576040517f08c379a0000000000000000000000000000000000000000000000000000000008152600401613bf190614cdf565b60405180910390fd5b613c0381611a06565b15613c43576040517f08c379a0000000000000000000000000000000000000000000000000000000008152600401613c3a90614bdf565b60405180910390fd5b613c4f600083836137ac565b6001600360008473ffffffffffffffffffffffffffffffffffffffff1673ffffffffffffffffffffffffffffffffffffffff1681526020019081526020016000206000828254613c9f9190614f01565b92505081905550816002600083815260200190815260200160002060006101000a81548173ffffffffffffffffffffffffffffffffffffffff021916908373ffffffffffffffffffffffffffffffffffffffff160217905550808273ffffffffffffffffffffffffffffffffffffffff16600073ffffffffffffffffffffffffffffffffffffffff167fddf252ad1be2c89b69c2b068fc378daa952ba7f163c4a11628f55a4df523b3ef60405160405180910390a4613d60600083836137b1565b5050565b6000808273ffffffffffffffffffffffffffffffffffffffff163b119050919050565b828054613d93906150cc565b90600052602060002090601f016020900481019282613db55760008555613dfc565b82601f10613dce57805160ff1916838001178555613dfc565b82800160010185558215613dfc579182015b82811115613dfb578251825591602001919060010190613de0565b5b509050613e099190613e4b565b5090565b6040518060800160405280600073ffffffffffffffffffffffffffffffffffffffff1681526020016000815260200160008152602001600081525090565b5b80821115613e64576000816000905550600101613e4c565b5090565b6000613e7b613e7684614e23565b614dfe565b905082815260208101848484011115613e9357600080fd5b613e9e84828561508a565b509392505050565b6000613eb9613eb484614e54565b614dfe565b905082815260208101848484011115613ed157600080fd5b613edc84828561508a565b509392505050565b600081359050613ef3816157c1565b92915050565b600081359050613f08816157d8565b92915050565b600081359050613f1d816157ef565b92915050565b600081519050613f32816157ef565b92915050565b600082601f830112613f4957600080fd5b8135613f59848260208601613e68565b91505092915050565b600082601f830112613f7357600080fd5b8135613f83848260208601613ea6565b91505092915050565b600081359050613f9b81615806565b92915050565b600060208284031215613fb357600080fd5b6000613fc184828501613ee4565b91505092915050565b60008060408385031215613fdd57600080fd5b6000613feb85828601613ee4565b9250506020613ffc85828601613ee4565b9150509250929050565b60008060006060848603121561401b57600080fd5b600061402986828701613ee4565b935050602061403a86828701613ee4565b925050604061404b86828701613f8c565b9150509250925092565b6000806000806080858703121561406b57600080fd5b600061407987828801613ee4565b945050602061408a87828801613ee4565b935050604061409b87828801613f8c565b925050606085013567ffffffffffffffff8111156140b857600080fd5b6140c487828801613f38565b91505092959194509250565b600080604083850312156140e357600080fd5b60006140f185828601613ee4565b925050602061410285828601613ef9565b9150509250929050565b6000806040838503121561411f57600080fd5b600061412d85828601613ee4565b925050602061413e85828601613f8c565b9150509250929050565b60008060006060848603121561415d57600080fd5b600061416b86828701613ee4565b935050602061417c86828701613f8c565b925050604061418d86828701613f8c565b9150509250925092565b600080600080608085870312156141ad57600080fd5b60006141bb87828801613ee4565b94505060206141cc87828801613f8c565b93505060406141dd87828801613f8c565b92505060606141ee87828801613f8c565b91505092959194509250565b600080600080600060a0868803121561421257600080fd5b600061422088828901613ee4565b955050602061423188828901613f8c565b945050604061424288828901613f8c565b935050606061425388828901613f8c565b925050608086013567ffffffffffffffff81111561427057600080fd5b61427c88828901613f38565b9150509295509295909350565b60006020828403121561429b57600080fd5b60006142a984828501613f0e565b91505092915050565b6000602082840312156142c457600080fd5b60006142d284828501613f23565b91505092915050565b6000806000606084860312156142f057600080fd5b600084013567ffffffffffffffff81111561430a57600080fd5b61431686828701613f62565b935050602084013567ffffffffffffffff81111561433357600080fd5b61433f86828701613f62565b925050604084013567ffffffffffffffff81111561435c57600080fd5b61436886828701613f62565b9150509250925092565b60006020828403121561438457600080fd5b600061439284828501613f8c565b91505092915050565b600080604083850312156143ae57600080fd5b60006143bc85828601613f8c565b92505060206143cd85828601613f8c565b9150509250929050565b6000806000606084860312156143ec57600080fd5b60006143fa86828701613f8c565b935050602061440b86828701613f8c565b925050604061441c86828701613f8c565b9150509250925092565b6000806000806080858703121561443c57600080fd5b600061444a87828801613f8c565b945050602061445b87828801613f8c565b935050604061446c87828801613f8c565b925050606061447d87828801613ee4565b91505092959194509250565b6000806000806080858703121561449f57600080fd5b60006144ad87828801613f8c565b94505060206144be87828801613f8c565b93505060406144cf87828801613f8c565b925050606085013567ffffffffffffffff8111156144ec57600080fd5b6144f887828801613f38565b91505092959194509250565b60006145108383614929565b60808301905092915050565b61452581615016565b82525050565b61453481615016565b82525050565b600061454582614e95565b61454f8185614ec3565b935061455a83614e85565b8060005b8381101561458b5781516145728882614504565b975061457d83614eb6565b92505060018101905061455e565b5085935050505092915050565b6145a181615028565b82525050565b60006145b282614ea0565b6145bc8185614ed4565b93506145cc818560208601615099565b6145d581615265565b840191505092915050565b60006145eb82614eab565b6145f58185614ee5565b9350614605818560208601615099565b61460e81615265565b840191505092915050565b600061462482614eab565b61462e8185614ef6565b935061463e818560208601615099565b80840191505092915050565b6000614657601383614ef6565b915061466282615276565b601382019050919050565b600061467a603283614ee5565b91506146858261529f565b604082019050919050565b600061469d602583614ee5565b91506146a8826152ee565b604082019050919050565b60006146c0601c83614ee5565b91506146cb8261533d565b602082019050919050565b60006146e3602483614ee5565b91506146ee82615366565b604082019050919050565b6000614706601983614ee5565b9150614711826153b5565b602082019050919050565b6000614729602c83614ee5565b9150614734826153de565b604082019050919050565b600061474c603883614ee5565b91506147578261542d565b604082019050919050565b600061476f602a83614ee5565b915061477a8261547c565b604082019050919050565b6000614792602983614ee5565b915061479d826154cb565b604082019050919050565b60006147b5602e83614ee5565b91506147c08261551a565b604082019050919050565b60006147d8600283614ef6565b91506147e382615569565b600282019050919050565b60006147fb602083614ee5565b915061480682615592565b602082019050919050565b600061481e600d83614ef6565b9150614829826155bb565b600d82019050919050565b6000614841603183614ee5565b915061484c826155e4565b604082019050919050565b6000614864602c83614ee5565b915061486f82615633565b604082019050919050565b6000614887602f83614ee5565b915061489282615682565b604082019050919050565b60006148aa600a83614ef6565b91506148b5826156d1565b600a82019050919050565b60006148cd602183614ee5565b91506148d8826156fa565b604082019050919050565b60006148f0601d83614ef6565b91506148fb82615749565b601d82019050919050565b6000614913603183614ee5565b915061491e82615772565b604082019050919050565b60808201600082015161493f600085018261451c565b50602082015161495260208501826149d3565b50604082015161496560408501826149d3565b50606082015161497860608501826149d3565b50505050565b608082016000820151614994600085018261451c565b5060208201516149a760208501826149d3565b5060408201516149ba60408501826149d3565b5060608201516149cd60608501826149d3565b50505050565b6149dc81615080565b82525050565b6149eb81615080565b82525050565b60006149fd8285614619565b9150614a098284614619565b91508190509392505050565b6000614a208261489d565b9150614a2c8286614619565b9150614a378261464a565b9150614a438285614619565b9150614a4e82614811565b9150614a5a8284614619565b9150614a65826147cb565b9150819050949350505050565b6000614a7d826148e3565b9150614a898284614619565b915081905092915050565b6000602082019050614aa9600083018461452b565b92915050565b6000608082019050614ac4600083018761452b565b614ad1602083018661452b565b614ade60408301856149e2565b8181036060830152614af081846145a7565b905095945050505050565b6000608082019050614b10600083018761452b565b614b1d60208301866149e2565b614b2a60408301856149e2565b614b3760608301846149e2565b95945050505050565b60006020820190508181036000830152614b5a818461453a565b905092915050565b6000602082019050614b776000830184614598565b92915050565b60006020820190508181036000830152614b9781846145e0565b905092915050565b60006020820190508181036000830152614bb88161466d565b9050919050565b60006020820190508181036000830152614bd881614690565b9050919050565b60006020820190508181036000830152614bf8816146b3565b9050919050565b60006020820190508181036000830152614c18816146d6565b9050919050565b60006020820190508181036000830152614c38816146f9565b9050919050565b60006020820190508181036000830152614c588161471c565b9050919050565b60006020820190508181036000830152614c788161473f565b9050919050565b60006020820190508181036000830152614c9881614762565b9050919050565b60006020820190508181036000830152614cb881614785565b9050919050565b60006020820190508181036000830152614cd8816147a8565b9050919050565b60006020820190508181036000830152614cf8816147ee565b9050919050565b60006020820190508181036000830152614d1881614834565b9050919050565b60006020820190508181036000830152614d3881614857565b9050919050565b60006020820190508181036000830152614d588161487a565b9050919050565b60006020820190508181036000830152614d78816148c0565b9050919050565b60006020820190508181036000830152614d9881614906565b9050919050565b6000608082019050614db4600083018461497e565b92915050565b6000602082019050614dcf60008301846149e2565b92915050565b6000604082019050614dea60008301856149e2565b614df760208301846149e2565b9392505050565b6000614e08614e19565b9050614e1482826150fe565b919050565b6000604051905090565b600067ffffffffffffffff821115614e3e57614e3d615236565b5b614e4782615265565b9050602081019050919050565b600067ffffffffffffffff821115614e6f57614e6e615236565b5b614e7882615265565b9050602081019050919050565b6000819050602082019050919050565b600081519050919050565b600081519050919050565b600081519050919050565b6000602082019050919050565b600082825260208201905092915050565b600082825260208201905092915050565b600082825260208201905092915050565b600081905092915050565b6000614f0c82615080565b9150614f1783615080565b9250827fffffffffffffffffffffffffffffffffffffffffffffffffffffffffffffffff03821115614f4c57614f4b6151a9565b5b828201905092915050565b6000614f6282615080565b9150614f6d83615080565b925082614f7d57614f7c6151d8565b5b828204905092915050565b6000614f9382615080565b9150614f9e83615080565b9250817fffffffffffffffffffffffffffffffffffffffffffffffffffffffffffffffff0483118215151615614fd757614fd66151a9565b5b828202905092915050565b6000614fed82615080565b9150614ff883615080565b92508282101561500b5761500a6151a9565b5b828203905092915050565b600061502182615060565b9050919050565b60008115159050919050565b60007fffffffff0000000000000000000000000000000000000000000000000000000082169050919050565b600073ffffffffffffffffffffffffffffffffffffffff82169050919050565b6000819050919050565b82818337600083830152505050565b60005b838110156150b757808201518184015260208101905061509c565b838111156150c6576000848401525b50505050565b600060028204905060018216806150e457607f821691505b602082108114156150f8576150f7615207565b5b50919050565b61510782615265565b810181811067ffffffffffffffff8211171561512657615125615236565b5b80604052505050565b600061513a82615080565b91507fffffffffffffffffffffffffffffffffffffffffffffffffffffffffffffffff82141561516d5761516c6151a9565b5b600182019050919050565b600061518382615080565b915061518e83615080565b92508261519e5761519d6151d8565b5b828206905092915050565b7f4e487b7100000000000000000000000000000000000000000000000000000000600052601160045260246000fd5b7f4e487b7100000000000000000000000000000000000000000000000000000000600052601260045260246000fd5b7f4e487b7100000000000000000000000000000000000000000000000000000000600052602260045260246000fd5b7f4e487b7100000000000000000000000000000000000000000000000000000000600052604160045260246000fd5b6000601f19601f8301169050919050565b7f222c20226465736372697074696f6e223a202200000000000000000000000000600082015250565b7f4552433732313a207472616e7366657220746f206e6f6e20455243373231526560008201527f63656976657220696d706c656d656e7465720000000000000000000000000000602082015250565b7f4552433732313a207472616e736665722066726f6d20696e636f72726563742060008201527f6f776e6572000000000000000000000000000000000000000000000000000000602082015250565b7f4552433732313a20746f6b656e20616c7265616479206d696e74656400000000600082015250565b7f4552433732313a207472616e7366657220746f20746865207a65726f2061646460008201527f7265737300000000000000000000000000000000000000000000000000000000602082015250565b7f4552433732313a20617070726f766520746f2063616c6c657200000000000000600082015250565b7f4552433732313a206f70657261746f7220717565727920666f72206e6f6e657860008201527f697374656e7420746f6b656e0000000000000000000000000000000000000000602082015250565b7f4552433732313a20617070726f76652063616c6c6572206973206e6f74206f7760008201527f6e6572206e6f7220617070726f76656420666f7220616c6c0000000000000000602082015250565b7f4552433732313a2062616c616e636520717565727920666f7220746865207a6560008201527f726f206164647265737300000000000000000000000000000000000000000000602082015250565b7f4552433732313a206f776e657220717565727920666f72206e6f6e657869737460008201527f656e7420746f6b656e0000000000000000000000000000000000000000000000602082015250565b7f45524337323155524953746f726167653a2055524920736574206f66206e6f6e60008201527f6578697374656e7420746f6b656e000000000000000000000000000000000000602082015250565b7f227d000000000000000000000000000000000000000000000000000000000000600082015250565b7f4552433732313a206d696e7420746f20746865207a65726f2061646472657373600082015250565b7f222c2022696d616765223a202200000000000000000000000000000000000000600082015250565b7f45524337323155524953746f726167653a2055524920717565727920666f722060008201527f6e6f6e6578697374656e7420746f6b656e000000000000000000000000000000602082015250565b7f4552433732313a20617070726f76656420717565727920666f72206e6f6e657860008201527f697374656e7420746f6b656e0000000000000000000000000000000000000000602082015250565b7f4552433732314d657461646174613a2055524920717565727920666f72206e6f60008201527f6e6578697374656e7420746f6b656e0000000000000000000000000000000000602082015250565b7f7b226e616d65223a202200000000000000000000000000000000000000000000600082015250565b7f4552433732313a20617070726f76616c20746f2063757272656e74206f776e6560008201527f7200000000000000000000000000000000000000000000000000000000000000602082015250565b7f646174613a6170706c69636174696f6e2f6a736f6e3b6261736536342c000000600082015250565b7f4552433732313a207472616e736665722063616c6c6572206973206e6f74206f60008201527f776e6572206e6f7220617070726f766564000000000000000000000000000000602082015250565b6157ca81615016565b81146157d557600080fd5b50565b6157e181615028565b81146157ec57600080fd5b50565b6157f881615034565b811461580357600080fd5b50565b61580f81615080565b811461581a57600080fd5b5056fe4142434445464748494a4b4c4d4e4f505152535455565758595a6162636465666768696a6b6c6d6e6f707172737475767778797a303132333435363738392b2fa2646970667358221220b5c3ba04b23bc46cf9a7e87d23f75ed7f63a24a57df7670b7fbcb3b7e8e2fa4864736f6c63430008040033",
  "linkReferences": {},
  "deployedLinkReferences": {}
}