{
  "_format": "hh-sol-artifact-1",
  "contractName": "TimeLimitedToken",
  "sourceName": "contracts/TimeLimitedToken.sol",
  "abi": [
    {
      "inputs": [],
      "stateMutability": "nonpayable",
      "type": "constructor"
    },
    {
      "anonymous": false,
      "inputs": [
        {
          "indexed": true,
          "internalType": "address",
          "name": "owner",
          "type": "address"
        },
        {
          "indexed": true,
          "internalType": "address",
          "name": "approved",
          "type": "address"
        },
        {
          "indexed": true,
          "internalType": "uint256",
          "name": "tokenId",
          "type": "uint256"
        }
      ],
      "name": "Approval",
      "type": "event"
    },
    {
      "anonymous": false,
      "inputs": [
        {
          "indexed": true,
          "internalType": "address",
          "name": "owner",
          "type": "address"
        },
        {
          "indexed": true,
          "internalType": "address",
          "name": "operator",
          "type": "address"
        },
        {
          "indexed": false,
          "internalType": "bool",
          "name": "approved",
          "type": "bool"
        }
      ],
      "name": "ApprovalForAll",
      "type": "event"
    },
    {
      "anonymous": false,
      "inputs": [
        {
          "indexed": true,
          "internalType": "address",
          "name": "_from",
          "type": "address"
        },
        {
          "indexed": false,
          "internalType": "string",
          "name": "_tokenURI",
          "type": "string"
        }
      ],
      "name": "AssetCreated",
      "type": "event"
    },
    {
      "anonymous": false,
      "inputs": [
        {
          "indexed": true,
          "internalType": "address",
          "name": "_to",
          "type": "address"
        },
        {
          "indexed": true,
          "internalType": "uint256",
          "name": "_tokenId",
          "type": "uint256"
        },
        {
          "indexed": false,
          "internalType": "uint256",
          "name": "_start",
          "type": "uint256"
        },
        {
          "indexed": false,
          "internalType": "uint256",
          "name": "_end",
          "type": "uint256"
        }
      ],
      "name": "LeaseApproval",
      "type": "event"
    },
    {
      "anonymous": false,
      "inputs": [
        {
          "indexed": true,
          "internalType": "address",
          "name": "_from",
          "type": "address"
        },
        {
          "indexed": true,
          "internalType": "address",
          "name": "_operator",
          "type": "address"
        },
        {
          "indexed": false,
          "internalType": "bool",
          "name": "_approved",
          "type": "bool"
        }
      ],
      "name": "LeaseApprovalForAll",
      "type": "event"
    },
    {
      "anonymous": false,
      "inputs": [
        {
          "indexed": true,
          "internalType": "uint256",
          "name": "_tokenId",
          "type": "uint256"
        },
        {
          "indexed": true,
          "internalType": "address",
          "name": "_lessee",
          "type": "address"
        },
        {
          "indexed": true,
          "internalType": "address",
          "name": "_addressTo",
          "type": "address"
        },
        {
          "indexed": false,
          "internalType": "uint256",
          "name": "_start",
          "type": "uint256"
        },
        {
          "indexed": false,
          "internalType": "uint256",
          "name": "_end",
          "type": "uint256"
        }
      ],
      "name": "LeaseTransferred",
      "type": "event"
    },
    {
      "anonymous": false,
      "inputs": [
        {
          "indexed": true,
          "internalType": "uint256",
          "name": "_tokenId",
          "type": "uint256"
        },
        {
          "indexed": true,
          "internalType": "address",
          "name": "_lessee",
          "type": "address"
        },
        {
          "indexed": false,
          "internalType": "uint256",
          "name": "_start",
          "type": "uint256"
        },
        {
          "indexed": false,
          "internalType": "uint256",
          "name": "_end",
          "type": "uint256"
        }
      ],
      "name": "Leased",
      "type": "event"
    },
    {
      "anonymous": false,
      "inputs": [
        {
          "indexed": true,
          "internalType": "address",
          "name": "from",
          "type": "address"
        },
        {
          "indexed": true,
          "internalType": "address",
          "name": "to",
          "type": "address"
        },
        {
          "indexed": true,
          "internalType": "uint256",
          "name": "tokenId",
          "type": "uint256"
        }
      ],
      "name": "Transfer",
      "type": "event"
    },
    {
      "anonymous": false,
      "inputs": [
        {
          "indexed": true,
          "internalType": "uint256",
          "name": "_tokenId",
          "type": "uint256"
        },
        {
          "indexed": true,
          "internalType": "address",
          "name": "_lessee",
          "type": "address"
        },
        {
          "indexed": false,
          "internalType": "uint256",
          "name": "_start",
          "type": "uint256"
        },
        {
          "indexed": false,
          "internalType": "uint256",
          "name": "_end",
          "type": "uint256"
        }
      ],
      "name": "Unleased",
      "type": "event"
    },
    {
      "inputs": [],
      "name": "MAX_LEASE_DURATION",
      "outputs": [
        {
          "internalType": "uint256",
          "name": "",
          "type": "uint256"
        }
      ],
      "stateMutability": "pure",
      "type": "function"
    },
    {
      "inputs": [],
      "name": "MIN_LEASE_DURATION",
      "outputs": [
        {
          "internalType": "uint256",
          "name": "",
          "type": "uint256"
        }
      ],
      "stateMutability": "pure",
      "type": "function"
    },
    {
      "inputs": [],
      "name": "TIMESTAMP",
      "outputs": [
        {
          "internalType": "bool",
          "name": "",
          "type": "bool"
        }
      ],
      "stateMutability": "view",
      "type": "function"
    },
    {
      "inputs": [],
      "name": "TIME_START",
      "outputs": [
        {
          "internalType": "uint256",
          "name": "",
          "type": "uint256"
        }
      ],
      "stateMutability": "view",
      "type": "function"
    },
    {
      "inputs": [],
      "name": "USE_TIMESTAMP",
      "outputs": [
        {
          "internalType": "bool",
          "name": "",
          "type": "bool"
        }
      ],
      "stateMutability": "pure",
      "type": "function"
    },
    {
      "inputs": [
        {
          "internalType": "address",
          "name": "",
          "type": "address"
        },
        {
          "internalType": "address",
          "name": "",
          "type": "address"
        }
      ],
      "name": "approvalbyAddress",
      "outputs": [
        {
          "internalType": "bool",
          "name": "",
          "type": "bool"
        }
      ],
      "stateMutability": "view",
      "type": "function"
    },
    {
      "inputs": [
        {
          "internalType": "bytes32",
          "name": "",
          "type": "bytes32"
        }
      ],
      "name": "approvalsbyLease",
      "outputs": [
        {
          "internalType": "address",
          "name": "",
          "type": "address"
        }
      ],
      "stateMutability": "view",
      "type": "function"
    },
    {
      "inputs": [
        {
          "internalType": "address",
          "name": "to",
          "type": "address"
        },
        {
          "internalType": "uint256",
          "name": "tokenId",
          "type": "uint256"
        }
      ],
      "name": "approve",
      "outputs": [],
      "stateMutability": "nonpayable",
      "type": "function"
    },
    {
      "inputs": [
        {
          "internalType": "address",
          "name": "_addressTo",
          "type": "address"
        },
        {
          "internalType": "uint256",
          "name": "_tokenId",
          "type": "uint256"
        },
        {
          "internalType": "uint256",
          "name": "_start",
          "type": "uint256"
        },
        {
          "internalType": "uint256",
          "name": "_end",
          "type": "uint256"
        }
      ],
      "name": "approveLease",
      "outputs": [],
      "stateMutability": "nonpayable",
      "type": "function"
    },
    {
      "inputs": [
        {
          "internalType": "uint256",
          "name": "",
          "type": "uint256"
        }
      ],
      "name": "assets",
      "outputs": [
        {
          "internalType": "string",
          "name": "",
          "type": "string"
        }
      ],
      "stateMutability": "view",
      "type": "function"
    },
    {
      "inputs": [
        {
          "internalType": "address",
          "name": "owner",
          "type": "address"
        }
      ],
      "name": "balanceOf",
      "outputs": [
        {
          "internalType": "uint256",
          "name": "",
          "type": "uint256"
        }
      ],
      "stateMutability": "view",
      "type": "function"
    },
    {
      "inputs": [
        {
          "internalType": "uint256",
          "name": "tokenId",
          "type": "uint256"
        }
      ],
      "name": "getApproved",
      "outputs": [
        {
          "internalType": "address",
          "name": "",
          "type": "address"
        }
      ],
      "stateMutability": "view",
      "type": "function"
    },
    {
      "inputs": [
        {
          "internalType": "uint256",
          "name": "_tokenId",
          "type": "uint256"
        }
      ],
      "name": "getAssets",
      "outputs": [
        {
          "internalType": "string",
          "name": "",
          "type": "string"
        }
      ],
      "stateMutability": "view",
      "type": "function"
    },
    {
      "inputs": [
        {
          "internalType": "uint256",
          "name": "_tokenId",
          "type": "uint256"
        },
        {
          "internalType": "uint256",
          "name": "_date",
          "type": "uint256"
        }
      ],
      "name": "getLease",
      "outputs": [
        {
          "components": [
            {
              "internalType": "address",
              "name": "lessee",
              "type": "address"
            },
            {
              "internalType": "uint256",
              "name": "tokenId",
              "type": "uint256"
            },
            {
              "internalType": "uint256",
              "name": "startTime",
              "type": "uint256"
            },
            {
              "internalType": "uint256",
              "name": "endTime",
              "type": "uint256"
            }
          ],
          "internalType": "struct ITimeLimitedToken.Term",
          "name": "",
          "type": "tuple"
        }
      ],
      "stateMutability": "view",
      "type": "function"
    },
    {
      "inputs": [
        {
          "internalType": "uint256",
          "name": "_tokenId",
          "type": "uint256"
        },
        {
          "internalType": "uint256",
          "name": "_start",
          "type": "uint256"
        },
        {
          "internalType": "uint256",
          "name": "_end",
          "type": "uint256"
        }
      ],
      "name": "getLeaseApproved",
      "outputs": [
        {
          "internalType": "address",
          "name": "",
          "type": "address"
        }
      ],
      "stateMutability": "view",
      "type": "function"
    },
    {
      "inputs": [
        {
          "internalType": "uint256",
          "name": "_tokenId",
          "type": "uint256"
        },
        {
          "internalType": "uint256",
          "name": "_date",
          "type": "uint256"
        }
      ],
      "name": "getLeaseEnd",
      "outputs": [
        {
          "internalType": "uint256",
          "name": "",
          "type": "uint256"
        }
      ],
      "stateMutability": "view",
      "type": "function"
    },
    {
      "inputs": [
        {
          "internalType": "address",
          "name": "_address",
          "type": "address"
        }
      ],
      "name": "getLeases",
      "outputs": [
        {
          "components": [
            {
              "internalType": "address",
              "name": "lessee",
              "type": "address"
            },
            {
              "internalType": "uint256",
              "name": "tokenId",
              "type": "uint256"
            },
            {
              "internalType": "uint256",
              "name": "startTime",
              "type": "uint256"
            },
            {
              "internalType": "uint256",
              "name": "endTime",
              "type": "uint256"
            }
          ],
          "internalType": "struct ITimeLimitedToken.Term[]",
          "name": "",
          "type": "tuple[]"
        }
      ],
      "stateMutability": "view",
      "type": "function"
    },
    {
      "inputs": [
        {
          "internalType": "uint256",
          "name": "_tokenId",
          "type": "uint256"
        }
      ],
      "name": "getLeases",
      "outputs": [
        {
          "components": [
            {
              "internalType": "address",
              "name": "lessee",
              "type": "address"
            },
            {
              "internalType": "uint256",
              "name": "tokenId",
              "type": "uint256"
            },
            {
              "internalType": "uint256",
              "name": "startTime",
              "type": "uint256"
            },
            {
              "internalType": "uint256",
              "name": "endTime",
              "type": "uint256"
            }
          ],
          "internalType": "struct ITimeLimitedToken.Term[]",
          "name": "",
          "type": "tuple[]"
        }
      ],
      "stateMutability": "view",
      "type": "function"
    },
    {
      "inputs": [
        {
          "internalType": "address",
          "name": "owner",
          "type": "address"
        },
        {
          "internalType": "address",
          "name": "operator",
          "type": "address"
        }
      ],
      "name": "isApprovedForAll",
      "outputs": [
        {
          "internalType": "bool",
          "name": "",
          "type": "bool"
        }
      ],
      "stateMutability": "view",
      "type": "function"
    },
    {
      "inputs": [
        {
          "internalType": "address",
          "name": "_owner",
          "type": "address"
        },
        {
          "internalType": "address",
          "name": "_agent",
          "type": "address"
        }
      ],
      "name": "isLeaseApprovedForall",
      "outputs": [
        {
          "internalType": "bool",
          "name": "",
          "type": "bool"
        }
      ],
      "stateMutability": "view",
      "type": "function"
    },
    {
      "inputs": [
        {
          "internalType": "uint256",
          "name": "_tokenId",
          "type": "uint256"
        },
        {
          "internalType": "uint256",
          "name": "_start",
          "type": "uint256"
        },
        {
          "internalType": "uint256",
          "name": "_end",
          "type": "uint256"
        }
      ],
      "name": "isLeaseAvailable",
      "outputs": [
        {
          "internalType": "bool",
          "name": "",
          "type": "bool"
        }
      ],
      "stateMutability": "view",
      "type": "function"
    },
    {
      "inputs": [
        {
          "internalType": "uint256",
          "name": "",
          "type": "uint256"
        }
      ],
      "name": "lastEndTimeByToken",
      "outputs": [
        {
          "internalType": "uint256",
          "name": "",
          "type": "uint256"
        }
      ],
      "stateMutability": "view",
      "type": "function"
    },
    {
      "inputs": [
        {
          "internalType": "address",
          "name": "_addressTo",
          "type": "address"
        },
        {
          "internalType": "uint256",
          "name": "_tokenId",
          "type": "uint256"
        },
        {
          "internalType": "uint256",
          "name": "_start",
          "type": "uint256"
        },
        {
          "internalType": "uint256",
          "name": "_end",
          "type": "uint256"
        },
        {
          "internalType": "bytes",
          "name": "",
          "type": "bytes"
        }
      ],
      "name": "lease",
      "outputs": [],
      "stateMutability": "nonpayable",
      "type": "function"
    },
    {
      "inputs": [
        {
          "internalType": "address",
          "name": "_addressTo",
          "type": "address"
        },
        {
          "internalType": "uint256",
          "name": "_tokenId",
          "type": "uint256"
        },
        {
          "internalType": "uint256",
          "name": "_start",
          "type": "uint256"
        },
        {
          "internalType": "uint256",
          "name": "_end",
          "type": "uint256"
        }
      ],
      "name": "lease",
      "outputs": [],
      "stateMutability": "nonpayable",
      "type": "function"
    },
    {
      "inputs": [
        {
          "internalType": "address",
          "name": "",
          "type": "address"
        },
        {
          "internalType": "uint256",
          "name": "",
          "type": "uint256"
        }
      ],
      "name": "leasesByAddress",
      "outputs": [
        {
          "internalType": "address",
          "name": "lessee",
          "type": "address"
        },
        {
          "internalType": "uint256",
          "name": "tokenId",
          "type": "uint256"
        },
        {
          "internalType": "uint256",
          "name": "startTime",
          "type": "uint256"
        },
        {
          "internalType": "uint256",
          "name": "endTime",
          "type": "uint256"
        }
      ],
      "stateMutability": "view",
      "type": "function"
    },
    {
      "inputs": [
        {
          "internalType": "uint256",
          "name": "",
          "type": "uint256"
        },
        {
          "internalType": "uint256",
          "name": "",
          "type": "uint256"
        }
      ],
      "name": "leasesByToken",
      "outputs": [
        {
          "internalType": "address",
          "name": "lessee",
          "type": "address"
        },
        {
          "internalType": "uint256",
          "name": "tokenId",
          "type": "uint256"
        },
        {
          "internalType": "uint256",
          "name": "startTime",
          "type": "uint256"
        },
        {
          "internalType": "uint256",
          "name": "endTime",
          "type": "uint256"
        }
      ],
      "stateMutability": "view",
      "type": "function"
    },
    {
      "inputs": [
        {
          "internalType": "uint256",
          "name": "_tokenId",
          "type": "uint256"
        },
        {
          "internalType": "uint256",
          "name": "_date",
          "type": "uint256"
        }
      ],
      "name": "lesseeOf",
      "outputs": [
        {
          "internalType": "address",
          "name": "",
          "type": "address"
        }
      ],
      "stateMutability": "view",
      "type": "function"
    },
    {
      "inputs": [
        {
          "internalType": "string",
          "name": "_name",
          "type": "string"
        },
        {
          "internalType": "string",
          "name": "_description",
          "type": "string"
        },
        {
          "internalType": "string",
          "name": "_image",
          "type": "string"
        }
      ],
      "name": "mintAsset",
      "outputs": [],
      "stateMutability": "payable",
      "type": "function"
    },
    {
      "inputs": [],
      "name": "name",
      "outputs": [
        {
          "internalType": "string",
          "name": "",
          "type": "string"
        }
      ],
      "stateMutability": "view",
      "type": "function"
    },
    {
      "inputs": [
        {
          "internalType": "uint256",
          "name": "tokenId",
          "type": "uint256"
        }
      ],
      "name": "ownerOf",
      "outputs": [
        {
          "internalType": "address",
          "name": "",
          "type": "address"
        }
      ],
      "stateMutability": "view",
      "type": "function"
    },
    {
      "inputs": [
        {
          "internalType": "uint256",
          "name": "_tokenId",
          "type": "uint256"
        },
        {
          "internalType": "uint256",
          "name": "_date",
          "type": "uint256"
        }
      ],
      "name": "possessorOf",
      "outputs": [
        {
          "internalType": "address",
          "name": "",
          "type": "address"
        }
      ],
      "stateMutability": "view",
      "type": "function"
    },
    {
      "inputs": [
        {
          "internalType": "address",
          "name": "from",
          "type": "address"
        },
        {
          "internalType": "address",
          "name": "to",
          "type": "address"
        },
        {
          "internalType": "uint256",
          "name": "tokenId",
          "type": "uint256"
        }
      ],
      "name": "safeTransferFrom",
      "outputs": [],
      "stateMutability": "nonpayable",
      "type": "function"
    },
    {
      "inputs": [
        {
          "internalType": "address",
          "name": "from",
          "type": "address"
        },
        {
          "internalType": "address",
          "name": "to",
          "type": "address"
        },
        {
          "internalType": "uint256",
          "name": "tokenId",
          "type": "uint256"
        },
        {
          "internalType": "bytes",
          "name": "_data",
          "type": "bytes"
        }
      ],
      "name": "safeTransferFrom",
      "outputs": [],
      "stateMutability": "nonpayable",
      "type": "function"
    },
    {
      "inputs": [
        {
          "internalType": "address",
          "name": "operator",
          "type": "address"
        },
        {
          "internalType": "bool",
          "name": "approved",
          "type": "bool"
        }
      ],
      "name": "setApprovalForAll",
      "outputs": [],
      "stateMutability": "nonpayable",
      "type": "function"
    },
    {
      "inputs": [
        {
          "internalType": "address",
          "name": "_agent",
          "type": "address"
        },
        {
          "internalType": "bool",
          "name": "_approved",
          "type": "bool"
        }
      ],
      "name": "setLeaseApprovalForAll",
      "outputs": [],
      "stateMutability": "nonpayable",
      "type": "function"
    },
    {
      "inputs": [
        {
          "internalType": "bytes4",
          "name": "interfaceId",
          "type": "bytes4"
        }
      ],
      "name": "supportsInterface",
      "outputs": [
        {
          "internalType": "bool",
          "name": "",
          "type": "bool"
        }
      ],
      "stateMutability": "view",
      "type": "function"
    },
    {
      "inputs": [],
      "name": "symbol",
      "outputs": [
        {
          "internalType": "string",
          "name": "",
          "type": "string"
        }
      ],
      "stateMutability": "view",
      "type": "function"
    },
    {
      "inputs": [
        {
          "internalType": "uint256",
          "name": "tokenId",
          "type": "uint256"
        }
      ],
      "name": "tokenURI",
      "outputs": [
        {
          "internalType": "string",
          "name": "",
          "type": "string"
        }
      ],
      "stateMutability": "view",
      "type": "function"
    },
    {
      "inputs": [
        {
          "internalType": "address",
          "name": "from",
          "type": "address"
        },
        {
          "internalType": "address",
          "name": "to",
          "type": "address"
        },
        {
          "internalType": "uint256",
          "name": "tokenId",
          "type": "uint256"
        }
      ],
      "name": "transferFrom",
      "outputs": [],
      "stateMutability": "nonpayable",
      "type": "function"
    },
    {
      "inputs": [
        {
          "internalType": "uint256",
          "name": "_tokenId",
          "type": "uint256"
        },
        {
          "internalType": "uint256",
          "name": "_start",
          "type": "uint256"
        },
        {
          "internalType": "uint256",
          "name": "_end",
          "type": "uint256"
        }
      ],
      "name": "unlease",
      "outputs": [],
      "stateMutability": "nonpayable",
      "type": "function"
    },
    {
      "inputs": [
        {
          "internalType": "uint256",
          "name": "_tokenId",
          "type": "uint256"
        },
        {
          "internalType": "uint256",
          "name": "_start",
          "type": "uint256"
        },
        {
          "internalType": "uint256",
          "name": "_end",
          "type": "uint256"
        },
        {
          "internalType": "bytes",
          "name": "",
          "type": "bytes"
        }
      ],
      "name": "unlease",
      "outputs": [],
      "stateMutability": "nonpayable",
      "type": "function"
    }
  ],
  "bytecode": "0x60806040523480156200001157600080fd5b506040518060400160405280600581526020017f4c656173650000000000000000000000000000000000000000000000000000008152506040518060400160405280600581526020017f4c45415345000000000000000000000000000000000000000000000000000000815250816000908051906020019062000096929190620000b8565b508060019080519060200190620000af929190620000b8565b505050620001cd565b828054620000c69062000168565b90600052602060002090601f016020900481019282620000ea576000855562000136565b82601f106200010557805160ff191683800117855562000136565b8280016001018555821562000136579182015b828111156200013557825182559160200191906001019062000118565b5b50905062000145919062000149565b5090565b5b80821115620001645760008160009055506001016200014a565b5090565b600060028204905060018216806200018157607f821691505b602082108114156200019857620001976200019e565b5b50919050565b7f4e487b7100000000000000000000000000000000000000000000000000000000600052602260045260246000fd5b615d3580620001dd6000396000f3fe6080604052600436106102465760003560e01c80638fa9e5f211610139578063cf35bdd0116100b6578063e68105691161007a578063e681056914610967578063e985e9c5146109a4578063ebb3ebb3146109e1578063f121821d14610a1e578063f5fb0e1114610a47578063f85a99da14610a7057610246565b8063cf35bdd01461084a578063d3f7e55214610887578063d4c2d9e6146108c4578063d9212164146108ed578063de17556f1461092a57610246565b8063a22cb465116100fd578063a22cb4651461073e578063b88d4fde14610767578063c426255d14610790578063c517756c146107cd578063c87b56dd1461080d57610246565b80638fa9e5f21461063357806390256c8e1461067057806395d89b41146106ad57806399433cc5146106d8578063a1faf8651461070157610246565b806341419378116101c75780636352211e1161018b5780636352211e1461053257806369c2f6af1461056f57806370a08231146105af5780637249b932146105ec578063749e480d1461060857610246565b8063414193781461046157806341f757921461048a57806342842e0e146104b557806345634da4146104de5780634b080f771461050957610246565b8063095ea7b31161020e578063095ea7b31461036a5780630f76214f1461039357806323b872dd146103be57806328e71245146103e75780632a6b1a0b1461042457610246565b806301ffc9a71461024b57806302527f861461028857806305fe6e93146102c557806306fdde0314610302578063081812fc1461032d575b600080fd5b34801561025757600080fd5b50610272600480360381019061026d919061470f565b610a9b565b60405161027f9190614fd9565b60405180910390f35b34801561029457600080fd5b506102af60048036038101906102aa9190614476565b610b7d565b6040516102bc9190614fd9565b60405180910390f35b3480156102d157600080fd5b506102ec60048036038101906102e79190614821565b610bac565b6040516102f99190614f0b565b60405180910390f35b34801561030e57600080fd5b50610317610c0c565b6040516103249190614ff4565b60405180910390f35b34801561033957600080fd5b50610354600480360381019061034f91906147f8565b610c9e565b6040516103619190614f0b565b60405180910390f35b34801561037657600080fd5b50610391600480360381019061038c91906145b8565b610d23565b005b34801561039f57600080fd5b506103a8610e3b565b6040516103b59190615231565b60405180910390f35b3480156103ca57600080fd5b506103e560048036038101906103e091906144b2565b610e43565b005b3480156103f357600080fd5b5061040e6004803603810190610409919061485d565b610ea3565b60405161041b9190614f0b565b60405180910390f35b34801561043057600080fd5b5061044b600480360381019061044691906147f8565b610eec565b6040516104589190615231565b60405180910390f35b34801561046d57600080fd5b50610488600480360381019061048391906145f4565b610f04565b005b34801561049657600080fd5b5061049f61129b565b6040516104ac9190615231565b60405180910390f35b3480156104c157600080fd5b506104dc60048036038101906104d791906144b2565b6112a6565b005b3480156104ea57600080fd5b506104f36112c6565b6040516105009190615231565b60405180910390f35b34801561051557600080fd5b50610530600480360381019061052b9190614657565b6112d1565b005b34801561053e57600080fd5b50610559600480360381019061055491906147f8565b6112e4565b6040516105669190614f0b565b60405180910390f35b34801561057b57600080fd5b50610596600480360381019061059191906145b8565b611396565b6040516105a69493929190614f72565b60405180910390f35b3480156105bb57600080fd5b506105d660048036038101906105d1919061444d565b611403565b6040516105e39190615231565b60405180910390f35b61060660048036038101906106019190614761565b6114bb565b005b34801561061457600080fd5b5061061d6115b9565b60405161062a9190614fd9565b60405180910390f35b34801561063f57600080fd5b5061065a60048036038101906106559190614821565b6115be565b6040516106679190615231565b60405180910390f35b34801561067c57600080fd5b506106976004803603810190610692919061444d565b6115d2565b6040516106a49190614fb7565b60405180910390f35b3480156106b957600080fd5b506106c261171e565b6040516106cf9190614ff4565b60405180910390f35b3480156106e457600080fd5b506106ff60048036038101906106fa919061457c565b6117b0565b005b34801561070d57600080fd5b5061072860048036038101906107239190614476565b6118ad565b6040516107359190614fd9565b60405180910390f35b34801561074a57600080fd5b506107656004803603810190610760919061457c565b611941565b005b34801561077357600080fd5b5061078e60048036038101906107899190614501565b611957565b005b34801561079c57600080fd5b506107b760048036038101906107b291906146e6565b6119b9565b6040516107c49190614f0b565b60405180910390f35b3480156107d957600080fd5b506107f460048036038101906107ef9190614821565b6119ec565b6040516108049493929190614f72565b60405180910390f35b34801561081957600080fd5b50610834600480360381019061082f91906147f8565b611a59565b6040516108419190614ff4565b60405180910390f35b34801561085657600080fd5b50610871600480360381019061086c91906147f8565b611bab565b60405161087e9190614ff4565b60405180910390f35b34801561089357600080fd5b506108ae60048036038101906108a99190614821565b611c4b565b6040516108bb9190615216565b60405180910390f35b3480156108d057600080fd5b506108eb60048036038101906108e6919061485d565b611c65565b005b3480156108f957600080fd5b50610914600480360381019061090f91906147f8565b611da8565b6040516109219190614ff4565b60405180910390f35b34801561093657600080fd5b50610951600480360381019061094c9190614821565b611e4d565b60405161095e9190614f0b565b60405180910390f35b34801561097357600080fd5b5061098e6004803603810190610989919061485d565b611e61565b60405161099b9190614fd9565b60405180910390f35b3480156109b057600080fd5b506109cb60048036038101906109c69190614476565b611e77565b6040516109d89190614fd9565b60405180910390f35b3480156109ed57600080fd5b50610a086004803603810190610a0391906147f8565b611f0b565b604051610a159190614fb7565b60405180910390f35b348015610a2a57600080fd5b50610a456004803603810190610a4091906145f4565b611fff565b005b348015610a5357600080fd5b50610a6e6004803603810190610a6991906148ac565b612011565b005b348015610a7c57600080fd5b50610a85612022565b604051610a929190614fd9565b60405180910390f35b60007f80ac58cd000000000000000000000000000000000000000000000000000000007bffffffffffffffffffffffffffffffffffffffffffffffffffffffff1916827bffffffffffffffffffffffffffffffffffffffffffffffffffffffff19161480610b6657507f5b5e139f000000000000000000000000000000000000000000000000000000007bffffffffffffffffffffffffffffffffffffffffffffffffffffffff1916827bffffffffffffffffffffffffffffffffffffffffffffffffffffffff1916145b80610b765750610b7582612027565b5b9050919050565b600d6020528160005260406000206020528060005260406000206000915091509054906101000a900460ff1681565b600080610bb98484612091565b9050600073ffffffffffffffffffffffffffffffffffffffff168173ffffffffffffffffffffffffffffffffffffffff161415610c0157610bf9846112e4565b915050610c06565b809150505b92915050565b606060008054610c1b9061554d565b80601f0160208091040260200160405190810160405280929190818152602001828054610c479061554d565b8015610c945780601f10610c6957610100808354040283529160200191610c94565b820191906000526020600020905b815481529060010190602001808311610c7757829003601f168201915b5050505050905090565b6000610ca9826122ba565b610ce8576040517f08c379a0000000000000000000000000000000000000000000000000000000008152600401610cdf90615196565b60405180910390fd5b6004600083815260200190815260200160002060009054906101000a900473ffffffffffffffffffffffffffffffffffffffff169050919050565b6000610d2e826112e4565b90508073ffffffffffffffffffffffffffffffffffffffff168373ffffffffffffffffffffffffffffffffffffffff161415610d9f576040517f08c379a0000000000000000000000000000000000000000000000000000000008152600401610d96906151d6565b60405180910390fd5b8073ffffffffffffffffffffffffffffffffffffffff16610dbe612326565b73ffffffffffffffffffffffffffffffffffffffff161480610ded5750610dec81610de7612326565b611e77565b5b610e2c576040517f08c379a0000000000000000000000000000000000000000000000000000000008152600401610e23906150d6565b60405180910390fd5b610e36838361232e565b505050565b6361cf371081565b610e54610e4e612326565b826123e7565b610e93576040517f08c379a0000000000000000000000000000000000000000000000000000000008152600401610e8a906151f6565b60405180910390fd5b610e9e8383836124c5565b505050565b6000600c6000610eb486868661272c565b815260200190815260200160002060009054906101000a900473ffffffffffffffffffffffffffffffffffffffff1690509392505050565b600a6020528060005260406000206000915090505481565b610f0f838383612762565b156110bf57600080610f20856112e4565b90508073ffffffffffffffffffffffffffffffffffffffff163373ffffffffffffffffffffffffffffffffffffffff161415610f5f5760019150610ffb565b60011515600d60008373ffffffffffffffffffffffffffffffffffffffff1673ffffffffffffffffffffffffffffffffffffffff16815260200190815260200160002060003373ffffffffffffffffffffffffffffffffffffffff1673ffffffffffffffffffffffffffffffffffffffff16815260200190815260200160002060009054906101000a900460ff1615151415610ffa57600191505b5b8161100557600080fd5b600061101286868661272c565b905086600c600083815260200190815260200160002060006101000a81548173ffffffffffffffffffffffffffffffffffffffff021916908373ffffffffffffffffffffffffffffffffffffffff160217905550858773ffffffffffffffffffffffffffffffffffffffff167f51cfe3c32d8c50f68c092f6d51f857f5815b8a5d0000ce4bfa54332224f9615f87876040516110af92919061524c565b60405180910390a3505050611295565b60006110cb8484612ae3565b905060006110d98584612ae3565b905080604001518260400151146110ef57600080fd5b60008260000151905060008173ffffffffffffffffffffffffffffffffffffffff163373ffffffffffffffffffffffffffffffffffffffff16141561113757600190506111d3565b60011515600d60008473ffffffffffffffffffffffffffffffffffffffff1673ffffffffffffffffffffffffffffffffffffffff16815260200190815260200160002060003373ffffffffffffffffffffffffffffffffffffffff1673ffffffffffffffffffffffffffffffffffffffff16815260200190815260200160002060009054906101000a900460ff16151514156111d257600190505b5b806111dd57600080fd5b60006111ea88888861272c565b905088600c600083815260200190815260200160002060006101000a81548173ffffffffffffffffffffffffffffffffffffffff021916908373ffffffffffffffffffffffffffffffffffffffff160217905550878973ffffffffffffffffffffffffffffffffffffffff167f51cfe3c32d8c50f68c092f6d51f857f5815b8a5d0000ce4bfa54332224f9615f898960405161128792919061524c565b60405180910390a350505050505b50505050565b600062015180905090565b6112c183838360405180602001604052806000815250611957565b505050565b6000624f1a00905090565b6112dd85858585612d81565b5050505050565b6000806002600084815260200190815260200160002060009054906101000a900473ffffffffffffffffffffffffffffffffffffffff169050600073ffffffffffffffffffffffffffffffffffffffff168173ffffffffffffffffffffffffffffffffffffffff16141561138d576040517f08c379a000000000000000000000000000000000000000000000000000000000815260040161138490615116565b60405180910390fd5b80915050919050565b600960205281600052604060002081815481106113b257600080fd5b9060005260206000209060040201600091509150508060000160009054906101000a900473ffffffffffffffffffffffffffffffffffffffff16908060010154908060020154908060030154905084565b60008073ffffffffffffffffffffffffffffffffffffffff168273ffffffffffffffffffffffffffffffffffffffff161415611474576040517f08c379a000000000000000000000000000000000000000000000000000000000815260040161146b906150f6565b60405180910390fd5b600360008373ffffffffffffffffffffffffffffffffffffffff1673ffffffffffffffffffffffffffffffffffffffff168152602001908152602001600020549050919050565b6114c56007613135565b60006114d1600761314b565b905060006115018585856040516020016114ed93929190614e4f565b604051602081830303815290604052613159565b90506000816040516020016115169190614eac565b604051602081830303815290604052905061153133846132e3565b61153b8382613301565b80600b6000858152602001908152602001600020908051906020019061156292919061421e565b503373ffffffffffffffffffffffffffffffffffffffff167fa0cb282b65d69a39a4d7684f44a7c15b2b3761982ad6a6d947865bfd5220c815826040516115a99190614ff4565b60405180910390a2505050505050565b600081565b60006115ca8383613375565b905092915050565b6060600073ffffffffffffffffffffffffffffffffffffffff168273ffffffffffffffffffffffffffffffffffffffff16141561160e57600080fd5b600960008373ffffffffffffffffffffffffffffffffffffffff1673ffffffffffffffffffffffffffffffffffffffff168152602001908152602001600020805480602002602001604051908101604052809291908181526020016000905b8282101561171357838290600052602060002090600402016040518060800160405290816000820160009054906101000a900473ffffffffffffffffffffffffffffffffffffffff1673ffffffffffffffffffffffffffffffffffffffff1673ffffffffffffffffffffffffffffffffffffffff16815260200160018201548152602001600282015481526020016003820154815250508152602001906001019061166d565b505050509050919050565b60606001805461172d9061554d565b80601f01602080910402602001604051908101604052809291908181526020018280546117599061554d565b80156117a65780601f1061177b576101008083540402835291602001916117a6565b820191906000526020600020905b81548152906001019060200180831161178957829003601f168201915b5050505050905090565b80600d60003373ffffffffffffffffffffffffffffffffffffffff1673ffffffffffffffffffffffffffffffffffffffff16815260200190815260200160002060008473ffffffffffffffffffffffffffffffffffffffff1673ffffffffffffffffffffffffffffffffffffffff16815260200190815260200160002060006101000a81548160ff0219169083151502179055508173ffffffffffffffffffffffffffffffffffffffff163373ffffffffffffffffffffffffffffffffffffffff167fb1fb6dff32a4a0f74d1f8a1ee721b6e864c85e0bc23e224d9527345f1dd28e37836040516118a19190614fd9565b60405180910390a35050565b6000600d60008473ffffffffffffffffffffffffffffffffffffffff1673ffffffffffffffffffffffffffffffffffffffff16815260200190815260200160002060008373ffffffffffffffffffffffffffffffffffffffff1673ffffffffffffffffffffffffffffffffffffffff16815260200190815260200160002060009054906101000a900460ff16905092915050565b61195361194c612326565b83836133aa565b5050565b611968611962612326565b836123e7565b6119a7576040517f08c379a000000000000000000000000000000000000000000000000000000000815260040161199e906151f6565b60405180910390fd5b6119b384848484613517565b50505050565b600c6020528060005260406000206000915054906101000a900473ffffffffffffffffffffffffffffffffffffffff1681565b60086020528160005260406000208181548110611a0857600080fd5b9060005260206000209060040201600091509150508060000160009054906101000a900473ffffffffffffffffffffffffffffffffffffffff16908060010154908060020154908060030154905084565b6060611a64826122ba565b611aa3576040517f08c379a0000000000000000000000000000000000000000000000000000000008152600401611a9a90615176565b60405180910390fd5b6000600660008481526020019081526020016000208054611ac39061554d565b80601f0160208091040260200160405190810160405280929190818152602001828054611aef9061554d565b8015611b3c5780601f10611b1157610100808354040283529160200191611b3c565b820191906000526020600020905b815481529060010190602001808311611b1f57829003601f168201915b505050505090506000611b4d613573565b9050600081511415611b63578192505050611ba6565b600082511115611b98578082604051602001611b80929190614e2b565b60405160208183030381529060405292505050611ba6565b611ba18461358a565b925050505b919050565b600b6020528060005260406000206000915090508054611bca9061554d565b80601f0160208091040260200160405190810160405280929190818152602001828054611bf69061554d565b8015611c435780601f10611c1857610100808354040283529160200191611c43565b820191906000526020600020905b815481529060010190602001808311611c2657829003601f168201915b505050505081565b611c536142a4565b611c5d8383612ae3565b905092915050565b6000611c718484612ae3565b90506000611c7f8584612ae3565b90506000826040015111611c9257600080fd5b8060400151826040015114611ca657600080fd5b60008260000151905060008173ffffffffffffffffffffffffffffffffffffffff163373ffffffffffffffffffffffffffffffffffffffff161415611cee5760019050611d8a565b60011515600d60008473ffffffffffffffffffffffffffffffffffffffff1673ffffffffffffffffffffffffffffffffffffffff16815260200190815260200160002060003373ffffffffffffffffffffffffffffffffffffffff1673ffffffffffffffffffffffffffffffffffffffff16815260200190815260200160002060009054906101000a900460ff1615151415611d8957600190505b5b80611d9457600080fd5b611d9f878787613631565b50505050505050565b6060600b60008381526020019081526020016000208054611dc89061554d565b80601f0160208091040260200160405190810160405280929190818152602001828054611df49061554d565b8015611e415780601f10611e1657610100808354040283529160200191611e41565b820191906000526020600020905b815481529060010190602001808311611e2457829003601f168201915b50505050509050919050565b6000611e598383612091565b905092915050565b6000611e6e848484612762565b90509392505050565b6000600560008473ffffffffffffffffffffffffffffffffffffffff1673ffffffffffffffffffffffffffffffffffffffff16815260200190815260200160002060008373ffffffffffffffffffffffffffffffffffffffff1673ffffffffffffffffffffffffffffffffffffffff16815260200190815260200160002060009054906101000a900460ff16905092915050565b60606000821415611f1b57600080fd5b60086000838152602001908152602001600020805480602002602001604051908101604052809291908181526020016000905b82821015611ff457838290600052602060002090600402016040518060800160405290816000820160009054906101000a900473ffffffffffffffffffffffffffffffffffffffff1673ffffffffffffffffffffffffffffffffffffffff1673ffffffffffffffffffffffffffffffffffffffff168152602001600182015481526020016002820154815260200160038201548152505081526020019060010190611f4e565b505050509050919050565b61200b84848484612d81565b50505050565b61201c848484613631565b50505050565b600090565b60007f01ffc9a7000000000000000000000000000000000000000000000000000000007bffffffffffffffffffffffffffffffffffffffffffffffffffffffff1916827bffffffffffffffffffffffffffffffffffffffffffffffffffffffff1916149050919050565b6000808314156120a057600080fd5b60008214156120ae57600080fd5b600060086000858152602001908152602001600020805480602002602001604051908101604052809291908181526020016000905b8282101561218957838290600052602060002090600402016040518060800160405290816000820160009054906101000a900473ffffffffffffffffffffffffffffffffffffffff1673ffffffffffffffffffffffffffffffffffffffff1673ffffffffffffffffffffffffffffffffffffffff1681526020016001820154815260200160028201548152602001600382015481525050815260200190600101906120e3565b5050505090506000815114156121a35760009150506122b4565b60005b81518110156122ad57838282815181106121e9577f4e487b7100000000000000000000000000000000000000000000000000000000600052603260045260246000fd5b602002602001015160400151111580156122475750818181518110612237577f4e487b7100000000000000000000000000000000000000000000000000000000600052603260045260246000fd5b6020026020010151606001518411155b1561229a57818181518110612285577f4e487b7100000000000000000000000000000000000000000000000000000000600052603260045260246000fd5b602002602001015160000151925050506122b4565b80806122a5906155b0565b9150506121a6565b5060009150505b92915050565b60008073ffffffffffffffffffffffffffffffffffffffff166002600084815260200190815260200160002060009054906101000a900473ffffffffffffffffffffffffffffffffffffffff1673ffffffffffffffffffffffffffffffffffffffff1614159050919050565b600033905090565b816004600083815260200190815260200160002060006101000a81548173ffffffffffffffffffffffffffffffffffffffff021916908373ffffffffffffffffffffffffffffffffffffffff160217905550808273ffffffffffffffffffffffffffffffffffffffff166123a1836112e4565b73ffffffffffffffffffffffffffffffffffffffff167f8c5be1e5ebec7d5bd14f71427d1e84f3dd0314c0f7b2291e5b200ac8c7c3b92560405160405180910390a45050565b60006123f2826122ba565b612431576040517f08c379a0000000000000000000000000000000000000000000000000000000008152600401612428906150b6565b60405180910390fd5b600061243c836112e4565b90508073ffffffffffffffffffffffffffffffffffffffff168473ffffffffffffffffffffffffffffffffffffffff1614806124ab57508373ffffffffffffffffffffffffffffffffffffffff1661249384610c9e565b73ffffffffffffffffffffffffffffffffffffffff16145b806124bc57506124bb8185611e77565b5b91505092915050565b8273ffffffffffffffffffffffffffffffffffffffff166124e5826112e4565b73ffffffffffffffffffffffffffffffffffffffff161461253b576040517f08c379a000000000000000000000000000000000000000000000000000000000815260040161253290615036565b60405180910390fd5b600073ffffffffffffffffffffffffffffffffffffffff168273ffffffffffffffffffffffffffffffffffffffff1614156125ab576040517f08c379a00000000000000000000000000000000000000000000000000000000081526004016125a290615076565b60405180910390fd5b6125b683838361397d565b6125c160008261232e565b6001600360008573ffffffffffffffffffffffffffffffffffffffff1673ffffffffffffffffffffffffffffffffffffffff16815260200190815260200160002060008282546126119190615459565b925050819055506001600360008473ffffffffffffffffffffffffffffffffffffffff1673ffffffffffffffffffffffffffffffffffffffff16815260200190815260200160002060008282546126689190615378565b92505081905550816002600083815260200190815260200160002060006101000a81548173ffffffffffffffffffffffffffffffffffffffff021916908373ffffffffffffffffffffffffffffffffffffffff160217905550808273ffffffffffffffffffffffffffffffffffffffff168473ffffffffffffffffffffffffffffffffffffffff167fddf252ad1be2c89b69c2b068fc378daa952ba7f163c4a11628f55a4df523b3ef60405160405180910390a4612727838383613982565b505050565b600083838360405160200161274393929190614ece565b6040516020818303038152906040528051906020012090509392505050565b600082821161277057600080fd5b624f1a00612787848461398790919063ffffffff16565b111561279257600080fd5b620151806127a9848461398790919063ffffffff16565b10156127b457600080fd5b6000429050808410156127cb576000915050612adc565b600a6000868152602001908152602001600020548411156127f0576001915050612adc565b600060086000878152602001908152602001600020805490501415612819576001915050612adc565b60005b6008600087815260200190815260200160002080549050811015612ad55784600860008881526020019081526020016000208281548110612886577f4e487b7100000000000000000000000000000000000000000000000000000000600052603260045260246000fd5b9060005260206000209060040201600201541115801561290257506008600087815260200190815260200160002081815481106128ec577f4e487b7100000000000000000000000000000000000000000000000000000000600052603260045260246000fd5b9060005260206000209060040201600301548511155b1561291257600092505050612adc565b8360086000888152602001908152602001600020828154811061295e577f4e487b7100000000000000000000000000000000000000000000000000000000600052603260045260246000fd5b906000526020600020906004020160020154111580156129da57506008600087815260200190815260200160002081815481106129c4577f4e487b7100000000000000000000000000000000000000000000000000000000600052603260045260246000fd5b9060005260206000209060040201600301548411155b156129ea57600092505050612adc565b600860008781526020019081526020016000208181548110612a35577f4e487b7100000000000000000000000000000000000000000000000000000000600052603260045260246000fd5b9060005260206000209060040201600201548511158015612ab2575083600860008881526020019081526020016000208281548110612a9d577f4e487b7100000000000000000000000000000000000000000000000000000000600052603260045260246000fd5b90600052602060002090600402016002015411155b15612ac257600092505050612adc565b8080612acd906155b0565b91505061281c565b5060019150505b9392505050565b612aeb6142a4565b6000831415612af957600080fd5b6000821415612b0757600080fd5b600060086000858152602001908152602001600020805480602002602001604051908101604052809291908181526020016000905b82821015612be257838290600052602060002090600402016040518060800160405290816000820160009054906101000a900473ffffffffffffffffffffffffffffffffffffffff1673ffffffffffffffffffffffffffffffffffffffff1673ffffffffffffffffffffffffffffffffffffffff168152602001600182015481526020016002820154815260200160038201548152505081526020019060010190612b3c565b505050509050600081511415612c35576040518060800160405280600073ffffffffffffffffffffffffffffffffffffffff16815260200160008152602001600081526020016000815250915050612d7b565b60005b8151811015612d3b5783828281518110612c7b577f4e487b7100000000000000000000000000000000000000000000000000000000600052603260045260246000fd5b60200260200101516040015111158015612cd95750818181518110612cc9577f4e487b7100000000000000000000000000000000000000000000000000000000600052603260045260246000fd5b6020026020010151606001518411155b15612d2857818181518110612d17577f4e487b7100000000000000000000000000000000000000000000000000000000600052603260045260246000fd5b602002602001015192505050612d7b565b8080612d33906155b0565b915050612c38565b506040518060800160405280600073ffffffffffffffffffffffffffffffffffffffff168152602001600081526020016000815260200160008152509150505b92915050565b6000831415612d8f57600080fd5b6000821415612d9d57600080fd5b6000811415612dab57600080fd5b818111612db757600080fd5b624f1a00612dce838361398790919063ffffffff16565b1115612dd957600080fd5b62015180612df0838361398790919063ffffffff16565b1015612dfb57600080fd5b612e06838383612762565b15612f8257600080612e17856112e4565b90508073ffffffffffffffffffffffffffffffffffffffff163373ffffffffffffffffffffffffffffffffffffffff161415612e565760019150612ef2565b60011515600d60008373ffffffffffffffffffffffffffffffffffffffff1673ffffffffffffffffffffffffffffffffffffffff16815260200190815260200160002060003373ffffffffffffffffffffffffffffffffffffffff1673ffffffffffffffffffffffffffffffffffffffff16815260200190815260200160002060009054906101000a900460ff1615151415612ef157600191505b5b8180612f6657508573ffffffffffffffffffffffffffffffffffffffff16600c6000612f1f88888861272c565b815260200190815260200160002060009054906101000a900473ffffffffffffffffffffffffffffffffffffffff1673ffffffffffffffffffffffffffffffffffffffff16145b612f6f57600080fd5b612f7b8686868661399d565b505061312f565b6000612f8e8484612ae3565b90506000612f9c8584612ae3565b90508060400151826040015114612fb257600080fd5b60008260000151905060008173ffffffffffffffffffffffffffffffffffffffff163373ffffffffffffffffffffffffffffffffffffffff161415612ffa5760019050613096565b60011515600d60008473ffffffffffffffffffffffffffffffffffffffff1673ffffffffffffffffffffffffffffffffffffffff16815260200190815260200160002060003373ffffffffffffffffffffffffffffffffffffffff1673ffffffffffffffffffffffffffffffffffffffff16815260200190815260200160002060009054906101000a900460ff161515141561309557600190505b5b808061310a57508773ffffffffffffffffffffffffffffffffffffffff16600c60006130c38a8a8a61272c565b815260200190815260200160002060009054906101000a900473ffffffffffffffffffffffffffffffffffffffff1673ffffffffffffffffffffffffffffffffffffffff16145b61311357600080fd5b61311e878787613631565b61312a8888888861399d565b505050505b50505050565b6001816000016000828254019250508190555050565b600081600001549050919050565b606060008251141561317c576040518060200160405280600081525090506132de565b6000604051806060016040528060408152602001615cc060409139905060006003600285516131ab9190615378565b6131b591906153ce565b60046131c191906153ff565b67ffffffffffffffff811115613200577f4e487b7100000000000000000000000000000000000000000000000000000000600052604160045260246000fd5b6040519080825280601f01601f1916602001820160405280156132325781602001600182028036833780820191505090505b509050600182016020820185865187015b8082101561329e576003820191508151603f8160121c168501518453600184019350603f81600c1c168501518453600184019350603f8160061c168501518453600184019350603f8116850151845360018401935050613243565b50506003865106600181146132ba57600281146132cd576132d5565b603d6001830353603d60028303536132d5565b603d60018303535b50505080925050505b919050565b6132fd828260405180602001604052806000815250613c82565b5050565b61330a826122ba565b613349576040517f08c379a000000000000000000000000000000000000000000000000000000000815260040161334090615136565b60405180910390fd5b8060066000848152602001908152602001600020908051906020019061337092919061421e565b505050565b6000806133828484612ae3565b905060008160600151141561339b5760009150506133a4565b80606001519150505b92915050565b8173ffffffffffffffffffffffffffffffffffffffff168373ffffffffffffffffffffffffffffffffffffffff161415613419576040517f08c379a000000000000000000000000000000000000000000000000000000000815260040161341090615096565b60405180910390fd5b80600560008573ffffffffffffffffffffffffffffffffffffffff1673ffffffffffffffffffffffffffffffffffffffff16815260200190815260200160002060008473ffffffffffffffffffffffffffffffffffffffff1673ffffffffffffffffffffffffffffffffffffffff16815260200190815260200160002060006101000a81548160ff0219169083151502179055508173ffffffffffffffffffffffffffffffffffffffff168373ffffffffffffffffffffffffffffffffffffffff167f17307eab39ab6107e8899845ad3d59bd9653f200f220920489ca2b5937696c318360405161350a9190614fd9565b60405180910390a3505050565b6135228484846124c5565b61352e84848484613cdd565b61356d576040517f08c379a000000000000000000000000000000000000000000000000000000000815260040161356490615016565b60405180910390fd5b50505050565b606060405180602001604052806000815250905090565b6060613595826122ba565b6135d4576040517f08c379a00000000000000000000000000000000000000000000000000000000081526004016135cb906151b6565b60405180910390fd5b60006135de613573565b905060008151116135fe5760405180602001604052806000815250613629565b8061360884613e74565b604051602001613619929190614e2b565b6040516020818303038152906040525b915050919050565b600060086000858152602001908152602001600020805490501161365457600080fd5b60006136608484612ae3565b90506000816040015190506000826060015190506001826136819190615378565b841161368c57600080fd5b6001816136999190615459565b85106136a457600080fd5b6001816136b19190615378565b84106136bc57600080fd5b6001826136c99190615459565b85116136d457600080fd5b60005b60086000888152602001908152602001600020805490508110156139235782600860008981526020019081526020016000208281548110613741577f4e487b7100000000000000000000000000000000000000000000000000000000600052603260045260246000fd5b90600052602060002090600402016002015414156139105760006008600089815260200190815260200160002082815481106137a6577f4e487b7100000000000000000000000000000000000000000000000000000000600052603260045260246000fd5b906000526020600020906004020160000160009054906101000a900473ffffffffffffffffffffffffffffffffffffffff169050600860008981526020019081526020016000208281548110613825577f4e487b7100000000000000000000000000000000000000000000000000000000600052603260045260246000fd5b9060005260206000209060040201600080820160006101000a81549073ffffffffffffffffffffffffffffffffffffffff02191690556001820160009055600282016000905560038201600090555050868414801561388357508583145b1561388d5761390a565b868414156138b2576138ad81896001896138a79190615378565b8661399d565b613909565b858314156138d7576138d281898660018b6138cd9190615459565b61399d565b613908565b6138ef81898660018b6138ea9190615459565b61399d565b61390781896001896139019190615378565b8661399d565b5b5b5b50613923565b808061391b906155b0565b9150506136d7565b503373ffffffffffffffffffffffffffffffffffffffff16867f9f2662851b7e3b92d1ef8bc673a0ebd53bb362af9a04856acbd418f0076906a9878760405161396d92919061524c565b60405180910390a3505050505050565b505050565b505050565b600081836139959190615459565b905092915050565b8181116139a957600080fd5b624f1a006139c0838361398790919063ffffffff16565b11156139cb57600080fd5b620151806139e2838361398790919063ffffffff16565b10156139ed57600080fd5b60008314156139fb57600080fd5b6000821415613a0957600080fd5b6000811415613a1757600080fd5b6008600084815260200190815260200160002060405180608001604052808673ffffffffffffffffffffffffffffffffffffffff16815260200185815260200184815260200183815250908060018154018082558091505060019003906000526020600020906004020160009091909190915060008201518160000160006101000a81548173ffffffffffffffffffffffffffffffffffffffff021916908373ffffffffffffffffffffffffffffffffffffffff1602179055506020820151816001015560408201518160020155606082015181600301555050600960008573ffffffffffffffffffffffffffffffffffffffff1673ffffffffffffffffffffffffffffffffffffffff16815260200190815260200160002060405180608001604052808673ffffffffffffffffffffffffffffffffffffffff16815260200185815260200184815260200183815250908060018154018082558091505060019003906000526020600020906004020160009091909190915060008201518160000160006101000a81548173ffffffffffffffffffffffffffffffffffffffff021916908373ffffffffffffffffffffffffffffffffffffffff160217905550602082015181600101556040820151816002015560608201518160030155505080600a6000858152602001908152602001600020541015613c2b5780600a6000858152602001908152602001600020819055505b8373ffffffffffffffffffffffffffffffffffffffff16837f477d3a4ce93f75de2f1bc0b60f68f3670ad5f3e6ad245c7e6c8ff83bb75ec87b8484604051613c7492919061524c565b60405180910390a350505050565b613c8c8383614021565b613c996000848484613cdd565b613cd8576040517f08c379a0000000000000000000000000000000000000000000000000000000008152600401613ccf90615016565b60405180910390fd5b505050565b6000613cfe8473ffffffffffffffffffffffffffffffffffffffff166141fb565b15613e67578373ffffffffffffffffffffffffffffffffffffffff1663150b7a02613d27612326565b8786866040518563ffffffff1660e01b8152600401613d499493929190614f26565b602060405180830381600087803b158015613d6357600080fd5b505af1925050508015613d9457506040513d601f19601f82011682018060405250810190613d919190614738565b60015b613e17573d8060008114613dc4576040519150601f19603f3d011682016040523d82523d6000602084013e613dc9565b606091505b50600081511415613e0f576040517f08c379a0000000000000000000000000000000000000000000000000000000008152600401613e0690615016565b60405180910390fd5b805181602001fd5b63150b7a0260e01b7bffffffffffffffffffffffffffffffffffffffffffffffffffffffff1916817bffffffffffffffffffffffffffffffffffffffffffffffffffffffff191614915050613e6c565b600190505b949350505050565b60606000821415613ebc576040518060400160405280600181526020017f3000000000000000000000000000000000000000000000000000000000000000815250905061401c565b600082905060005b60008214613eee578080613ed7906155b0565b915050600a82613ee791906153ce565b9150613ec4565b60008167ffffffffffffffff811115613f30577f4e487b7100000000000000000000000000000000000000000000000000000000600052604160045260246000fd5b6040519080825280601f01601f191660200182016040528015613f625781602001600182028036833780820191505090505b5090505b6000851461401557600182613f7b9190615459565b9150600a85613f8a9190615603565b6030613f969190615378565b60f81b818381518110613fd2577f4e487b7100000000000000000000000000000000000000000000000000000000600052603260045260246000fd5b60200101907effffffffffffffffffffffffffffffffffffffffffffffffffffffffffffff1916908160001a905350600a8561400e91906153ce565b9450613f66565b8093505050505b919050565b600073ffffffffffffffffffffffffffffffffffffffff168273ffffffffffffffffffffffffffffffffffffffff161415614091576040517f08c379a000000000000000000000000000000000000000000000000000000000815260040161408890615156565b60405180910390fd5b61409a816122ba565b156140da576040517f08c379a00000000000000000000000000000000000000000000000000000000081526004016140d190615056565b60405180910390fd5b6140e66000838361397d565b6001600360008473ffffffffffffffffffffffffffffffffffffffff1673ffffffffffffffffffffffffffffffffffffffff16815260200190815260200160002060008282546141369190615378565b92505081905550816002600083815260200190815260200160002060006101000a81548173ffffffffffffffffffffffffffffffffffffffff021916908373ffffffffffffffffffffffffffffffffffffffff160217905550808273ffffffffffffffffffffffffffffffffffffffff16600073ffffffffffffffffffffffffffffffffffffffff167fddf252ad1be2c89b69c2b068fc378daa952ba7f163c4a11628f55a4df523b3ef60405160405180910390a46141f760008383613982565b5050565b6000808273ffffffffffffffffffffffffffffffffffffffff163b119050919050565b82805461422a9061554d565b90600052602060002090601f01602090048101928261424c5760008555614293565b82601f1061426557805160ff1916838001178555614293565b82800160010185558215614293579182015b82811115614292578251825591602001919060010190614277565b5b5090506142a091906142e2565b5090565b6040518060800160405280600073ffffffffffffffffffffffffffffffffffffffff1681526020016000815260200160008152602001600081525090565b5b808211156142fb5760008160009055506001016142e3565b5090565b600061431261430d8461529a565b615275565b90508281526020810184848401111561432a57600080fd5b61433584828561550b565b509392505050565b600061435061434b846152cb565b615275565b90508281526020810184848401111561436857600080fd5b61437384828561550b565b509392505050565b60008135905061438a81615c4c565b92915050565b60008135905061439f81615c63565b92915050565b6000813590506143b481615c7a565b92915050565b6000813590506143c981615c91565b92915050565b6000815190506143de81615c91565b92915050565b600082601f8301126143f557600080fd5b81356144058482602086016142ff565b91505092915050565b600082601f83011261441f57600080fd5b813561442f84826020860161433d565b91505092915050565b60008135905061444781615ca8565b92915050565b60006020828403121561445f57600080fd5b600061446d8482850161437b565b91505092915050565b6000806040838503121561448957600080fd5b60006144978582860161437b565b92505060206144a88582860161437b565b9150509250929050565b6000806000606084860312156144c757600080fd5b60006144d58682870161437b565b93505060206144e68682870161437b565b92505060406144f786828701614438565b9150509250925092565b6000806000806080858703121561451757600080fd5b60006145258782880161437b565b94505060206145368782880161437b565b935050604061454787828801614438565b925050606085013567ffffffffffffffff81111561456457600080fd5b614570878288016143e4565b91505092959194509250565b6000806040838503121561458f57600080fd5b600061459d8582860161437b565b92505060206145ae85828601614390565b9150509250929050565b600080604083850312156145cb57600080fd5b60006145d98582860161437b565b92505060206145ea85828601614438565b9150509250929050565b6000806000806080858703121561460a57600080fd5b60006146188782880161437b565b945050602061462987828801614438565b935050604061463a87828801614438565b925050606061464b87828801614438565b91505092959194509250565b600080600080600060a0868803121561466f57600080fd5b600061467d8882890161437b565b955050602061468e88828901614438565b945050604061469f88828901614438565b93505060606146b088828901614438565b925050608086013567ffffffffffffffff8111156146cd57600080fd5b6146d9888289016143e4565b9150509295509295909350565b6000602082840312156146f857600080fd5b6000614706848285016143a5565b91505092915050565b60006020828403121561472157600080fd5b600061472f848285016143ba565b91505092915050565b60006020828403121561474a57600080fd5b6000614758848285016143cf565b91505092915050565b60008060006060848603121561477657600080fd5b600084013567ffffffffffffffff81111561479057600080fd5b61479c8682870161440e565b935050602084013567ffffffffffffffff8111156147b957600080fd5b6147c58682870161440e565b925050604084013567ffffffffffffffff8111156147e257600080fd5b6147ee8682870161440e565b9150509250925092565b60006020828403121561480a57600080fd5b600061481884828501614438565b91505092915050565b6000806040838503121561483457600080fd5b600061484285828601614438565b925050602061485385828601614438565b9150509250929050565b60008060006060848603121561487257600080fd5b600061488086828701614438565b935050602061489186828701614438565b92505060406148a286828701614438565b9150509250925092565b600080600080608085870312156148c257600080fd5b60006148d087828801614438565b94505060206148e187828801614438565b93505060406148f287828801614438565b925050606085013567ffffffffffffffff81111561490f57600080fd5b61491b878288016143e4565b91505092959194509250565b60006149338383614d4c565b60808301905092915050565b6149488161548d565b82525050565b6149578161548d565b82525050565b60006149688261530c565b614972818561533a565b935061497d836152fc565b8060005b838110156149ae5781516149958882614927565b97506149a08361532d565b925050600181019050614981565b5085935050505092915050565b6149c48161549f565b82525050565b60006149d582615317565b6149df818561534b565b93506149ef81856020860161551a565b6149f8816156f0565b840191505092915050565b6000614a0e82615322565b614a18818561535c565b9350614a2881856020860161551a565b614a31816156f0565b840191505092915050565b6000614a4782615322565b614a51818561536d565b9350614a6181856020860161551a565b80840191505092915050565b6000614a7a60138361536d565b9150614a8582615701565b601382019050919050565b6000614a9d60328361535c565b9150614aa88261572a565b604082019050919050565b6000614ac060258361535c565b9150614acb82615779565b604082019050919050565b6000614ae3601c8361535c565b9150614aee826157c8565b602082019050919050565b6000614b0660248361535c565b9150614b11826157f1565b604082019050919050565b6000614b2960198361535c565b9150614b3482615840565b602082019050919050565b6000614b4c602c8361535c565b9150614b5782615869565b604082019050919050565b6000614b6f60388361535c565b9150614b7a826158b8565b604082019050919050565b6000614b92602a8361535c565b9150614b9d82615907565b604082019050919050565b6000614bb560298361535c565b9150614bc082615956565b604082019050919050565b6000614bd8602e8361535c565b9150614be3826159a5565b604082019050919050565b6000614bfb60028361536d565b9150614c06826159f4565b600282019050919050565b6000614c1e60208361535c565b9150614c2982615a1d565b602082019050919050565b6000614c41600d8361536d565b9150614c4c82615a46565b600d82019050919050565b6000614c6460318361535c565b9150614c6f82615a6f565b604082019050919050565b6000614c87602c8361535c565b9150614c9282615abe565b604082019050919050565b6000614caa602f8361535c565b9150614cb582615b0d565b604082019050919050565b6000614ccd600a8361536d565b9150614cd882615b5c565b600a82019050919050565b6000614cf060218361535c565b9150614cfb82615b85565b604082019050919050565b6000614d13601d8361536d565b9150614d1e82615bd4565b601d82019050919050565b6000614d3660318361535c565b9150614d4182615bfd565b604082019050919050565b608082016000820151614d62600085018261493f565b506020820151614d756020850182614df6565b506040820151614d886040850182614df6565b506060820151614d9b6060850182614df6565b50505050565b608082016000820151614db7600085018261493f565b506020820151614dca6020850182614df6565b506040820151614ddd6040850182614df6565b506060820151614df06060850182614df6565b50505050565b614dff81615501565b82525050565b614e0e81615501565b82525050565b614e25614e2082615501565b6155f9565b82525050565b6000614e378285614a3c565b9150614e438284614a3c565b91508190509392505050565b6000614e5a82614cc0565b9150614e668286614a3c565b9150614e7182614a6d565b9150614e7d8285614a3c565b9150614e8882614c34565b9150614e948284614a3c565b9150614e9f82614bee565b9150819050949350505050565b6000614eb782614d06565b9150614ec38284614a3c565b915081905092915050565b6000614eda8286614e14565b602082019150614eea8285614e14565b602082019150614efa8284614e14565b602082019150819050949350505050565b6000602082019050614f20600083018461494e565b92915050565b6000608082019050614f3b600083018761494e565b614f48602083018661494e565b614f556040830185614e05565b8181036060830152614f6781846149ca565b905095945050505050565b6000608082019050614f87600083018761494e565b614f946020830186614e05565b614fa16040830185614e05565b614fae6060830184614e05565b95945050505050565b60006020820190508181036000830152614fd1818461495d565b905092915050565b6000602082019050614fee60008301846149bb565b92915050565b6000602082019050818103600083015261500e8184614a03565b905092915050565b6000602082019050818103600083015261502f81614a90565b9050919050565b6000602082019050818103600083015261504f81614ab3565b9050919050565b6000602082019050818103600083015261506f81614ad6565b9050919050565b6000602082019050818103600083015261508f81614af9565b9050919050565b600060208201905081810360008301526150af81614b1c565b9050919050565b600060208201905081810360008301526150cf81614b3f565b9050919050565b600060208201905081810360008301526150ef81614b62565b9050919050565b6000602082019050818103600083015261510f81614b85565b9050919050565b6000602082019050818103600083015261512f81614ba8565b9050919050565b6000602082019050818103600083015261514f81614bcb565b9050919050565b6000602082019050818103600083015261516f81614c11565b9050919050565b6000602082019050818103600083015261518f81614c57565b9050919050565b600060208201905081810360008301526151af81614c7a565b9050919050565b600060208201905081810360008301526151cf81614c9d565b9050919050565b600060208201905081810360008301526151ef81614ce3565b9050919050565b6000602082019050818103600083015261520f81614d29565b9050919050565b600060808201905061522b6000830184614da1565b92915050565b60006020820190506152466000830184614e05565b92915050565b60006040820190506152616000830185614e05565b61526e6020830184614e05565b9392505050565b600061527f615290565b905061528b828261557f565b919050565b6000604051905090565b600067ffffffffffffffff8211156152b5576152b46156c1565b5b6152be826156f0565b9050602081019050919050565b600067ffffffffffffffff8211156152e6576152e56156c1565b5b6152ef826156f0565b9050602081019050919050565b6000819050602082019050919050565b600081519050919050565b600081519050919050565b600081519050919050565b6000602082019050919050565b600082825260208201905092915050565b600082825260208201905092915050565b600082825260208201905092915050565b600081905092915050565b600061538382615501565b915061538e83615501565b9250827fffffffffffffffffffffffffffffffffffffffffffffffffffffffffffffffff038211156153c3576153c2615634565b5b828201905092915050565b60006153d982615501565b91506153e483615501565b9250826153f4576153f3615663565b5b828204905092915050565b600061540a82615501565b915061541583615501565b9250817fffffffffffffffffffffffffffffffffffffffffffffffffffffffffffffffff048311821515161561544e5761544d615634565b5b828202905092915050565b600061546482615501565b915061546f83615501565b92508282101561548257615481615634565b5b828203905092915050565b6000615498826154e1565b9050919050565b60008115159050919050565b6000819050919050565b60007fffffffff0000000000000000000000000000000000000000000000000000000082169050919050565b600073ffffffffffffffffffffffffffffffffffffffff82169050919050565b6000819050919050565b82818337600083830152505050565b60005b8381101561553857808201518184015260208101905061551d565b83811115615547576000848401525b50505050565b6000600282049050600182168061556557607f821691505b6020821081141561557957615578615692565b5b50919050565b615588826156f0565b810181811067ffffffffffffffff821117156155a7576155a66156c1565b5b80604052505050565b60006155bb82615501565b91507fffffffffffffffffffffffffffffffffffffffffffffffffffffffffffffffff8214156155ee576155ed615634565b5b600182019050919050565b6000819050919050565b600061560e82615501565b915061561983615501565b92508261562957615628615663565b5b828206905092915050565b7f4e487b7100000000000000000000000000000000000000000000000000000000600052601160045260246000fd5b7f4e487b7100000000000000000000000000000000000000000000000000000000600052601260045260246000fd5b7f4e487b7100000000000000000000000000000000000000000000000000000000600052602260045260246000fd5b7f4e487b7100000000000000000000000000000000000000000000000000000000600052604160045260246000fd5b6000601f19601f8301169050919050565b7f222c20226465736372697074696f6e223a202200000000000000000000000000600082015250565b7f4552433732313a207472616e7366657220746f206e6f6e20455243373231526560008201527f63656976657220696d706c656d656e7465720000000000000000000000000000602082015250565b7f4552433732313a207472616e736665722066726f6d20696e636f72726563742060008201527f6f776e6572000000000000000000000000000000000000000000000000000000602082015250565b7f4552433732313a20746f6b656e20616c7265616479206d696e74656400000000600082015250565b7f4552433732313a207472616e7366657220746f20746865207a65726f2061646460008201527f7265737300000000000000000000000000000000000000000000000000000000602082015250565b7f4552433732313a20617070726f766520746f2063616c6c657200000000000000600082015250565b7f4552433732313a206f70657261746f7220717565727920666f72206e6f6e657860008201527f697374656e7420746f6b656e0000000000000000000000000000000000000000602082015250565b7f4552433732313a20617070726f76652063616c6c6572206973206e6f74206f7760008201527f6e6572206e6f7220617070726f76656420666f7220616c6c0000000000000000602082015250565b7f4552433732313a2062616c616e636520717565727920666f7220746865207a6560008201527f726f206164647265737300000000000000000000000000000000000000000000602082015250565b7f4552433732313a206f776e657220717565727920666f72206e6f6e657869737460008201527f656e7420746f6b656e0000000000000000000000000000000000000000000000602082015250565b7f45524337323155524953746f726167653a2055524920736574206f66206e6f6e60008201527f6578697374656e7420746f6b656e000000000000000000000000000000000000602082015250565b7f227d000000000000000000000000000000000000000000000000000000000000600082015250565b7f4552433732313a206d696e7420746f20746865207a65726f2061646472657373600082015250565b7f222c2022696d616765223a202200000000000000000000000000000000000000600082015250565b7f45524337323155524953746f726167653a2055524920717565727920666f722060008201527f6e6f6e6578697374656e7420746f6b656e000000000000000000000000000000602082015250565b7f4552433732313a20617070726f76656420717565727920666f72206e6f6e657860008201527f697374656e7420746f6b656e0000000000000000000000000000000000000000602082015250565b7f4552433732314d657461646174613a2055524920717565727920666f72206e6f60008201527f6e6578697374656e7420746f6b656e0000000000000000000000000000000000602082015250565b7f7b226e616d65223a202200000000000000000000000000000000000000000000600082015250565b7f4552433732313a20617070726f76616c20746f2063757272656e74206f776e6560008201527f7200000000000000000000000000000000000000000000000000000000000000602082015250565b7f646174613a6170706c69636174696f6e2f6a736f6e3b6261736536342c000000600082015250565b7f4552433732313a207472616e736665722063616c6c6572206973206e6f74206f60008201527f776e6572206e6f7220617070726f766564000000000000000000000000000000602082015250565b615c558161548d565b8114615c6057600080fd5b50565b615c6c8161549f565b8114615c7757600080fd5b50565b615c83816154ab565b8114615c8e57600080fd5b50565b615c9a816154b5565b8114615ca557600080fd5b50565b615cb181615501565b8114615cbc57600080fd5b5056fe4142434445464748494a4b4c4d4e4f505152535455565758595a6162636465666768696a6b6c6d6e6f707172737475767778797a303132333435363738392b2fa2646970667358221220e2bbbf607a91c684f940751470dc8184cdeadfa5a2a8ba61b14d23e76aefabc164736f6c63430008040033",
  "linkReferences": {},
  "deployedLinkReferences": {}
}