{
  "_format": "hh-sol-artifact-1",
  "contractName": "TimeLimitedToken",
  "sourceName": "contracts/TimeLimitedToken.sol",
  "abi": [
    {
      "inputs": [],
      "stateMutability": "nonpayable",
      "type": "constructor"
    },
    {
      "anonymous": false,
      "inputs": [
        {
          "indexed": true,
          "internalType": "address",
          "name": "owner",
          "type": "address"
        },
        {
          "indexed": true,
          "internalType": "address",
          "name": "approved",
          "type": "address"
        },
        {
          "indexed": true,
          "internalType": "uint256",
          "name": "tokenId",
          "type": "uint256"
        }
      ],
      "name": "Approval",
      "type": "event"
    },
    {
      "anonymous": false,
      "inputs": [
        {
          "indexed": true,
          "internalType": "address",
          "name": "owner",
          "type": "address"
        },
        {
          "indexed": true,
          "internalType": "address",
          "name": "operator",
          "type": "address"
        },
        {
          "indexed": false,
          "internalType": "bool",
          "name": "approved",
          "type": "bool"
        }
      ],
      "name": "ApprovalForAll",
      "type": "event"
    },
    {
      "anonymous": false,
      "inputs": [
        {
          "indexed": true,
          "internalType": "address",
          "name": "_from",
          "type": "address"
        },
        {
          "indexed": false,
          "internalType": "string",
          "name": "_tokenURI",
          "type": "string"
        }
      ],
      "name": "AssetCreated",
      "type": "event"
    },
    {
      "anonymous": false,
      "inputs": [
        {
          "indexed": true,
          "internalType": "address",
          "name": "_to",
          "type": "address"
        },
        {
          "indexed": true,
          "internalType": "uint256",
          "name": "_tokenId",
          "type": "uint256"
        },
        {
          "indexed": false,
          "internalType": "uint256",
          "name": "_start",
          "type": "uint256"
        },
        {
          "indexed": false,
          "internalType": "uint256",
          "name": "_end",
          "type": "uint256"
        }
      ],
      "name": "LeaseApproval",
      "type": "event"
    },
    {
      "anonymous": false,
      "inputs": [
        {
          "indexed": true,
          "internalType": "address",
          "name": "_from",
          "type": "address"
        },
        {
          "indexed": true,
          "internalType": "address",
          "name": "_operator",
          "type": "address"
        },
        {
          "indexed": false,
          "internalType": "bool",
          "name": "_approved",
          "type": "bool"
        }
      ],
      "name": "LeaseApprovalForAll",
      "type": "event"
    },
    {
      "anonymous": false,
      "inputs": [
        {
          "indexed": true,
          "internalType": "uint256",
          "name": "_tokenId",
          "type": "uint256"
        },
        {
          "indexed": true,
          "internalType": "address",
          "name": "_lessee",
          "type": "address"
        },
        {
          "indexed": true,
          "internalType": "address",
          "name": "_addressTo",
          "type": "address"
        },
        {
          "indexed": false,
          "internalType": "uint256",
          "name": "_start",
          "type": "uint256"
        },
        {
          "indexed": false,
          "internalType": "uint256",
          "name": "_end",
          "type": "uint256"
        }
      ],
      "name": "LeaseTransferred",
      "type": "event"
    },
    {
      "anonymous": false,
      "inputs": [
        {
          "indexed": true,
          "internalType": "uint256",
          "name": "_tokenId",
          "type": "uint256"
        },
        {
          "indexed": true,
          "internalType": "address",
          "name": "_lessee",
          "type": "address"
        },
        {
          "indexed": false,
          "internalType": "uint256",
          "name": "_start",
          "type": "uint256"
        },
        {
          "indexed": false,
          "internalType": "uint256",
          "name": "_end",
          "type": "uint256"
        }
      ],
      "name": "Leased",
      "type": "event"
    },
    {
      "anonymous": false,
      "inputs": [
        {
          "indexed": true,
          "internalType": "address",
          "name": "from",
          "type": "address"
        },
        {
          "indexed": true,
          "internalType": "address",
          "name": "to",
          "type": "address"
        },
        {
          "indexed": true,
          "internalType": "uint256",
          "name": "tokenId",
          "type": "uint256"
        }
      ],
      "name": "Transfer",
      "type": "event"
    },
    {
      "anonymous": false,
      "inputs": [
        {
          "indexed": true,
          "internalType": "uint256",
          "name": "_tokenId",
          "type": "uint256"
        },
        {
          "indexed": true,
          "internalType": "address",
          "name": "_lessee",
          "type": "address"
        },
        {
          "indexed": false,
          "internalType": "uint256",
          "name": "_start",
          "type": "uint256"
        },
        {
          "indexed": false,
          "internalType": "uint256",
          "name": "_end",
          "type": "uint256"
        }
      ],
      "name": "Unleased",
      "type": "event"
    },
    {
      "inputs": [],
      "name": "MAX_DURATION",
      "outputs": [
        {
          "internalType": "uint256",
          "name": "",
          "type": "uint256"
        }
      ],
      "stateMutability": "view",
      "type": "function"
    },
    {
      "inputs": [],
      "name": "MAX_LEASE_DURATION",
      "outputs": [
        {
          "internalType": "uint256",
          "name": "",
          "type": "uint256"
        }
      ],
      "stateMutability": "view",
      "type": "function"
    },
    {
      "inputs": [],
      "name": "MIN_DURATION",
      "outputs": [
        {
          "internalType": "uint256",
          "name": "",
          "type": "uint256"
        }
      ],
      "stateMutability": "view",
      "type": "function"
    },
    {
      "inputs": [],
      "name": "MIN_LEASE_DURATION",
      "outputs": [
        {
          "internalType": "uint256",
          "name": "",
          "type": "uint256"
        }
      ],
      "stateMutability": "view",
      "type": "function"
    },
    {
      "inputs": [],
      "name": "TIMESTAMP",
      "outputs": [
        {
          "internalType": "bool",
          "name": "",
          "type": "bool"
        }
      ],
      "stateMutability": "view",
      "type": "function"
    },
    {
      "inputs": [],
      "name": "TIME_START",
      "outputs": [
        {
          "internalType": "uint256",
          "name": "",
          "type": "uint256"
        }
      ],
      "stateMutability": "view",
      "type": "function"
    },
    {
      "inputs": [],
      "name": "USE_TIMESTAMP",
      "outputs": [
        {
          "internalType": "bool",
          "name": "",
          "type": "bool"
        }
      ],
      "stateMutability": "pure",
      "type": "function"
    },
    {
      "inputs": [
        {
          "internalType": "address",
          "name": "to",
          "type": "address"
        },
        {
          "internalType": "uint256",
          "name": "tokenId",
          "type": "uint256"
        }
      ],
      "name": "approve",
      "outputs": [],
      "stateMutability": "nonpayable",
      "type": "function"
    },
    {
      "inputs": [
        {
          "internalType": "address",
          "name": "",
          "type": "address"
        },
        {
          "internalType": "uint256",
          "name": "",
          "type": "uint256"
        },
        {
          "internalType": "uint256",
          "name": "",
          "type": "uint256"
        },
        {
          "internalType": "uint256",
          "name": "",
          "type": "uint256"
        }
      ],
      "name": "approveLease",
      "outputs": [],
      "stateMutability": "pure",
      "type": "function"
    },
    {
      "inputs": [
        {
          "internalType": "uint256",
          "name": "",
          "type": "uint256"
        }
      ],
      "name": "assets",
      "outputs": [
        {
          "internalType": "string",
          "name": "",
          "type": "string"
        }
      ],
      "stateMutability": "view",
      "type": "function"
    },
    {
      "inputs": [
        {
          "internalType": "address",
          "name": "owner",
          "type": "address"
        }
      ],
      "name": "balanceOf",
      "outputs": [
        {
          "internalType": "uint256",
          "name": "",
          "type": "uint256"
        }
      ],
      "stateMutability": "view",
      "type": "function"
    },
    {
      "inputs": [
        {
          "internalType": "uint256",
          "name": "tokenId",
          "type": "uint256"
        }
      ],
      "name": "getApproved",
      "outputs": [
        {
          "internalType": "address",
          "name": "",
          "type": "address"
        }
      ],
      "stateMutability": "view",
      "type": "function"
    },
    {
      "inputs": [
        {
          "internalType": "uint256",
          "name": "_tokenId",
          "type": "uint256"
        }
      ],
      "name": "getAssets",
      "outputs": [
        {
          "internalType": "string",
          "name": "",
          "type": "string"
        }
      ],
      "stateMutability": "view",
      "type": "function"
    },
    {
      "inputs": [
        {
          "internalType": "uint256",
          "name": "_tokenId",
          "type": "uint256"
        },
        {
          "internalType": "uint256",
          "name": "_date",
          "type": "uint256"
        }
      ],
      "name": "getLease",
      "outputs": [
        {
          "components": [
            {
              "internalType": "address",
              "name": "lessee",
              "type": "address"
            },
            {
              "internalType": "uint256",
              "name": "tokenId",
              "type": "uint256"
            },
            {
              "internalType": "uint256",
              "name": "startTime",
              "type": "uint256"
            },
            {
              "internalType": "uint256",
              "name": "endTime",
              "type": "uint256"
            }
          ],
          "internalType": "struct ITimeLimitedToken.Term",
          "name": "",
          "type": "tuple"
        }
      ],
      "stateMutability": "view",
      "type": "function"
    },
    {
      "inputs": [
        {
          "internalType": "uint256",
          "name": "",
          "type": "uint256"
        },
        {
          "internalType": "uint256",
          "name": "",
          "type": "uint256"
        },
        {
          "internalType": "uint256",
          "name": "",
          "type": "uint256"
        }
      ],
      "name": "getLeaseApproved",
      "outputs": [
        {
          "internalType": "address",
          "name": "",
          "type": "address"
        }
      ],
      "stateMutability": "pure",
      "type": "function"
    },
    {
      "inputs": [
        {
          "internalType": "uint256",
          "name": "_tokenId",
          "type": "uint256"
        },
        {
          "internalType": "uint256",
          "name": "_date",
          "type": "uint256"
        }
      ],
      "name": "getLeaseEnd",
      "outputs": [
        {
          "internalType": "uint256",
          "name": "",
          "type": "uint256"
        }
      ],
      "stateMutability": "view",
      "type": "function"
    },
    {
      "inputs": [
        {
          "internalType": "address",
          "name": "_address",
          "type": "address"
        }
      ],
      "name": "getLeases",
      "outputs": [
        {
          "components": [
            {
              "internalType": "address",
              "name": "lessee",
              "type": "address"
            },
            {
              "internalType": "uint256",
              "name": "tokenId",
              "type": "uint256"
            },
            {
              "internalType": "uint256",
              "name": "startTime",
              "type": "uint256"
            },
            {
              "internalType": "uint256",
              "name": "endTime",
              "type": "uint256"
            }
          ],
          "internalType": "struct ITimeLimitedToken.Term[]",
          "name": "",
          "type": "tuple[]"
        }
      ],
      "stateMutability": "view",
      "type": "function"
    },
    {
      "inputs": [
        {
          "internalType": "uint256",
          "name": "_tokenId",
          "type": "uint256"
        }
      ],
      "name": "getLeases",
      "outputs": [
        {
          "components": [
            {
              "internalType": "address",
              "name": "lessee",
              "type": "address"
            },
            {
              "internalType": "uint256",
              "name": "tokenId",
              "type": "uint256"
            },
            {
              "internalType": "uint256",
              "name": "startTime",
              "type": "uint256"
            },
            {
              "internalType": "uint256",
              "name": "endTime",
              "type": "uint256"
            }
          ],
          "internalType": "struct ITimeLimitedToken.Term[]",
          "name": "",
          "type": "tuple[]"
        }
      ],
      "stateMutability": "view",
      "type": "function"
    },
    {
      "inputs": [
        {
          "internalType": "address",
          "name": "owner",
          "type": "address"
        },
        {
          "internalType": "address",
          "name": "operator",
          "type": "address"
        }
      ],
      "name": "isApprovedForAll",
      "outputs": [
        {
          "internalType": "bool",
          "name": "",
          "type": "bool"
        }
      ],
      "stateMutability": "view",
      "type": "function"
    },
    {
      "inputs": [
        {
          "internalType": "address",
          "name": "",
          "type": "address"
        },
        {
          "internalType": "address",
          "name": "",
          "type": "address"
        }
      ],
      "name": "isLeaseApprovedForall",
      "outputs": [
        {
          "internalType": "bool",
          "name": "",
          "type": "bool"
        }
      ],
      "stateMutability": "pure",
      "type": "function"
    },
    {
      "inputs": [
        {
          "internalType": "uint256",
          "name": "_tokenId",
          "type": "uint256"
        },
        {
          "internalType": "uint256",
          "name": "_start",
          "type": "uint256"
        },
        {
          "internalType": "uint256",
          "name": "_end",
          "type": "uint256"
        }
      ],
      "name": "isLeaseAvailable",
      "outputs": [
        {
          "internalType": "bool",
          "name": "",
          "type": "bool"
        }
      ],
      "stateMutability": "view",
      "type": "function"
    },
    {
      "inputs": [
        {
          "internalType": "uint256",
          "name": "",
          "type": "uint256"
        }
      ],
      "name": "lastEndTimeByToken",
      "outputs": [
        {
          "internalType": "uint256",
          "name": "",
          "type": "uint256"
        }
      ],
      "stateMutability": "view",
      "type": "function"
    },
    {
      "inputs": [
        {
          "internalType": "address",
          "name": "_addressTo",
          "type": "address"
        },
        {
          "internalType": "uint256",
          "name": "_tokenId",
          "type": "uint256"
        },
        {
          "internalType": "uint256",
          "name": "_start",
          "type": "uint256"
        },
        {
          "internalType": "uint256",
          "name": "_end",
          "type": "uint256"
        },
        {
          "internalType": "bytes",
          "name": "",
          "type": "bytes"
        }
      ],
      "name": "lease",
      "outputs": [],
      "stateMutability": "nonpayable",
      "type": "function"
    },
    {
      "inputs": [
        {
          "internalType": "address",
          "name": "_addressTo",
          "type": "address"
        },
        {
          "internalType": "uint256",
          "name": "_tokenId",
          "type": "uint256"
        },
        {
          "internalType": "uint256",
          "name": "_start",
          "type": "uint256"
        },
        {
          "internalType": "uint256",
          "name": "_end",
          "type": "uint256"
        }
      ],
      "name": "lease",
      "outputs": [],
      "stateMutability": "nonpayable",
      "type": "function"
    },
    {
      "inputs": [
        {
          "internalType": "address",
          "name": "",
          "type": "address"
        },
        {
          "internalType": "uint256",
          "name": "",
          "type": "uint256"
        }
      ],
      "name": "leasesByAddress",
      "outputs": [
        {
          "internalType": "address",
          "name": "lessee",
          "type": "address"
        },
        {
          "internalType": "uint256",
          "name": "tokenId",
          "type": "uint256"
        },
        {
          "internalType": "uint256",
          "name": "startTime",
          "type": "uint256"
        },
        {
          "internalType": "uint256",
          "name": "endTime",
          "type": "uint256"
        }
      ],
      "stateMutability": "view",
      "type": "function"
    },
    {
      "inputs": [
        {
          "internalType": "uint256",
          "name": "",
          "type": "uint256"
        },
        {
          "internalType": "uint256",
          "name": "",
          "type": "uint256"
        }
      ],
      "name": "leasesByToken",
      "outputs": [
        {
          "internalType": "address",
          "name": "lessee",
          "type": "address"
        },
        {
          "internalType": "uint256",
          "name": "tokenId",
          "type": "uint256"
        },
        {
          "internalType": "uint256",
          "name": "startTime",
          "type": "uint256"
        },
        {
          "internalType": "uint256",
          "name": "endTime",
          "type": "uint256"
        }
      ],
      "stateMutability": "view",
      "type": "function"
    },
    {
      "inputs": [
        {
          "internalType": "uint256",
          "name": "_tokenId",
          "type": "uint256"
        },
        {
          "internalType": "uint256",
          "name": "_date",
          "type": "uint256"
        }
      ],
      "name": "lesseeOf",
      "outputs": [
        {
          "internalType": "address",
          "name": "",
          "type": "address"
        }
      ],
      "stateMutability": "view",
      "type": "function"
    },
    {
      "inputs": [
        {
          "internalType": "string",
          "name": "_name",
          "type": "string"
        },
        {
          "internalType": "string",
          "name": "_description",
          "type": "string"
        },
        {
          "internalType": "string",
          "name": "_image",
          "type": "string"
        }
      ],
      "name": "mintAsset",
      "outputs": [],
      "stateMutability": "payable",
      "type": "function"
    },
    {
      "inputs": [],
      "name": "name",
      "outputs": [
        {
          "internalType": "string",
          "name": "",
          "type": "string"
        }
      ],
      "stateMutability": "view",
      "type": "function"
    },
    {
      "inputs": [
        {
          "internalType": "uint256",
          "name": "tokenId",
          "type": "uint256"
        }
      ],
      "name": "ownerOf",
      "outputs": [
        {
          "internalType": "address",
          "name": "",
          "type": "address"
        }
      ],
      "stateMutability": "view",
      "type": "function"
    },
    {
      "inputs": [
        {
          "internalType": "uint256",
          "name": "_tokenId",
          "type": "uint256"
        },
        {
          "internalType": "uint256",
          "name": "_date",
          "type": "uint256"
        }
      ],
      "name": "possessorOf",
      "outputs": [
        {
          "internalType": "address",
          "name": "",
          "type": "address"
        }
      ],
      "stateMutability": "view",
      "type": "function"
    },
    {
      "inputs": [
        {
          "internalType": "address",
          "name": "from",
          "type": "address"
        },
        {
          "internalType": "address",
          "name": "to",
          "type": "address"
        },
        {
          "internalType": "uint256",
          "name": "tokenId",
          "type": "uint256"
        }
      ],
      "name": "safeTransferFrom",
      "outputs": [],
      "stateMutability": "nonpayable",
      "type": "function"
    },
    {
      "inputs": [
        {
          "internalType": "address",
          "name": "from",
          "type": "address"
        },
        {
          "internalType": "address",
          "name": "to",
          "type": "address"
        },
        {
          "internalType": "uint256",
          "name": "tokenId",
          "type": "uint256"
        },
        {
          "internalType": "bytes",
          "name": "_data",
          "type": "bytes"
        }
      ],
      "name": "safeTransferFrom",
      "outputs": [],
      "stateMutability": "nonpayable",
      "type": "function"
    },
    {
      "inputs": [
        {
          "internalType": "address",
          "name": "operator",
          "type": "address"
        },
        {
          "internalType": "bool",
          "name": "approved",
          "type": "bool"
        }
      ],
      "name": "setApprovalForAll",
      "outputs": [],
      "stateMutability": "nonpayable",
      "type": "function"
    },
    {
      "inputs": [
        {
          "internalType": "address",
          "name": "",
          "type": "address"
        },
        {
          "internalType": "bool",
          "name": "",
          "type": "bool"
        }
      ],
      "name": "setLeaseApprovalForAll",
      "outputs": [],
      "stateMutability": "pure",
      "type": "function"
    },
    {
      "inputs": [
        {
          "internalType": "bytes4",
          "name": "interfaceId",
          "type": "bytes4"
        }
      ],
      "name": "supportsInterface",
      "outputs": [
        {
          "internalType": "bool",
          "name": "",
          "type": "bool"
        }
      ],
      "stateMutability": "view",
      "type": "function"
    },
    {
      "inputs": [],
      "name": "symbol",
      "outputs": [
        {
          "internalType": "string",
          "name": "",
          "type": "string"
        }
      ],
      "stateMutability": "view",
      "type": "function"
    },
    {
      "inputs": [
        {
          "internalType": "uint256",
          "name": "tokenId",
          "type": "uint256"
        }
      ],
      "name": "tokenURI",
      "outputs": [
        {
          "internalType": "string",
          "name": "",
          "type": "string"
        }
      ],
      "stateMutability": "view",
      "type": "function"
    },
    {
      "inputs": [
        {
          "internalType": "address",
          "name": "from",
          "type": "address"
        },
        {
          "internalType": "address",
          "name": "to",
          "type": "address"
        },
        {
          "internalType": "uint256",
          "name": "tokenId",
          "type": "uint256"
        }
      ],
      "name": "transferFrom",
      "outputs": [],
      "stateMutability": "nonpayable",
      "type": "function"
    },
    {
      "inputs": [
        {
          "internalType": "uint256",
          "name": "_tokenId",
          "type": "uint256"
        },
        {
          "internalType": "uint256",
          "name": "_start",
          "type": "uint256"
        },
        {
          "internalType": "uint256",
          "name": "_end",
          "type": "uint256"
        }
      ],
      "name": "unlease",
      "outputs": [],
      "stateMutability": "nonpayable",
      "type": "function"
    },
    {
      "inputs": [
        {
          "internalType": "uint256",
          "name": "_tokenId",
          "type": "uint256"
        },
        {
          "internalType": "uint256",
          "name": "_start",
          "type": "uint256"
        },
        {
          "internalType": "uint256",
          "name": "_end",
          "type": "uint256"
        },
        {
          "internalType": "bytes",
          "name": "",
          "type": "bytes"
        }
      ],
      "name": "unlease",
      "outputs": [],
      "stateMutability": "nonpayable",
      "type": "function"
    }
  ],
  "bytecode": "0x60806040523480156200001157600080fd5b506040518060400160405280600581526020017f4c656173650000000000000000000000000000000000000000000000000000008152506040518060400160405280600581526020017f4c45415345000000000000000000000000000000000000000000000000000000815250816000908051906020019062000096929190620000b8565b508060019080519060200190620000af929190620000b8565b505050620001cd565b828054620000c69062000168565b90600052602060002090601f016020900481019282620000ea576000855562000136565b82601f106200010557805160ff191683800117855562000136565b8280016001018555821562000136579182015b828111156200013557825182559160200191906001019062000118565b5b50905062000145919062000149565b5090565b5b80821115620001645760008160009055506001016200014a565b5090565b600060028204905060018216806200018157607f821691505b602082108114156200019857620001976200019e565b5b50919050565b7f4e487b7100000000000000000000000000000000000000000000000000000000600052602260045260246000fd5b615a6f80620001dd6000396000f3fe6080604052600436106102465760003560e01c806390256c8e11610139578063cf35bdd0116100b6578063e68105691161007a578063e681056914610943578063e985e9c514610980578063ebb3ebb3146109bd578063f121821d146109fa578063f5fb0e1114610a23578063f85a99da14610a4c57610246565b8063cf35bdd014610826578063d3f7e55214610863578063d4c2d9e6146108a0578063d9212164146108c9578063de17556f1461090657610246565b8063b1724b46116100fd578063b1724b461461072a578063b6a6d17714610755578063b88d4fde14610780578063c517756c146107a9578063c87b56dd146107e957610246565b806390256c8e1461063357806395d89b411461067057806399433cc51461069b578063a1faf865146106c4578063a22cb4651461070157610246565b806341f75792116101c757806369c2f6af1161018b57806369c2f6af1461053257806370a08231146105725780637249b932146105af578063749e480d146105cb5780638fa9e5f2146105f657610246565b806341f757921461044d57806342842e0e1461047857806345634da4146104a15780634b080f77146104cc5780636352211e146104f557610246565b80630f76214f1161020e5780630f76214f1461035657806323b872dd1461038157806328e71245146103aa5780632a6b1a0b146103e7578063414193781461042457610246565b806301ffc9a71461024b57806305fe6e931461028857806306fdde03146102c5578063081812fc146102f0578063095ea7b31461032d575b600080fd5b34801561025757600080fd5b50610272600480360381019061026d9190614408565b610a77565b60405161027f9190614c7e565b60405180910390f35b34801561029457600080fd5b506102af60048036038101906102aa919061451a565b610b59565b6040516102bc9190614bb0565b60405180910390f35b3480156102d157600080fd5b506102da610bb9565b6040516102e79190614c99565b60405180910390f35b3480156102fc57600080fd5b50610317600480360381019061031291906144f1565b610c4b565b6040516103249190614bb0565b60405180910390f35b34801561033957600080fd5b50610354600480360381019061034f91906142da565b610cd0565b005b34801561036257600080fd5b5061036b610de8565b6040516103789190614f74565b60405180910390f35b34801561038d57600080fd5b506103a860048036038101906103a391906141d4565b610df0565b005b3480156103b657600080fd5b506103d160048036038101906103cc9190614556565b610e50565b6040516103de9190614bb0565b60405180910390f35b3480156103f357600080fd5b5061040e600480360381019061040991906144f1565b610e67565b60405161041b9190614f74565b60405180910390f35b34801561043057600080fd5b5061044b60048036038101906104469190614316565b610e7f565b005b34801561045957600080fd5b50610462610e90565b60405161046f9190614f74565b60405180910390f35b34801561048457600080fd5b5061049f600480360381019061049a91906141d4565b610e9b565b005b3480156104ad57600080fd5b506104b6610ebb565b6040516104c39190614f74565b60405180910390f35b3480156104d857600080fd5b506104f360048036038101906104ee9190614379565b610ec6565b005b34801561050157600080fd5b5061051c600480360381019061051791906144f1565b610ed9565b6040516105299190614bb0565b60405180910390f35b34801561053e57600080fd5b50610559600480360381019061055491906142da565b610f8b565b6040516105699493929190614c17565b60405180910390f35b34801561057e57600080fd5b506105996004803603810190610594919061416f565b610ff8565b6040516105a69190614f74565b60405180910390f35b6105c960048036038101906105c4919061445a565b6110b0565b005b3480156105d757600080fd5b506105e06111ae565b6040516105ed9190614c7e565b60405180910390f35b34801561060257600080fd5b5061061d6004803603810190610618919061451a565b6111b3565b60405161062a9190614f74565b60405180910390f35b34801561063f57600080fd5b5061065a6004803603810190610655919061416f565b6111c7565b6040516106679190614c5c565b60405180910390f35b34801561067c57600080fd5b50610685611313565b6040516106929190614c99565b60405180910390f35b3480156106a757600080fd5b506106c260048036038101906106bd919061429e565b6113a5565b005b3480156106d057600080fd5b506106eb60048036038101906106e69190614198565b6113b4565b6040516106f89190614c7e565b60405180910390f35b34801561070d57600080fd5b506107286004803603810190610723919061429e565b6113ca565b005b34801561073657600080fd5b5061073f6113e0565b60405161074c9190614f74565b60405180910390f35b34801561076157600080fd5b5061076a6113e7565b6040516107779190614f74565b60405180910390f35b34801561078c57600080fd5b506107a760048036038101906107a29190614223565b6113ee565b005b3480156107b557600080fd5b506107d060048036038101906107cb919061451a565b611450565b6040516107e09493929190614c17565b60405180910390f35b3480156107f557600080fd5b50610810600480360381019061080b91906144f1565b6114bd565b60405161081d9190614c99565b60405180910390f35b34801561083257600080fd5b5061084d600480360381019061084891906144f1565b61160f565b60405161085a9190614c99565b60405180910390f35b34801561086f57600080fd5b5061088a6004803603810190610885919061451a565b6116af565b6040516108979190614f59565b60405180910390f35b3480156108ac57600080fd5b506108c760048036038101906108c29190614556565b6116c9565b005b3480156108d557600080fd5b506108f060048036038101906108eb91906144f1565b6116d9565b6040516108fd9190614c99565b60405180910390f35b34801561091257600080fd5b5061092d6004803603810190610928919061451a565b61177e565b60405161093a9190614bb0565b60405180910390f35b34801561094f57600080fd5b5061096a60048036038101906109659190614556565b611792565b6040516109779190614c7e565b60405180910390f35b34801561098c57600080fd5b506109a760048036038101906109a29190614198565b6117a8565b6040516109b49190614c7e565b60405180910390f35b3480156109c957600080fd5b506109e460048036038101906109df91906144f1565b61183c565b6040516109f19190614c5c565b60405180910390f35b348015610a0657600080fd5b50610a216004803603810190610a1c9190614316565b611930565b005b348015610a2f57600080fd5b50610a4a6004803603810190610a4591906145a5565b611942565b005b348015610a5857600080fd5b50610a61611953565b604051610a6e9190614c7e565b60405180910390f35b60007f80ac58cd000000000000000000000000000000000000000000000000000000007bffffffffffffffffffffffffffffffffffffffffffffffffffffffff1916827bffffffffffffffffffffffffffffffffffffffffffffffffffffffff19161480610b4257507f5b5e139f000000000000000000000000000000000000000000000000000000007bffffffffffffffffffffffffffffffffffffffffffffffffffffffff1916827bffffffffffffffffffffffffffffffffffffffffffffffffffffffff1916145b80610b525750610b5182611958565b5b9050919050565b600080610b6684846119c2565b9050600073ffffffffffffffffffffffffffffffffffffffff168173ffffffffffffffffffffffffffffffffffffffff161415610bae57610ba684610ed9565b915050610bb3565b809150505b92915050565b606060008054610bc890615286565b80601f0160208091040260200160405190810160405280929190818152602001828054610bf490615286565b8015610c415780601f10610c1657610100808354040283529160200191610c41565b820191906000526020600020905b815481529060010190602001808311610c2457829003601f168201915b5050505050905090565b6000610c5682611beb565b610c95576040517f08c379a0000000000000000000000000000000000000000000000000000000008152600401610c8c90614ed9565b60405180910390fd5b6004600083815260200190815260200160002060009054906101000a900473ffffffffffffffffffffffffffffffffffffffff169050919050565b6000610cdb82610ed9565b90508073ffffffffffffffffffffffffffffffffffffffff168373ffffffffffffffffffffffffffffffffffffffff161415610d4c576040517f08c379a0000000000000000000000000000000000000000000000000000000008152600401610d4390614f19565b60405180910390fd5b8073ffffffffffffffffffffffffffffffffffffffff16610d6b611c57565b73ffffffffffffffffffffffffffffffffffffffff161480610d9a5750610d9981610d94611c57565b6117a8565b5b610dd9576040517f08c379a0000000000000000000000000000000000000000000000000000000008152600401610dd090614e19565b60405180910390fd5b610de38383611c5f565b505050565b6361cf371081565b610e01610dfb611c57565b82611d18565b610e40576040517f08c379a0000000000000000000000000000000000000000000000000000000008152600401610e3790614f39565b60405180910390fd5b610e4b838383611df6565b505050565b600080610e5c57600080fd5b600090509392505050565b600a6020528060005260406000206000915090505481565b6000610e8a57600080fd5b50505050565b600062015180905090565b610eb6838383604051806020016040528060008152506113ee565b505050565b6000624f1a00905090565b610ed28585858561205d565b5050505050565b6000806002600084815260200190815260200160002060009054906101000a900473ffffffffffffffffffffffffffffffffffffffff169050600073ffffffffffffffffffffffffffffffffffffffff168173ffffffffffffffffffffffffffffffffffffffff161415610f82576040517f08c379a0000000000000000000000000000000000000000000000000000000008152600401610f7990614e59565b60405180910390fd5b80915050919050565b60096020528160005260406000208181548110610fa757600080fd5b9060005260206000209060040201600091509150508060000160009054906101000a900473ffffffffffffffffffffffffffffffffffffffff16908060010154908060020154908060030154905084565b60008073ffffffffffffffffffffffffffffffffffffffff168273ffffffffffffffffffffffffffffffffffffffff161415611069576040517f08c379a000000000000000000000000000000000000000000000000000000000815260040161106090614e39565b60405180910390fd5b600360008373ffffffffffffffffffffffffffffffffffffffff1673ffffffffffffffffffffffffffffffffffffffff168152602001908152602001600020549050919050565b6110ba6007612192565b60006110c660076121a8565b905060006110f68585856040516020016110e293929190614b31565b6040516020818303038152906040526121b6565b905060008160405160200161110b9190614b8e565b60405160208183030381529060405290506111263384612340565b611130838261235e565b80600b60008581526020019081526020016000209080519060200190611157929190613f55565b503373ffffffffffffffffffffffffffffffffffffffff167fa0cb282b65d69a39a4d7684f44a7c15b2b3761982ad6a6d947865bfd5220c8158260405161119e9190614c99565b60405180910390a2505050505050565b600081565b60006111bf83836123d2565b905092915050565b6060600073ffffffffffffffffffffffffffffffffffffffff168273ffffffffffffffffffffffffffffffffffffffff16141561120357600080fd5b600960008373ffffffffffffffffffffffffffffffffffffffff1673ffffffffffffffffffffffffffffffffffffffff168152602001908152602001600020805480602002602001604051908101604052809291908181526020016000905b8282101561130857838290600052602060002090600402016040518060800160405290816000820160009054906101000a900473ffffffffffffffffffffffffffffffffffffffff1673ffffffffffffffffffffffffffffffffffffffff1673ffffffffffffffffffffffffffffffffffffffff168152602001600182015481526020016002820154815260200160038201548152505081526020019060010190611262565b505050509050919050565b60606001805461132290615286565b80601f016020809104026020016040519081016040528092919081815260200182805461134e90615286565b801561139b5780601f106113705761010080835404028352916020019161139b565b820191906000526020600020905b81548152906001019060200180831161137e57829003601f168201915b5050505050905090565b60006113b057600080fd5b5050565b6000806113c057600080fd5b6000905092915050565b6113dc6113d5611c57565b8383612407565b5050565b624f1a0081565b6201518081565b6113ff6113f9611c57565b83611d18565b61143e576040517f08c379a000000000000000000000000000000000000000000000000000000000815260040161143590614f39565b60405180910390fd5b61144a84848484612574565b50505050565b6008602052816000526040600020818154811061146c57600080fd5b9060005260206000209060040201600091509150508060000160009054906101000a900473ffffffffffffffffffffffffffffffffffffffff16908060010154908060020154908060030154905084565b60606114c882611beb565b611507576040517f08c379a00000000000000000000000000000000000000000000000000000000081526004016114fe90614eb9565b60405180910390fd5b600060066000848152602001908152602001600020805461152790615286565b80601f016020809104026020016040519081016040528092919081815260200182805461155390615286565b80156115a05780601f10611575576101008083540402835291602001916115a0565b820191906000526020600020905b81548152906001019060200180831161158357829003601f168201915b5050505050905060006115b16125d0565b90506000815114156115c757819250505061160a565b6000825111156115fc5780826040516020016115e4929190614b0d565b6040516020818303038152906040529250505061160a565b611605846125e7565b925050505b919050565b600b602052806000526040600020600091509050805461162e90615286565b80601f016020809104026020016040519081016040528092919081815260200182805461165a90615286565b80156116a75780601f1061167c576101008083540402835291602001916116a7565b820191906000526020600020905b81548152906001019060200180831161168a57829003601f168201915b505050505081565b6116b7613fdb565b6116c1838361268e565b905092915050565b6116d48383836129cd565b505050565b6060600b600083815260200190815260200160002080546116f990615286565b80601f016020809104026020016040519081016040528092919081815260200182805461172590615286565b80156117725780601f1061174757610100808354040283529160200191611772565b820191906000526020600020905b81548152906001019060200180831161175557829003601f168201915b50505050509050919050565b600061178a83836119c2565b905092915050565b600061179f848484612f22565b90509392505050565b6000600560008473ffffffffffffffffffffffffffffffffffffffff1673ffffffffffffffffffffffffffffffffffffffff16815260200190815260200160002060008373ffffffffffffffffffffffffffffffffffffffff1673ffffffffffffffffffffffffffffffffffffffff16815260200190815260200160002060009054906101000a900460ff16905092915050565b6060600082141561184c57600080fd5b60086000838152602001908152602001600020805480602002602001604051908101604052809291908181526020016000905b8282101561192557838290600052602060002090600402016040518060800160405290816000820160009054906101000a900473ffffffffffffffffffffffffffffffffffffffff1673ffffffffffffffffffffffffffffffffffffffff1673ffffffffffffffffffffffffffffffffffffffff16815260200160018201548152602001600282015481526020016003820154815250508152602001906001019061187f565b505050509050919050565b61193c8484848461205d565b50505050565b61194d8484846129cd565b50505050565b600090565b60007f01ffc9a7000000000000000000000000000000000000000000000000000000007bffffffffffffffffffffffffffffffffffffffffffffffffffffffff1916827bffffffffffffffffffffffffffffffffffffffffffffffffffffffff1916149050919050565b6000808314156119d157600080fd5b60008214156119df57600080fd5b600060086000858152602001908152602001600020805480602002602001604051908101604052809291908181526020016000905b82821015611aba57838290600052602060002090600402016040518060800160405290816000820160009054906101000a900473ffffffffffffffffffffffffffffffffffffffff1673ffffffffffffffffffffffffffffffffffffffff1673ffffffffffffffffffffffffffffffffffffffff168152602001600182015481526020016002820154815260200160038201548152505081526020019060010190611a14565b505050509050600081511415611ad4576000915050611be5565b60005b8151811015611bde5783828281518110611b1a577f4e487b7100000000000000000000000000000000000000000000000000000000600052603260045260246000fd5b60200260200101516040015111158015611b785750818181518110611b68577f4e487b7100000000000000000000000000000000000000000000000000000000600052603260045260246000fd5b6020026020010151606001518411155b15611bcb57818181518110611bb6577f4e487b7100000000000000000000000000000000000000000000000000000000600052603260045260246000fd5b60200260200101516000015192505050611be5565b8080611bd6906152e9565b915050611ad7565b5060009150505b92915050565b60008073ffffffffffffffffffffffffffffffffffffffff166002600084815260200190815260200160002060009054906101000a900473ffffffffffffffffffffffffffffffffffffffff1673ffffffffffffffffffffffffffffffffffffffff1614159050919050565b600033905090565b816004600083815260200190815260200160002060006101000a81548173ffffffffffffffffffffffffffffffffffffffff021916908373ffffffffffffffffffffffffffffffffffffffff160217905550808273ffffffffffffffffffffffffffffffffffffffff16611cd283610ed9565b73ffffffffffffffffffffffffffffffffffffffff167f8c5be1e5ebec7d5bd14f71427d1e84f3dd0314c0f7b2291e5b200ac8c7c3b92560405160405180910390a45050565b6000611d2382611beb565b611d62576040517f08c379a0000000000000000000000000000000000000000000000000000000008152600401611d5990614df9565b60405180910390fd5b6000611d6d83610ed9565b90508073ffffffffffffffffffffffffffffffffffffffff168473ffffffffffffffffffffffffffffffffffffffff161480611ddc57508373ffffffffffffffffffffffffffffffffffffffff16611dc484610c4b565b73ffffffffffffffffffffffffffffffffffffffff16145b80611ded5750611dec81856117a8565b5b91505092915050565b8273ffffffffffffffffffffffffffffffffffffffff16611e1682610ed9565b73ffffffffffffffffffffffffffffffffffffffff1614611e6c576040517f08c379a0000000000000000000000000000000000000000000000000000000008152600401611e6390614d79565b60405180910390fd5b600073ffffffffffffffffffffffffffffffffffffffff168273ffffffffffffffffffffffffffffffffffffffff161415611edc576040517f08c379a0000000000000000000000000000000000000000000000000000000008152600401611ed390614db9565b60405180910390fd5b611ee78383836132a3565b611ef2600082611c5f565b6001600360008573ffffffffffffffffffffffffffffffffffffffff1673ffffffffffffffffffffffffffffffffffffffff1681526020019081526020016000206000828254611f42919061519c565b925050819055506001600360008473ffffffffffffffffffffffffffffffffffffffff1673ffffffffffffffffffffffffffffffffffffffff1681526020019081526020016000206000828254611f9991906150bb565b92505081905550816002600083815260200190815260200160002060006101000a81548173ffffffffffffffffffffffffffffffffffffffff021916908373ffffffffffffffffffffffffffffffffffffffff160217905550808273ffffffffffffffffffffffffffffffffffffffff168473ffffffffffffffffffffffffffffffffffffffff167fddf252ad1be2c89b69c2b068fc378daa952ba7f163c4a11628f55a4df523b3ef60405160405180910390a46120588383836132a8565b505050565b600083141561206b57600080fd5b600082141561207957600080fd5b600081141561208757600080fd5b81811161209357600080fd5b624f1a006120aa83836132ad90919063ffffffff16565b11156120b557600080fd5b620151806120cc83836132ad90919063ffffffff16565b10156120d757600080fd5b6120e2838383612f22565b15612136576121256040518060400160405280601281526020017f6f6e6c796d616b656c656173652072756e7300000000000000000000000000008152506132c3565b6121318484848461335c565b61218c565b6121746040518060400160405280601e81526020017f626f7468206d616b656c6561736520616e6420756e6c656173652072756e00008152506132c3565b61217f8383836129cd565b61218b8484848461335c565b5b50505050565b6001816000016000828254019250508190555050565b600081600001549050919050565b60606000825114156121d95760405180602001604052806000815250905061233b565b60006040518060600160405280604081526020016159d8604091399050600060036002855161220891906150bb565b6122129190615111565b600461221e9190615142565b67ffffffffffffffff81111561225d577f4e487b7100000000000000000000000000000000000000000000000000000000600052604160045260246000fd5b6040519080825280601f01601f19166020018201604052801561228f5781602001600182028036833780820191505090505b509050600182016020820185865187015b808210156122fb576003820191508151603f8160121c168501518453600184019350603f81600c1c168501518453600184019350603f8160061c168501518453600184019350603f81168501518453600184019350506122a0565b5050600386510660018114612317576002811461232a57612332565b603d6001830353603d6002830353612332565b603d60018303535b50505080925050505b919050565b61235a8282604051806020016040528060008152506137b9565b5050565b61236782611beb565b6123a6576040517f08c379a000000000000000000000000000000000000000000000000000000000815260040161239d90614e79565b60405180910390fd5b806006600084815260200190815260200160002090805190602001906123cd929190613f55565b505050565b6000806123df848461268e565b90506000816060015114156123f8576000915050612401565b80606001519150505b92915050565b8173ffffffffffffffffffffffffffffffffffffffff168373ffffffffffffffffffffffffffffffffffffffff161415612476576040517f08c379a000000000000000000000000000000000000000000000000000000000815260040161246d90614dd9565b60405180910390fd5b80600560008573ffffffffffffffffffffffffffffffffffffffff1673ffffffffffffffffffffffffffffffffffffffff16815260200190815260200160002060008473ffffffffffffffffffffffffffffffffffffffff1673ffffffffffffffffffffffffffffffffffffffff16815260200190815260200160002060006101000a81548160ff0219169083151502179055508173ffffffffffffffffffffffffffffffffffffffff168373ffffffffffffffffffffffffffffffffffffffff167f17307eab39ab6107e8899845ad3d59bd9653f200f220920489ca2b5937696c31836040516125679190614c7e565b60405180910390a3505050565b61257f848484611df6565b61258b84848484613814565b6125ca576040517f08c379a00000000000000000000000000000000000000000000000000000000081526004016125c190614d59565b60405180910390fd5b50505050565b606060405180602001604052806000815250905090565b60606125f282611beb565b612631576040517f08c379a000000000000000000000000000000000000000000000000000000000815260040161262890614ef9565b60405180910390fd5b600061263b6125d0565b9050600081511161265b5760405180602001604052806000815250612686565b80612665846139ab565b604051602001612676929190614b0d565b6040516020818303038152906040525b915050919050565b612696613fdb565b60008314156126a457600080fd5b60008214156126b257600080fd5b600060086000858152602001908152602001600020805480602002602001604051908101604052809291908181526020016000905b8282101561278d57838290600052602060002090600402016040518060800160405290816000820160009054906101000a900473ffffffffffffffffffffffffffffffffffffffff1673ffffffffffffffffffffffffffffffffffffffff1673ffffffffffffffffffffffffffffffffffffffff1681526020016001820154815260200160028201548152602001600382015481525050815260200190600101906126e7565b5050505090506127d46040518060400160405280600c81526020017f5465726d73206c656e6774680000000000000000000000000000000000000000815250858351613b58565b600081511415612821576040518060800160405280600073ffffffffffffffffffffffffffffffffffffffff168152602001600081526020016000815260200160008152509150506129c7565b6128606040518060400160405280600a81526020017f5f64617465206973203a0000000000000000000000000000000000000000000081525084613bf7565b60005b815181101561296657838282815181106128a6577f4e487b7100000000000000000000000000000000000000000000000000000000600052603260045260246000fd5b6020026020010151604001511115801561290457508181815181106128f4577f4e487b7100000000000000000000000000000000000000000000000000000000600052603260045260246000fd5b6020026020010151606001518411155b1561295357818181518110612942577f4e487b7100000000000000000000000000000000000000000000000000000000600052603260045260246000fd5b6020026020010151925050506129c7565b808061295e906152e9565b915050612863565b50612988604051806060016040528060228152602001615a18602291396132c3565b6040518060800160405280600073ffffffffffffffffffffffffffffffffffffffff168152602001600081526020016000815260200160008152509150505b92915050565b612a0b6040518060400160405280601081526020017f5374617274696e6720556e6c65617365000000000000000000000000000000008152506132c3565b612a4a6040518060400160405280600e81526020017f205f746f6b656e4964206973203a00000000000000000000000000000000000081525084613bf7565b612a896040518060400160405280600c81526020017f205f73746172742069733a20000000000000000000000000000000000000000081525083613bf7565b612ac86040518060400160405280600b81526020017f205f656e64206973203a2000000000000000000000000000000000000000000081525082613bf7565b612b066040518060400160405280601181526020017f2f5374617274696e6720556e6c656173650000000000000000000000000000008152506132c3565b6000600860008581526020019081526020016000208054905011612b2957600080fd5b6000612b35848461268e565b9050612b7a6040518060400160405280601b81526020017f63757272656e74206c6561736520746f6b656e4964206973203a2000000000008152508260200151613bf7565b600081604001519050600082606001519050612bcb6040518060400160405280600e81526020017f74656d707374617274206973203a00000000000000000000000000000000000081525083613bf7565b612c0a6040518060400160405280600c81526020017f74656d70656e64206973203a000000000000000000000000000000000000000081525082613bf7565b612c496040518060400160405280600b81526020017f5f7374617274206973203a00000000000000000000000000000000000000000081525086613bf7565b600182612c5691906150bb565b8411612c6157600080fd5b600181612c6e919061519c565b8510612c7957600080fd5b60005b6008600088815260200190815260200160002080549050811015612ec85782600860008981526020019081526020016000208281548110612ce6577f4e487b7100000000000000000000000000000000000000000000000000000000600052603260045260246000fd5b9060005260206000209060040201600201541415612eb5576000600860008981526020019081526020016000208281548110612d4b577f4e487b7100000000000000000000000000000000000000000000000000000000600052603260045260246000fd5b906000526020600020906004020160000160009054906101000a900473ffffffffffffffffffffffffffffffffffffffff169050600860008981526020019081526020016000208281548110612dca577f4e487b7100000000000000000000000000000000000000000000000000000000600052603260045260246000fd5b9060005260206000209060040201600080820160006101000a81549073ffffffffffffffffffffffffffffffffffffffff021916905560018201600090556002820160009055600382016000905550508684148015612e2857508583145b15612e3257612eaf565b86841415612e5757612e528189600189612e4c91906150bb565b8661335c565b612eae565b85831415612e7c57612e7781898660018b612e72919061519c565b61335c565b612ead565b612e9481898660018b612e8f919061519c565b61335c565b612eac8189600189612ea691906150bb565b8661335c565b5b5b5b50612ec8565b8080612ec0906152e9565b915050612c7c565b503373ffffffffffffffffffffffffffffffffffffffff16867f9f2662851b7e3b92d1ef8bc673a0ebd53bb362af9a04856acbd418f0076906a98787604051612f12929190614f8f565b60405180910390a3505050505050565b6000828211612f3057600080fd5b624f1a00612f4784846132ad90919063ffffffff16565b1115612f5257600080fd5b62015180612f6984846132ad90919063ffffffff16565b1015612f7457600080fd5b600042905080841015612f8b57600091505061329c565b600a600086815260200190815260200160002054841115612fb057600191505061329c565b600060086000878152602001908152602001600020805490501415612fd957600191505061329c565b60005b60086000878152602001908152602001600020805490508110156132955784600860008881526020019081526020016000208281548110613046577f4e487b7100000000000000000000000000000000000000000000000000000000600052603260045260246000fd5b906000526020600020906004020160020154111580156130c257506008600087815260200190815260200160002081815481106130ac577f4e487b7100000000000000000000000000000000000000000000000000000000600052603260045260246000fd5b9060005260206000209060040201600301548511155b156130d25760009250505061329c565b8360086000888152602001908152602001600020828154811061311e577f4e487b7100000000000000000000000000000000000000000000000000000000600052603260045260246000fd5b9060005260206000209060040201600201541115801561319a5750600860008781526020019081526020016000208181548110613184577f4e487b7100000000000000000000000000000000000000000000000000000000600052603260045260246000fd5b9060005260206000209060040201600301548411155b156131aa5760009250505061329c565b6008600087815260200190815260200160002081815481106131f5577f4e487b7100000000000000000000000000000000000000000000000000000000600052603260045260246000fd5b906000526020600020906004020160020154851115801561327257508360086000888152602001908152602001600020828154811061325d577f4e487b7100000000000000000000000000000000000000000000000000000000600052603260045260246000fd5b90600052602060002090600402016002015411155b156132825760009250505061329c565b808061328d906152e9565b915050612fdc565b5060019150505b9392505050565b505050565b505050565b600081836132bb919061519c565b905092915050565b613359816040516024016132d79190614c99565b6040516020818303038152906040527f41304fac000000000000000000000000000000000000000000000000000000007bffffffffffffffffffffffffffffffffffffffffffffffffffffffff19166020820180517bffffffffffffffffffffffffffffffffffffffffffffffffffffffff8381831617835250505050613c93565b50565b61339a6040518060400160405280601381526020017f4d616b65206c65617365207374617274696e67000000000000000000000000008152506132c3565b6133d96040518060400160405280601081526020017f204164647265737320746f206973203a0000000000000000000000000000000081525085613cbc565b6134186040518060400160405280600f81526020017f20746f6b656e20696420206973203a000000000000000000000000000000000081525084613bf7565b6134576040518060400160405280600b81526020017f207374617274206973203a00000000000000000000000000000000000000000081525083613bf7565b6134966040518060400160405280600981526020017f20656e64206973203a000000000000000000000000000000000000000000000081525082613bf7565b6134d46040518060400160405280601481526020017f2f4d616b65206c65617365207374617274696e670000000000000000000000008152506132c3565b8181116134e057600080fd5b624f1a006134f783836132ad90919063ffffffff16565b111561350257600080fd5b6201518061351983836132ad90919063ffffffff16565b101561352457600080fd5b600083141561353257600080fd5b600082141561354057600080fd5b600081141561354e57600080fd5b6008600084815260200190815260200160002060405180608001604052808673ffffffffffffffffffffffffffffffffffffffff16815260200185815260200184815260200183815250908060018154018082558091505060019003906000526020600020906004020160009091909190915060008201518160000160006101000a81548173ffffffffffffffffffffffffffffffffffffffff021916908373ffffffffffffffffffffffffffffffffffffffff1602179055506020820151816001015560408201518160020155606082015181600301555050600960008573ffffffffffffffffffffffffffffffffffffffff1673ffffffffffffffffffffffffffffffffffffffff16815260200190815260200160002060405180608001604052808673ffffffffffffffffffffffffffffffffffffffff16815260200185815260200184815260200183815250908060018154018082558091505060019003906000526020600020906004020160009091909190915060008201518160000160006101000a81548173ffffffffffffffffffffffffffffffffffffffff021916908373ffffffffffffffffffffffffffffffffffffffff160217905550602082015181600101556040820151816002015560608201518160030155505080600a60008581526020019081526020016000205410156137625780600a6000858152602001908152602001600020819055505b8373ffffffffffffffffffffffffffffffffffffffff16837f477d3a4ce93f75de2f1bc0b60f68f3670ad5f3e6ad245c7e6c8ff83bb75ec87b84846040516137ab929190614f8f565b60405180910390a350505050565b6137c38383613d58565b6137d06000848484613814565b61380f576040517f08c379a000000000000000000000000000000000000000000000000000000000815260040161380690614d59565b60405180910390fd5b505050565b60006138358473ffffffffffffffffffffffffffffffffffffffff16613f32565b1561399e578373ffffffffffffffffffffffffffffffffffffffff1663150b7a0261385e611c57565b8786866040518563ffffffff1660e01b81526004016138809493929190614bcb565b602060405180830381600087803b15801561389a57600080fd5b505af19250505080156138cb57506040513d601f19601f820116820180604052508101906138c89190614431565b60015b61394e573d80600081146138fb576040519150601f19603f3d011682016040523d82523d6000602084013e613900565b606091505b50600081511415613946576040517f08c379a000000000000000000000000000000000000000000000000000000000815260040161393d90614d59565b60405180910390fd5b805181602001fd5b63150b7a0260e01b7bffffffffffffffffffffffffffffffffffffffffffffffffffffffff1916817bffffffffffffffffffffffffffffffffffffffffffffffffffffffff1916149150506139a3565b600190505b949350505050565b606060008214156139f3576040518060400160405280600181526020017f30000000000000000000000000000000000000000000000000000000000000008152509050613b53565b600082905060005b60008214613a25578080613a0e906152e9565b915050600a82613a1e9190615111565b91506139fb565b60008167ffffffffffffffff811115613a67577f4e487b7100000000000000000000000000000000000000000000000000000000600052604160045260246000fd5b6040519080825280601f01601f191660200182016040528015613a995781602001600182028036833780820191505090505b5090505b60008514613b4c57600182613ab2919061519c565b9150600a85613ac19190615332565b6030613acd91906150bb565b60f81b818381518110613b09577f4e487b7100000000000000000000000000000000000000000000000000000000600052603260045260246000fd5b60200101907effffffffffffffffffffffffffffffffffffffffffffffffffffffffffffff1916908160001a905350600a85613b459190615111565b9450613a9d565b8093505050505b919050565b613bf2838383604051602401613b7093929190614d1b565b6040516020818303038152906040527f969cdd03000000000000000000000000000000000000000000000000000000007bffffffffffffffffffffffffffffffffffffffffffffffffffffffff19166020820180517bffffffffffffffffffffffffffffffffffffffffffffffffffffffff8381831617835250505050613c93565b505050565b613c8f8282604051602401613c0d929190614ceb565b6040516020818303038152906040527f9710a9d0000000000000000000000000000000000000000000000000000000007bffffffffffffffffffffffffffffffffffffffffffffffffffffffff19166020820180517bffffffffffffffffffffffffffffffffffffffffffffffffffffffff8381831617835250505050613c93565b5050565b60008151905060006a636f6e736f6c652e6c6f679050602083016000808483855afa5050505050565b613d548282604051602401613cd2929190614cbb565b6040516020818303038152906040527f319af333000000000000000000000000000000000000000000000000000000007bffffffffffffffffffffffffffffffffffffffffffffffffffffffff19166020820180517bffffffffffffffffffffffffffffffffffffffffffffffffffffffff8381831617835250505050613c93565b5050565b600073ffffffffffffffffffffffffffffffffffffffff168273ffffffffffffffffffffffffffffffffffffffff161415613dc8576040517f08c379a0000000000000000000000000000000000000000000000000000000008152600401613dbf90614e99565b60405180910390fd5b613dd181611beb565b15613e11576040517f08c379a0000000000000000000000000000000000000000000000000000000008152600401613e0890614d99565b60405180910390fd5b613e1d600083836132a3565b6001600360008473ffffffffffffffffffffffffffffffffffffffff1673ffffffffffffffffffffffffffffffffffffffff1681526020019081526020016000206000828254613e6d91906150bb565b92505081905550816002600083815260200190815260200160002060006101000a81548173ffffffffffffffffffffffffffffffffffffffff021916908373ffffffffffffffffffffffffffffffffffffffff160217905550808273ffffffffffffffffffffffffffffffffffffffff16600073ffffffffffffffffffffffffffffffffffffffff167fddf252ad1be2c89b69c2b068fc378daa952ba7f163c4a11628f55a4df523b3ef60405160405180910390a4613f2e600083836132a8565b5050565b6000808273ffffffffffffffffffffffffffffffffffffffff163b119050919050565b828054613f6190615286565b90600052602060002090601f016020900481019282613f835760008555613fca565b82601f10613f9c57805160ff1916838001178555613fca565b82800160010185558215613fca579182015b82811115613fc9578251825591602001919060010190613fae565b5b509050613fd79190614019565b5090565b6040518060800160405280600073ffffffffffffffffffffffffffffffffffffffff1681526020016000815260200160008152602001600081525090565b5b8082111561403257600081600090555060010161401a565b5090565b600061404961404484614fdd565b614fb8565b90508281526020810184848401111561406157600080fd5b61406c848285615244565b509392505050565b60006140876140828461500e565b614fb8565b90508281526020810184848401111561409f57600080fd5b6140aa848285615244565b509392505050565b6000813590506140c18161597b565b92915050565b6000813590506140d681615992565b92915050565b6000813590506140eb816159a9565b92915050565b600081519050614100816159a9565b92915050565b600082601f83011261411757600080fd5b8135614127848260208601614036565b91505092915050565b600082601f83011261414157600080fd5b8135614151848260208601614074565b91505092915050565b600081359050614169816159c0565b92915050565b60006020828403121561418157600080fd5b600061418f848285016140b2565b91505092915050565b600080604083850312156141ab57600080fd5b60006141b9858286016140b2565b92505060206141ca858286016140b2565b9150509250929050565b6000806000606084860312156141e957600080fd5b60006141f7868287016140b2565b9350506020614208868287016140b2565b92505060406142198682870161415a565b9150509250925092565b6000806000806080858703121561423957600080fd5b6000614247878288016140b2565b9450506020614258878288016140b2565b93505060406142698782880161415a565b925050606085013567ffffffffffffffff81111561428657600080fd5b61429287828801614106565b91505092959194509250565b600080604083850312156142b157600080fd5b60006142bf858286016140b2565b92505060206142d0858286016140c7565b9150509250929050565b600080604083850312156142ed57600080fd5b60006142fb858286016140b2565b925050602061430c8582860161415a565b9150509250929050565b6000806000806080858703121561432c57600080fd5b600061433a878288016140b2565b945050602061434b8782880161415a565b935050604061435c8782880161415a565b925050606061436d8782880161415a565b91505092959194509250565b600080600080600060a0868803121561439157600080fd5b600061439f888289016140b2565b95505060206143b08882890161415a565b94505060406143c18882890161415a565b93505060606143d28882890161415a565b925050608086013567ffffffffffffffff8111156143ef57600080fd5b6143fb88828901614106565b9150509295509295909350565b60006020828403121561441a57600080fd5b6000614428848285016140dc565b91505092915050565b60006020828403121561444357600080fd5b6000614451848285016140f1565b91505092915050565b60008060006060848603121561446f57600080fd5b600084013567ffffffffffffffff81111561448957600080fd5b61449586828701614130565b935050602084013567ffffffffffffffff8111156144b257600080fd5b6144be86828701614130565b925050604084013567ffffffffffffffff8111156144db57600080fd5b6144e786828701614130565b9150509250925092565b60006020828403121561450357600080fd5b60006145118482850161415a565b91505092915050565b6000806040838503121561452d57600080fd5b600061453b8582860161415a565b925050602061454c8582860161415a565b9150509250929050565b60008060006060848603121561456b57600080fd5b60006145798682870161415a565b935050602061458a8682870161415a565b925050604061459b8682870161415a565b9150509250925092565b600080600080608085870312156145bb57600080fd5b60006145c98782880161415a565b94505060206145da8782880161415a565b93505060406145eb8782880161415a565b925050606085013567ffffffffffffffff81111561460857600080fd5b61461487828801614106565b91505092959194509250565b600061462c8383614a45565b60808301905092915050565b614641816151d0565b82525050565b614650816151d0565b82525050565b60006146618261504f565b61466b818561507d565b93506146768361503f565b8060005b838110156146a757815161468e8882614620565b975061469983615070565b92505060018101905061467a565b5085935050505092915050565b6146bd816151e2565b82525050565b60006146ce8261505a565b6146d8818561508e565b93506146e8818560208601615253565b6146f18161541f565b840191505092915050565b600061470782615065565b614711818561509f565b9350614721818560208601615253565b61472a8161541f565b840191505092915050565b600061474082615065565b61474a81856150b0565b935061475a818560208601615253565b80840191505092915050565b60006147736013836150b0565b915061477e82615430565b601382019050919050565b600061479660328361509f565b91506147a182615459565b604082019050919050565b60006147b960258361509f565b91506147c4826154a8565b604082019050919050565b60006147dc601c8361509f565b91506147e7826154f7565b602082019050919050565b60006147ff60248361509f565b915061480a82615520565b604082019050919050565b600061482260198361509f565b915061482d8261556f565b602082019050919050565b6000614845602c8361509f565b915061485082615598565b604082019050919050565b600061486860388361509f565b9150614873826155e7565b604082019050919050565b600061488b602a8361509f565b915061489682615636565b604082019050919050565b60006148ae60298361509f565b91506148b982615685565b604082019050919050565b60006148d1602e8361509f565b91506148dc826156d4565b604082019050919050565b60006148f46002836150b0565b91506148ff82615723565b600282019050919050565b600061491760208361509f565b91506149228261574c565b602082019050919050565b600061493a600d836150b0565b915061494582615775565b600d82019050919050565b600061495d60318361509f565b91506149688261579e565b604082019050919050565b6000614980602c8361509f565b915061498b826157ed565b604082019050919050565b60006149a3602f8361509f565b91506149ae8261583c565b604082019050919050565b60006149c6600a836150b0565b91506149d18261588b565b600a82019050919050565b60006149e960218361509f565b91506149f4826158b4565b604082019050919050565b6000614a0c601d836150b0565b9150614a1782615903565b601d82019050919050565b6000614a2f60318361509f565b9150614a3a8261592c565b604082019050919050565b608082016000820151614a5b6000850182614638565b506020820151614a6e6020850182614aef565b506040820151614a816040850182614aef565b506060820151614a946060850182614aef565b50505050565b608082016000820151614ab06000850182614638565b506020820151614ac36020850182614aef565b506040820151614ad66040850182614aef565b506060820151614ae96060850182614aef565b50505050565b614af88161523a565b82525050565b614b078161523a565b82525050565b6000614b198285614735565b9150614b258284614735565b91508190509392505050565b6000614b3c826149b9565b9150614b488286614735565b9150614b5382614766565b9150614b5f8285614735565b9150614b6a8261492d565b9150614b768284614735565b9150614b81826148e7565b9150819050949350505050565b6000614b99826149ff565b9150614ba58284614735565b915081905092915050565b6000602082019050614bc56000830184614647565b92915050565b6000608082019050614be06000830187614647565b614bed6020830186614647565b614bfa6040830185614afe565b8181036060830152614c0c81846146c3565b905095945050505050565b6000608082019050614c2c6000830187614647565b614c396020830186614afe565b614c466040830185614afe565b614c536060830184614afe565b95945050505050565b60006020820190508181036000830152614c768184614656565b905092915050565b6000602082019050614c9360008301846146b4565b92915050565b60006020820190508181036000830152614cb381846146fc565b905092915050565b60006040820190508181036000830152614cd581856146fc565b9050614ce46020830184614647565b9392505050565b60006040820190508181036000830152614d0581856146fc565b9050614d146020830184614afe565b9392505050565b60006060820190508181036000830152614d3581866146fc565b9050614d446020830185614afe565b614d516040830184614afe565b949350505050565b60006020820190508181036000830152614d7281614789565b9050919050565b60006020820190508181036000830152614d92816147ac565b9050919050565b60006020820190508181036000830152614db2816147cf565b9050919050565b60006020820190508181036000830152614dd2816147f2565b9050919050565b60006020820190508181036000830152614df281614815565b9050919050565b60006020820190508181036000830152614e1281614838565b9050919050565b60006020820190508181036000830152614e328161485b565b9050919050565b60006020820190508181036000830152614e528161487e565b9050919050565b60006020820190508181036000830152614e72816148a1565b9050919050565b60006020820190508181036000830152614e92816148c4565b9050919050565b60006020820190508181036000830152614eb28161490a565b9050919050565b60006020820190508181036000830152614ed281614950565b9050919050565b60006020820190508181036000830152614ef281614973565b9050919050565b60006020820190508181036000830152614f1281614996565b9050919050565b60006020820190508181036000830152614f32816149dc565b9050919050565b60006020820190508181036000830152614f5281614a22565b9050919050565b6000608082019050614f6e6000830184614a9a565b92915050565b6000602082019050614f896000830184614afe565b92915050565b6000604082019050614fa46000830185614afe565b614fb16020830184614afe565b9392505050565b6000614fc2614fd3565b9050614fce82826152b8565b919050565b6000604051905090565b600067ffffffffffffffff821115614ff857614ff76153f0565b5b6150018261541f565b9050602081019050919050565b600067ffffffffffffffff821115615029576150286153f0565b5b6150328261541f565b9050602081019050919050565b6000819050602082019050919050565b600081519050919050565b600081519050919050565b600081519050919050565b6000602082019050919050565b600082825260208201905092915050565b600082825260208201905092915050565b600082825260208201905092915050565b600081905092915050565b60006150c68261523a565b91506150d18361523a565b9250827fffffffffffffffffffffffffffffffffffffffffffffffffffffffffffffffff0382111561510657615105615363565b5b828201905092915050565b600061511c8261523a565b91506151278361523a565b92508261513757615136615392565b5b828204905092915050565b600061514d8261523a565b91506151588361523a565b9250817fffffffffffffffffffffffffffffffffffffffffffffffffffffffffffffffff048311821515161561519157615190615363565b5b828202905092915050565b60006151a78261523a565b91506151b28361523a565b9250828210156151c5576151c4615363565b5b828203905092915050565b60006151db8261521a565b9050919050565b60008115159050919050565b60007fffffffff0000000000000000000000000000000000000000000000000000000082169050919050565b600073ffffffffffffffffffffffffffffffffffffffff82169050919050565b6000819050919050565b82818337600083830152505050565b60005b83811015615271578082015181840152602081019050615256565b83811115615280576000848401525b50505050565b6000600282049050600182168061529e57607f821691505b602082108114156152b2576152b16153c1565b5b50919050565b6152c18261541f565b810181811067ffffffffffffffff821117156152e0576152df6153f0565b5b80604052505050565b60006152f48261523a565b91507fffffffffffffffffffffffffffffffffffffffffffffffffffffffffffffffff82141561532757615326615363565b5b600182019050919050565b600061533d8261523a565b91506153488361523a565b92508261535857615357615392565b5b828206905092915050565b7f4e487b7100000000000000000000000000000000000000000000000000000000600052601160045260246000fd5b7f4e487b7100000000000000000000000000000000000000000000000000000000600052601260045260246000fd5b7f4e487b7100000000000000000000000000000000000000000000000000000000600052602260045260246000fd5b7f4e487b7100000000000000000000000000000000000000000000000000000000600052604160045260246000fd5b6000601f19601f8301169050919050565b7f222c20226465736372697074696f6e223a202200000000000000000000000000600082015250565b7f4552433732313a207472616e7366657220746f206e6f6e20455243373231526560008201527f63656976657220696d706c656d656e7465720000000000000000000000000000602082015250565b7f4552433732313a207472616e736665722066726f6d20696e636f72726563742060008201527f6f776e6572000000000000000000000000000000000000000000000000000000602082015250565b7f4552433732313a20746f6b656e20616c7265616479206d696e74656400000000600082015250565b7f4552433732313a207472616e7366657220746f20746865207a65726f2061646460008201527f7265737300000000000000000000000000000000000000000000000000000000602082015250565b7f4552433732313a20617070726f766520746f2063616c6c657200000000000000600082015250565b7f4552433732313a206f70657261746f7220717565727920666f72206e6f6e657860008201527f697374656e7420746f6b656e0000000000000000000000000000000000000000602082015250565b7f4552433732313a20617070726f76652063616c6c6572206973206e6f74206f7760008201527f6e6572206e6f7220617070726f76656420666f7220616c6c0000000000000000602082015250565b7f4552433732313a2062616c616e636520717565727920666f7220746865207a6560008201527f726f206164647265737300000000000000000000000000000000000000000000602082015250565b7f4552433732313a206f776e657220717565727920666f72206e6f6e657869737460008201527f656e7420746f6b656e0000000000000000000000000000000000000000000000602082015250565b7f45524337323155524953746f726167653a2055524920736574206f66206e6f6e60008201527f6578697374656e7420746f6b656e000000000000000000000000000000000000602082015250565b7f227d000000000000000000000000000000000000000000000000000000000000600082015250565b7f4552433732313a206d696e7420746f20746865207a65726f2061646472657373600082015250565b7f222c2022696d616765223a202200000000000000000000000000000000000000600082015250565b7f45524337323155524953746f726167653a2055524920717565727920666f722060008201527f6e6f6e6578697374656e7420746f6b656e000000000000000000000000000000602082015250565b7f4552433732313a20617070726f76656420717565727920666f72206e6f6e657860008201527f697374656e7420746f6b656e0000000000000000000000000000000000000000602082015250565b7f4552433732314d657461646174613a2055524920717565727920666f72206e6f60008201527f6e6578697374656e7420746f6b656e0000000000000000000000000000000000602082015250565b7f7b226e616d65223a202200000000000000000000000000000000000000000000600082015250565b7f4552433732313a20617070726f76616c20746f2063757272656e74206f776e6560008201527f7200000000000000000000000000000000000000000000000000000000000000602082015250565b7f646174613a6170706c69636174696f6e2f6a736f6e3b6261736536342c000000600082015250565b7f4552433732313a207472616e736665722063616c6c6572206973206e6f74206f60008201527f776e6572206e6f7220617070726f766564000000000000000000000000000000602082015250565b615984816151d0565b811461598f57600080fd5b50565b61599b816151e2565b81146159a657600080fd5b50565b6159b2816151ee565b81146159bd57600080fd5b50565b6159c98161523a565b81146159d457600080fd5b5056fe4142434445464748494a4b4c4d4e4f505152535455565758595a6162636465666768696a6b6c6d6e6f707172737475767778797a303132333435363738392b2f6765746c6561736520636f756c64206e6f742066696e642061206c65617365212121a2646970667358221220b04a20b11e9ccb602fe04564f99eac4e8fc3fca29be0058ee98629549caa1fb764736f6c63430008040033",
  "linkReferences": {},
  "deployedLinkReferences": {}
}