{
  "_format": "hh-sol-artifact-1",
  "contractName": "RobertLease",
  "sourceName": "contracts/RobertLease.sol",
  "abi": [
    {
      "inputs": [],
      "stateMutability": "nonpayable",
      "type": "constructor"
    },
    {
      "anonymous": false,
      "inputs": [
        {
          "indexed": true,
          "internalType": "address",
          "name": "owner",
          "type": "address"
        },
        {
          "indexed": true,
          "internalType": "address",
          "name": "approved",
          "type": "address"
        },
        {
          "indexed": true,
          "internalType": "uint256",
          "name": "tokenId",
          "type": "uint256"
        }
      ],
      "name": "Approval",
      "type": "event"
    },
    {
      "anonymous": false,
      "inputs": [
        {
          "indexed": true,
          "internalType": "address",
          "name": "owner",
          "type": "address"
        },
        {
          "indexed": true,
          "internalType": "address",
          "name": "operator",
          "type": "address"
        },
        {
          "indexed": false,
          "internalType": "bool",
          "name": "approved",
          "type": "bool"
        }
      ],
      "name": "ApprovalForAll",
      "type": "event"
    },
    {
      "anonymous": false,
      "inputs": [
        {
          "indexed": true,
          "internalType": "address",
          "name": "_from",
          "type": "address"
        },
        {
          "indexed": false,
          "internalType": "string",
          "name": "_tokenURI",
          "type": "string"
        }
      ],
      "name": "AssetCreated",
      "type": "event"
    },
    {
      "anonymous": false,
      "inputs": [
        {
          "indexed": true,
          "internalType": "uint256",
          "name": "_tokenId",
          "type": "uint256"
        },
        {
          "indexed": true,
          "internalType": "address",
          "name": "_lessee",
          "type": "address"
        }
      ],
      "name": "LeaseCancelled",
      "type": "event"
    },
    {
      "anonymous": false,
      "inputs": [
        {
          "indexed": true,
          "internalType": "uint256",
          "name": "_tokenId",
          "type": "uint256"
        },
        {
          "indexed": true,
          "internalType": "address",
          "name": "_lessee",
          "type": "address"
        },
        {
          "indexed": true,
          "internalType": "address",
          "name": "_addressTo",
          "type": "address"
        },
        {
          "indexed": false,
          "internalType": "uint256",
          "name": "_start",
          "type": "uint256"
        },
        {
          "indexed": false,
          "internalType": "uint256",
          "name": "_end",
          "type": "uint256"
        }
      ],
      "name": "LeaseTransferred",
      "type": "event"
    },
    {
      "anonymous": false,
      "inputs": [
        {
          "indexed": true,
          "internalType": "uint256",
          "name": "_tokenId",
          "type": "uint256"
        },
        {
          "indexed": true,
          "internalType": "address",
          "name": "_lessee",
          "type": "address"
        },
        {
          "indexed": false,
          "internalType": "uint256",
          "name": "_start",
          "type": "uint256"
        },
        {
          "indexed": false,
          "internalType": "uint256",
          "name": "_end",
          "type": "uint256"
        }
      ],
      "name": "Leased",
      "type": "event"
    },
    {
      "anonymous": false,
      "inputs": [
        {
          "indexed": true,
          "internalType": "address",
          "name": "from",
          "type": "address"
        },
        {
          "indexed": true,
          "internalType": "address",
          "name": "to",
          "type": "address"
        },
        {
          "indexed": true,
          "internalType": "uint256",
          "name": "tokenId",
          "type": "uint256"
        }
      ],
      "name": "Transfer",
      "type": "event"
    },
    {
      "inputs": [],
      "name": "MAX_LEASE_DURATION",
      "outputs": [
        {
          "internalType": "uint256",
          "name": "",
          "type": "uint256"
        }
      ],
      "stateMutability": "view",
      "type": "function"
    },
    {
      "inputs": [],
      "name": "MIN_LEASE_DURATION",
      "outputs": [
        {
          "internalType": "uint256",
          "name": "",
          "type": "uint256"
        }
      ],
      "stateMutability": "view",
      "type": "function"
    },
    {
      "inputs": [],
      "name": "TIME_START",
      "outputs": [
        {
          "internalType": "uint256",
          "name": "",
          "type": "uint256"
        }
      ],
      "stateMutability": "view",
      "type": "function"
    },
    {
      "inputs": [
        {
          "internalType": "address",
          "name": "to",
          "type": "address"
        },
        {
          "internalType": "uint256",
          "name": "tokenId",
          "type": "uint256"
        }
      ],
      "name": "approve",
      "outputs": [],
      "stateMutability": "nonpayable",
      "type": "function"
    },
    {
      "inputs": [
        {
          "internalType": "uint256",
          "name": "",
          "type": "uint256"
        }
      ],
      "name": "assets",
      "outputs": [
        {
          "internalType": "string",
          "name": "",
          "type": "string"
        }
      ],
      "stateMutability": "view",
      "type": "function"
    },
    {
      "inputs": [
        {
          "internalType": "address",
          "name": "owner",
          "type": "address"
        }
      ],
      "name": "balanceOf",
      "outputs": [
        {
          "internalType": "uint256",
          "name": "",
          "type": "uint256"
        }
      ],
      "stateMutability": "view",
      "type": "function"
    },
    {
      "inputs": [
        {
          "internalType": "uint256",
          "name": "",
          "type": "uint256"
        },
        {
          "internalType": "uint256",
          "name": "",
          "type": "uint256"
        }
      ],
      "name": "daysTaken",
      "outputs": [
        {
          "internalType": "bool",
          "name": "",
          "type": "bool"
        }
      ],
      "stateMutability": "view",
      "type": "function"
    },
    {
      "inputs": [
        {
          "internalType": "uint256",
          "name": "tokenId",
          "type": "uint256"
        }
      ],
      "name": "getApproved",
      "outputs": [
        {
          "internalType": "address",
          "name": "",
          "type": "address"
        }
      ],
      "stateMutability": "view",
      "type": "function"
    },
    {
      "inputs": [
        {
          "internalType": "uint256",
          "name": "_tokenId",
          "type": "uint256"
        },
        {
          "internalType": "uint256",
          "name": "_date",
          "type": "uint256"
        }
      ],
      "name": "getLease",
      "outputs": [
        {
          "components": [
            {
              "internalType": "address",
              "name": "lessee",
              "type": "address"
            },
            {
              "internalType": "uint256",
              "name": "tokenId",
              "type": "uint256"
            },
            {
              "internalType": "uint256",
              "name": "startTime",
              "type": "uint256"
            },
            {
              "internalType": "uint256",
              "name": "endTime",
              "type": "uint256"
            }
          ],
          "internalType": "struct RobertLease.Term",
          "name": "",
          "type": "tuple"
        }
      ],
      "stateMutability": "view",
      "type": "function"
    },
    {
      "inputs": [
        {
          "internalType": "uint256",
          "name": "_tokenId",
          "type": "uint256"
        },
        {
          "internalType": "uint256",
          "name": "_date",
          "type": "uint256"
        }
      ],
      "name": "getLeaseEnd",
      "outputs": [
        {
          "internalType": "uint256",
          "name": "",
          "type": "uint256"
        }
      ],
      "stateMutability": "view",
      "type": "function"
    },
    {
      "inputs": [
        {
          "internalType": "uint256",
          "name": "_tokenId",
          "type": "uint256"
        }
      ],
      "name": "getLeases",
      "outputs": [
        {
          "components": [
            {
              "internalType": "address",
              "name": "lessee",
              "type": "address"
            },
            {
              "internalType": "uint256",
              "name": "tokenId",
              "type": "uint256"
            },
            {
              "internalType": "uint256",
              "name": "startTime",
              "type": "uint256"
            },
            {
              "internalType": "uint256",
              "name": "endTime",
              "type": "uint256"
            }
          ],
          "internalType": "struct RobertLease.Term[]",
          "name": "",
          "type": "tuple[]"
        }
      ],
      "stateMutability": "view",
      "type": "function"
    },
    {
      "inputs": [
        {
          "internalType": "address",
          "name": "owner",
          "type": "address"
        },
        {
          "internalType": "address",
          "name": "operator",
          "type": "address"
        }
      ],
      "name": "isApprovedForAll",
      "outputs": [
        {
          "internalType": "bool",
          "name": "",
          "type": "bool"
        }
      ],
      "stateMutability": "view",
      "type": "function"
    },
    {
      "inputs": [
        {
          "internalType": "uint256",
          "name": "_tokenId",
          "type": "uint256"
        },
        {
          "internalType": "uint256",
          "name": "_start",
          "type": "uint256"
        },
        {
          "internalType": "uint256",
          "name": "_end",
          "type": "uint256"
        },
        {
          "internalType": "uint256",
          "name": "_now",
          "type": "uint256"
        }
      ],
      "name": "isLeaseAvailable",
      "outputs": [
        {
          "internalType": "bool",
          "name": "",
          "type": "bool"
        }
      ],
      "stateMutability": "view",
      "type": "function"
    },
    {
      "inputs": [
        {
          "internalType": "uint256",
          "name": "",
          "type": "uint256"
        }
      ],
      "name": "lastEndTimeByToken",
      "outputs": [
        {
          "internalType": "uint256",
          "name": "",
          "type": "uint256"
        }
      ],
      "stateMutability": "view",
      "type": "function"
    },
    {
      "inputs": [
        {
          "internalType": "uint256",
          "name": "_tokenId",
          "type": "uint256"
        },
        {
          "internalType": "uint256",
          "name": "_start",
          "type": "uint256"
        },
        {
          "internalType": "uint256",
          "name": "_end",
          "type": "uint256"
        }
      ],
      "name": "lease",
      "outputs": [],
      "stateMutability": "nonpayable",
      "type": "function"
    },
    {
      "inputs": [
        {
          "internalType": "address",
          "name": "",
          "type": "address"
        },
        {
          "internalType": "uint256",
          "name": "",
          "type": "uint256"
        },
        {
          "internalType": "uint256",
          "name": "",
          "type": "uint256"
        }
      ],
      "name": "leasesByAddress",
      "outputs": [
        {
          "internalType": "uint256",
          "name": "",
          "type": "uint256"
        }
      ],
      "stateMutability": "view",
      "type": "function"
    },
    {
      "inputs": [
        {
          "internalType": "uint256",
          "name": "",
          "type": "uint256"
        },
        {
          "internalType": "uint256",
          "name": "",
          "type": "uint256"
        }
      ],
      "name": "leasesByToken",
      "outputs": [
        {
          "internalType": "address",
          "name": "lessee",
          "type": "address"
        },
        {
          "internalType": "uint256",
          "name": "tokenId",
          "type": "uint256"
        },
        {
          "internalType": "uint256",
          "name": "startTime",
          "type": "uint256"
        },
        {
          "internalType": "uint256",
          "name": "endTime",
          "type": "uint256"
        }
      ],
      "stateMutability": "view",
      "type": "function"
    },
    {
      "inputs": [
        {
          "internalType": "uint256",
          "name": "_tokenId",
          "type": "uint256"
        },
        {
          "internalType": "uint256",
          "name": "_date",
          "type": "uint256"
        }
      ],
      "name": "lesseeOf",
      "outputs": [
        {
          "internalType": "address",
          "name": "",
          "type": "address"
        }
      ],
      "stateMutability": "view",
      "type": "function"
    },
    {
      "inputs": [
        {
          "internalType": "string",
          "name": "_name",
          "type": "string"
        },
        {
          "internalType": "string",
          "name": "_description",
          "type": "string"
        },
        {
          "internalType": "string",
          "name": "_image",
          "type": "string"
        }
      ],
      "name": "mintAsset",
      "outputs": [],
      "stateMutability": "payable",
      "type": "function"
    },
    {
      "inputs": [],
      "name": "name",
      "outputs": [
        {
          "internalType": "string",
          "name": "",
          "type": "string"
        }
      ],
      "stateMutability": "view",
      "type": "function"
    },
    {
      "inputs": [
        {
          "internalType": "uint256",
          "name": "tokenId",
          "type": "uint256"
        }
      ],
      "name": "ownerOf",
      "outputs": [
        {
          "internalType": "address",
          "name": "",
          "type": "address"
        }
      ],
      "stateMutability": "view",
      "type": "function"
    },
    {
      "inputs": [
        {
          "internalType": "address",
          "name": "from",
          "type": "address"
        },
        {
          "internalType": "address",
          "name": "to",
          "type": "address"
        },
        {
          "internalType": "uint256",
          "name": "tokenId",
          "type": "uint256"
        }
      ],
      "name": "safeTransferFrom",
      "outputs": [],
      "stateMutability": "nonpayable",
      "type": "function"
    },
    {
      "inputs": [
        {
          "internalType": "address",
          "name": "from",
          "type": "address"
        },
        {
          "internalType": "address",
          "name": "to",
          "type": "address"
        },
        {
          "internalType": "uint256",
          "name": "tokenId",
          "type": "uint256"
        },
        {
          "internalType": "bytes",
          "name": "_data",
          "type": "bytes"
        }
      ],
      "name": "safeTransferFrom",
      "outputs": [],
      "stateMutability": "nonpayable",
      "type": "function"
    },
    {
      "inputs": [
        {
          "internalType": "address",
          "name": "operator",
          "type": "address"
        },
        {
          "internalType": "bool",
          "name": "approved",
          "type": "bool"
        }
      ],
      "name": "setApprovalForAll",
      "outputs": [],
      "stateMutability": "nonpayable",
      "type": "function"
    },
    {
      "inputs": [
        {
          "internalType": "bytes4",
          "name": "interfaceId",
          "type": "bytes4"
        }
      ],
      "name": "supportsInterface",
      "outputs": [
        {
          "internalType": "bool",
          "name": "",
          "type": "bool"
        }
      ],
      "stateMutability": "view",
      "type": "function"
    },
    {
      "inputs": [],
      "name": "symbol",
      "outputs": [
        {
          "internalType": "string",
          "name": "",
          "type": "string"
        }
      ],
      "stateMutability": "view",
      "type": "function"
    },
    {
      "inputs": [
        {
          "internalType": "uint256",
          "name": "tokenId",
          "type": "uint256"
        }
      ],
      "name": "tokenURI",
      "outputs": [
        {
          "internalType": "string",
          "name": "",
          "type": "string"
        }
      ],
      "stateMutability": "view",
      "type": "function"
    },
    {
      "inputs": [
        {
          "internalType": "address",
          "name": "from",
          "type": "address"
        },
        {
          "internalType": "address",
          "name": "to",
          "type": "address"
        },
        {
          "internalType": "uint256",
          "name": "tokenId",
          "type": "uint256"
        }
      ],
      "name": "transferFrom",
      "outputs": [],
      "stateMutability": "nonpayable",
      "type": "function"
    },
    {
      "inputs": [
        {
          "internalType": "uint256",
          "name": "_tokenId",
          "type": "uint256"
        },
        {
          "internalType": "uint256",
          "name": "_start",
          "type": "uint256"
        },
        {
          "internalType": "uint256",
          "name": "_end",
          "type": "uint256"
        },
        {
          "internalType": "address",
          "name": "_addressTo",
          "type": "address"
        }
      ],
      "name": "transferLease",
      "outputs": [],
      "stateMutability": "payable",
      "type": "function"
    },
    {
      "inputs": [
        {
          "internalType": "uint256",
          "name": "_tokenId",
          "type": "uint256"
        },
        {
          "internalType": "uint256",
          "name": "_start",
          "type": "uint256"
        },
        {
          "internalType": "uint256",
          "name": "_end",
          "type": "uint256"
        }
      ],
      "name": "unlease",
      "outputs": [],
      "stateMutability": "payable",
      "type": "function"
    }
  ],
  "bytecode": "0x60806040523480156200001157600080fd5b506040518060400160405280600581526020017f4c656173650000000000000000000000000000000000000000000000000000008152506040518060400160405280600581526020017f4c45415345000000000000000000000000000000000000000000000000000000815250816000908051906020019062000096929190620000b8565b508060019080519060200190620000af929190620000b8565b505050620001cd565b828054620000c69062000168565b90600052602060002090601f016020900481019282620000ea576000855562000136565b82601f106200010557805160ff191683800117855562000136565b8280016001018555821562000136579182015b828111156200013557825182559160200191906001019062000118565b5b50905062000145919062000149565b5090565b5b80821115620001645760008160009055506001016200014a565b5090565b600060028204905060018216806200018157607f821691505b602082108114156200019857620001976200019e565b5b50919050565b7f4e487b7100000000000000000000000000000000000000000000000000000000600052602260045260246000fd5b615aed80620001dd6000396000f3fe6080604052600436106101cd5760003560e01c806395d89b41116100f7578063c87b56dd11610095578063de17556f11610064578063de17556f146106d2578063e4c80d961461070f578063e985e9c51461074c578063ebb3ebb314610789576101cd565b8063c87b56dd146105ff578063cf35bdd01461063c578063d3f7e55214610679578063d4c2d9e6146106b6576101cd565b8063b88d4fde116100d1578063b88d4fde1461053d578063bc881d9314610566578063bd569ea6146105a3578063c517756c146105bf576101cd565b806395d89b41146104c0578063a22cb465146104eb578063b62d7e1214610514576101cd565b806341f757921161016f57806370a082311161013e57806370a08231146103ed578063715e59bc1461042a5780637249b932146104675780638fa9e5f214610483576101cd565b806341f757921461033157806342842e0e1461035c57806345634da4146103855780636352211e146103b0576101cd565b8063095ea7b3116101ab578063095ea7b3146102775780630f76214f146102a057806323b872dd146102cb5780632a6b1a0b146102f4576101cd565b806301ffc9a7146101d257806306fdde031461020f578063081812fc1461023a575b600080fd5b3480156101de57600080fd5b506101f960048036038101906101f49190613fbf565b6107c6565b6040516102069190614a01565b60405180910390f35b34801561021b57600080fd5b506102246108a8565b6040516102319190614a1c565b60405180910390f35b34801561024657600080fd5b50610261600480360381019061025c91906140a8565b61093a565b60405161026e9190614933565b60405180910390f35b34801561028357600080fd5b5061029e60048036038101906102999190613f34565b6109bf565b005b3480156102ac57600080fd5b506102b5610ad7565b6040516102c29190614db9565b60405180910390f35b3480156102d757600080fd5b506102f260048036038101906102ed9190613e2e565b610adf565b005b34801561030057600080fd5b5061031b600480360381019061031691906140a8565b610b3f565b6040516103289190614db9565b60405180910390f35b34801561033d57600080fd5b50610346610b57565b6040516103539190614db9565b60405180910390f35b34801561036857600080fd5b50610383600480360381019061037e9190613e2e565b610b5e565b005b34801561039157600080fd5b5061039a610b7e565b6040516103a79190614db9565b60405180910390f35b3480156103bc57600080fd5b506103d760048036038101906103d291906140a8565b610b85565b6040516103e49190614933565b60405180910390f35b3480156103f957600080fd5b50610414600480360381019061040f9190613dc9565b610c37565b6040516104219190614db9565b60405180910390f35b34801561043657600080fd5b50610451600480360381019061044c9190613f70565b610cef565b60405161045e9190614db9565b60405180910390f35b610481600480360381019061047c9190614011565b610d2d565b005b34801561048f57600080fd5b506104aa60048036038101906104a591906140d1565b610e2b565b6040516104b79190614db9565b60405180910390f35b3480156104cc57600080fd5b506104d5610e60565b6040516104e29190614a1c565b60405180910390f35b3480156104f757600080fd5b50610512600480360381019061050d9190613ef8565b610ef2565b005b34801561052057600080fd5b5061053b6004803603810190610536919061410d565b610f08565b005b34801561054957600080fd5b50610564600480360381019061055f9190613e7d565b6113fc565b005b34801561057257600080fd5b5061058d600480360381019061058891906140d1565b61145e565b60405161059a9190614a01565b60405180910390f35b6105bd60048036038101906105b8919061415c565b61148d565b005b3480156105cb57600080fd5b506105e660048036038101906105e191906140d1565b6116e7565b6040516105f6949392919061499a565b60405180910390f35b34801561060b57600080fd5b50610626600480360381019061062191906140a8565b611754565b6040516106339190614a1c565b60405180910390f35b34801561064857600080fd5b50610663600480360381019061065e91906140a8565b6118a6565b6040516106709190614a1c565b60405180910390f35b34801561068557600080fd5b506106a0600480360381019061069b91906140d1565b611946565b6040516106ad9190614d9e565b60405180910390f35b6106d060048036038101906106cb919061410d565b611bf2565b005b3480156106de57600080fd5b506106f960048036038101906106f491906140d1565b611fd1565b6040516107069190614933565b60405180910390f35b34801561071b57600080fd5b50610736600480360381019061073191906141bf565b6121fa565b6040516107439190614a01565b60405180910390f35b34801561075857600080fd5b50610773600480360381019061076e9190613df2565b612441565b6040516107809190614a01565b60405180910390f35b34801561079557600080fd5b506107b060048036038101906107ab91906140a8565b6124d5565b6040516107bd91906149df565b60405180910390f35b60007f80ac58cd000000000000000000000000000000000000000000000000000000007bffffffffffffffffffffffffffffffffffffffffffffffffffffffff1916827bffffffffffffffffffffffffffffffffffffffffffffffffffffffff1916148061089157507f5b5e139f000000000000000000000000000000000000000000000000000000007bffffffffffffffffffffffffffffffffffffffffffffffffffffffff1916827bffffffffffffffffffffffffffffffffffffffffffffffffffffffff1916145b806108a157506108a0826125c9565b5b9050919050565b6060600080546108b7906150cb565b80601f01602080910402602001604051908101604052809291908181526020018280546108e3906150cb565b80156109305780601f1061090557610100808354040283529160200191610930565b820191906000526020600020905b81548152906001019060200180831161091357829003601f168201915b5050505050905090565b600061094582612633565b610984576040517f08c379a000000000000000000000000000000000000000000000000000000000815260040161097b90614c9e565b60405180910390fd5b6004600083815260200190815260200160002060009054906101000a900473ffffffffffffffffffffffffffffffffffffffff169050919050565b60006109ca82610b85565b90508073ffffffffffffffffffffffffffffffffffffffff168373ffffffffffffffffffffffffffffffffffffffff161415610a3b576040517f08c379a0000000000000000000000000000000000000000000000000000000008152600401610a3290614cde565b60405180910390fd5b8073ffffffffffffffffffffffffffffffffffffffff16610a5a61269f565b73ffffffffffffffffffffffffffffffffffffffff161480610a895750610a8881610a8361269f565b612441565b5b610ac8576040517f08c379a0000000000000000000000000000000000000000000000000000000008152600401610abf90614b9e565b60405180910390fd5b610ad283836126a7565b505050565b6361cf371081565b610af0610aea61269f565b82612760565b610b2f576040517f08c379a0000000000000000000000000000000000000000000000000000000008152600401610b2690614d1e565b60405180910390fd5b610b3a83838361283e565b505050565b600a6020528060005260406000206000915090505481565b6201518081565b610b79838383604051806020016040528060008152506113fc565b505050565b624f1a0081565b6000806002600084815260200190815260200160002060009054906101000a900473ffffffffffffffffffffffffffffffffffffffff169050600073ffffffffffffffffffffffffffffffffffffffff168173ffffffffffffffffffffffffffffffffffffffff161415610c2e576040517f08c379a0000000000000000000000000000000000000000000000000000000008152600401610c2590614bfe565b60405180910390fd5b80915050919050565b60008073ffffffffffffffffffffffffffffffffffffffff168273ffffffffffffffffffffffffffffffffffffffff161415610ca8576040517f08c379a0000000000000000000000000000000000000000000000000000000008152600401610c9f90614bde565b60405180910390fd5b600360008373ffffffffffffffffffffffffffffffffffffffff1673ffffffffffffffffffffffffffffffffffffffff168152602001908152602001600020549050919050565b60096020528260005260406000206020528160005260406000208181548110610d1757600080fd5b9060005260206000200160009250925050505481565b610d376007612aa5565b6000610d436007612abb565b90506000610d73858585604051602001610d5f939291906148b4565b604051602081830303815290604052612ac9565b9050600081604051602001610d889190614911565b6040516020818303038152906040529050610da33384612c53565b610dad8382612c71565b80600c60008581526020019081526020016000209080519060200190610dd4929190613baf565b503373ffffffffffffffffffffffffffffffffffffffff167fa0cb282b65d69a39a4d7684f44a7c15b2b3761982ad6a6d947865bfd5220c81582604051610e1b9190614a1c565b60405180910390a2505050505050565b600080610e388484611946565b9050600081606001511415610e51576000915050610e5a565b80606001519150505b92915050565b606060018054610e6f906150cb565b80601f0160208091040260200160405190810160405280929190818152602001828054610e9b906150cb565b8015610ee85780601f10610ebd57610100808354040283529160200191610ee8565b820191906000526020600020905b815481529060010190602001808311610ecb57829003601f168201915b5050505050905090565b610f04610efd61269f565b8383612ce5565b5050565b818111610f1457600080fd5b624f1a00610f4062015180610f328585612e5290919063ffffffff16565b612e6890919063ffffffff16565b1115610f81576040517f08c379a0000000000000000000000000000000000000000000000000000000008152600401610f7890614c3e565b60405180910390fd5b62015180610fad62015180610f9f8585612e5290919063ffffffff16565b612e6890919063ffffffff16565b1015610fee576040517f08c379a0000000000000000000000000000000000000000000000000000000008152600401610fe590614afe565b60405180910390fd5b6000831415610ffc57600080fd5b600082141561100a57600080fd5b600081141561101857600080fd5b600060019050600060086000868152602001908152602001600020805480602002602001604051908101604052809291908181526020016000905b828210156110f957838290600052602060002090600402016040518060800160405290816000820160009054906101000a900473ffffffffffffffffffffffffffffffffffffffff1673ffffffffffffffffffffffffffffffffffffffff1673ffffffffffffffffffffffffffffffffffffffff168152602001600182015481526020016002820154815260200160038201548152505081526020019060010190611053565b505050509050600081511461115757611114858585426121fa565b915081611156576040517f08c379a000000000000000000000000000000000000000000000000000000000815260040161114d90614bbe565b60405180910390fd5b5b60006111856361cf37106111776201518088612e6890919063ffffffff16565b612e7e90919063ffffffff16565b905060006111b56361cf37106111a76201518088612e6890919063ffffffff16565b612e7e90919063ffffffff16565b905083156113a25760008690505b85811161121a576001600b60008a8152602001908152602001600020600083815260200190815260200160002060006101000a81548160ff02191690831515021790555080806112129061512e565b9150506111c3565b506008600088815260200190815260200160002060405180608001604052803373ffffffffffffffffffffffffffffffffffffffff16815260200189815260200184815260200183815250908060018154018082558091505060019003906000526020600020906004020160009091909190915060008201518160000160006101000a81548173ffffffffffffffffffffffffffffffffffffffff021916908373ffffffffffffffffffffffffffffffffffffffff1602179055506020820151816001015560408201518160020155606082015181600301555050600960003373ffffffffffffffffffffffffffffffffffffffff1673ffffffffffffffffffffffffffffffffffffffff16815260200190815260200160002060008881526020019081526020016000208351908060018154018082558091505060019003906000526020600020016000909190919091505584600a60008981526020019081526020016000205410156113a15784600a6000898152602001908152602001600020819055505b5b3373ffffffffffffffffffffffffffffffffffffffff16877f477d3a4ce93f75de2f1bc0b60f68f3670ad5f3e6ad245c7e6c8ff83bb75ec87b88886040516113eb929190614dd4565b60405180910390a350505050505050565b61140d61140761269f565b83612760565b61144c576040517f08c379a000000000000000000000000000000000000000000000000000000000815260040161144390614d1e565b60405180910390fd5b61145884848484612e94565b50505050565b600b6020528160005260406000206020528060005260406000206000915091509054906101000a900460ff1681565b60008414156114d1576040517f08c379a00000000000000000000000000000000000000000000000000000000081526004016114c890614cfe565b60405180910390fd5b6000821415611515576040517f08c379a000000000000000000000000000000000000000000000000000000000815260040161150c90614d5e565b60405180910390fd5b818310611557576040517f08c379a000000000000000000000000000000000000000000000000000000000815260040161154e90614ade565b60405180910390fd5b600061158e856115896361cf371061157b6201518089612e6890919063ffffffff16565b612e7e90919063ffffffff16565b611946565b90503373ffffffffffffffffffffffffffffffffffffffff16816000015173ffffffffffffffffffffffffffffffffffffffff1614611602576040517f08c379a00000000000000000000000000000000000000000000000000000000081526004016115f990614d3e565b60405180910390fd5b8281606001511015611649576040517f08c379a000000000000000000000000000000000000000000000000000000000815260040161164090614a3e565b60405180910390fd5b600081604001519050600082606001519050600061168d6201518061167f6361cf37108760400151612e5290919063ffffffff16565b612ef090919063ffffffff16565b905060006116c1620151806116b36361cf37108860600151612e5290919063ffffffff16565b612ef090919063ffffffff16565b90506116ce898383611bf2565b6116dc898989898888612f06565b505050505050505050565b6008602052816000526040600020818154811061170357600080fd5b9060005260206000209060040201600091509150508060000160009054906101000a900473ffffffffffffffffffffffffffffffffffffffff16908060010154908060020154908060030154905084565b606061175f82612633565b61179e576040517f08c379a000000000000000000000000000000000000000000000000000000000815260040161179590614c7e565b60405180910390fd5b60006006600084815260200190815260200160002080546117be906150cb565b80601f01602080910402602001604051908101604052809291908181526020018280546117ea906150cb565b80156118375780601f1061180c57610100808354040283529160200191611837565b820191906000526020600020905b81548152906001019060200180831161181a57829003601f168201915b505050505090506000611848613486565b905060008151141561185e5781925050506118a1565b60008251111561189357808260405160200161187b929190614890565b604051602081830303815290604052925050506118a1565b61189c8461349d565b925050505b919050565b600c60205280600052604060002060009150905080546118c5906150cb565b80601f01602080910402602001604051908101604052809291908181526020018280546118f1906150cb565b801561193e5780601f106119135761010080835404028352916020019161193e565b820191906000526020600020905b81548152906001019060200180831161192157829003601f168201915b505050505081565b61194e613c35565b600083141561195c57600080fd5b600082141561196a57600080fd5b600060086000858152602001908152602001600020805480602002602001604051908101604052809291908181526020016000905b82821015611a4557838290600052602060002090600402016040518060800160405290816000820160009054906101000a900473ffffffffffffffffffffffffffffffffffffffff1673ffffffffffffffffffffffffffffffffffffffff1673ffffffffffffffffffffffffffffffffffffffff16815260200160018201548152602001600282015481526020016003820154815250508152602001906001019061199f565b505050509050600081511415611a9f5780600081518110611a8f577f4e487b7100000000000000000000000000000000000000000000000000000000600052603260045260246000fd5b6020026020010151915050611bec565b60005b8151811015611ba55783828281518110611ae5577f4e487b7100000000000000000000000000000000000000000000000000000000600052603260045260246000fd5b60200260200101516040015111158015611b435750818181518110611b33577f4e487b7100000000000000000000000000000000000000000000000000000000600052603260045260246000fd5b6020026020010151606001518411155b15611b9257818181518110611b81577f4e487b7100000000000000000000000000000000000000000000000000000000600052603260045260246000fd5b602002602001015192505050611bec565b8080611b9d9061512e565b915050611aa2565b5080600081518110611be0577f4e487b7100000000000000000000000000000000000000000000000000000000600052603260045260246000fd5b60200260200101519150505b92915050565b6000600860008581526020019081526020016000208054905011611c4b576040517f08c379a0000000000000000000000000000000000000000000000000000000008152600401611c4290614abe565b60405180910390fd5b6000611c8284611c7d6361cf3710611c6f6201518088612e6890919063ffffffff16565b612e7e90919063ffffffff16565b611fd1565b90503373ffffffffffffffffffffffffffffffffffffffff168173ffffffffffffffffffffffffffffffffffffffff1614611cf2576040517f08c379a0000000000000000000000000000000000000000000000000000000008152600401611ce990614d3e565b60405180910390fd5b6000600960003373ffffffffffffffffffffffffffffffffffffffff1673ffffffffffffffffffffffffffffffffffffffff1681526020019081526020016000206000868152602001908152602001600020805480602002602001604051908101604052809291908181526020018280548015611d8e57602002820191906000526020600020905b815481526020019060010190808311611d7a575b5050505050905060005b8151811015611f275760086000878152602001908152602001600020828281518110611ded577f4e487b7100000000000000000000000000000000000000000000000000000000600052603260045260246000fd5b602002602001015181548110611e2c577f4e487b7100000000000000000000000000000000000000000000000000000000600052603260045260246000fd5b9060005260206000209060040201600080820160006101000a81549073ffffffffffffffffffffffffffffffffffffffff021916905560018201600090556002820160009055600382016000905550506000600960003373ffffffffffffffffffffffffffffffffffffffff1673ffffffffffffffffffffffffffffffffffffffff16815260200190815260200160002060008881526020019081526020016000208281548110611f06577f4e487b7100000000000000000000000000000000000000000000000000000000600052603260045260246000fd5b90600052602060002001819055508080611f1f9061512e565b915050611d98565b5060008490505b838111611f85576000600b6000888152602001908152602001600020600083815260200190815260200160002060006101000a81548160ff0219169083151502179055508080611f7d9061512e565b915050611f2e565b503373ffffffffffffffffffffffffffffffffffffffff16857f15b831dc4c26e3d1ab2c96415456b08e9364dc3527a59abb5e8f90b53da85dd360405160405180910390a35050505050565b600080831415611fe057600080fd5b6000821415611fee57600080fd5b600060086000858152602001908152602001600020805480602002602001604051908101604052809291908181526020016000905b828210156120c957838290600052602060002090600402016040518060800160405290816000820160009054906101000a900473ffffffffffffffffffffffffffffffffffffffff1673ffffffffffffffffffffffffffffffffffffffff1673ffffffffffffffffffffffffffffffffffffffff168152602001600182015481526020016002820154815260200160038201548152505081526020019060010190612023565b5050505090506000815114156120e35760009150506121f4565b60005b81518110156121ed5783828281518110612129577f4e487b7100000000000000000000000000000000000000000000000000000000600052603260045260246000fd5b602002602001015160400151111580156121875750818181518110612177577f4e487b7100000000000000000000000000000000000000000000000000000000600052603260045260246000fd5b6020026020010151606001518411155b156121da578181815181106121c5577f4e487b7100000000000000000000000000000000000000000000000000000000600052603260045260246000fd5b602002602001015160000151925050506121f4565b80806121e59061512e565b9150506120e6565b5060009150505b92915050565b600080821415612208574291505b83831161221457600080fd5b624f1a00612240620151806122328787612e5290919063ffffffff16565b612e6890919063ffffffff16565b1115612281576040517f08c379a000000000000000000000000000000000000000000000000000000000815260040161227890614c3e565b60405180910390fd5b620151806122ad6201518061229f8787612e5290919063ffffffff16565b612e6890919063ffffffff16565b10156122ee576040517f08c379a00000000000000000000000000000000000000000000000000000000081526004016122e590614afe565b60405180910390fd5b600061231c6201518061230e6361cf371086612e5290919063ffffffff16565b612ef090919063ffffffff16565b905084841015612361576040517f08c379a000000000000000000000000000000000000000000000000000000000815260040161235890614b7e565b60405180910390fd5b808510156123a4576040517f08c379a000000000000000000000000000000000000000000000000000000000815260040161239b90614d7e565b60405180910390fd5b600a6000878152602001908152602001600020548511156123c9576001915050612439565b60008590505b8481116124325760011515600b6000898152602001908152602001600020600083815260200190815260200160002060009054906101000a900460ff161515141561241f57600092505050612439565b808061242a9061512e565b9150506123cf565b5060019150505b949350505050565b6000600560008473ffffffffffffffffffffffffffffffffffffffff1673ffffffffffffffffffffffffffffffffffffffff16815260200190815260200160002060008373ffffffffffffffffffffffffffffffffffffffff1673ffffffffffffffffffffffffffffffffffffffff16815260200190815260200160002060009054906101000a900460ff16905092915050565b606060008214156124e557600080fd5b60086000838152602001908152602001600020805480602002602001604051908101604052809291908181526020016000905b828210156125be57838290600052602060002090600402016040518060800160405290816000820160009054906101000a900473ffffffffffffffffffffffffffffffffffffffff1673ffffffffffffffffffffffffffffffffffffffff1673ffffffffffffffffffffffffffffffffffffffff168152602001600182015481526020016002820154815260200160038201548152505081526020019060010190612518565b505050509050919050565b60007f01ffc9a7000000000000000000000000000000000000000000000000000000007bffffffffffffffffffffffffffffffffffffffffffffffffffffffff1916827bffffffffffffffffffffffffffffffffffffffffffffffffffffffff1916149050919050565b60008073ffffffffffffffffffffffffffffffffffffffff166002600084815260200190815260200160002060009054906101000a900473ffffffffffffffffffffffffffffffffffffffff1673ffffffffffffffffffffffffffffffffffffffff1614159050919050565b600033905090565b816004600083815260200190815260200160002060006101000a81548173ffffffffffffffffffffffffffffffffffffffff021916908373ffffffffffffffffffffffffffffffffffffffff160217905550808273ffffffffffffffffffffffffffffffffffffffff1661271a83610b85565b73ffffffffffffffffffffffffffffffffffffffff167f8c5be1e5ebec7d5bd14f71427d1e84f3dd0314c0f7b2291e5b200ac8c7c3b92560405160405180910390a45050565b600061276b82612633565b6127aa576040517f08c379a00000000000000000000000000000000000000000000000000000000081526004016127a190614b5e565b60405180910390fd5b60006127b583610b85565b90508073ffffffffffffffffffffffffffffffffffffffff168473ffffffffffffffffffffffffffffffffffffffff16148061282457508373ffffffffffffffffffffffffffffffffffffffff1661280c8461093a565b73ffffffffffffffffffffffffffffffffffffffff16145b8061283557506128348185612441565b5b91505092915050565b8273ffffffffffffffffffffffffffffffffffffffff1661285e82610b85565b73ffffffffffffffffffffffffffffffffffffffff16146128b4576040517f08c379a00000000000000000000000000000000000000000000000000000000081526004016128ab90614a7e565b60405180910390fd5b600073ffffffffffffffffffffffffffffffffffffffff168273ffffffffffffffffffffffffffffffffffffffff161415612924576040517f08c379a000000000000000000000000000000000000000000000000000000000815260040161291b90614b1e565b60405180910390fd5b61292f838383613544565b61293a6000826126a7565b6001600360008573ffffffffffffffffffffffffffffffffffffffff1673ffffffffffffffffffffffffffffffffffffffff168152602001908152602001600020600082825461298a9190614fe1565b925050819055506001600360008473ffffffffffffffffffffffffffffffffffffffff1673ffffffffffffffffffffffffffffffffffffffff16815260200190815260200160002060008282546129e19190614f00565b92505081905550816002600083815260200190815260200160002060006101000a81548173ffffffffffffffffffffffffffffffffffffffff021916908373ffffffffffffffffffffffffffffffffffffffff160217905550808273ffffffffffffffffffffffffffffffffffffffff168473ffffffffffffffffffffffffffffffffffffffff167fddf252ad1be2c89b69c2b068fc378daa952ba7f163c4a11628f55a4df523b3ef60405160405180910390a4612aa0838383613549565b505050565b6001816000016000828254019250508190555050565b600081600001549050919050565b6060600082511415612aec57604051806020016040528060008152509050612c4e565b6000604051806060016040528060408152602001615a786040913990506000600360028551612b1b9190614f00565b612b259190614f56565b6004612b319190614f87565b67ffffffffffffffff811115612b70577f4e487b7100000000000000000000000000000000000000000000000000000000600052604160045260246000fd5b6040519080825280601f01601f191660200182016040528015612ba25781602001600182028036833780820191505090505b509050600182016020820185865187015b80821015612c0e576003820191508151603f8160121c168501518453600184019350603f81600c1c168501518453600184019350603f8160061c168501518453600184019350603f8116850151845360018401935050612bb3565b5050600386510660018114612c2a5760028114612c3d57612c45565b603d6001830353603d6002830353612c45565b603d60018303535b50505080925050505b919050565b612c6d82826040518060200160405280600081525061354e565b5050565b612c7a82612633565b612cb9576040517f08c379a0000000000000000000000000000000000000000000000000000000008152600401612cb090614c1e565b60405180910390fd5b80600660008481526020019081526020016000209080519060200190612ce0929190613baf565b505050565b8173ffffffffffffffffffffffffffffffffffffffff168373ffffffffffffffffffffffffffffffffffffffff161415612d54576040517f08c379a0000000000000000000000000000000000000000000000000000000008152600401612d4b90614b3e565b60405180910390fd5b80600560008573ffffffffffffffffffffffffffffffffffffffff1673ffffffffffffffffffffffffffffffffffffffff16815260200190815260200160002060008473ffffffffffffffffffffffffffffffffffffffff1673ffffffffffffffffffffffffffffffffffffffff16815260200190815260200160002060006101000a81548160ff0219169083151502179055508173ffffffffffffffffffffffffffffffffffffffff168373ffffffffffffffffffffffffffffffffffffffff167f17307eab39ab6107e8899845ad3d59bd9653f200f220920489ca2b5937696c3183604051612e459190614a01565b60405180910390a3505050565b60008183612e609190614fe1565b905092915050565b60008183612e769190614f87565b905092915050565b60008183612e8c9190614f00565b905092915050565b612e9f84848461283e565b612eab848484846135a9565b612eea576040517f08c379a0000000000000000000000000000000000000000000000000000000008152600401612ee190614a5e565b60405180910390fd5b50505050565b60008183612efe9190614f56565b905092915050565b848411612f1257600080fd5b624f1a00612f3e62015180612f308888612e5290919063ffffffff16565b612e6890919063ffffffff16565b1115612f7f576040517f08c379a0000000000000000000000000000000000000000000000000000000008152600401612f7690614c3e565b60405180910390fd5b62015180612fab62015180612f9d8888612e5290919063ffffffff16565b612e6890919063ffffffff16565b1015612fec576040517f08c379a0000000000000000000000000000000000000000000000000000000008152600401612fe390614afe565b60405180910390fd5b6000861415612ffa57600080fd5b600085141561300857600080fd5b600084141561301657600080fd5b600060019050600060086000898152602001908152602001600020805480602002602001604051908101604052809291908181526020016000905b828210156130f757838290600052602060002090600402016040518060800160405290816000820160009054906101000a900473ffffffffffffffffffffffffffffffffffffffff1673ffffffffffffffffffffffffffffffffffffffff1673ffffffffffffffffffffffffffffffffffffffff168152602001600182015481526020016002820154815260200160038201548152505081526020019060010190613051565b505050509050600081511461311557613112888888426121fa565b91505b60006131436361cf3710613135620151808b612e6890919063ffffffff16565b612e7e90919063ffffffff16565b905060006131736361cf3710613165620151808b612e6890919063ffffffff16565b612e7e90919063ffffffff16565b905060006131a3620151806131956361cf37108a612e5290919063ffffffff16565b612ef090919063ffffffff16565b905060006131d3620151806131c56361cf37108a612e5290919063ffffffff16565b612ef090919063ffffffff16565b905085156134785760008b90505b8a8111613238576001600b60008f8152602001908152602001600020600083815260200190815260200160002060006101000a81548160ff02191690831515021790555080806132309061512e565b9150506131e1565b50600860008d815260200190815260200160002060405180608001604052808b73ffffffffffffffffffffffffffffffffffffffff1681526020018e815260200186815260200185815250908060018154018082558091505060019003906000526020600020906004020160009091909190915060008201518160000160006101000a81548173ffffffffffffffffffffffffffffffffffffffff021916908373ffffffffffffffffffffffffffffffffffffffff1602179055506020820151816001015560408201518160020155606082015181600301555050600960008a73ffffffffffffffffffffffffffffffffffffffff1673ffffffffffffffffffffffffffffffffffffffff16815260200190815260200160002060008d81526020019081526020016000208551908060018154018082558091505060019003906000526020600020016000909190919091505560006133a160018d612e5290919063ffffffff16565b905060006133b960018d612e7e90919063ffffffff16565b9050600081846133c99190614fe1565b1180156133e15750600084836133df9190614fe1565b145b156133f2576133f18e8285610f08565b5b600081846134009190614fe1565b1480156134185750600084836134169190614fe1565b115b15613433576134278483613740565b6134328e8584610f08565b5b600081846134419190614fe1565b1180156134595750600084836134579190614fe1565b115b15613475576134698e8584610f08565b6134748e8285610f08565b5b50505b505050505050505050505050565b606060405180602001604052806000815250905090565b60606134a882612633565b6134e7576040517f08c379a00000000000000000000000000000000000000000000000000000000081526004016134de90614cbe565b60405180910390fd5b60006134f1613486565b90506000815111613511576040518060200160405280600081525061353c565b8061351b846137dc565b60405160200161352c929190614890565b6040516020818303038152906040525b915050919050565b505050565b505050565b6135588383613989565b61356560008484846135a9565b6135a4576040517f08c379a000000000000000000000000000000000000000000000000000000000815260040161359b90614a5e565b60405180910390fd5b505050565b60006135ca8473ffffffffffffffffffffffffffffffffffffffff16613b63565b15613733578373ffffffffffffffffffffffffffffffffffffffff1663150b7a026135f361269f565b8786866040518563ffffffff1660e01b8152600401613615949392919061494e565b602060405180830381600087803b15801561362f57600080fd5b505af192505050801561366057506040513d601f19601f8201168201806040525081019061365d9190613fe8565b60015b6136e3573d8060008114613690576040519150601f19603f3d011682016040523d82523d6000602084013e613695565b606091505b506000815114156136db576040517f08c379a00000000000000000000000000000000000000000000000000000000081526004016136d290614a5e565b60405180910390fd5b805181602001fd5b63150b7a0260e01b7bffffffffffffffffffffffffffffffffffffffffffffffffffffffff1916817bffffffffffffffffffffffffffffffffffffffffffffffffffffffff191614915050613738565b600190505b949350505050565b6137d88282604051602401613756929190614dd4565b6040516020818303038152906040527f6c0f6980000000000000000000000000000000000000000000000000000000007bffffffffffffffffffffffffffffffffffffffffffffffffffffffff19166020820180517bffffffffffffffffffffffffffffffffffffffffffffffffffffffff8381831617835250505050613b86565b5050565b60606000821415613824576040518060400160405280600181526020017f30000000000000000000000000000000000000000000000000000000000000008152509050613984565b600082905060005b6000821461385657808061383f9061512e565b915050600a8261384f9190614f56565b915061382c565b60008167ffffffffffffffff811115613898577f4e487b7100000000000000000000000000000000000000000000000000000000600052604160045260246000fd5b6040519080825280601f01601f1916602001820160405280156138ca5781602001600182028036833780820191505090505b5090505b6000851461397d576001826138e39190614fe1565b9150600a856138f29190615177565b60306138fe9190614f00565b60f81b81838151811061393a577f4e487b7100000000000000000000000000000000000000000000000000000000600052603260045260246000fd5b60200101907effffffffffffffffffffffffffffffffffffffffffffffffffffffffffffff1916908160001a905350600a856139769190614f56565b94506138ce565b8093505050505b919050565b600073ffffffffffffffffffffffffffffffffffffffff168273ffffffffffffffffffffffffffffffffffffffff1614156139f9576040517f08c379a00000000000000000000000000000000000000000000000000000000081526004016139f090614c5e565b60405180910390fd5b613a0281612633565b15613a42576040517f08c379a0000000000000000000000000000000000000000000000000000000008152600401613a3990614a9e565b60405180910390fd5b613a4e60008383613544565b6001600360008473ffffffffffffffffffffffffffffffffffffffff1673ffffffffffffffffffffffffffffffffffffffff1681526020019081526020016000206000828254613a9e9190614f00565b92505081905550816002600083815260200190815260200160002060006101000a81548173ffffffffffffffffffffffffffffffffffffffff021916908373ffffffffffffffffffffffffffffffffffffffff160217905550808273ffffffffffffffffffffffffffffffffffffffff16600073ffffffffffffffffffffffffffffffffffffffff167fddf252ad1be2c89b69c2b068fc378daa952ba7f163c4a11628f55a4df523b3ef60405160405180910390a4613b5f60008383613549565b5050565b6000808273ffffffffffffffffffffffffffffffffffffffff163b119050919050565b60008151905060006a636f6e736f6c652e6c6f679050602083016000808483855afa5050505050565b828054613bbb906150cb565b90600052602060002090601f016020900481019282613bdd5760008555613c24565b82601f10613bf657805160ff1916838001178555613c24565b82800160010185558215613c24579182015b82811115613c23578251825591602001919060010190613c08565b5b509050613c319190613c73565b5090565b6040518060800160405280600073ffffffffffffffffffffffffffffffffffffffff1681526020016000815260200160008152602001600081525090565b5b80821115613c8c576000816000905550600101613c74565b5090565b6000613ca3613c9e84614e22565b614dfd565b905082815260208101848484011115613cbb57600080fd5b613cc6848285615089565b509392505050565b6000613ce1613cdc84614e53565b614dfd565b905082815260208101848484011115613cf957600080fd5b613d04848285615089565b509392505050565b600081359050613d1b81615a1b565b92915050565b600081359050613d3081615a32565b92915050565b600081359050613d4581615a49565b92915050565b600081519050613d5a81615a49565b92915050565b600082601f830112613d7157600080fd5b8135613d81848260208601613c90565b91505092915050565b600082601f830112613d9b57600080fd5b8135613dab848260208601613cce565b91505092915050565b600081359050613dc381615a60565b92915050565b600060208284031215613ddb57600080fd5b6000613de984828501613d0c565b91505092915050565b60008060408385031215613e0557600080fd5b6000613e1385828601613d0c565b9250506020613e2485828601613d0c565b9150509250929050565b600080600060608486031215613e4357600080fd5b6000613e5186828701613d0c565b9350506020613e6286828701613d0c565b9250506040613e7386828701613db4565b9150509250925092565b60008060008060808587031215613e9357600080fd5b6000613ea187828801613d0c565b9450506020613eb287828801613d0c565b9350506040613ec387828801613db4565b925050606085013567ffffffffffffffff811115613ee057600080fd5b613eec87828801613d60565b91505092959194509250565b60008060408385031215613f0b57600080fd5b6000613f1985828601613d0c565b9250506020613f2a85828601613d21565b9150509250929050565b60008060408385031215613f4757600080fd5b6000613f5585828601613d0c565b9250506020613f6685828601613db4565b9150509250929050565b600080600060608486031215613f8557600080fd5b6000613f9386828701613d0c565b9350506020613fa486828701613db4565b9250506040613fb586828701613db4565b9150509250925092565b600060208284031215613fd157600080fd5b6000613fdf84828501613d36565b91505092915050565b600060208284031215613ffa57600080fd5b600061400884828501613d4b565b91505092915050565b60008060006060848603121561402657600080fd5b600084013567ffffffffffffffff81111561404057600080fd5b61404c86828701613d8a565b935050602084013567ffffffffffffffff81111561406957600080fd5b61407586828701613d8a565b925050604084013567ffffffffffffffff81111561409257600080fd5b61409e86828701613d8a565b9150509250925092565b6000602082840312156140ba57600080fd5b60006140c884828501613db4565b91505092915050565b600080604083850312156140e457600080fd5b60006140f285828601613db4565b925050602061410385828601613db4565b9150509250929050565b60008060006060848603121561412257600080fd5b600061413086828701613db4565b935050602061414186828701613db4565b925050604061415286828701613db4565b9150509250925092565b6000806000806080858703121561417257600080fd5b600061418087828801613db4565b945050602061419187828801613db4565b93505060406141a287828801613db4565b92505060606141b387828801613d0c565b91505092959194509250565b600080600080608085870312156141d557600080fd5b60006141e387828801613db4565b94505060206141f487828801613db4565b935050604061420587828801613db4565b925050606061421687828801613db4565b91505092959194509250565b600061422e83836147c8565b60808301905092915050565b61424381615015565b82525050565b61425281615015565b82525050565b600061426382614e94565b61426d8185614ec2565b935061427883614e84565b8060005b838110156142a95781516142908882614222565b975061429b83614eb5565b92505060018101905061427c565b5085935050505092915050565b6142bf81615027565b82525050565b60006142d082614e9f565b6142da8185614ed3565b93506142ea818560208601615098565b6142f381615264565b840191505092915050565b600061430982614eaa565b6143138185614ee4565b9350614323818560208601615098565b61432c81615264565b840191505092915050565b600061434282614eaa565b61434c8185614ef5565b935061435c818560208601615098565b80840191505092915050565b6000614375602383614ee4565b915061438082615275565b604082019050919050565b6000614398601383614ef5565b91506143a3826152c4565b601382019050919050565b60006143bb603283614ee4565b91506143c6826152ed565b604082019050919050565b60006143de602583614ee4565b91506143e98261533c565b604082019050919050565b6000614401601c83614ee4565b915061440c8261538b565b602082019050919050565b6000614424601d83614ee4565b915061442f826153b4565b602082019050919050565b6000614447602283614ee4565b9150614452826153dd565b604082019050919050565b600061446a601b83614ee4565b91506144758261542c565b602082019050919050565b600061448d602483614ee4565b915061449882615455565b604082019050919050565b60006144b0601983614ee4565b91506144bb826154a4565b602082019050919050565b60006144d3602c83614ee4565b91506144de826154cd565b604082019050919050565b60006144f6602383614ee4565b91506145018261551c565b604082019050919050565b6000614519603883614ee4565b91506145248261556b565b604082019050919050565b600061453c601383614ee4565b9150614547826155ba565b602082019050919050565b600061455f602a83614ee4565b915061456a826155e3565b604082019050919050565b6000614582602983614ee4565b915061458d82615632565b604082019050919050565b60006145a5602e83614ee4565b91506145b082615681565b604082019050919050565b60006145c8601a83614ee4565b91506145d3826156d0565b602082019050919050565b60006145eb600283614ef5565b91506145f6826156f9565b600282019050919050565b600061460e602083614ee4565b915061461982615722565b602082019050919050565b6000614631600d83614ef5565b915061463c8261574b565b600d82019050919050565b6000614654603183614ee4565b915061465f82615774565b604082019050919050565b6000614677602c83614ee4565b9150614682826157c3565b604082019050919050565b600061469a602f83614ee4565b91506146a582615812565b604082019050919050565b60006146bd600a83614ef5565b91506146c882615861565b600a82019050919050565b60006146e0602183614ee4565b91506146eb8261588a565b604082019050919050565b6000614703601d83614ef5565b915061470e826158d9565b601d82019050919050565b6000614726601783614ee4565b915061473182615902565b602082019050919050565b6000614749603183614ee4565b91506147548261592b565b604082019050919050565b600061476c602a83614ee4565b91506147778261597a565b604082019050919050565b600061478f601783614ee4565b915061479a826159c9565b602082019050919050565b60006147b2602083614ee4565b91506147bd826159f2565b602082019050919050565b6080820160008201516147de600085018261423a565b5060208201516147f16020850182614872565b5060408201516148046040850182614872565b5060608201516148176060850182614872565b50505050565b608082016000820151614833600085018261423a565b5060208201516148466020850182614872565b5060408201516148596040850182614872565b50606082015161486c6060850182614872565b50505050565b61487b8161507f565b82525050565b61488a8161507f565b82525050565b600061489c8285614337565b91506148a88284614337565b91508190509392505050565b60006148bf826146b0565b91506148cb8286614337565b91506148d68261438b565b91506148e28285614337565b91506148ed82614624565b91506148f98284614337565b9150614904826145de565b9150819050949350505050565b600061491c826146f6565b91506149288284614337565b915081905092915050565b60006020820190506149486000830184614249565b92915050565b60006080820190506149636000830187614249565b6149706020830186614249565b61497d6040830185614881565b818103606083015261498f81846142c5565b905095945050505050565b60006080820190506149af6000830187614249565b6149bc6020830186614881565b6149c96040830185614881565b6149d66060830184614881565b95945050505050565b600060208201905081810360008301526149f98184614258565b905092915050565b6000602082019050614a1660008301846142b6565b92915050565b60006020820190508181036000830152614a3681846142fe565b905092915050565b60006020820190508181036000830152614a5781614368565b9050919050565b60006020820190508181036000830152614a77816143ae565b9050919050565b60006020820190508181036000830152614a97816143d1565b9050919050565b60006020820190508181036000830152614ab7816143f4565b9050919050565b60006020820190508181036000830152614ad781614417565b9050919050565b60006020820190508181036000830152614af78161443a565b9050919050565b60006020820190508181036000830152614b178161445d565b9050919050565b60006020820190508181036000830152614b3781614480565b9050919050565b60006020820190508181036000830152614b57816144a3565b9050919050565b60006020820190508181036000830152614b77816144c6565b9050919050565b60006020820190508181036000830152614b97816144e9565b9050919050565b60006020820190508181036000830152614bb78161450c565b9050919050565b60006020820190508181036000830152614bd78161452f565b9050919050565b60006020820190508181036000830152614bf781614552565b9050919050565b60006020820190508181036000830152614c1781614575565b9050919050565b60006020820190508181036000830152614c3781614598565b9050919050565b60006020820190508181036000830152614c57816145bb565b9050919050565b60006020820190508181036000830152614c7781614601565b9050919050565b60006020820190508181036000830152614c9781614647565b9050919050565b60006020820190508181036000830152614cb78161466a565b9050919050565b60006020820190508181036000830152614cd78161468d565b9050919050565b60006020820190508181036000830152614cf7816146d3565b9050919050565b60006020820190508181036000830152614d1781614719565b9050919050565b60006020820190508181036000830152614d378161473c565b9050919050565b60006020820190508181036000830152614d578161475f565b9050919050565b60006020820190508181036000830152614d7781614782565b9050919050565b60006020820190508181036000830152614d97816147a5565b9050919050565b6000608082019050614db3600083018461481d565b92915050565b6000602082019050614dce6000830184614881565b92915050565b6000604082019050614de96000830185614881565b614df66020830184614881565b9392505050565b6000614e07614e18565b9050614e1382826150fd565b919050565b6000604051905090565b600067ffffffffffffffff821115614e3d57614e3c615235565b5b614e4682615264565b9050602081019050919050565b600067ffffffffffffffff821115614e6e57614e6d615235565b5b614e7782615264565b9050602081019050919050565b6000819050602082019050919050565b600081519050919050565b600081519050919050565b600081519050919050565b6000602082019050919050565b600082825260208201905092915050565b600082825260208201905092915050565b600082825260208201905092915050565b600081905092915050565b6000614f0b8261507f565b9150614f168361507f565b9250827fffffffffffffffffffffffffffffffffffffffffffffffffffffffffffffffff03821115614f4b57614f4a6151a8565b5b828201905092915050565b6000614f618261507f565b9150614f6c8361507f565b925082614f7c57614f7b6151d7565b5b828204905092915050565b6000614f928261507f565b9150614f9d8361507f565b9250817fffffffffffffffffffffffffffffffffffffffffffffffffffffffffffffffff0483118215151615614fd657614fd56151a8565b5b828202905092915050565b6000614fec8261507f565b9150614ff78361507f565b92508282101561500a576150096151a8565b5b828203905092915050565b60006150208261505f565b9050919050565b60008115159050919050565b60007fffffffff0000000000000000000000000000000000000000000000000000000082169050919050565b600073ffffffffffffffffffffffffffffffffffffffff82169050919050565b6000819050919050565b82818337600083830152505050565b60005b838110156150b657808201518184015260208101905061509b565b838111156150c5576000848401525b50505050565b600060028204905060018216806150e357607f821691505b602082108114156150f7576150f6615206565b5b50919050565b61510682615264565b810181811067ffffffffffffffff8211171561512557615124615235565b5b80604052505050565b60006151398261507f565b91507fffffffffffffffffffffffffffffffffffffffffffffffffffffffffffffffff82141561516c5761516b6151a8565b5b600182019050919050565b60006151828261507f565b915061518d8361507f565b92508261519d5761519c6151d7565b5b828206905092915050565b7f4e487b7100000000000000000000000000000000000000000000000000000000600052601160045260246000fd5b7f4e487b7100000000000000000000000000000000000000000000000000000000600052601260045260246000fd5b7f4e487b7100000000000000000000000000000000000000000000000000000000600052602260045260246000fd5b7f4e487b7100000000000000000000000000000000000000000000000000000000600052604160045260246000fd5b6000601f19601f8301169050919050565b7f4c657373656520646f6573206e6f74206c65617365207061737420656e64206460008201527f6174650000000000000000000000000000000000000000000000000000000000602082015250565b7f222c20226465736372697074696f6e223a202200000000000000000000000000600082015250565b7f4552433732313a207472616e7366657220746f206e6f6e20455243373231526560008201527f63656976657220696d706c656d656e7465720000000000000000000000000000602082015250565b7f4552433732313a207472616e736665722066726f6d20696e636f72726563742060008201527f6f776e6572000000000000000000000000000000000000000000000000000000602082015250565b7f4552433732313a20746f6b656e20616c7265616479206d696e74656400000000600082015250565b7f4e6f207465726d7320657869737420666f722074686973206c65617365000000600082015250565b7f53746172742064617465206d757374206265206265666f726520656e6420646160008201527f7465000000000000000000000000000000000000000000000000000000000000602082015250565b7f4c65617365206475726174696f6e20697320746f6f2073686f72740000000000600082015250565b7f4552433732313a207472616e7366657220746f20746865207a65726f2061646460008201527f7265737300000000000000000000000000000000000000000000000000000000602082015250565b7f4552433732313a20617070726f766520746f2063616c6c657200000000000000600082015250565b7f4552433732313a206f70657261746f7220717565727920666f72206e6f6e657860008201527f697374656e7420746f6b656e0000000000000000000000000000000000000000602082015250565b7f456e6420646174652073686f756c64206265206c61746572207468616e20737460008201527f6172740000000000000000000000000000000000000000000000000000000000602082015250565b7f4552433732313a20617070726f76652063616c6c6572206973206e6f74206f7760008201527f6e6572206e6f7220617070726f76656420666f7220616c6c0000000000000000602082015250565b7f4c65617365206e6f7420617661696c61626c6500000000000000000000000000600082015250565b7f4552433732313a2062616c616e636520717565727920666f7220746865207a6560008201527f726f206164647265737300000000000000000000000000000000000000000000602082015250565b7f4552433732313a206f776e657220717565727920666f72206e6f6e657869737460008201527f656e7420746f6b656e0000000000000000000000000000000000000000000000602082015250565b7f45524337323155524953746f726167653a2055524920736574206f66206e6f6e60008201527f6578697374656e7420746f6b656e000000000000000000000000000000000000602082015250565b7f4c65617365206475726174696f6e20697320746f6f206c6f6e67000000000000600082015250565b7f227d000000000000000000000000000000000000000000000000000000000000600082015250565b7f4552433732313a206d696e7420746f20746865207a65726f2061646472657373600082015250565b7f222c2022696d616765223a202200000000000000000000000000000000000000600082015250565b7f45524337323155524953746f726167653a2055524920717565727920666f722060008201527f6e6f6e6578697374656e7420746f6b656e000000000000000000000000000000602082015250565b7f4552433732313a20617070726f76656420717565727920666f72206e6f6e657860008201527f697374656e7420746f6b656e0000000000000000000000000000000000000000602082015250565b7f4552433732314d657461646174613a2055524920717565727920666f72206e6f60008201527f6e6578697374656e7420746f6b656e0000000000000000000000000000000000602082015250565b7f7b226e616d65223a202200000000000000000000000000000000000000000000600082015250565b7f4552433732313a20617070726f76616c20746f2063757272656e74206f776e6560008201527f7200000000000000000000000000000000000000000000000000000000000000602082015250565b7f646174613a6170706c69636174696f6e2f6a736f6e3b6261736536342c000000600082015250565b7f546f6b656e2049442063616e6e6f74206265207a65726f000000000000000000600082015250565b7f4552433732313a207472616e736665722063616c6c6572206973206e6f74206f60008201527f776e6572206e6f7220617070726f766564000000000000000000000000000000602082015250565b7f4164647265737320646f6573206e6f7420686176652072696768747320746f2060008201527f74686973206c6561736500000000000000000000000000000000000000000000602082015250565b7f456e6420646174652063616e6e6f74206265207a65726f000000000000000000600082015250565b7f537461727420646174652063616e6e6f7420626520696e207468652070617374600082015250565b615a2481615015565b8114615a2f57600080fd5b50565b615a3b81615027565b8114615a4657600080fd5b50565b615a5281615033565b8114615a5d57600080fd5b50565b615a698161507f565b8114615a7457600080fd5b5056fe4142434445464748494a4b4c4d4e4f505152535455565758595a6162636465666768696a6b6c6d6e6f707172737475767778797a303132333435363738392b2fa2646970667358221220ba93bc878ad881d207809f37864cb88ecb8ddd6b0db66b14f7373eaff064a8e064736f6c63430008040033",
  "linkReferences": {},
  "deployedLinkReferences": {}
}