{
  "_format": "hh-sol-artifact-1",
  "contractName": "ERC721LeaseBase",
  "sourceName": "contracts/ERC721Lease.sol",
  "abi": [
    {
      "inputs": [],
      "stateMutability": "nonpayable",
      "type": "constructor"
    },
    {
      "anonymous": false,
      "inputs": [
        {
          "indexed": true,
          "internalType": "address",
          "name": "owner",
          "type": "address"
        },
        {
          "indexed": true,
          "internalType": "address",
          "name": "approved",
          "type": "address"
        },
        {
          "indexed": true,
          "internalType": "uint256",
          "name": "tokenId",
          "type": "uint256"
        }
      ],
      "name": "Approval",
      "type": "event"
    },
    {
      "anonymous": false,
      "inputs": [
        {
          "indexed": true,
          "internalType": "address",
          "name": "owner",
          "type": "address"
        },
        {
          "indexed": true,
          "internalType": "address",
          "name": "operator",
          "type": "address"
        },
        {
          "indexed": false,
          "internalType": "bool",
          "name": "approved",
          "type": "bool"
        }
      ],
      "name": "ApprovalForAll",
      "type": "event"
    },
    {
      "anonymous": false,
      "inputs": [
        {
          "indexed": true,
          "internalType": "address",
          "name": "_from",
          "type": "address"
        },
        {
          "indexed": false,
          "internalType": "string",
          "name": "tokenURI",
          "type": "string"
        }
      ],
      "name": "AssetCreated",
      "type": "event"
    },
    {
      "anonymous": false,
      "inputs": [
        {
          "indexed": true,
          "internalType": "uint256",
          "name": "tokenId",
          "type": "uint256"
        },
        {
          "indexed": true,
          "internalType": "address",
          "name": "lessee",
          "type": "address"
        }
      ],
      "name": "LeaseCancelled",
      "type": "event"
    },
    {
      "anonymous": false,
      "inputs": [
        {
          "indexed": true,
          "internalType": "uint256",
          "name": "tokenId",
          "type": "uint256"
        },
        {
          "indexed": true,
          "internalType": "address",
          "name": "lessee",
          "type": "address"
        },
        {
          "indexed": true,
          "internalType": "address",
          "name": "addressTo",
          "type": "address"
        },
        {
          "indexed": false,
          "internalType": "uint256",
          "name": "start",
          "type": "uint256"
        },
        {
          "indexed": false,
          "internalType": "uint256",
          "name": "end",
          "type": "uint256"
        }
      ],
      "name": "LeaseTransferred",
      "type": "event"
    },
    {
      "anonymous": false,
      "inputs": [
        {
          "indexed": true,
          "internalType": "uint256",
          "name": "tokenId",
          "type": "uint256"
        },
        {
          "indexed": true,
          "internalType": "address",
          "name": "lessee",
          "type": "address"
        },
        {
          "indexed": false,
          "internalType": "uint256",
          "name": "start",
          "type": "uint256"
        },
        {
          "indexed": false,
          "internalType": "uint256",
          "name": "end",
          "type": "uint256"
        }
      ],
      "name": "Leased",
      "type": "event"
    },
    {
      "anonymous": false,
      "inputs": [
        {
          "indexed": true,
          "internalType": "address",
          "name": "from",
          "type": "address"
        },
        {
          "indexed": true,
          "internalType": "address",
          "name": "to",
          "type": "address"
        },
        {
          "indexed": true,
          "internalType": "uint256",
          "name": "tokenId",
          "type": "uint256"
        }
      ],
      "name": "Transfer",
      "type": "event"
    },
    {
      "inputs": [],
      "name": "MAX_LEASE_DURATION",
      "outputs": [
        {
          "internalType": "uint256",
          "name": "",
          "type": "uint256"
        }
      ],
      "stateMutability": "view",
      "type": "function"
    },
    {
      "inputs": [],
      "name": "MIN_LEASE_DURATION",
      "outputs": [
        {
          "internalType": "uint256",
          "name": "",
          "type": "uint256"
        }
      ],
      "stateMutability": "view",
      "type": "function"
    },
    {
      "inputs": [],
      "name": "TIME_START",
      "outputs": [
        {
          "internalType": "uint256",
          "name": "",
          "type": "uint256"
        }
      ],
      "stateMutability": "view",
      "type": "function"
    },
    {
      "inputs": [
        {
          "internalType": "address",
          "name": "to",
          "type": "address"
        },
        {
          "internalType": "uint256",
          "name": "tokenId",
          "type": "uint256"
        }
      ],
      "name": "approve",
      "outputs": [],
      "stateMutability": "nonpayable",
      "type": "function"
    },
    {
      "inputs": [
        {
          "internalType": "uint256",
          "name": "",
          "type": "uint256"
        }
      ],
      "name": "assets",
      "outputs": [
        {
          "internalType": "string",
          "name": "",
          "type": "string"
        }
      ],
      "stateMutability": "view",
      "type": "function"
    },
    {
      "inputs": [
        {
          "internalType": "address",
          "name": "owner",
          "type": "address"
        }
      ],
      "name": "balanceOf",
      "outputs": [
        {
          "internalType": "uint256",
          "name": "",
          "type": "uint256"
        }
      ],
      "stateMutability": "view",
      "type": "function"
    },
    {
      "inputs": [
        {
          "internalType": "uint256",
          "name": "",
          "type": "uint256"
        },
        {
          "internalType": "uint256",
          "name": "",
          "type": "uint256"
        }
      ],
      "name": "daysTaken",
      "outputs": [
        {
          "internalType": "bool",
          "name": "",
          "type": "bool"
        }
      ],
      "stateMutability": "view",
      "type": "function"
    },
    {
      "inputs": [
        {
          "internalType": "uint256",
          "name": "tokenId",
          "type": "uint256"
        }
      ],
      "name": "getApproved",
      "outputs": [
        {
          "internalType": "address",
          "name": "",
          "type": "address"
        }
      ],
      "stateMutability": "view",
      "type": "function"
    },
    {
      "inputs": [
        {
          "internalType": "uint256",
          "name": "_tokenId",
          "type": "uint256"
        }
      ],
      "name": "getAssets",
      "outputs": [
        {
          "internalType": "string",
          "name": "",
          "type": "string"
        }
      ],
      "stateMutability": "view",
      "type": "function"
    },
    {
      "inputs": [
        {
          "internalType": "uint256",
          "name": "_tokenId",
          "type": "uint256"
        },
        {
          "internalType": "uint256",
          "name": "_date",
          "type": "uint256"
        }
      ],
      "name": "getLease",
      "outputs": [
        {
          "components": [
            {
              "internalType": "address",
              "name": "lessee",
              "type": "address"
            },
            {
              "internalType": "uint256",
              "name": "tokenId",
              "type": "uint256"
            },
            {
              "internalType": "uint256",
              "name": "startTime",
              "type": "uint256"
            },
            {
              "internalType": "uint256",
              "name": "endTime",
              "type": "uint256"
            }
          ],
          "internalType": "struct ERC721LeaseBase.Term",
          "name": "",
          "type": "tuple"
        }
      ],
      "stateMutability": "view",
      "type": "function"
    },
    {
      "inputs": [
        {
          "internalType": "uint256",
          "name": "_tokenId",
          "type": "uint256"
        },
        {
          "internalType": "uint256",
          "name": "_date",
          "type": "uint256"
        }
      ],
      "name": "getLeaseEnd",
      "outputs": [
        {
          "internalType": "uint256",
          "name": "",
          "type": "uint256"
        }
      ],
      "stateMutability": "view",
      "type": "function"
    },
    {
      "inputs": [
        {
          "internalType": "uint256",
          "name": "_tokenId",
          "type": "uint256"
        },
        {
          "internalType": "uint256",
          "name": "_date",
          "type": "uint256"
        }
      ],
      "name": "getLeaseStart",
      "outputs": [
        {
          "internalType": "uint256",
          "name": "",
          "type": "uint256"
        }
      ],
      "stateMutability": "view",
      "type": "function"
    },
    {
      "inputs": [
        {
          "internalType": "uint256",
          "name": "_tokenId",
          "type": "uint256"
        }
      ],
      "name": "getLeases",
      "outputs": [
        {
          "components": [
            {
              "internalType": "address",
              "name": "lessee",
              "type": "address"
            },
            {
              "internalType": "uint256",
              "name": "tokenId",
              "type": "uint256"
            },
            {
              "internalType": "uint256",
              "name": "startTime",
              "type": "uint256"
            },
            {
              "internalType": "uint256",
              "name": "endTime",
              "type": "uint256"
            }
          ],
          "internalType": "struct ERC721LeaseBase.Term[]",
          "name": "",
          "type": "tuple[]"
        }
      ],
      "stateMutability": "view",
      "type": "function"
    },
    {
      "inputs": [
        {
          "internalType": "address",
          "name": "owner",
          "type": "address"
        },
        {
          "internalType": "address",
          "name": "operator",
          "type": "address"
        }
      ],
      "name": "isApprovedForAll",
      "outputs": [
        {
          "internalType": "bool",
          "name": "",
          "type": "bool"
        }
      ],
      "stateMutability": "view",
      "type": "function"
    },
    {
      "inputs": [
        {
          "internalType": "uint256",
          "name": "_tokenId",
          "type": "uint256"
        },
        {
          "internalType": "uint256",
          "name": "_start",
          "type": "uint256"
        },
        {
          "internalType": "uint256",
          "name": "_end",
          "type": "uint256"
        },
        {
          "internalType": "uint256",
          "name": "_now",
          "type": "uint256"
        }
      ],
      "name": "isLeaseAvailable",
      "outputs": [
        {
          "internalType": "bool",
          "name": "",
          "type": "bool"
        }
      ],
      "stateMutability": "view",
      "type": "function"
    },
    {
      "inputs": [
        {
          "internalType": "uint256",
          "name": "",
          "type": "uint256"
        }
      ],
      "name": "lastEndTimeByToken",
      "outputs": [
        {
          "internalType": "uint256",
          "name": "",
          "type": "uint256"
        }
      ],
      "stateMutability": "view",
      "type": "function"
    },
    {
      "inputs": [
        {
          "internalType": "uint256",
          "name": "_tokenId",
          "type": "uint256"
        },
        {
          "internalType": "uint256",
          "name": "_start",
          "type": "uint256"
        },
        {
          "internalType": "uint256",
          "name": "_end",
          "type": "uint256"
        }
      ],
      "name": "lease",
      "outputs": [],
      "stateMutability": "nonpayable",
      "type": "function"
    },
    {
      "inputs": [
        {
          "internalType": "address",
          "name": "",
          "type": "address"
        },
        {
          "internalType": "uint256",
          "name": "",
          "type": "uint256"
        },
        {
          "internalType": "uint256",
          "name": "",
          "type": "uint256"
        }
      ],
      "name": "leasesByAddress",
      "outputs": [
        {
          "internalType": "uint256",
          "name": "",
          "type": "uint256"
        }
      ],
      "stateMutability": "view",
      "type": "function"
    },
    {
      "inputs": [
        {
          "internalType": "uint256",
          "name": "",
          "type": "uint256"
        },
        {
          "internalType": "uint256",
          "name": "",
          "type": "uint256"
        }
      ],
      "name": "leasesByToken",
      "outputs": [
        {
          "internalType": "address",
          "name": "lessee",
          "type": "address"
        },
        {
          "internalType": "uint256",
          "name": "tokenId",
          "type": "uint256"
        },
        {
          "internalType": "uint256",
          "name": "startTime",
          "type": "uint256"
        },
        {
          "internalType": "uint256",
          "name": "endTime",
          "type": "uint256"
        }
      ],
      "stateMutability": "view",
      "type": "function"
    },
    {
      "inputs": [
        {
          "internalType": "uint256",
          "name": "_tokenId",
          "type": "uint256"
        },
        {
          "internalType": "uint256",
          "name": "_date",
          "type": "uint256"
        }
      ],
      "name": "lesseeOf",
      "outputs": [
        {
          "internalType": "address",
          "name": "",
          "type": "address"
        }
      ],
      "stateMutability": "view",
      "type": "function"
    },
    {
      "inputs": [
        {
          "internalType": "string",
          "name": "_name",
          "type": "string"
        },
        {
          "internalType": "string",
          "name": "_description",
          "type": "string"
        },
        {
          "internalType": "string",
          "name": "_image",
          "type": "string"
        }
      ],
      "name": "mintAsset",
      "outputs": [],
      "stateMutability": "payable",
      "type": "function"
    },
    {
      "inputs": [],
      "name": "name",
      "outputs": [
        {
          "internalType": "string",
          "name": "",
          "type": "string"
        }
      ],
      "stateMutability": "view",
      "type": "function"
    },
    {
      "inputs": [
        {
          "internalType": "uint256",
          "name": "tokenId",
          "type": "uint256"
        }
      ],
      "name": "ownerOf",
      "outputs": [
        {
          "internalType": "address",
          "name": "",
          "type": "address"
        }
      ],
      "stateMutability": "view",
      "type": "function"
    },
    {
      "inputs": [
        {
          "internalType": "address",
          "name": "from",
          "type": "address"
        },
        {
          "internalType": "address",
          "name": "to",
          "type": "address"
        },
        {
          "internalType": "uint256",
          "name": "tokenId",
          "type": "uint256"
        }
      ],
      "name": "safeTransferFrom",
      "outputs": [],
      "stateMutability": "nonpayable",
      "type": "function"
    },
    {
      "inputs": [
        {
          "internalType": "address",
          "name": "from",
          "type": "address"
        },
        {
          "internalType": "address",
          "name": "to",
          "type": "address"
        },
        {
          "internalType": "uint256",
          "name": "tokenId",
          "type": "uint256"
        },
        {
          "internalType": "bytes",
          "name": "_data",
          "type": "bytes"
        }
      ],
      "name": "safeTransferFrom",
      "outputs": [],
      "stateMutability": "nonpayable",
      "type": "function"
    },
    {
      "inputs": [
        {
          "internalType": "address",
          "name": "operator",
          "type": "address"
        },
        {
          "internalType": "bool",
          "name": "approved",
          "type": "bool"
        }
      ],
      "name": "setApprovalForAll",
      "outputs": [],
      "stateMutability": "nonpayable",
      "type": "function"
    },
    {
      "inputs": [
        {
          "internalType": "bytes4",
          "name": "interfaceId",
          "type": "bytes4"
        }
      ],
      "name": "supportsInterface",
      "outputs": [
        {
          "internalType": "bool",
          "name": "",
          "type": "bool"
        }
      ],
      "stateMutability": "view",
      "type": "function"
    },
    {
      "inputs": [],
      "name": "symbol",
      "outputs": [
        {
          "internalType": "string",
          "name": "",
          "type": "string"
        }
      ],
      "stateMutability": "view",
      "type": "function"
    },
    {
      "inputs": [
        {
          "internalType": "uint256",
          "name": "tokenId",
          "type": "uint256"
        }
      ],
      "name": "tokenURI",
      "outputs": [
        {
          "internalType": "string",
          "name": "",
          "type": "string"
        }
      ],
      "stateMutability": "view",
      "type": "function"
    },
    {
      "inputs": [
        {
          "internalType": "address",
          "name": "from",
          "type": "address"
        },
        {
          "internalType": "address",
          "name": "to",
          "type": "address"
        },
        {
          "internalType": "uint256",
          "name": "tokenId",
          "type": "uint256"
        }
      ],
      "name": "transferFrom",
      "outputs": [],
      "stateMutability": "nonpayable",
      "type": "function"
    },
    {
      "inputs": [
        {
          "internalType": "uint256",
          "name": "_tokenId",
          "type": "uint256"
        },
        {
          "internalType": "uint256",
          "name": "_start",
          "type": "uint256"
        },
        {
          "internalType": "uint256",
          "name": "_end",
          "type": "uint256"
        },
        {
          "internalType": "address",
          "name": "_addressTo",
          "type": "address"
        }
      ],
      "name": "transferLease",
      "outputs": [],
      "stateMutability": "payable",
      "type": "function"
    },
    {
      "inputs": [
        {
          "internalType": "uint256",
          "name": "_tokenId",
          "type": "uint256"
        },
        {
          "internalType": "uint256",
          "name": "_dayInLease",
          "type": "uint256"
        }
      ],
      "name": "unlease",
      "outputs": [],
      "stateMutability": "payable",
      "type": "function"
    }
  ],
  "bytecode": "0x60806040523480156200001157600080fd5b506040518060400160405280600581526020017f4c656173650000000000000000000000000000000000000000000000000000008152506040518060400160405280600581526020017f4c45415345000000000000000000000000000000000000000000000000000000815250816000908051906020019062000096929190620000b8565b508060019080519060200190620000af929190620000b8565b505050620001cd565b828054620000c69062000168565b90600052602060002090601f016020900481019282620000ea576000855562000136565b82601f106200010557805160ff191683800117855562000136565b8280016001018555821562000136579182015b828111156200013557825182559160200191906001019062000118565b5b50905062000145919062000149565b5090565b5b80821115620001645760008160009055506001016200014a565b5090565b600060028204905060018216806200018157607f821691505b602082108114156200019857620001976200019e565b5b50919050565b7f4e487b7100000000000000000000000000000000000000000000000000000000600052602260045260246000fd5b615c3e80620001dd6000396000f3fe6080604052600436106101e35760003560e01c806395d89b4111610102578063c87b56dd11610095578063de17556f11610064578063de17556f14610762578063e4c80d961461079f578063e985e9c5146107dc578063ebb3ebb314610819576101e3565b8063c87b56dd1461066e578063cf35bdd0146106ab578063d3f7e552146106e8578063d921216414610725576101e3565b8063b88d4fde116100d1578063b88d4fde146105ac578063bc881d93146105d5578063bd569ea614610612578063c517756c1461062e576101e3565b806395d89b41146104f2578063a22cb4651461051d578063aeecf5aa14610546578063b62d7e1214610583576101e3565b806341f757921161017a57806370a082311161014957806370a082311461041f578063715e59bc1461045c5780637249b932146104995780638fa9e5f2146104b5576101e3565b806341f757921461036357806342842e0e1461038e57806345634da4146103b75780636352211e146103e2576101e3565b80630f76214f116101b65780630f76214f146102b657806323b872dd146102e15780632a6b1a0b1461030a578063417baceb14610347576101e3565b806301ffc9a7146101e857806306fdde0314610225578063081812fc14610250578063095ea7b31461028d575b600080fd5b3480156101f457600080fd5b5061020f600480360381019061020a9190614110565b610856565b60405161021c9190614b52565b60405180910390f35b34801561023157600080fd5b5061023a610938565b6040516102479190614b6d565b60405180910390f35b34801561025c57600080fd5b50610277600480360381019061027291906141f9565b6109ca565b6040516102849190614a84565b60405180910390f35b34801561029957600080fd5b506102b460048036038101906102af9190614085565b610a4f565b005b3480156102c257600080fd5b506102cb610b67565b6040516102d89190614f0a565b60405180910390f35b3480156102ed57600080fd5b5061030860048036038101906103039190613f7f565b610b6f565b005b34801561031657600080fd5b50610331600480360381019061032c91906141f9565b610bcf565b60405161033e9190614f0a565b60405180910390f35b610361600480360381019061035c9190614222565b610be7565b005b34801561036f57600080fd5b50610378610fe3565b6040516103859190614f0a565b60405180910390f35b34801561039a57600080fd5b506103b560048036038101906103b09190613f7f565b610fea565b005b3480156103c357600080fd5b506103cc61100a565b6040516103d99190614f0a565b60405180910390f35b3480156103ee57600080fd5b50610409600480360381019061040491906141f9565b611011565b6040516104169190614a84565b60405180910390f35b34801561042b57600080fd5b5061044660048036038101906104419190613f1a565b6110c3565b6040516104539190614f0a565b60405180910390f35b34801561046857600080fd5b50610483600480360381019061047e91906140c1565b61117b565b6040516104909190614f0a565b60405180910390f35b6104b360048036038101906104ae9190614162565b6111b9565b005b3480156104c157600080fd5b506104dc60048036038101906104d79190614222565b6112b7565b6040516104e99190614f0a565b60405180910390f35b3480156104fe57600080fd5b506105076112ec565b6040516105149190614b6d565b60405180910390f35b34801561052957600080fd5b50610544600480360381019061053f9190614049565b61137e565b005b34801561055257600080fd5b5061056d60048036038101906105689190614222565b611394565b60405161057a9190614f0a565b60405180910390f35b34801561058f57600080fd5b506105aa60048036038101906105a5919061425e565b6113c9565b005b3480156105b857600080fd5b506105d360048036038101906105ce9190613fce565b6118bd565b005b3480156105e157600080fd5b506105fc60048036038101906105f79190614222565b61191f565b6040516106099190614b52565b60405180910390f35b61062c600480360381019061062791906142ad565b61194e565b005b34801561063a57600080fd5b5061065560048036038101906106509190614222565b611b72565b6040516106659493929190614aeb565b60405180910390f35b34801561067a57600080fd5b50610695600480360381019061069091906141f9565b611bdf565b6040516106a29190614b6d565b60405180910390f35b3480156106b757600080fd5b506106d260048036038101906106cd91906141f9565b611d31565b6040516106df9190614b6d565b60405180910390f35b3480156106f457600080fd5b5061070f600480360381019061070a9190614222565b611dd1565b60405161071c9190614eef565b60405180910390f35b34801561073157600080fd5b5061074c600480360381019061074791906141f9565b61207d565b6040516107599190614b6d565b60405180910390f35b34801561076e57600080fd5b5061078960048036038101906107849190614222565b612122565b6040516107969190614a84565b60405180910390f35b3480156107ab57600080fd5b506107c660048036038101906107c19190614310565b61234b565b6040516107d39190614b52565b60405180910390f35b3480156107e857600080fd5b5061080360048036038101906107fe9190613f43565b612592565b6040516108109190614b52565b60405180910390f35b34801561082557600080fd5b50610840600480360381019061083b91906141f9565b612626565b60405161084d9190614b30565b60405180910390f35b60007f80ac58cd000000000000000000000000000000000000000000000000000000007bffffffffffffffffffffffffffffffffffffffffffffffffffffffff1916827bffffffffffffffffffffffffffffffffffffffffffffffffffffffff1916148061092157507f5b5e139f000000000000000000000000000000000000000000000000000000007bffffffffffffffffffffffffffffffffffffffffffffffffffffffff1916827bffffffffffffffffffffffffffffffffffffffffffffffffffffffff1916145b8061093157506109308261271a565b5b9050919050565b6060600080546109479061521c565b80601f01602080910402602001604051908101604052809291908181526020018280546109739061521c565b80156109c05780601f10610995576101008083540402835291602001916109c0565b820191906000526020600020905b8154815290600101906020018083116109a357829003601f168201915b5050505050905090565b60006109d582612784565b610a14576040517f08c379a0000000000000000000000000000000000000000000000000000000008152600401610a0b90614def565b60405180910390fd5b6004600083815260200190815260200160002060009054906101000a900473ffffffffffffffffffffffffffffffffffffffff169050919050565b6000610a5a82611011565b90508073ffffffffffffffffffffffffffffffffffffffff168373ffffffffffffffffffffffffffffffffffffffff161415610acb576040517f08c379a0000000000000000000000000000000000000000000000000000000008152600401610ac290614e2f565b60405180910390fd5b8073ffffffffffffffffffffffffffffffffffffffff16610aea6127f0565b73ffffffffffffffffffffffffffffffffffffffff161480610b195750610b1881610b136127f0565b612592565b5b610b58576040517f08c379a0000000000000000000000000000000000000000000000000000000008152600401610b4f90614cef565b60405180910390fd5b610b6283836127f8565b505050565b6361cf371081565b610b80610b7a6127f0565b826128b1565b610bbf576040517f08c379a0000000000000000000000000000000000000000000000000000000008152600401610bb690614e6f565b60405180910390fd5b610bca83838361298f565b505050565b600a6020528060005260406000206000915090505481565b6000600860008481526020019081526020016000208054905011610c40576040517f08c379a0000000000000000000000000000000000000000000000000000000008152600401610c3790614c0f565b60405180910390fd5b6000610c7783610c726361cf3710610c646201518087612bf690919063ffffffff16565b612c0c90919063ffffffff16565b612122565b90503373ffffffffffffffffffffffffffffffffffffffff168173ffffffffffffffffffffffffffffffffffffffff1614610ce7576040517f08c379a0000000000000000000000000000000000000000000000000000000008152600401610cde90614e8f565b60405180910390fd5b6000600960003373ffffffffffffffffffffffffffffffffffffffff1673ffffffffffffffffffffffffffffffffffffffff1681526020019081526020016000206000858152602001908152602001600020805480602002602001604051908101604052809291908181526020018280548015610d8357602002820191906000526020600020905b815481526020019060010190808311610d6f575b505050505090506000610d968585611394565b90506000610da486866112b7565b905060005b8351811015610f385760086000888152602001908152602001600020848281518110610dfe577f4e487b7100000000000000000000000000000000000000000000000000000000600052603260045260246000fd5b602002602001015181548110610e3d577f4e487b7100000000000000000000000000000000000000000000000000000000600052603260045260246000fd5b9060005260206000209060040201600080820160006101000a81549073ffffffffffffffffffffffffffffffffffffffff021916905560018201600090556002820160009055600382016000905550506000600960003373ffffffffffffffffffffffffffffffffffffffff1673ffffffffffffffffffffffffffffffffffffffff16815260200190815260200160002060008981526020019081526020016000208281548110610f17577f4e487b7100000000000000000000000000000000000000000000000000000000600052603260045260246000fd5b90600052602060002001819055508080610f309061527f565b915050610da9565b5060008290505b818111610f96576000600b6000898152602001908152602001600020600083815260200190815260200160002060006101000a81548160ff0219169083151502179055508080610f8e9061527f565b915050610f3f565b503373ffffffffffffffffffffffffffffffffffffffff16867f15b831dc4c26e3d1ab2c96415456b08e9364dc3527a59abb5e8f90b53da85dd360405160405180910390a3505050505050565b6201518081565b611005838383604051806020016040528060008152506118bd565b505050565b624f1a0081565b6000806002600084815260200190815260200160002060009054906101000a900473ffffffffffffffffffffffffffffffffffffffff169050600073ffffffffffffffffffffffffffffffffffffffff168173ffffffffffffffffffffffffffffffffffffffff1614156110ba576040517f08c379a00000000000000000000000000000000000000000000000000000000081526004016110b190614d4f565b60405180910390fd5b80915050919050565b60008073ffffffffffffffffffffffffffffffffffffffff168273ffffffffffffffffffffffffffffffffffffffff161415611134576040517f08c379a000000000000000000000000000000000000000000000000000000000815260040161112b90614d2f565b60405180910390fd5b600360008373ffffffffffffffffffffffffffffffffffffffff1673ffffffffffffffffffffffffffffffffffffffff168152602001908152602001600020549050919050565b600960205282600052604060002060205281600052604060002081815481106111a357600080fd5b9060005260206000200160009250925050505481565b6111c36007612c22565b60006111cf6007612c38565b905060006111ff8585856040516020016111eb93929190614a05565b604051602081830303815290604052612c46565b90506000816040516020016112149190614a62565b604051602081830303815290604052905061122f3384612dd0565b6112398382612dee565b80600c60008581526020019081526020016000209080519060200190611260929190613d00565b503373ffffffffffffffffffffffffffffffffffffffff167fa0cb282b65d69a39a4d7684f44a7c15b2b3761982ad6a6d947865bfd5220c815826040516112a79190614b6d565b60405180910390a2505050505050565b6000806112c48484611dd1565b90506000816060015114156112dd5760009150506112e6565b80606001519150505b92915050565b6060600180546112fb9061521c565b80601f01602080910402602001604051908101604052809291908181526020018280546113279061521c565b80156113745780601f1061134957610100808354040283529160200191611374565b820191906000526020600020905b81548152906001019060200180831161135757829003601f168201915b5050505050905090565b6113906113896127f0565b8383612e62565b5050565b6000806113a18484611dd1565b90506000816040015114156113ba5760009150506113c3565b80606001519150505b92915050565b8181116113d557600080fd5b624f1a00611401620151806113f38585612fcf90919063ffffffff16565b612bf690919063ffffffff16565b1115611442576040517f08c379a000000000000000000000000000000000000000000000000000000000815260040161143990614d8f565b60405180910390fd5b6201518061146e620151806114608585612fcf90919063ffffffff16565b612bf690919063ffffffff16565b10156114af576040517f08c379a00000000000000000000000000000000000000000000000000000000081526004016114a690614c4f565b60405180910390fd5b60008314156114bd57600080fd5b60008214156114cb57600080fd5b60008114156114d957600080fd5b600060019050600060086000868152602001908152602001600020805480602002602001604051908101604052809291908181526020016000905b828210156115ba57838290600052602060002090600402016040518060800160405290816000820160009054906101000a900473ffffffffffffffffffffffffffffffffffffffff1673ffffffffffffffffffffffffffffffffffffffff1673ffffffffffffffffffffffffffffffffffffffff168152602001600182015481526020016002820154815260200160038201548152505081526020019060010190611514565b5050505090506000815114611618576115d58585854261234b565b915081611617576040517f08c379a000000000000000000000000000000000000000000000000000000000815260040161160e90614d0f565b60405180910390fd5b5b60006116466361cf37106116386201518088612bf690919063ffffffff16565b612c0c90919063ffffffff16565b905060006116766361cf37106116686201518088612bf690919063ffffffff16565b612c0c90919063ffffffff16565b905083156118635760008690505b8581116116db576001600b60008a8152602001908152602001600020600083815260200190815260200160002060006101000a81548160ff02191690831515021790555080806116d39061527f565b915050611684565b506008600088815260200190815260200160002060405180608001604052803373ffffffffffffffffffffffffffffffffffffffff16815260200189815260200184815260200183815250908060018154018082558091505060019003906000526020600020906004020160009091909190915060008201518160000160006101000a81548173ffffffffffffffffffffffffffffffffffffffff021916908373ffffffffffffffffffffffffffffffffffffffff1602179055506020820151816001015560408201518160020155606082015181600301555050600960003373ffffffffffffffffffffffffffffffffffffffff1673ffffffffffffffffffffffffffffffffffffffff16815260200190815260200160002060008881526020019081526020016000208351908060018154018082558091505060019003906000526020600020016000909190919091505584600a60008981526020019081526020016000205410156118625784600a6000898152602001908152602001600020819055505b5b3373ffffffffffffffffffffffffffffffffffffffff16877f477d3a4ce93f75de2f1bc0b60f68f3670ad5f3e6ad245c7e6c8ff83bb75ec87b88886040516118ac929190614f25565b60405180910390a350505050505050565b6118ce6118c86127f0565b836128b1565b61190d576040517f08c379a000000000000000000000000000000000000000000000000000000000815260040161190490614e6f565b60405180910390fd5b61191984848484612fe5565b50505050565b600b6020528160005260406000206020528060005260406000206000915091509054906101000a900460ff1681565b6000841415611992576040517f08c379a000000000000000000000000000000000000000000000000000000000815260040161198990614e4f565b60405180910390fd5b60008214156119d6576040517f08c379a00000000000000000000000000000000000000000000000000000000081526004016119cd90614eaf565b60405180910390fd5b818310611a18576040517f08c379a0000000000000000000000000000000000000000000000000000000008152600401611a0f90614c2f565b60405180910390fd5b6000611a4f85611a4a6361cf3710611a3c6201518089612bf690919063ffffffff16565b612c0c90919063ffffffff16565b611dd1565b90503373ffffffffffffffffffffffffffffffffffffffff16816000015173ffffffffffffffffffffffffffffffffffffffff1614611ac3576040517f08c379a0000000000000000000000000000000000000000000000000000000008152600401611aba90614e8f565b60405180910390fd5b8281606001511015611b0a576040517f08c379a0000000000000000000000000000000000000000000000000000000008152600401611b0190614b8f565b60405180910390fd5b6000816040015190506000826060015190506000611b4e62015180611b406361cf37108760400151612fcf90919063ffffffff16565b61304190919063ffffffff16565b9050611b5a8882610be7565b611b68888888888787613057565b5050505050505050565b60086020528160005260406000208181548110611b8e57600080fd5b9060005260206000209060040201600091509150508060000160009054906101000a900473ffffffffffffffffffffffffffffffffffffffff16908060010154908060020154908060030154905084565b6060611bea82612784565b611c29576040517f08c379a0000000000000000000000000000000000000000000000000000000008152600401611c2090614dcf565b60405180910390fd5b6000600660008481526020019081526020016000208054611c499061521c565b80601f0160208091040260200160405190810160405280929190818152602001828054611c759061521c565b8015611cc25780601f10611c9757610100808354040283529160200191611cc2565b820191906000526020600020905b815481529060010190602001808311611ca557829003601f168201915b505050505090506000611cd36135d7565b9050600081511415611ce9578192505050611d2c565b600082511115611d1e578082604051602001611d069291906149e1565b60405160208183030381529060405292505050611d2c565b611d27846135ee565b925050505b919050565b600c6020528060005260406000206000915090508054611d509061521c565b80601f0160208091040260200160405190810160405280929190818152602001828054611d7c9061521c565b8015611dc95780601f10611d9e57610100808354040283529160200191611dc9565b820191906000526020600020905b815481529060010190602001808311611dac57829003601f168201915b505050505081565b611dd9613d86565b6000831415611de757600080fd5b6000821415611df557600080fd5b600060086000858152602001908152602001600020805480602002602001604051908101604052809291908181526020016000905b82821015611ed057838290600052602060002090600402016040518060800160405290816000820160009054906101000a900473ffffffffffffffffffffffffffffffffffffffff1673ffffffffffffffffffffffffffffffffffffffff1673ffffffffffffffffffffffffffffffffffffffff168152602001600182015481526020016002820154815260200160038201548152505081526020019060010190611e2a565b505050509050600081511415611f2a5780600081518110611f1a577f4e487b7100000000000000000000000000000000000000000000000000000000600052603260045260246000fd5b6020026020010151915050612077565b60005b81518110156120305783828281518110611f70577f4e487b7100000000000000000000000000000000000000000000000000000000600052603260045260246000fd5b60200260200101516040015111158015611fce5750818181518110611fbe577f4e487b7100000000000000000000000000000000000000000000000000000000600052603260045260246000fd5b6020026020010151606001518411155b1561201d5781818151811061200c577f4e487b7100000000000000000000000000000000000000000000000000000000600052603260045260246000fd5b602002602001015192505050612077565b80806120289061527f565b915050611f2d565b508060008151811061206b577f4e487b7100000000000000000000000000000000000000000000000000000000600052603260045260246000fd5b60200260200101519150505b92915050565b6060600c6000838152602001908152602001600020805461209d9061521c565b80601f01602080910402602001604051908101604052809291908181526020018280546120c99061521c565b80156121165780601f106120eb57610100808354040283529160200191612116565b820191906000526020600020905b8154815290600101906020018083116120f957829003601f168201915b50505050509050919050565b60008083141561213157600080fd5b600082141561213f57600080fd5b600060086000858152602001908152602001600020805480602002602001604051908101604052809291908181526020016000905b8282101561221a57838290600052602060002090600402016040518060800160405290816000820160009054906101000a900473ffffffffffffffffffffffffffffffffffffffff1673ffffffffffffffffffffffffffffffffffffffff1673ffffffffffffffffffffffffffffffffffffffff168152602001600182015481526020016002820154815260200160038201548152505081526020019060010190612174565b505050509050600081511415612234576000915050612345565b60005b815181101561233e578382828151811061227a577f4e487b7100000000000000000000000000000000000000000000000000000000600052603260045260246000fd5b602002602001015160400151111580156122d857508181815181106122c8577f4e487b7100000000000000000000000000000000000000000000000000000000600052603260045260246000fd5b6020026020010151606001518411155b1561232b57818181518110612316577f4e487b7100000000000000000000000000000000000000000000000000000000600052603260045260246000fd5b60200260200101516000015192505050612345565b80806123369061527f565b915050612237565b5060009150505b92915050565b600080821415612359574291505b83831161236557600080fd5b624f1a00612391620151806123838787612fcf90919063ffffffff16565b612bf690919063ffffffff16565b11156123d2576040517f08c379a00000000000000000000000000000000000000000000000000000000081526004016123c990614d8f565b60405180910390fd5b620151806123fe620151806123f08787612fcf90919063ffffffff16565b612bf690919063ffffffff16565b101561243f576040517f08c379a000000000000000000000000000000000000000000000000000000000815260040161243690614c4f565b60405180910390fd5b600061246d6201518061245f6361cf371086612fcf90919063ffffffff16565b61304190919063ffffffff16565b9050848410156124b2576040517f08c379a00000000000000000000000000000000000000000000000000000000081526004016124a990614ccf565b60405180910390fd5b808510156124f5576040517f08c379a00000000000000000000000000000000000000000000000000000000081526004016124ec90614ecf565b60405180910390fd5b600a60008781526020019081526020016000205485111561251a57600191505061258a565b60008590505b8481116125835760011515600b6000898152602001908152602001600020600083815260200190815260200160002060009054906101000a900460ff16151514156125705760009250505061258a565b808061257b9061527f565b915050612520565b5060019150505b949350505050565b6000600560008473ffffffffffffffffffffffffffffffffffffffff1673ffffffffffffffffffffffffffffffffffffffff16815260200190815260200160002060008373ffffffffffffffffffffffffffffffffffffffff1673ffffffffffffffffffffffffffffffffffffffff16815260200190815260200160002060009054906101000a900460ff16905092915050565b6060600082141561263657600080fd5b60086000838152602001908152602001600020805480602002602001604051908101604052809291908181526020016000905b8282101561270f57838290600052602060002090600402016040518060800160405290816000820160009054906101000a900473ffffffffffffffffffffffffffffffffffffffff1673ffffffffffffffffffffffffffffffffffffffff1673ffffffffffffffffffffffffffffffffffffffff168152602001600182015481526020016002820154815260200160038201548152505081526020019060010190612669565b505050509050919050565b60007f01ffc9a7000000000000000000000000000000000000000000000000000000007bffffffffffffffffffffffffffffffffffffffffffffffffffffffff1916827bffffffffffffffffffffffffffffffffffffffffffffffffffffffff1916149050919050565b60008073ffffffffffffffffffffffffffffffffffffffff166002600084815260200190815260200160002060009054906101000a900473ffffffffffffffffffffffffffffffffffffffff1673ffffffffffffffffffffffffffffffffffffffff1614159050919050565b600033905090565b816004600083815260200190815260200160002060006101000a81548173ffffffffffffffffffffffffffffffffffffffff021916908373ffffffffffffffffffffffffffffffffffffffff160217905550808273ffffffffffffffffffffffffffffffffffffffff1661286b83611011565b73ffffffffffffffffffffffffffffffffffffffff167f8c5be1e5ebec7d5bd14f71427d1e84f3dd0314c0f7b2291e5b200ac8c7c3b92560405160405180910390a45050565b60006128bc82612784565b6128fb576040517f08c379a00000000000000000000000000000000000000000000000000000000081526004016128f290614caf565b60405180910390fd5b600061290683611011565b90508073ffffffffffffffffffffffffffffffffffffffff168473ffffffffffffffffffffffffffffffffffffffff16148061297557508373ffffffffffffffffffffffffffffffffffffffff1661295d846109ca565b73ffffffffffffffffffffffffffffffffffffffff16145b8061298657506129858185612592565b5b91505092915050565b8273ffffffffffffffffffffffffffffffffffffffff166129af82611011565b73ffffffffffffffffffffffffffffffffffffffff1614612a05576040517f08c379a00000000000000000000000000000000000000000000000000000000081526004016129fc90614bcf565b60405180910390fd5b600073ffffffffffffffffffffffffffffffffffffffff168273ffffffffffffffffffffffffffffffffffffffff161415612a75576040517f08c379a0000000000000000000000000000000000000000000000000000000008152600401612a6c90614c6f565b60405180910390fd5b612a80838383613695565b612a8b6000826127f8565b6001600360008573ffffffffffffffffffffffffffffffffffffffff1673ffffffffffffffffffffffffffffffffffffffff1681526020019081526020016000206000828254612adb9190615132565b925050819055506001600360008473ffffffffffffffffffffffffffffffffffffffff1673ffffffffffffffffffffffffffffffffffffffff1681526020019081526020016000206000828254612b329190615051565b92505081905550816002600083815260200190815260200160002060006101000a81548173ffffffffffffffffffffffffffffffffffffffff021916908373ffffffffffffffffffffffffffffffffffffffff160217905550808273ffffffffffffffffffffffffffffffffffffffff168473ffffffffffffffffffffffffffffffffffffffff167fddf252ad1be2c89b69c2b068fc378daa952ba7f163c4a11628f55a4df523b3ef60405160405180910390a4612bf183838361369a565b505050565b60008183612c0491906150d8565b905092915050565b60008183612c1a9190615051565b905092915050565b6001816000016000828254019250508190555050565b600081600001549050919050565b6060600082511415612c6957604051806020016040528060008152509050612dcb565b6000604051806060016040528060408152602001615bc96040913990506000600360028551612c989190615051565b612ca291906150a7565b6004612cae91906150d8565b67ffffffffffffffff811115612ced577f4e487b7100000000000000000000000000000000000000000000000000000000600052604160045260246000fd5b6040519080825280601f01601f191660200182016040528015612d1f5781602001600182028036833780820191505090505b509050600182016020820185865187015b80821015612d8b576003820191508151603f8160121c168501518453600184019350603f81600c1c168501518453600184019350603f8160061c168501518453600184019350603f8116850151845360018401935050612d30565b5050600386510660018114612da75760028114612dba57612dc2565b603d6001830353603d6002830353612dc2565b603d60018303535b50505080925050505b919050565b612dea82826040518060200160405280600081525061369f565b5050565b612df782612784565b612e36576040517f08c379a0000000000000000000000000000000000000000000000000000000008152600401612e2d90614d6f565b60405180910390fd5b80600660008481526020019081526020016000209080519060200190612e5d929190613d00565b505050565b8173ffffffffffffffffffffffffffffffffffffffff168373ffffffffffffffffffffffffffffffffffffffff161415612ed1576040517f08c379a0000000000000000000000000000000000000000000000000000000008152600401612ec890614c8f565b60405180910390fd5b80600560008573ffffffffffffffffffffffffffffffffffffffff1673ffffffffffffffffffffffffffffffffffffffff16815260200190815260200160002060008473ffffffffffffffffffffffffffffffffffffffff1673ffffffffffffffffffffffffffffffffffffffff16815260200190815260200160002060006101000a81548160ff0219169083151502179055508173ffffffffffffffffffffffffffffffffffffffff168373ffffffffffffffffffffffffffffffffffffffff167f17307eab39ab6107e8899845ad3d59bd9653f200f220920489ca2b5937696c3183604051612fc29190614b52565b60405180910390a3505050565b60008183612fdd9190615132565b905092915050565b612ff084848461298f565b612ffc848484846136fa565b61303b576040517f08c379a000000000000000000000000000000000000000000000000000000000815260040161303290614baf565b60405180910390fd5b50505050565b6000818361304f91906150a7565b905092915050565b84841161306357600080fd5b624f1a0061308f620151806130818888612fcf90919063ffffffff16565b612bf690919063ffffffff16565b11156130d0576040517f08c379a00000000000000000000000000000000000000000000000000000000081526004016130c790614d8f565b60405180910390fd5b620151806130fc620151806130ee8888612fcf90919063ffffffff16565b612bf690919063ffffffff16565b101561313d576040517f08c379a000000000000000000000000000000000000000000000000000000000815260040161313490614c4f565b60405180910390fd5b600086141561314b57600080fd5b600085141561315957600080fd5b600084141561316757600080fd5b600060019050600060086000898152602001908152602001600020805480602002602001604051908101604052809291908181526020016000905b8282101561324857838290600052602060002090600402016040518060800160405290816000820160009054906101000a900473ffffffffffffffffffffffffffffffffffffffff1673ffffffffffffffffffffffffffffffffffffffff1673ffffffffffffffffffffffffffffffffffffffff1681526020016001820154815260200160028201548152602001600382015481525050815260200190600101906131a2565b5050505090506000815114613266576132638888884261234b565b91505b60006132946361cf3710613286620151808b612bf690919063ffffffff16565b612c0c90919063ffffffff16565b905060006132c46361cf37106132b6620151808b612bf690919063ffffffff16565b612c0c90919063ffffffff16565b905060006132f4620151806132e66361cf37108a612fcf90919063ffffffff16565b61304190919063ffffffff16565b90506000613324620151806133166361cf37108a612fcf90919063ffffffff16565b61304190919063ffffffff16565b905085156135c95760008b90505b8a8111613389576001600b60008f8152602001908152602001600020600083815260200190815260200160002060006101000a81548160ff02191690831515021790555080806133819061527f565b915050613332565b50600860008d815260200190815260200160002060405180608001604052808b73ffffffffffffffffffffffffffffffffffffffff1681526020018e815260200186815260200185815250908060018154018082558091505060019003906000526020600020906004020160009091909190915060008201518160000160006101000a81548173ffffffffffffffffffffffffffffffffffffffff021916908373ffffffffffffffffffffffffffffffffffffffff1602179055506020820151816001015560408201518160020155606082015181600301555050600960008a73ffffffffffffffffffffffffffffffffffffffff1673ffffffffffffffffffffffffffffffffffffffff16815260200190815260200160002060008d81526020019081526020016000208551908060018154018082558091505060019003906000526020600020016000909190919091505560006134f260018d612fcf90919063ffffffff16565b9050600061350a60018d612c0c90919063ffffffff16565b90506000818461351a9190615132565b1180156135325750600084836135309190615132565b145b15613543576135428e82856113c9565b5b600081846135519190615132565b1480156135695750600084836135679190615132565b115b15613584576135788483613891565b6135838e85846113c9565b5b600081846135929190615132565b1180156135aa5750600084836135a89190615132565b115b156135c6576135ba8e85846113c9565b6135c58e82856113c9565b5b50505b505050505050505050505050565b606060405180602001604052806000815250905090565b60606135f982612784565b613638576040517f08c379a000000000000000000000000000000000000000000000000000000000815260040161362f90614e0f565b60405180910390fd5b60006136426135d7565b90506000815111613662576040518060200160405280600081525061368d565b8061366c8461392d565b60405160200161367d9291906149e1565b6040516020818303038152906040525b915050919050565b505050565b505050565b6136a98383613ada565b6136b660008484846136fa565b6136f5576040517f08c379a00000000000000000000000000000000000000000000000000000000081526004016136ec90614baf565b60405180910390fd5b505050565b600061371b8473ffffffffffffffffffffffffffffffffffffffff16613cb4565b15613884578373ffffffffffffffffffffffffffffffffffffffff1663150b7a026137446127f0565b8786866040518563ffffffff1660e01b81526004016137669493929190614a9f565b602060405180830381600087803b15801561378057600080fd5b505af19250505080156137b157506040513d601f19601f820116820180604052508101906137ae9190614139565b60015b613834573d80600081146137e1576040519150601f19603f3d011682016040523d82523d6000602084013e6137e6565b606091505b5060008151141561382c576040517f08c379a000000000000000000000000000000000000000000000000000000000815260040161382390614baf565b60405180910390fd5b805181602001fd5b63150b7a0260e01b7bffffffffffffffffffffffffffffffffffffffffffffffffffffffff1916817bffffffffffffffffffffffffffffffffffffffffffffffffffffffff191614915050613889565b600190505b949350505050565b61392982826040516024016138a7929190614f25565b6040516020818303038152906040527f6c0f6980000000000000000000000000000000000000000000000000000000007bffffffffffffffffffffffffffffffffffffffffffffffffffffffff19166020820180517bffffffffffffffffffffffffffffffffffffffffffffffffffffffff8381831617835250505050613cd7565b5050565b60606000821415613975576040518060400160405280600181526020017f30000000000000000000000000000000000000000000000000000000000000008152509050613ad5565b600082905060005b600082146139a75780806139909061527f565b915050600a826139a091906150a7565b915061397d565b60008167ffffffffffffffff8111156139e9577f4e487b7100000000000000000000000000000000000000000000000000000000600052604160045260246000fd5b6040519080825280601f01601f191660200182016040528015613a1b5781602001600182028036833780820191505090505b5090505b60008514613ace57600182613a349190615132565b9150600a85613a4391906152c8565b6030613a4f9190615051565b60f81b818381518110613a8b577f4e487b7100000000000000000000000000000000000000000000000000000000600052603260045260246000fd5b60200101907effffffffffffffffffffffffffffffffffffffffffffffffffffffffffffff1916908160001a905350600a85613ac791906150a7565b9450613a1f565b8093505050505b919050565b600073ffffffffffffffffffffffffffffffffffffffff168273ffffffffffffffffffffffffffffffffffffffff161415613b4a576040517f08c379a0000000000000000000000000000000000000000000000000000000008152600401613b4190614daf565b60405180910390fd5b613b5381612784565b15613b93576040517f08c379a0000000000000000000000000000000000000000000000000000000008152600401613b8a90614bef565b60405180910390fd5b613b9f60008383613695565b6001600360008473ffffffffffffffffffffffffffffffffffffffff1673ffffffffffffffffffffffffffffffffffffffff1681526020019081526020016000206000828254613bef9190615051565b92505081905550816002600083815260200190815260200160002060006101000a81548173ffffffffffffffffffffffffffffffffffffffff021916908373ffffffffffffffffffffffffffffffffffffffff160217905550808273ffffffffffffffffffffffffffffffffffffffff16600073ffffffffffffffffffffffffffffffffffffffff167fddf252ad1be2c89b69c2b068fc378daa952ba7f163c4a11628f55a4df523b3ef60405160405180910390a4613cb06000838361369a565b5050565b6000808273ffffffffffffffffffffffffffffffffffffffff163b119050919050565b60008151905060006a636f6e736f6c652e6c6f679050602083016000808483855afa5050505050565b828054613d0c9061521c565b90600052602060002090601f016020900481019282613d2e5760008555613d75565b82601f10613d4757805160ff1916838001178555613d75565b82800160010185558215613d75579182015b82811115613d74578251825591602001919060010190613d59565b5b509050613d829190613dc4565b5090565b6040518060800160405280600073ffffffffffffffffffffffffffffffffffffffff1681526020016000815260200160008152602001600081525090565b5b80821115613ddd576000816000905550600101613dc5565b5090565b6000613df4613def84614f73565b614f4e565b905082815260208101848484011115613e0c57600080fd5b613e178482856151da565b509392505050565b6000613e32613e2d84614fa4565b614f4e565b905082815260208101848484011115613e4a57600080fd5b613e558482856151da565b509392505050565b600081359050613e6c81615b6c565b92915050565b600081359050613e8181615b83565b92915050565b600081359050613e9681615b9a565b92915050565b600081519050613eab81615b9a565b92915050565b600082601f830112613ec257600080fd5b8135613ed2848260208601613de1565b91505092915050565b600082601f830112613eec57600080fd5b8135613efc848260208601613e1f565b91505092915050565b600081359050613f1481615bb1565b92915050565b600060208284031215613f2c57600080fd5b6000613f3a84828501613e5d565b91505092915050565b60008060408385031215613f5657600080fd5b6000613f6485828601613e5d565b9250506020613f7585828601613e5d565b9150509250929050565b600080600060608486031215613f9457600080fd5b6000613fa286828701613e5d565b9350506020613fb386828701613e5d565b9250506040613fc486828701613f05565b9150509250925092565b60008060008060808587031215613fe457600080fd5b6000613ff287828801613e5d565b945050602061400387828801613e5d565b935050604061401487828801613f05565b925050606085013567ffffffffffffffff81111561403157600080fd5b61403d87828801613eb1565b91505092959194509250565b6000806040838503121561405c57600080fd5b600061406a85828601613e5d565b925050602061407b85828601613e72565b9150509250929050565b6000806040838503121561409857600080fd5b60006140a685828601613e5d565b92505060206140b785828601613f05565b9150509250929050565b6000806000606084860312156140d657600080fd5b60006140e486828701613e5d565b93505060206140f586828701613f05565b925050604061410686828701613f05565b9150509250925092565b60006020828403121561412257600080fd5b600061413084828501613e87565b91505092915050565b60006020828403121561414b57600080fd5b600061415984828501613e9c565b91505092915050565b60008060006060848603121561417757600080fd5b600084013567ffffffffffffffff81111561419157600080fd5b61419d86828701613edb565b935050602084013567ffffffffffffffff8111156141ba57600080fd5b6141c686828701613edb565b925050604084013567ffffffffffffffff8111156141e357600080fd5b6141ef86828701613edb565b9150509250925092565b60006020828403121561420b57600080fd5b600061421984828501613f05565b91505092915050565b6000806040838503121561423557600080fd5b600061424385828601613f05565b925050602061425485828601613f05565b9150509250929050565b60008060006060848603121561427357600080fd5b600061428186828701613f05565b935050602061429286828701613f05565b92505060406142a386828701613f05565b9150509250925092565b600080600080608085870312156142c357600080fd5b60006142d187828801613f05565b94505060206142e287828801613f05565b93505060406142f387828801613f05565b925050606061430487828801613e5d565b91505092959194509250565b6000806000806080858703121561432657600080fd5b600061433487828801613f05565b945050602061434587828801613f05565b935050604061435687828801613f05565b925050606061436787828801613f05565b91505092959194509250565b600061437f8383614919565b60808301905092915050565b61439481615166565b82525050565b6143a381615166565b82525050565b60006143b482614fe5565b6143be8185615013565b93506143c983614fd5565b8060005b838110156143fa5781516143e18882614373565b97506143ec83615006565b9250506001810190506143cd565b5085935050505092915050565b61441081615178565b82525050565b600061442182614ff0565b61442b8185615024565b935061443b8185602086016151e9565b614444816153b5565b840191505092915050565b600061445a82614ffb565b6144648185615035565b93506144748185602086016151e9565b61447d816153b5565b840191505092915050565b600061449382614ffb565b61449d8185615046565b93506144ad8185602086016151e9565b80840191505092915050565b60006144c6602383615035565b91506144d1826153c6565b604082019050919050565b60006144e9601383615046565b91506144f482615415565b601382019050919050565b600061450c603283615035565b91506145178261543e565b604082019050919050565b600061452f602583615035565b915061453a8261548d565b604082019050919050565b6000614552601c83615035565b915061455d826154dc565b602082019050919050565b6000614575601d83615035565b915061458082615505565b602082019050919050565b6000614598602283615035565b91506145a38261552e565b604082019050919050565b60006145bb601b83615035565b91506145c68261557d565b602082019050919050565b60006145de602483615035565b91506145e9826155a6565b604082019050919050565b6000614601601983615035565b915061460c826155f5565b602082019050919050565b6000614624602c83615035565b915061462f8261561e565b604082019050919050565b6000614647602383615035565b91506146528261566d565b604082019050919050565b600061466a603883615035565b9150614675826156bc565b604082019050919050565b600061468d601383615035565b91506146988261570b565b602082019050919050565b60006146b0602a83615035565b91506146bb82615734565b604082019050919050565b60006146d3602983615035565b91506146de82615783565b604082019050919050565b60006146f6602e83615035565b9150614701826157d2565b604082019050919050565b6000614719601a83615035565b915061472482615821565b602082019050919050565b600061473c600283615046565b91506147478261584a565b600282019050919050565b600061475f602083615035565b915061476a82615873565b602082019050919050565b6000614782600d83615046565b915061478d8261589c565b600d82019050919050565b60006147a5603183615035565b91506147b0826158c5565b604082019050919050565b60006147c8602c83615035565b91506147d382615914565b604082019050919050565b60006147eb602f83615035565b91506147f682615963565b604082019050919050565b600061480e600a83615046565b9150614819826159b2565b600a82019050919050565b6000614831602183615035565b915061483c826159db565b604082019050919050565b6000614854601d83615046565b915061485f82615a2a565b601d82019050919050565b6000614877601783615035565b915061488282615a53565b602082019050919050565b600061489a603183615035565b91506148a582615a7c565b604082019050919050565b60006148bd602a83615035565b91506148c882615acb565b604082019050919050565b60006148e0601783615035565b91506148eb82615b1a565b602082019050919050565b6000614903602083615035565b915061490e82615b43565b602082019050919050565b60808201600082015161492f600085018261438b565b50602082015161494260208501826149c3565b50604082015161495560408501826149c3565b50606082015161496860608501826149c3565b50505050565b608082016000820151614984600085018261438b565b50602082015161499760208501826149c3565b5060408201516149aa60408501826149c3565b5060608201516149bd60608501826149c3565b50505050565b6149cc816151d0565b82525050565b6149db816151d0565b82525050565b60006149ed8285614488565b91506149f98284614488565b91508190509392505050565b6000614a1082614801565b9150614a1c8286614488565b9150614a27826144dc565b9150614a338285614488565b9150614a3e82614775565b9150614a4a8284614488565b9150614a558261472f565b9150819050949350505050565b6000614a6d82614847565b9150614a798284614488565b915081905092915050565b6000602082019050614a99600083018461439a565b92915050565b6000608082019050614ab4600083018761439a565b614ac1602083018661439a565b614ace60408301856149d2565b8181036060830152614ae08184614416565b905095945050505050565b6000608082019050614b00600083018761439a565b614b0d60208301866149d2565b614b1a60408301856149d2565b614b2760608301846149d2565b95945050505050565b60006020820190508181036000830152614b4a81846143a9565b905092915050565b6000602082019050614b676000830184614407565b92915050565b60006020820190508181036000830152614b87818461444f565b905092915050565b60006020820190508181036000830152614ba8816144b9565b9050919050565b60006020820190508181036000830152614bc8816144ff565b9050919050565b60006020820190508181036000830152614be881614522565b9050919050565b60006020820190508181036000830152614c0881614545565b9050919050565b60006020820190508181036000830152614c2881614568565b9050919050565b60006020820190508181036000830152614c488161458b565b9050919050565b60006020820190508181036000830152614c68816145ae565b9050919050565b60006020820190508181036000830152614c88816145d1565b9050919050565b60006020820190508181036000830152614ca8816145f4565b9050919050565b60006020820190508181036000830152614cc881614617565b9050919050565b60006020820190508181036000830152614ce88161463a565b9050919050565b60006020820190508181036000830152614d088161465d565b9050919050565b60006020820190508181036000830152614d2881614680565b9050919050565b60006020820190508181036000830152614d48816146a3565b9050919050565b60006020820190508181036000830152614d68816146c6565b9050919050565b60006020820190508181036000830152614d88816146e9565b9050919050565b60006020820190508181036000830152614da88161470c565b9050919050565b60006020820190508181036000830152614dc881614752565b9050919050565b60006020820190508181036000830152614de881614798565b9050919050565b60006020820190508181036000830152614e08816147bb565b9050919050565b60006020820190508181036000830152614e28816147de565b9050919050565b60006020820190508181036000830152614e4881614824565b9050919050565b60006020820190508181036000830152614e688161486a565b9050919050565b60006020820190508181036000830152614e888161488d565b9050919050565b60006020820190508181036000830152614ea8816148b0565b9050919050565b60006020820190508181036000830152614ec8816148d3565b9050919050565b60006020820190508181036000830152614ee8816148f6565b9050919050565b6000608082019050614f04600083018461496e565b92915050565b6000602082019050614f1f60008301846149d2565b92915050565b6000604082019050614f3a60008301856149d2565b614f4760208301846149d2565b9392505050565b6000614f58614f69565b9050614f64828261524e565b919050565b6000604051905090565b600067ffffffffffffffff821115614f8e57614f8d615386565b5b614f97826153b5565b9050602081019050919050565b600067ffffffffffffffff821115614fbf57614fbe615386565b5b614fc8826153b5565b9050602081019050919050565b6000819050602082019050919050565b600081519050919050565b600081519050919050565b600081519050919050565b6000602082019050919050565b600082825260208201905092915050565b600082825260208201905092915050565b600082825260208201905092915050565b600081905092915050565b600061505c826151d0565b9150615067836151d0565b9250827fffffffffffffffffffffffffffffffffffffffffffffffffffffffffffffffff0382111561509c5761509b6152f9565b5b828201905092915050565b60006150b2826151d0565b91506150bd836151d0565b9250826150cd576150cc615328565b5b828204905092915050565b60006150e3826151d0565b91506150ee836151d0565b9250817fffffffffffffffffffffffffffffffffffffffffffffffffffffffffffffffff0483118215151615615127576151266152f9565b5b828202905092915050565b600061513d826151d0565b9150615148836151d0565b92508282101561515b5761515a6152f9565b5b828203905092915050565b6000615171826151b0565b9050919050565b60008115159050919050565b60007fffffffff0000000000000000000000000000000000000000000000000000000082169050919050565b600073ffffffffffffffffffffffffffffffffffffffff82169050919050565b6000819050919050565b82818337600083830152505050565b60005b838110156152075780820151818401526020810190506151ec565b83811115615216576000848401525b50505050565b6000600282049050600182168061523457607f821691505b6020821081141561524857615247615357565b5b50919050565b615257826153b5565b810181811067ffffffffffffffff8211171561527657615275615386565b5b80604052505050565b600061528a826151d0565b91507fffffffffffffffffffffffffffffffffffffffffffffffffffffffffffffffff8214156152bd576152bc6152f9565b5b600182019050919050565b60006152d3826151d0565b91506152de836151d0565b9250826152ee576152ed615328565b5b828206905092915050565b7f4e487b7100000000000000000000000000000000000000000000000000000000600052601160045260246000fd5b7f4e487b7100000000000000000000000000000000000000000000000000000000600052601260045260246000fd5b7f4e487b7100000000000000000000000000000000000000000000000000000000600052602260045260246000fd5b7f4e487b7100000000000000000000000000000000000000000000000000000000600052604160045260246000fd5b6000601f19601f8301169050919050565b7f4c657373656520646f6573206e6f74206c65617365207061737420656e64206460008201527f6174650000000000000000000000000000000000000000000000000000000000602082015250565b7f222c20226465736372697074696f6e223a202200000000000000000000000000600082015250565b7f4552433732313a207472616e7366657220746f206e6f6e20455243373231526560008201527f63656976657220696d706c656d656e7465720000000000000000000000000000602082015250565b7f4552433732313a207472616e736665722066726f6d20696e636f72726563742060008201527f6f776e6572000000000000000000000000000000000000000000000000000000602082015250565b7f4552433732313a20746f6b656e20616c7265616479206d696e74656400000000600082015250565b7f4e6f207465726d7320657869737420666f722074686973206c65617365000000600082015250565b7f53746172742064617465206d757374206265206265666f726520656e6420646160008201527f7465000000000000000000000000000000000000000000000000000000000000602082015250565b7f4c65617365206475726174696f6e20697320746f6f2073686f72740000000000600082015250565b7f4552433732313a207472616e7366657220746f20746865207a65726f2061646460008201527f7265737300000000000000000000000000000000000000000000000000000000602082015250565b7f4552433732313a20617070726f766520746f2063616c6c657200000000000000600082015250565b7f4552433732313a206f70657261746f7220717565727920666f72206e6f6e657860008201527f697374656e7420746f6b656e0000000000000000000000000000000000000000602082015250565b7f456e6420646174652073686f756c64206265206c61746572207468616e20737460008201527f6172740000000000000000000000000000000000000000000000000000000000602082015250565b7f4552433732313a20617070726f76652063616c6c6572206973206e6f74206f7760008201527f6e6572206e6f7220617070726f76656420666f7220616c6c0000000000000000602082015250565b7f4c65617365206e6f7420617661696c61626c6500000000000000000000000000600082015250565b7f4552433732313a2062616c616e636520717565727920666f7220746865207a6560008201527f726f206164647265737300000000000000000000000000000000000000000000602082015250565b7f4552433732313a206f776e657220717565727920666f72206e6f6e657869737460008201527f656e7420746f6b656e0000000000000000000000000000000000000000000000602082015250565b7f45524337323155524953746f726167653a2055524920736574206f66206e6f6e60008201527f6578697374656e7420746f6b656e000000000000000000000000000000000000602082015250565b7f4c65617365206475726174696f6e20697320746f6f206c6f6e67000000000000600082015250565b7f227d000000000000000000000000000000000000000000000000000000000000600082015250565b7f4552433732313a206d696e7420746f20746865207a65726f2061646472657373600082015250565b7f222c2022696d616765223a202200000000000000000000000000000000000000600082015250565b7f45524337323155524953746f726167653a2055524920717565727920666f722060008201527f6e6f6e6578697374656e7420746f6b656e000000000000000000000000000000602082015250565b7f4552433732313a20617070726f76656420717565727920666f72206e6f6e657860008201527f697374656e7420746f6b656e0000000000000000000000000000000000000000602082015250565b7f4552433732314d657461646174613a2055524920717565727920666f72206e6f60008201527f6e6578697374656e7420746f6b656e0000000000000000000000000000000000602082015250565b7f7b226e616d65223a202200000000000000000000000000000000000000000000600082015250565b7f4552433732313a20617070726f76616c20746f2063757272656e74206f776e6560008201527f7200000000000000000000000000000000000000000000000000000000000000602082015250565b7f646174613a6170706c69636174696f6e2f6a736f6e3b6261736536342c000000600082015250565b7f546f6b656e2049442063616e6e6f74206265207a65726f000000000000000000600082015250565b7f4552433732313a207472616e736665722063616c6c6572206973206e6f74206f60008201527f776e6572206e6f7220617070726f766564000000000000000000000000000000602082015250565b7f4164647265737320646f6573206e6f7420686176652072696768747320746f2060008201527f74686973206c6561736500000000000000000000000000000000000000000000602082015250565b7f456e6420646174652063616e6e6f74206265207a65726f000000000000000000600082015250565b7f537461727420646174652063616e6e6f7420626520696e207468652070617374600082015250565b615b7581615166565b8114615b8057600080fd5b50565b615b8c81615178565b8114615b9757600080fd5b50565b615ba381615184565b8114615bae57600080fd5b50565b615bba816151d0565b8114615bc557600080fd5b5056fe4142434445464748494a4b4c4d4e4f505152535455565758595a6162636465666768696a6b6c6d6e6f707172737475767778797a303132333435363738392b2fa26469706673582212205e9990807d330e0afcb75a8cb6c9a82ea320ffd6e812844f5b7548a73b7c04d564736f6c63430008010033",
  "linkReferences": {},
  "deployedLinkReferences": {}
}